{
  "_format": "hh-sol-artifact-1",
  "contractName": "FactoringContract",
  "sourceName": "contracts/FactoringContract.sol",
  "abi": [
    {
      "inputs": [
        {
          "internalType": "address",
          "name": "_usdc",
          "type": "address"
        },
        {
          "internalType": "address",
          "name": "_usdt",
          "type": "address"
        }
      ],
      "stateMutability": "nonpayable",
      "type": "constructor"
    },
    {
      "inputs": [
        {
          "internalType": "address",
          "name": "sender",
          "type": "address"
        },
        {
          "internalType": "uint256",
          "name": "tokenId",
          "type": "uint256"
        },
        {
          "internalType": "address",
          "name": "owner",
          "type": "address"
        }
      ],
      "name": "ERC721IncorrectOwner",
      "type": "error"
    },
    {
      "inputs": [
        {
          "internalType": "address",
          "name": "operator",
          "type": "address"
        },
        {
          "internalType": "uint256",
          "name": "tokenId",
          "type": "uint256"
        }
      ],
      "name": "ERC721InsufficientApproval",
      "type": "error"
    },
    {
      "inputs": [
        {
          "internalType": "address",
          "name": "approver",
          "type": "address"
        }
      ],
      "name": "ERC721InvalidApprover",
      "type": "error"
    },
    {
      "inputs": [
        {
          "internalType": "address",
          "name": "operator",
          "type": "address"
        }
      ],
      "name": "ERC721InvalidOperator",
      "type": "error"
    },
    {
      "inputs": [
        {
          "internalType": "address",
          "name": "owner",
          "type": "address"
        }
      ],
      "name": "ERC721InvalidOwner",
      "type": "error"
    },
    {
      "inputs": [
        {
          "internalType": "address",
          "name": "receiver",
          "type": "address"
        }
      ],
      "name": "ERC721InvalidReceiver",
      "type": "error"
    },
    {
      "inputs": [
        {
          "internalType": "address",
          "name": "sender",
          "type": "address"
        }
      ],
      "name": "ERC721InvalidSender",
      "type": "error"
    },
    {
      "inputs": [
        {
          "internalType": "uint256",
          "name": "tokenId",
          "type": "uint256"
        }
      ],
      "name": "ERC721NonexistentToken",
      "type": "error"
    },
    {
      "inputs": [],
      "name": "EnforcedPause",
      "type": "error"
    },
    {
      "inputs": [],
      "name": "ExpectedPause",
      "type": "error"
    },
    {
      "inputs": [],
      "name": "InvalidArrayLength",
      "type": "error"
    },
    {
      "inputs": [],
      "name": "ReentrancyGuardReentrantCall",
      "type": "error"
    },
    {
      "inputs": [
        {
          "internalType": "address",
          "name": "token",
          "type": "address"
        }
      ],
      "name": "SafeERC20FailedOperation",
      "type": "error"
    },
    {
      "inputs": [],
      "name": "Unauthorized",
      "type": "error"
    },
    {
      "anonymous": false,
      "inputs": [
        {
          "indexed": true,
          "internalType": "address",
          "name": "owner",
          "type": "address"
        },
        {
          "indexed": true,
          "internalType": "address",
          "name": "approved",
          "type": "address"
        },
        {
          "indexed": true,
          "internalType": "uint256",
          "name": "tokenId",
          "type": "uint256"
        }
      ],
      "name": "Approval",
      "type": "event"
    },
    {
      "anonymous": false,
      "inputs": [
        {
          "indexed": true,
          "internalType": "address",
          "name": "owner",
          "type": "address"
        },
        {
          "indexed": true,
          "internalType": "address",
          "name": "operator",
          "type": "address"
        },
        {
          "indexed": false,
          "internalType": "bool",
          "name": "approved",
          "type": "bool"
        }
      ],
      "name": "ApprovalForAll",
      "type": "event"
    },
    {
      "anonymous": false,
      "inputs": [
        {
          "indexed": true,
          "internalType": "uint256",
          "name": "billId",
          "type": "uint256"
        },
        {
          "indexed": false,
          "internalType": "uint256",
          "name": "finalAmount",
          "type": "uint256"
        }
      ],
      "name": "BillCompleted",
      "type": "event"
    },
    {
      "anonymous": false,
      "inputs": [
        {
          "indexed": true,
          "internalType": "uint256",
          "name": "billId",
          "type": "uint256"
        },
        {
          "indexed": true,
          "internalType": "address",
          "name": "debtor",
          "type": "address"
        },
        {
          "indexed": true,
          "internalType": "address",
          "name": "lender",
          "type": "address"
        },
        {
          "indexed": false,
          "internalType": "uint256",
          "name": "amount",
          "type": "uint256"
        },
        {
          "indexed": false,
          "internalType": "address",
          "name": "stablecoin",
          "type": "address"
        }
      ],
      "name": "BillCreated",
      "type": "event"
    },
    {
      "anonymous": false,
      "inputs": [
        {
          "indexed": true,
          "internalType": "uint256",
          "name": "billId",
          "type": "uint256"
        },
        {
          "indexed": true,
          "internalType": "address",
          "name": "lastOwner",
          "type": "address"
        }
      ],
      "name": "BillNFTBurned",
      "type": "event"
    },
    {
      "anonymous": false,
      "inputs": [
        {
          "indexed": true,
          "internalType": "uint256",
          "name": "billRequestId",
          "type": "uint256"
        }
      ],
      "name": "BillRequestCancelled",
      "type": "event"
    },
    {
      "anonymous": false,
      "inputs": [
        {
          "indexed": true,
          "internalType": "uint256",
          "name": "billRequestId",
          "type": "uint256"
        },
        {
          "indexed": true,
          "internalType": "address",
          "name": "debtor",
          "type": "address"
        },
        {
          "indexed": false,
          "internalType": "uint256",
          "name": "amount",
          "type": "uint256"
        },
        {
          "indexed": false,
          "internalType": "address",
          "name": "stablecoin",
          "type": "address"
        }
      ],
      "name": "BillRequestCreated",
      "type": "event"
    },
    {
      "anonymous": false,
      "inputs": [
        {
          "indexed": false,
          "internalType": "uint256",
          "name": "feePercentage",
          "type": "uint256"
        },
        {
          "indexed": false,
          "internalType": "uint256",
          "name": "upfrontPercentage",
          "type": "uint256"
        },
        {
          "indexed": false,
          "internalType": "uint256",
          "name": "ownerPercentage",
          "type": "uint256"
        }
      ],
      "name": "DefaultConditionsUpdated",
      "type": "event"
    },
    {
      "anonymous": false,
      "inputs": [
        {
          "indexed": false,
          "internalType": "uint256",
          "name": "amount",
          "type": "uint256"
        },
        {
          "indexed": false,
          "internalType": "address",
          "name": "stablecoin",
          "type": "address"
        }
      ],
      "name": "FeesCollected",
      "type": "event"
    },
    {
      "anonymous": false,
      "inputs": [
        {
          "indexed": true,
          "internalType": "uint256",
          "name": "tokenId",
          "type": "uint256"
        },
        {
          "indexed": true,
          "internalType": "address",
          "name": "to",
          "type": "address"
        }
      ],
      "name": "NFTMinted",
      "type": "event"
    },
    {
      "anonymous": false,
      "inputs": [
        {
          "indexed": true,
          "internalType": "uint256",
          "name": "offerId",
          "type": "uint256"
        },
        {
          "indexed": true,
          "internalType": "uint256",
          "name": "billRequestId",
          "type": "uint256"
        },
        {
          "indexed": true,
          "internalType": "address",
          "name": "debtor",
          "type": "address"
        },
        {
          "indexed": false,
          "internalType": "address",
          "name": "lender",
          "type": "address"
        }
      ],
      "name": "OfferAccepted",
      "type": "event"
    },
    {
      "anonymous": false,
      "inputs": [
        {
          "indexed": true,
          "internalType": "uint256",
          "name": "offerId",
          "type": "uint256"
        },
        {
          "indexed": true,
          "internalType": "uint256",
          "name": "billRequestId",
          "type": "uint256"
        },
        {
          "indexed": true,
          "internalType": "address",
          "name": "lender",
          "type": "address"
        },
        {
          "indexed": false,
          "internalType": "uint256",
          "name": "upfrontAmount",
          "type": "uint256"
        }
      ],
      "name": "OfferCreated",
      "type": "event"
    },
    {
      "anonymous": false,
      "inputs": [
        {
          "indexed": true,
          "internalType": "uint256",
          "name": "offerId",
          "type": "uint256"
        },
        {
          "indexed": true,
          "internalType": "address",
          "name": "lender",
          "type": "address"
        }
      ],
      "name": "OfferWithdrawn",
      "type": "event"
    },
    {
      "anonymous": false,
      "inputs": [
        {
          "indexed": false,
          "internalType": "address",
          "name": "account",
          "type": "address"
        }
      ],
      "name": "Paused",
      "type": "event"
    },
    {
      "anonymous": false,
      "inputs": [
        {
          "indexed": true,
          "internalType": "address",
          "name": "depositor",
          "type": "address"
        },
        {
          "indexed": false,
          "internalType": "uint256",
          "name": "amount",
          "type": "uint256"
        },
        {
          "indexed": false,
          "internalType": "address",
          "name": "stablecoin",
          "type": "address"
        }
      ],
      "name": "PoolDeposit",
      "type": "event"
    },
    {
      "anonymous": false,
      "inputs": [
        {
          "indexed": true,
          "internalType": "address",
          "name": "withdrawer",
          "type": "address"
        },
        {
          "indexed": false,
          "internalType": "uint256",
          "name": "amount",
          "type": "uint256"
        },
        {
          "indexed": false,
          "internalType": "address",
          "name": "stablecoin",
          "type": "address"
        }
      ],
      "name": "PoolWithdraw",
      "type": "event"
    },
    {
      "anonymous": false,
      "inputs": [
        {
          "indexed": true,
          "internalType": "address",
          "name": "admin",
          "type": "address"
        }
      ],
      "name": "SetAdmin",
      "type": "event"
    },
    {
      "anonymous": false,
      "inputs": [
        {
          "indexed": true,
          "internalType": "address",
          "name": "authOperator",
          "type": "address"
        }
      ],
      "name": "SetAuthOperator",
      "type": "event"
    },
    {
      "anonymous": false,
      "inputs": [
        {
          "indexed": true,
          "internalType": "address",
          "name": "operator",
          "type": "address"
        }
      ],
      "name": "SetOperator",
      "type": "event"
    },
    {
      "anonymous": false,
      "inputs": [
        {
          "indexed": true,
          "internalType": "address",
          "name": "from",
          "type": "address"
        },
        {
          "indexed": true,
          "internalType": "address",
          "name": "to",
          "type": "address"
        },
        {
          "indexed": true,
          "internalType": "uint256",
          "name": "tokenId",
          "type": "uint256"
        }
      ],
      "name": "Transfer",
      "type": "event"
    },
    {
      "anonymous": false,
      "inputs": [
        {
          "indexed": false,
          "internalType": "address",
          "name": "account",
          "type": "address"
        }
      ],
      "name": "Unpaused",
      "type": "event"
    },
    {
      "inputs": [],
      "name": "BASIS_POINTS",
      "outputs": [
        {
          "internalType": "uint256",
          "name": "",
          "type": "uint256"
        }
      ],
      "stateMutability": "view",
      "type": "function"
    },
    {
      "inputs": [],
      "name": "USDC",
      "outputs": [
        {
          "internalType": "contract IERC20",
          "name": "",
          "type": "address"
        }
      ],
      "stateMutability": "view",
      "type": "function"
    },
    {
      "inputs": [],
      "name": "USDT",
      "outputs": [
        {
          "internalType": "contract IERC20",
          "name": "",
          "type": "address"
        }
      ],
      "stateMutability": "view",
      "type": "function"
    },
    {
      "inputs": [
        {
          "internalType": "uint256",
          "name": "offerId",
          "type": "uint256"
        }
      ],
      "name": "acceptOffer",
      "outputs": [],
      "stateMutability": "nonpayable",
      "type": "function"
    },
    {
      "inputs": [
        {
          "internalType": "address",
          "name": "to",
          "type": "address"
        },
        {
          "internalType": "uint256",
          "name": "tokenId",
          "type": "uint256"
        }
      ],
      "name": "approve",
      "outputs": [],
      "stateMutability": "nonpayable",
      "type": "function"
    },
    {
      "inputs": [
        {
          "internalType": "address",
          "name": "owner",
          "type": "address"
        }
      ],
      "name": "balanceOf",
      "outputs": [
        {
          "internalType": "uint256",
          "name": "",
          "type": "uint256"
        }
      ],
      "stateMutability": "view",
      "type": "function"
    },
    {
      "inputs": [
        {
          "internalType": "uint256",
          "name": "",
          "type": "uint256"
        },
        {
          "internalType": "uint256",
          "name": "",
          "type": "uint256"
        }
      ],
      "name": "billRequestOffers",
      "outputs": [
        {
          "internalType": "uint256",
          "name": "",
          "type": "uint256"
        }
      ],
      "stateMutability": "view",
      "type": "function"
    },
    {
      "inputs": [
        {
          "internalType": "uint256",
          "name": "",
          "type": "uint256"
        }
      ],
      "name": "billRequests",
      "outputs": [
        {
          "internalType": "uint256",
          "name": "id",
          "type": "uint256"
        },
        {
          "internalType": "address",
          "name": "debtor",
          "type": "address"
        },
        {
          "internalType": "uint256",
          "name": "totalAmount",
          "type": "uint256"
        },
        {
          "internalType": "uint256",
          "name": "dueDate",
          "type": "uint256"
        },
        {
          "internalType": "enum FactoringContract.BillRequestStatus",
          "name": "status",
          "type": "uint8"
        }
      ],
      "stateMutability": "view",
      "type": "function"
    },
    {
      "inputs": [
        {
          "internalType": "uint256",
          "name": "",
          "type": "uint256"
        }
      ],
      "name": "bills",
      "outputs": [
        {
          "internalType": "uint256",
          "name": "id",
          "type": "uint256"
        },
        {
          "internalType": "address",
          "name": "debtor",
          "type": "address"
        },
        {
          "internalType": "address",
          "name": "lender",
          "type": "address"
        },
        {
          "internalType": "address",
          "name": "stablecoin",
          "type": "address"
        },
        {
          "internalType": "uint256",
          "name": "totalAmount",
          "type": "uint256"
        },
        {
          "internalType": "uint256",
          "name": "upfrontPaid",
          "type": "uint256"
        },
        {
          "internalType": "uint256",
          "name": "remainingAmount",
          "type": "uint256"
        },
        {
          "internalType": "uint256",
          "name": "dueDate",
          "type": "uint256"
        },
        {
          "internalType": "enum FactoringContract.BillStatus",
          "name": "status",
          "type": "uint8"
        },
        {
          "components": [
            {
              "internalType": "uint256",
              "name": "feePercentage",
              "type": "uint256"
            },
            {
              "internalType": "uint256",
              "name": "upfrontPercentage",
              "type": "uint256"
            },
            {
              "internalType": "uint256",
              "name": "ownerPercentage",
              "type": "uint256"
            }
          ],
          "internalType": "struct FactoringContract.Conditions",
          "name": "conditions",
          "type": "tuple"
        },
        {
          "internalType": "uint256",
          "name": "acceptedOfferId",
          "type": "uint256"
        }
      ],
      "stateMutability": "view",
      "type": "function"
    },
    {
      "inputs": [
        {
          "internalType": "uint256",
          "name": "billRequestId",
          "type": "uint256"
        }
      ],
      "name": "cancelBillRequest",
      "outputs": [],
      "stateMutability": "nonpayable",
      "type": "function"
    },
    {
      "inputs": [
        {
          "internalType": "uint256",
          "name": "billId",
          "type": "uint256"
        }
      ],
      "name": "completeBill",
      "outputs": [],
      "stateMutability": "payable",
      "type": "function"
    },
    {
      "inputs": [
        {
          "internalType": "uint256",
          "name": "totalAmount",
          "type": "uint256"
        },
        {
          "internalType": "uint256",
          "name": "dueDate",
          "type": "uint256"
        }
      ],
      "name": "createBillRequest",
      "outputs": [
        {
          "internalType": "uint256",
          "name": "",
          "type": "uint256"
        }
      ],
      "stateMutability": "nonpayable",
      "type": "function"
    },
    {
      "inputs": [
        {
          "internalType": "uint256",
          "name": "billRequestId",
          "type": "uint256"
        },
        {
          "internalType": "address",
          "name": "stablecoin",
          "type": "address"
        },
        {
          "components": [
            {
              "internalType": "uint256",
              "name": "feePercentage",
              "type": "uint256"
            },
            {
              "internalType": "uint256",
              "name": "upfrontPercentage",
              "type": "uint256"
            },
            {
              "internalType": "uint256",
              "name": "ownerPercentage",
              "type": "uint256"
            }
          ],
          "internalType": "struct FactoringContract.Conditions",
          "name": "conditions",
          "type": "tuple"
        }
      ],
      "name": "createOffer",
      "outputs": [
        {
          "internalType": "uint256",
          "name": "",
          "type": "uint256"
        }
      ],
      "stateMutability": "nonpayable",
      "type": "function"
    },
    {
      "inputs": [],
      "name": "defaultConditions",
      "outputs": [
        {
          "internalType": "uint256",
          "name": "feePercentage",
          "type": "uint256"
        },
        {
          "internalType": "uint256",
          "name": "upfrontPercentage",
          "type": "uint256"
        },
        {
          "internalType": "uint256",
          "name": "ownerPercentage",
          "type": "uint256"
        }
      ],
      "stateMutability": "view",
      "type": "function"
    },
    {
      "inputs": [
        {
          "internalType": "uint256",
          "name": "tokenId",
          "type": "uint256"
        }
      ],
      "name": "getApproved",
      "outputs": [
        {
          "internalType": "address",
          "name": "",
          "type": "address"
        }
      ],
      "stateMutability": "view",
      "type": "function"
    },
    {
      "inputs": [
        {
          "internalType": "address",
          "name": "_admin",
          "type": "address"
        }
      ],
      "name": "getAuthorizedAdmin",
      "outputs": [
        {
          "internalType": "bool",
          "name": "",
          "type": "bool"
        }
      ],
      "stateMutability": "view",
      "type": "function"
    },
    {
      "inputs": [
        {
          "internalType": "address",
          "name": "_operator",
          "type": "address"
        }
      ],
      "name": "getAuthorizedOperator",
      "outputs": [
        {
          "internalType": "bool",
          "name": "",
          "type": "bool"
        }
      ],
      "stateMutability": "view",
      "type": "function"
    },
    {
      "inputs": [
        {
          "internalType": "uint256",
          "name": "billId",
          "type": "uint256"
        }
      ],
      "name": "getBill",
      "outputs": [
        {
          "components": [
            {
              "internalType": "uint256",
              "name": "id",
              "type": "uint256"
            },
            {
              "internalType": "address",
              "name": "debtor",
              "type": "address"
            },
            {
              "internalType": "address",
              "name": "lender",
              "type": "address"
            },
            {
              "internalType": "address",
              "name": "stablecoin",
              "type": "address"
            },
            {
              "internalType": "uint256",
              "name": "totalAmount",
              "type": "uint256"
            },
            {
              "internalType": "uint256",
              "name": "upfrontPaid",
              "type": "uint256"
            },
            {
              "internalType": "uint256",
              "name": "remainingAmount",
              "type": "uint256"
            },
            {
              "internalType": "uint256",
              "name": "dueDate",
              "type": "uint256"
            },
            {
              "internalType": "enum FactoringContract.BillStatus",
              "name": "status",
              "type": "uint8"
            },
            {
              "components": [
                {
                  "internalType": "uint256",
                  "name": "feePercentage",
                  "type": "uint256"
                },
                {
                  "internalType": "uint256",
                  "name": "upfrontPercentage",
                  "type": "uint256"
                },
                {
                  "internalType": "uint256",
                  "name": "ownerPercentage",
                  "type": "uint256"
                }
              ],
              "internalType": "struct FactoringContract.Conditions",
              "name": "conditions",
              "type": "tuple"
            },
            {
              "internalType": "uint256",
              "name": "acceptedOfferId",
              "type": "uint256"
            }
          ],
          "internalType": "struct FactoringContract.Bill",
          "name": "",
          "type": "tuple"
        }
      ],
      "stateMutability": "view",
      "type": "function"
    },
    {
      "inputs": [
        {
          "internalType": "uint256",
          "name": "nftId",
          "type": "uint256"
        }
      ],
      "name": "getBillByNFT",
      "outputs": [
        {
          "components": [
            {
              "internalType": "uint256",
              "name": "id",
              "type": "uint256"
            },
            {
              "internalType": "address",
              "name": "debtor",
              "type": "address"
            },
            {
              "internalType": "address",
              "name": "lender",
              "type": "address"
            },
            {
              "internalType": "address",
              "name": "stablecoin",
              "type": "address"
            },
            {
              "internalType": "uint256",
              "name": "totalAmount",
              "type": "uint256"
            },
            {
              "internalType": "uint256",
              "name": "upfrontPaid",
              "type": "uint256"
            },
            {
              "internalType": "uint256",
              "name": "remainingAmount",
              "type": "uint256"
            },
            {
              "internalType": "uint256",
              "name": "dueDate",
              "type": "uint256"
            },
            {
              "internalType": "enum FactoringContract.BillStatus",
              "name": "status",
              "type": "uint8"
            },
            {
              "components": [
                {
                  "internalType": "uint256",
                  "name": "feePercentage",
                  "type": "uint256"
                },
                {
                  "internalType": "uint256",
                  "name": "upfrontPercentage",
                  "type": "uint256"
                },
                {
                  "internalType": "uint256",
                  "name": "ownerPercentage",
                  "type": "uint256"
                }
              ],
              "internalType": "struct FactoringContract.Conditions",
              "name": "conditions",
              "type": "tuple"
            },
            {
              "internalType": "uint256",
              "name": "acceptedOfferId",
              "type": "uint256"
            }
          ],
          "internalType": "struct FactoringContract.Bill",
          "name": "",
          "type": "tuple"
        }
      ],
      "stateMutability": "view",
      "type": "function"
    },
    {
      "inputs": [
        {
          "internalType": "uint256",
          "name": "tokenId",
          "type": "uint256"
        }
      ],
      "name": "getBillNFTOwner",
      "outputs": [
        {
          "internalType": "address",
          "name": "",
          "type": "address"
        }
      ],
      "stateMutability": "view",
      "type": "function"
    },
    {
      "inputs": [
        {
          "internalType": "uint256",
          "name": "billRequestId",
          "type": "uint256"
        }
      ],
      "name": "getBillRequest",
      "outputs": [
        {
          "components": [
            {
              "internalType": "uint256",
              "name": "id",
              "type": "uint256"
            },
            {
              "internalType": "address",
              "name": "debtor",
              "type": "address"
            },
            {
              "internalType": "uint256",
              "name": "totalAmount",
              "type": "uint256"
            },
            {
              "internalType": "uint256",
              "name": "dueDate",
              "type": "uint256"
            },
            {
              "internalType": "enum FactoringContract.BillRequestStatus",
              "name": "status",
              "type": "uint8"
            }
          ],
          "internalType": "struct FactoringContract.BillRequest",
          "name": "",
          "type": "tuple"
        }
      ],
      "stateMutability": "view",
      "type": "function"
    },
    {
      "inputs": [
        {
          "internalType": "uint256",
          "name": "billId",
          "type": "uint256"
        }
      ],
      "name": "getBillWithOwner",
      "outputs": [
        {
          "components": [
            {
              "internalType": "uint256",
              "name": "id",
              "type": "uint256"
            },
            {
              "internalType": "address",
              "name": "debtor",
              "type": "address"
            },
            {
              "internalType": "address",
              "name": "lender",
              "type": "address"
            },
            {
              "internalType": "address",
              "name": "stablecoin",
              "type": "address"
            },
            {
              "internalType": "uint256",
              "name": "totalAmount",
              "type": "uint256"
            },
            {
              "internalType": "uint256",
              "name": "upfrontPaid",
              "type": "uint256"
            },
            {
              "internalType": "uint256",
              "name": "remainingAmount",
              "type": "uint256"
            },
            {
              "internalType": "uint256",
              "name": "dueDate",
              "type": "uint256"
            },
            {
              "internalType": "enum FactoringContract.BillStatus",
              "name": "status",
              "type": "uint8"
            },
            {
              "components": [
                {
                  "internalType": "uint256",
                  "name": "feePercentage",
                  "type": "uint256"
                },
                {
                  "internalType": "uint256",
                  "name": "upfrontPercentage",
                  "type": "uint256"
                },
                {
                  "internalType": "uint256",
                  "name": "ownerPercentage",
                  "type": "uint256"
                }
              ],
              "internalType": "struct FactoringContract.Conditions",
              "name": "conditions",
              "type": "tuple"
            },
            {
              "internalType": "uint256",
              "name": "acceptedOfferId",
              "type": "uint256"
            }
          ],
          "internalType": "struct FactoringContract.Bill",
          "name": "bill",
          "type": "tuple"
        },
        {
          "internalType": "address",
          "name": "currentOwner",
          "type": "address"
        }
      ],
      "stateMutability": "view",
      "type": "function"
    },
    {
      "inputs": [
        {
          "internalType": "address",
          "name": "_owner",
          "type": "address"
        }
      ],
      "name": "getBillsByOwner",
      "outputs": [
        {
          "internalType": "uint256[]",
          "name": "",
          "type": "uint256[]"
        }
      ],
      "stateMutability": "view",
      "type": "function"
    },
    {
      "inputs": [],
      "name": "getDefaultConditions",
      "outputs": [
        {
          "components": [
            {
              "internalType": "uint256",
              "name": "feePercentage",
              "type": "uint256"
            },
            {
              "internalType": "uint256",
              "name": "upfrontPercentage",
              "type": "uint256"
            },
            {
              "internalType": "uint256",
              "name": "ownerPercentage",
              "type": "uint256"
            }
          ],
          "internalType": "struct FactoringContract.Conditions",
          "name": "",
          "type": "tuple"
        }
      ],
      "stateMutability": "view",
      "type": "function"
    },
    {
      "inputs": [
        {
          "internalType": "uint256",
          "name": "tokenId",
          "type": "uint256"
        }
      ],
      "name": "getNFTOwner",
      "outputs": [
        {
          "internalType": "address",
          "name": "",
          "type": "address"
        }
      ],
      "stateMutability": "view",
      "type": "function"
    },
    {
      "inputs": [
        {
          "internalType": "uint256",
          "name": "offerId",
          "type": "uint256"
        }
      ],
      "name": "getOffer",
      "outputs": [
        {
          "components": [
            {
              "internalType": "uint256",
              "name": "id",
              "type": "uint256"
            },
            {
              "internalType": "uint256",
              "name": "billRequestId",
              "type": "uint256"
            },
            {
              "internalType": "address",
              "name": "lender",
              "type": "address"
            },
            {
              "internalType": "address",
              "name": "stablecoin",
              "type": "address"
            },
            {
              "components": [
                {
                  "internalType": "uint256",
                  "name": "feePercentage",
                  "type": "uint256"
                },
                {
                  "internalType": "uint256",
                  "name": "upfrontPercentage",
                  "type": "uint256"
                },
                {
                  "internalType": "uint256",
                  "name": "ownerPercentage",
                  "type": "uint256"
                }
              ],
              "internalType": "struct FactoringContract.Conditions",
              "name": "conditions",
              "type": "tuple"
            },
            {
              "internalType": "uint256",
              "name": "depositedAmount",
              "type": "uint256"
            },
            {
              "internalType": "enum FactoringContract.OfferStatus",
              "name": "status",
              "type": "uint8"
            }
          ],
          "internalType": "struct FactoringContract.Offer",
          "name": "",
          "type": "tuple"
        }
      ],
      "stateMutability": "view",
      "type": "function"
    },
    {
      "inputs": [
        {
          "internalType": "uint256",
          "name": "billRequestId",
          "type": "uint256"
        }
      ],
      "name": "getOffersForBillRequest",
      "outputs": [
        {
          "internalType": "uint256[]",
          "name": "",
          "type": "uint256[]"
        }
      ],
      "stateMutability": "view",
      "type": "function"
    },
    {
      "inputs": [],
      "name": "getOwner",
      "outputs": [
        {
          "internalType": "address",
          "name": "",
          "type": "address"
        }
      ],
      "stateMutability": "view",
      "type": "function"
    },
    {
      "inputs": [
        {
          "internalType": "address",
          "name": "stablecoin",
          "type": "address"
        }
      ],
      "name": "getPoolBalance",
      "outputs": [
        {
          "internalType": "uint256",
          "name": "",
          "type": "uint256"
        }
      ],
      "stateMutability": "view",
      "type": "function"
    },
    {
      "inputs": [
        {
          "internalType": "address",
          "name": "owner",
          "type": "address"
        },
        {
          "internalType": "address",
          "name": "operator",
          "type": "address"
        }
      ],
      "name": "isApprovedForAll",
      "outputs": [
        {
          "internalType": "bool",
          "name": "",
          "type": "bool"
        }
      ],
      "stateMutability": "view",
      "type": "function"
    },
    {
      "inputs": [
        {
          "internalType": "uint256",
          "name": "billId",
          "type": "uint256"
        }
      ],
      "name": "markBillDefaulted",
      "outputs": [],
      "stateMutability": "nonpayable",
      "type": "function"
    },
    {
      "inputs": [],
      "name": "name",
      "outputs": [
        {
          "internalType": "string",
          "name": "",
          "type": "string"
        }
      ],
      "stateMutability": "view",
      "type": "function"
    },
    {
      "inputs": [
        {
          "internalType": "uint256",
          "name": "",
          "type": "uint256"
        }
      ],
      "name": "offers",
      "outputs": [
        {
          "internalType": "uint256",
          "name": "id",
          "type": "uint256"
        },
        {
          "internalType": "uint256",
          "name": "billRequestId",
          "type": "uint256"
        },
        {
          "internalType": "address",
          "name": "lender",
          "type": "address"
        },
        {
          "internalType": "address",
          "name": "stablecoin",
          "type": "address"
        },
        {
          "components": [
            {
              "internalType": "uint256",
              "name": "feePercentage",
              "type": "uint256"
            },
            {
              "internalType": "uint256",
              "name": "upfrontPercentage",
              "type": "uint256"
            },
            {
              "internalType": "uint256",
              "name": "ownerPercentage",
              "type": "uint256"
            }
          ],
          "internalType": "struct FactoringContract.Conditions",
          "name": "conditions",
          "type": "tuple"
        },
        {
          "internalType": "uint256",
          "name": "depositedAmount",
          "type": "uint256"
        },
        {
          "internalType": "enum FactoringContract.OfferStatus",
          "name": "status",
          "type": "uint8"
        }
      ],
      "stateMutability": "view",
      "type": "function"
    },
    {
      "inputs": [
        {
          "internalType": "address",
          "name": "",
          "type": "address"
        },
        {
          "internalType": "uint256",
          "name": "",
          "type": "uint256"
        }
      ],
      "name": "ownerBills",
      "outputs": [
        {
          "internalType": "uint256",
          "name": "",
          "type": "uint256"
        }
      ],
      "stateMutability": "view",
      "type": "function"
    },
    {
      "inputs": [
        {
          "internalType": "uint256",
          "name": "tokenId",
          "type": "uint256"
        }
      ],
      "name": "ownerOf",
      "outputs": [
        {
          "internalType": "address",
          "name": "",
          "type": "address"
        }
      ],
      "stateMutability": "view",
      "type": "function"
    },
    {
      "inputs": [],
      "name": "pause",
      "outputs": [],
      "stateMutability": "nonpayable",
      "type": "function"
    },
    {
      "inputs": [],
      "name": "paused",
      "outputs": [
        {
          "internalType": "bool",
          "name": "",
          "type": "bool"
        }
      ],
      "stateMutability": "view",
      "type": "function"
    },
    {
      "inputs": [
        {
          "internalType": "address",
          "name": "",
          "type": "address"
        }
      ],
      "name": "poolBalances",
      "outputs": [
        {
          "internalType": "uint256",
          "name": "",
          "type": "uint256"
        }
      ],
      "stateMutability": "view",
      "type": "function"
    },
    {
      "inputs": [
        {
          "internalType": "address",
          "name": "from",
          "type": "address"
        },
        {
          "internalType": "address",
          "name": "to",
          "type": "address"
        },
        {
          "internalType": "uint256",
          "name": "tokenId",
          "type": "uint256"
        }
      ],
      "name": "safeTransferFrom",
      "outputs": [],
      "stateMutability": "nonpayable",
      "type": "function"
    },
    {
      "inputs": [
        {
          "internalType": "address",
          "name": "from",
          "type": "address"
        },
        {
          "internalType": "address",
          "name": "to",
          "type": "address"
        },
        {
          "internalType": "uint256",
          "name": "tokenId",
          "type": "uint256"
        },
        {
          "internalType": "bytes",
          "name": "data",
          "type": "bytes"
        }
      ],
      "name": "safeTransferFrom",
      "outputs": [],
      "stateMutability": "nonpayable",
      "type": "function"
    },
    {
      "inputs": [
        {
          "internalType": "address",
          "name": "operator",
          "type": "address"
        },
        {
          "internalType": "bool",
          "name": "approved",
          "type": "bool"
        }
      ],
      "name": "setApprovalForAll",
      "outputs": [],
      "stateMutability": "nonpayable",
      "type": "function"
    },
    {
      "inputs": [
        {
          "internalType": "address",
          "name": "_admin",
          "type": "address"
        },
        {
          "internalType": "bool",
          "name": "status",
          "type": "bool"
        }
      ],
      "name": "setAuthorizedAdmin",
      "outputs": [],
      "stateMutability": "nonpayable",
      "type": "function"
    },
    {
      "inputs": [
        {
          "internalType": "address",
          "name": "_operator",
          "type": "address"
        },
        {
          "internalType": "bool",
          "name": "status",
          "type": "bool"
        }
      ],
      "name": "setAuthorizedOperator",
      "outputs": [],
      "stateMutability": "nonpayable",
      "type": "function"
    },
    {
      "inputs": [
        {
          "internalType": "uint256",
          "name": "_feePercentage",
          "type": "uint256"
        },
        {
          "internalType": "uint256",
          "name": "_upfrontPercentage",
          "type": "uint256"
        },
        {
          "internalType": "uint256",
          "name": "_ownerPercentage",
          "type": "uint256"
        }
      ],
      "name": "setDefaultConditions",
      "outputs": [],
      "stateMutability": "nonpayable",
      "type": "function"
    },
    {
      "inputs": [
        {
          "internalType": "bytes4",
          "name": "interfaceId",
          "type": "bytes4"
        }
      ],
      "name": "supportsInterface",
      "outputs": [
        {
          "internalType": "bool",
          "name": "",
          "type": "bool"
        }
      ],
      "stateMutability": "view",
      "type": "function"
    },
    {
      "inputs": [],
      "name": "symbol",
      "outputs": [
        {
          "internalType": "string",
          "name": "",
          "type": "string"
        }
      ],
      "stateMutability": "view",
      "type": "function"
    },
    {
      "inputs": [
        {
          "internalType": "uint256",
          "name": "tokenId",
          "type": "uint256"
        }
      ],
      "name": "tokenURI",
      "outputs": [
        {
          "internalType": "string",
          "name": "",
          "type": "string"
        }
      ],
      "stateMutability": "view",
      "type": "function"
    },
    {
      "inputs": [],
      "name": "totalPoolBalance",
      "outputs": [
        {
          "internalType": "uint256",
          "name": "",
          "type": "uint256"
        }
      ],
      "stateMutability": "view",
      "type": "function"
    },
    {
      "inputs": [
        {
          "internalType": "address",
          "name": "from",
          "type": "address"
        },
        {
          "internalType": "address",
          "name": "to",
          "type": "address"
        },
        {
          "internalType": "uint256",
          "name": "tokenId",
          "type": "uint256"
        }
      ],
      "name": "transferFrom",
      "outputs": [],
      "stateMutability": "nonpayable",
      "type": "function"
    },
    {
      "inputs": [
        {
          "internalType": "address",
          "name": "newOwner",
          "type": "address"
        }
      ],
      "name": "transferOwnership",
      "outputs": [],
      "stateMutability": "nonpayable",
      "type": "function"
    },
    {
      "inputs": [],
      "name": "unpause",
      "outputs": [],
      "stateMutability": "nonpayable",
      "type": "function"
    },
    {
      "inputs": [
        {
          "internalType": "uint256",
          "name": "amount",
          "type": "uint256"
        },
        {
          "internalType": "address",
          "name": "stablecoin",
          "type": "address"
        }
      ],
      "name": "withdrawFromPool",
      "outputs": [],
      "stateMutability": "nonpayable",
      "type": "function"
    },
    {
      "inputs": [
        {
          "internalType": "uint256",
          "name": "offerId",
          "type": "uint256"
        }
      ],
      "name": "withdrawOffer",
      "outputs": [],
      "stateMutability": "nonpayable",
      "type": "function"
    }
  ],
  "bytecode": "0x610120604052600560c0819052605060e0819052600f610100819052600a92909255600b55600c5534801561003357600080fd5b50604051614c78380380614c78833981016040819052610052916101c3565b6040518060400160405280600d81526020016c119858dd1bdc9a5b99d09a5b1b609a1b81525060405180604001604052806005815260200164119092531360da1b815250818181600090816100a79190610295565b5060016100b48282610295565b50506001600655505060078054610100600160a81b0319163361010002179055506001600160a01b0382166101305760405162461bcd60e51b815260206004820152601460248201527f496e76616c69642055534443206164647265737300000000000000000000000060448201526064015b60405180910390fd5b6001600160a01b0381166101865760405162461bcd60e51b815260206004820152601460248201527f496e76616c6964205553445420616464726573730000000000000000000000006044820152606401610127565b6001600160a01b039182166080521660a0526001600d819055601055610353565b80516001600160a01b03811681146101be57600080fd5b919050565b600080604083850312156101d657600080fd5b6101df836101a7565b91506101ed602084016101a7565b90509250929050565b634e487b7160e01b600052604160045260246000fd5b600181811c9082168061022057607f821691505b60208210810361024057634e487b7160e01b600052602260045260246000fd5b50919050565b601f82111561029057806000526020600020601f840160051c8101602085101561026d5750805b601f840160051c820191505b8181101561028d5760008155600101610279565b50505b505050565b81516001600160401b038111156102ae576102ae6101f6565b6102c2816102bc845461020c565b84610246565b6020601f8211600181146102f657600083156102de5750848201515b600019600385901b1c1916600184901b17845561028d565b600084815260208120601f198516915b828110156103265787850151825560209485019460019092019101610306565b50848210156103445786840151600019600387901b60f8161c191681555b50505050600190811b01905550565b60805160a0516148e461039460003960008181610a40015281816111b101526126bb0152600081816107c901528181611176015261268001526148e46000f3fe60806040526004361061031a5760003560e01c80638610f045116101ab578063c30e5493116100f7578063cdf3a2c811610095578063e1f1c4a71161006f578063e1f1c4a714610b71578063e985e9c514610b87578063f2fde38b14610ba7578063fb4de28314610bc757600080fd5b8063cdf3a2c814610b1b578063d28682ea14610b3b578063deaea2e31461066457600080fd5b8063c85ab9d4116100d1578063c85ab9d414610a82578063c87b56dd14610aa2578063c8f6fbf714610ac2578063cb35124414610ae257600080fd5b8063c30e549314610a0c578063c54e44eb14610a2e578063c815729d14610a6257600080fd5b806395d89b4111610164578063a21d21031161013e578063a21d21031461098c578063a22cb465146109ac578063b1cd06e6146109cc578063b88d4fde146109ec57600080fd5b806395d89b41146108ef578063979631ee14610904578063a1afec2e1461092457600080fd5b80638610f04514610774578063893d20e81461079457806389a30271146107b75780638a72ea6a146107eb57806390fe3e32146108895780639155ccc8146108c257600080fd5b8063418836a31161026a5780635026d63e1161022357806370a08231116101fd57806370a08231146106ff57806371c3a4b11461071f578063788f737d1461073f5780638456cb591461075f57600080fd5b80635026d63e146106b15780635c975abb146106c75780636352211e146106df57600080fd5b8063418836a3146105c957806342842e0e146105e95780634579268a1461060957806346344581146106365780634710390f146106645780634884a6691461068457600080fd5b80631e701add116102d75780632bfac9f1116102b15780632bfac9f11461052d5780632cbcb1f21461055a5780633479c47c1461057a5780633f4ba83a146105b457600080fd5b80631e701add1461041e57806323b872dd1461044b57806328bdcde81461046b57600080fd5b806301ffc9a71461031f57806306fdde0314610354578063081812fc14610376578063095ea7b3146103ae578063143694d0146103d057806317444e37146103f0575b600080fd5b34801561032b57600080fd5b5061033f61033a366004613f2c565b610bda565b60405190151581526020015b60405180910390f35b34801561036057600080fd5b50610369610beb565b60405161034b9190613f99565b34801561038257600080fd5b50610396610391366004613fac565b610c7d565b6040516001600160a01b03909116815260200161034b565b3480156103ba57600080fd5b506103ce6103c9366004613fe1565b610ca6565b005b3480156103dc57600080fd5b506103ce6103eb366004613fac565b610cb5565b3480156103fc57600080fd5b5061041061040b366004613fe1565b610dde565b60405190815260200161034b565b34801561042a57600080fd5b5061043e610439366004613fac565b610e0f565b60405161034b9190614108565b34801561045757600080fd5b506103ce610466366004614117565b610f88565b34801561047757600080fd5b50610516610486366004613fac565b6013602090815260009182526040918290208054600182015460028301546003840154600485015460058601546006870154600788015460088901548b51606081018d5260098b01548152600a8b01549b81019b909b52600b8a01549b8b019b909b52600c9098015496996001600160a01b03968716999587169894909616969295919490939260ff909216918b565b60405161034b9b9a99989796959493929190614154565b34801561053957600080fd5b5061054d610548366004613fac565b611013565b60405161034b91906141db565b34801561056657600080fd5b506103ce610575366004614226565b6110cf565b34801561058657600080fd5b50600a54600b54600c5461059992919083565b6040805193845260208401929092529082015260600161034b565b3480156105c057600080fd5b506103ce61133a565b3480156105d557600080fd5b506103ce6105e4366004614252565b611391565b3480156105f557600080fd5b506103ce610604366004614117565b61151d565b34801561061557600080fd5b50610629610624366004613fac565b61153d565b60405161034b919061428e565b34801561064257600080fd5b50610656610651366004613fac565b61162b565b60405161034b929190614309565b34801561067057600080fd5b5061039661067f366004613fac565b611757565b34801561069057600080fd5b506106a461069f366004613fac565b6117b9565b60405161034b9190614331565b3480156106bd57600080fd5b50610410600e5481565b3480156106d357600080fd5b5060075460ff1661033f565b3480156106eb57600080fd5b506103966106fa366004613fac565b61181b565b34801561070b57600080fd5b5061041061071a366004614374565b611826565b34801561072b57600080fd5b506103ce61073a36600461438f565b61186e565b34801561074b57600080fd5b506103ce61075a36600461438f565b6119f7565b34801561076b57600080fd5b506103ce611b83565b34801561078057600080fd5b506103ce61078f366004613fac565b611bd8565b3480156107a057600080fd5b5060075461010090046001600160a01b0316610396565b3480156107c357600080fd5b506103967f000000000000000000000000000000000000000000000000000000000000000081565b3480156107f757600080fd5b50610876610806366004613fac565b60126020908152600091825260409182902080546001820154600283015460038401548651606081018852600486015481526005860154968101969096526006850154968601969096526007840154600890940154929591946001600160a01b0391821694919092169260ff1687565b60405161034b97969594939291906143cb565b34801561089557600080fd5b5061033f6108a4366004614374565b6001600160a01b031660009081526009602052604090205460ff1690565b3480156108ce57600080fd5b506104106108dd366004614374565b600f6020526000908152604090205481565b3480156108fb57600080fd5b50610369611d2e565b34801561091057600080fd5b5061041061091f366004614432565b611d3d565b34801561093057600080fd5b5061097b61093f366004613fac565b6011602052600090815260409020805460018201546002830154600384015460049094015492936001600160a01b039092169290919060ff1685565b60405161034b959493929190614454565b34801561099857600080fd5b506106a46109a7366004614374565b611f13565b3480156109b857600080fd5b506103ce6109c736600461438f565b611f7d565b3480156109d857600080fd5b5061043e6109e7366004613fac565b611f88565b3480156109f857600080fd5b506103ce610a073660046144d8565b611f90565b348015610a1857600080fd5b50610a21611fa8565b60405161034b919061459d565b348015610a3a57600080fd5b506103967f000000000000000000000000000000000000000000000000000000000000000081565b348015610a6e57600080fd5b506103ce610a7d366004613fac565b611ff1565b348015610a8e57600080fd5b506103ce610a9d366004613fac565b612447565b348015610aae57600080fd5b50610369610abd366004613fac565b612574565b348015610ace57600080fd5b50610410610add366004614432565b6125e9565b348015610aee57600080fd5b5061033f610afd366004614374565b6001600160a01b031660009081526008602052604090205460ff1690565b348015610b2757600080fd5b50610410610b363660046145be565b612605565b348015610b4757600080fd5b50610410610b56366004614374565b6001600160a01b03166000908152600f602052604090205490565b348015610b7d57600080fd5b5061041061271081565b348015610b9357600080fd5b5061033f610ba2366004614646565b612a0a565b348015610bb357600080fd5b506103ce610bc2366004614374565b612a38565b6103ce610bd5366004613fac565b612c09565b6000610be582612eaa565b92915050565b606060008054610bfa90614670565b80601f0160208091040260200160405190810160405280929190818152602001828054610c2690614670565b8015610c735780601f10610c4857610100808354040283529160200191610c73565b820191906000526020600020905b815481529060010190602001808311610c5657829003601f168201915b5050505050905090565b6000610c8882612efa565b506000828152600460205260409020546001600160a01b0316610be5565b610cb1828233612f33565b5050565b610cbd612f40565b60008181526011602052604081208054909103610cf55760405162461bcd60e51b8152600401610cec906146aa565b60405180910390fd5b6000600482015460ff166002811115610d1057610d1061400b565b14610d2d5760405162461bcd60e51b8152600401610cec906146e1565b33610d378361181b565b6001600160a01b031614610d8d5760405162461bcd60e51b815260206004820152601960248201527f4f6e6c79204e4654206f776e65722063616e2063616e63656c000000000000006044820152606401610cec565b60048101805460ff19166002179055610da582612f6a565b60405182907f66387ca682421ce832187633e62f16d1a996c0c1a851225282e7a01407a0f60190600090a250610ddb6001600655565b50565b60146020528160005260406000208181548110610dfa57600080fd5b90600052602060002001600091509150505481565b610e17613daa565b6000828152600260205260409020546001600160a01b0316610e705760405162461bcd60e51b815260206004820152601260248201527113919508191bd95cc81b9bdd08195e1a5cdd60721b6044820152606401610cec565b6000828152601360205260408120549003610e9d5760405162461bcd60e51b8152600401610cec90614710565b6000828152601360209081526040918290208251610160810184528154815260018201546001600160a01b03908116938201939093526002808301548416948201949094526003820154909216606083015260048101546080830152600581015460a0830152600681015460c0830152600781015460e083015260088101549192909161010084019160ff90911690811115610f3b57610f3b61400b565b6002811115610f4c57610f4c61400b565b81526040805160608101825260098401548152600a840154602082810191909152600b85015482840152830152600c9092015491015292915050565b6001600160a01b038216610fb257604051633250574960e11b815260006004820152602401610cec565b6000610fbf838333613064565b9050836001600160a01b0316816001600160a01b03161461100d576040516364283d7b60e01b81526001600160a01b0380861660048301526024820184905282166044820152606401610cec565b50505050565b61101b613e52565b60008281526011602052604081205490036110485760405162461bcd60e51b8152600401610cec906146aa565b600082815260116020908152604091829020825160a0810184528154815260018201546001600160a01b0316928101929092526002808201549383019390935260038101546060830152600481015491929091608084019160ff909116908111156110b5576110b561400b565b60028111156110c6576110c661400b565b90525092915050565b60075461010090046001600160a01b031633148015906110ff57503360009081526008602052604090205460ff16155b1561111c576040516282b42960e81b815260040160405180910390fd5b611124612f40565b600082116111745760405162461bcd60e51b815260206004820152601d60248201527f416d6f756e74206d7573742062652067726561746572207468616e20300000006044820152606401610cec565b7f00000000000000000000000000000000000000000000000000000000000000006001600160a01b0316816001600160a01b031614806111e557507f00000000000000000000000000000000000000000000000000000000000000006001600160a01b0316816001600160a01b0316145b61122a5760405162461bcd60e51b81526020600482015260166024820152752ab739bab83837b93a32b21039ba30b13632b1b7b4b760511b6044820152606401610cec565b6001600160a01b0381166000908152600f60205260409020548211156112925760405162461bcd60e51b815260206004820152601960248201527f496e73756666696369656e7420706f6f6c2062616c616e6365000000000000006044820152606401610cec565b6001600160a01b0381166000908152600f6020526040812080548492906112ba908490614753565b9250508190555081600e60008282546112d39190614753565b909155506112ed90506001600160a01b03821633846130e5565b604080518381526001600160a01b038316602082015233917f8b0504e8295c096414bd80c776379b299419cf1f33f17aa53b3e7538cb36664a910160405180910390a2610cb16001600655565b60075461010090046001600160a01b0316331480159061136a57503360009081526008602052604090205460ff16155b15611387576040516282b42960e81b815260040160405180910390fd5b61138f613144565b565b60075461010090046001600160a01b031633146113c0576040516282b42960e81b815260040160405180910390fd5b612710826113ce8386614766565b6113d89190614766565b111561143a5760405162461bcd60e51b815260206004820152602b60248201527f496e76616c69642070657263656e74616765733a2073756d2063616e6e6f742060448201526a657863656564203130302560a81b6064820152608401610cec565b60008311801561144a5750600082115b80156114565750600081115b6114b15760405162461bcd60e51b815260206004820152602660248201527f416c6c2070657263656e7461676573206d75737420626520677265617465722060448201526507468616e20360d41b6064820152608401610cec565b60408051606080820183528582526020808301869052918301849052600a869055600b859055600c84905582518681529182018590529181018390527fea22662bd67ac75f6753ec8a9ab71af344497326e12f9d1ceee202aa1bcf1235910160405180910390a1505050565b61153883838360405180602001604052806000815250611f90565b505050565b611545613e9a565b60008281526012602052604081205490036115725760405162461bcd60e51b8152600401610cec90614779565b600082815260126020908152604091829020825160e0810184528154815260018201548184015260028201546001600160a01b039081168286015260038084015490911660608084019190915285519081018652600484015481526005840154948101949094526006830154948401949094526080810192909252600781015460a083015260088101549192909160c084019160ff9091169081111561161a5761161a61400b565b60038111156110c6576110c661400b565b611633613daa565b60008281526013602052604081205481036116605760405162461bcd60e51b8152600401610cec90614710565b6000838152601360209081526040918290208251610160810184528154815260018201546001600160a01b03908116938201939093526002808301548416948201949094526003820154909216606083015260048101546080830152600581015460a0830152600681015460c0830152600781015460e083015260088101549192909161010084019160ff909116908111156116fe576116fe61400b565b600281111561170f5761170f61400b565b81526040805160608101825260098401548152600a840154602082810191909152600b85015482840152830152600c9092015491015291506117508361181b565b9050915091565b6000818152600260205260408120546001600160a01b03166117b05760405162461bcd60e51b815260206004820152601260248201527113919508191bd95cc81b9bdd08195e1a5cdd60721b6044820152606401610cec565b610be58261181b565b60008181526015602090815260409182902080548351818402810184019094528084526060939283018282801561180f57602002820191906000526020600020905b8154815260200190600101908083116117fb575b50505050509050919050565b6000610be582612efa565b60006001600160a01b038216611852576040516322718ad960e21b815260006004820152602401610cec565b506001600160a01b031660009081526003602052604090205490565b60075461010090046001600160a01b0316331480159061189e57503360009081526008602052604090205460ff16155b156118bb576040516282b42960e81b815260040160405180910390fd5b6001600160a01b0382166119295760405162461bcd60e51b815260206004820152602f60248201527f417574686f72697a65642053797374656d3a2041646d696e206164647265737360448201526e0818d85b9b9bdd081899481b9d5b1b608a1b6064820152608401610cec565b6001600160a01b03821660009081526009602052604090205460ff16156119a95760405162461bcd60e51b815260206004820152602e60248201527f417574686f72697a65642053797374656d3a2041646d696e2063616e6e6f742060448201526d31329030b71037b832b930ba37b960911b6064820152608401610cec565b6001600160a01b038216600081815260086020526040808220805460ff1916851515179055517f5a272403b402d892977df56625f4164ccaf70ca3863991c43ecfe76a6905b0a19190a25050565b60075461010090046001600160a01b03163314801590611a2757503360009081526008602052604090205460ff16155b15611a44576040516282b42960e81b815260040160405180910390fd5b6001600160a01b038216611ab55760405162461bcd60e51b815260206004820152603260248201527f417574686f72697a65642053797374656d3a204f70657261746f722061646472604482015271195cdcc818d85b9b9bdd081899481b9d5b1b60721b6064820152608401610cec565b6001600160a01b03821660009081526008602052604090205460ff1615611b355760405162461bcd60e51b815260206004820152602e60248201527f417574686f72697a65642053797374656d3a204f70657261746f722063616e6e60448201526d37ba1031329030b71030b236b4b760911b6064820152608401610cec565b6001600160a01b038216600081815260096020526040808220805460ff1916851515179055517fdbebfba65bd6398fb722063efc10c99f624f9cd8ba657201056af918a676d5ee9190a25050565b60075461010090046001600160a01b03163314801590611bb357503360009081526008602052604090205460ff16155b15611bd0576040516282b42960e81b815260040160405180910390fd5b61138f613196565b611be0612f40565b60008181526012602052604081208054909103611c0f5760405162461bcd60e51b8152600401610cec90614779565b6000600882015460ff166003811115611c2a57611c2a61400b565b14611c6a5760405162461bcd60e51b815260206004820152601060248201526f4f66666572206e6f742061637469766560801b6044820152606401610cec565b60028101546001600160a01b03163314611cc65760405162461bcd60e51b815260206004820152601e60248201527f4f6e6c79206c656e6465722063616e207769746864726177206f6666657200006044820152606401610cec565b60078101546003820154611ce7916001600160a01b039091169033906130e5565b60088101805460ff19166002179055604051339083907fe6f4d8e39c4a3ade2f3812a17eb8f658c1cc293ceee263362516f01750847ac890600090a350610ddb6001600655565b606060018054610bfa90614670565b6000611d47612f40565b611d4f6131d3565b60008311611d9f5760405162461bcd60e51b815260206004820152601d60248201527f416d6f756e74206d7573742062652067726561746572207468616e20300000006044820152606401610cec565b428211611dee5760405162461bcd60e51b815260206004820152601e60248201527f4475652064617465206d75737420626520696e207468652066757475726500006044820152606401610cec565b600d805460009182611dff836147a7565b909155506040805160a08101825282815233602080830191825282840189815260608401898152600060808601818152888252601190945295909520845181559251600180850180546001600160a01b0319166001600160a01b039093169290921790915590516002808501919091559451600384015590516004830180549697509395929490939260ff191691908490811115611e9f57611e9f61400b565b0217905550905050611eb133826131f7565b336000908152601460205260409020611eca908261323b565b6040805185815260006020820152339183917ff0cc679c5da107ddb73531c12cdb064e51bc2134aa17742ce4e9fd880e16ffce910160405180910390a39050610be56001600655565b6001600160a01b03811660009081526014602090815260409182902080548351818402810184019094528084526060939283018282801561180f57602002820191906000526020600020908154815260200190600101908083116117fb5750505050509050919050565b610cb13383836132b5565b610e70613daa565b611f9b848484610f88565b61100d3385858585613354565b611fcc60405180606001604052806000815260200160008152602001600081525090565b5060408051606081018252600a548152600b546020820152600c549181019190915290565b611ff9612f40565b6120016131d3565b600081815260126020526040812080549091036120305760405162461bcd60e51b8152600401610cec90614779565b6000600882015460ff16600381111561204b5761204b61400b565b1461208b5760405162461bcd60e51b815260206004820152601060248201526f4f66666572206e6f742061637469766560801b6044820152606401610cec565b6001810154600090815260116020526040812090600482015460ff1660028111156120b8576120b861400b565b146120d55760405162461bcd60e51b8152600401610cec906146e1565b336001600160a01b03166120ec836001015461181b565b6001600160a01b0316146121425760405162461bcd60e51b815260206004820181905260248201527f4f6e6c79204e4654206f776e65722063616e20616363657074206f66666572736044820152606401610cec565b60078201546003830154612163916001600160a01b039091169033906130e5565b600282015460018301546121849133916001600160a01b039091169061347f565b33600090815260146020526040902060018301546121a2919061352f565b60028201546001600160a01b0316600090815260146020526040902060018301546121cd919061323b565b6040805161016081018252600184015481523360208201526002808501546001600160a01b0390811693830193909352600385015490921660608201529082015460808201819052600784015460a0830181905260c08301916122309190614753565b81526003830154602082015260400160008152604080516060808201835260048781015483526005808901546020808601919091526006808b015486880152818801959095529585018a90526001808a0154600090815260138852869020885181559688015187820180546001600160a01b03199081166001600160a01b0393841617909155968901516002808a0180548a16928416929092179091559489015160038901805490981691161790955560808701519186019190915560a08601519085015560c08501519184019190915560e084015160078401556101008401516008840180549193909260ff199092169184908111156123335761233361400b565b0217905550610120820151805160098301556020810151600a83015560400151600b82015561014090910151600c90910155600882018054600160ff1991821681179092556004830180549091168217905582015461239290846135f5565b600182015460028301546040516001600160a01b03909116815233919085907fffa8e4adef20403a71fedeb00a7d0c21f7c714855d9ac581923d2c44cc6f10809060200160405180910390a46002828101546001840154918301546003850154604080519283526001600160a01b039182166020840152921692339290917f7163841de0fbe6ab7e904fff10718e6fd9a43d7e690a26ed1458ffe8f8efd310910160405180910390a45050610ddb6001600655565b60075461010090046001600160a01b0316331480159061247757503360009081526008602052604090205460ff16155b15612494576040516282b42960e81b815260040160405180910390fd5b600081815260136020526040812080549091036124c35760405162461bcd60e51b8152600401610cec90614710565b6000600882015460ff1660028111156124de576124de61400b565b1461251d5760405162461bcd60e51b815260206004820152600f60248201526e42696c6c206e6f742061637469766560881b6044820152606401610cec565b806007015442116125635760405162461bcd60e51b815260206004820152601060248201526f42696c6c206e6f74207965742064756560801b6044820152606401610cec565b600801805460ff1916600217905550565b606061257f82612efa565b50600061259760408051602081019091526000815290565b905060008151116125b757604051806020016040528060008152506125e2565b806125c1846136f2565b6040516020016125d29291906147c0565b6040516020818303038152906040525b9392505050565b60156020528160005260406000208181548110610dfa57600080fd5b600061260f612f40565b6126176131d3565b600084815260116020526040812080549091036126465760405162461bcd60e51b8152600401610cec906146aa565b6000600482015460ff1660028111156126615761266161400b565b1461267e5760405162461bcd60e51b8152600401610cec906146e1565b7f00000000000000000000000000000000000000000000000000000000000000006001600160a01b0316846001600160a01b031614806126ef57507f00000000000000000000000000000000000000000000000000000000000000006001600160a01b0316846001600160a01b0316145b6127345760405162461bcd60e51b81526020600482015260166024820152752ab739bab83837b93a32b21039ba30b13632b1b7b4b760511b6044820152606401610cec565b602083015160408401518451612710929161274e91614766565b6127589190614766565b11156127b95760405162461bcd60e51b815260206004820152602a60248201527f496e76616c696420636f6e646974696f6e733a2073756d2063616e6e6f7420656044820152697863656564203130302560b01b6064820152608401610cec565b8251158015906127cd575060008360200151115b80156127dd575060008360400151115b6128425760405162461bcd60e51b815260206004820152603060248201527f416c6c20636f6e646974696f6e2070657263656e7461676573206d757374206260448201526f0652067726561746572207468616e20360841b6064820152608401610cec565b6010805460009182612853836147a7565b91905055905060006127108560200151846002015461287291906147ef565b61287c9190614806565b90506128936001600160a01b038716333084613785565b6040518060e00160405280838152602001888152602001336001600160a01b03168152602001876001600160a01b03168152602001868152602001828152602001600060038111156128e7576128e761400b565b90526000838152601260209081526040918290208351815583820151600180830191909155848401516002830180546001600160a01b03199081166001600160a01b0393841617909155606087015160038086018054909316919093161790556080860151805160048501559384015160058401559290930151600682015560a0840151600782015560c084015160088201805492949193909260ff1916919084908111156129985761299861400b565b0217905550505060008781526015602052604090206129b7908361323b565b336001600160a01b031687837f32645f28ae455f14af7a547728c579fc5a3f52d9c6db6d22a0de0ded95c82cbe846040516129f491815260200190565b60405180910390a4509150506125e26001600655565b6001600160a01b03918216600090815260056020908152604080832093909416825291909152205460ff1690565b60075461010090046001600160a01b03163314612a67576040516282b42960e81b815260040160405180910390fd5b6001600160a01b038116612ad15760405162461bcd60e51b815260206004820152602b60248201527f417574686f72697a65642053797374656d3a204e6577206f776e65722063616e60448201526a1b9bdd081899481b9d5b1b60aa1b6064820152608401610cec565b6007546001600160a01b03610100909104811690821603612b5a5760405162461bcd60e51b815260206004820152603c60248201527f417574686f72697a65642053797374656d3a204e6577206f776e65722063616e60448201527f6e6f74206265207468652073616d65206173206f6c64206f776e6572000000006064820152608401610cec565b60075461010090046001600160a01b031660009081526009602052604090205460ff1615612be15760405162461bcd60e51b815260206004820152602e60248201527f417574686f72697a65642053797374656d3a204f776e65722063616e6e6f742060448201526d31329030b71037b832b930ba37b960911b6064820152608401610cec565b600780546001600160a01b0390921661010002610100600160a81b0319909216919091179055565b612c11612f40565b612c196131d3565b60008181526013602052604081208054909103612c485760405162461bcd60e51b8152600401610cec90614710565b6000600882015460ff166002811115612c6357612c6361400b565b14612ca25760405162461bcd60e51b815260206004820152600f60248201526e42696c6c206e6f742061637469766560881b6044820152606401610cec565b60048101546003820154612cc1906001600160a01b0316333084613785565b6000612ccc8461181b565b9050600061271084600901600201548560040154612cea91906147ef565b612cf49190614806565b9050600061271085600901600001548660040154612d1291906147ef565b612d1c9190614806565b90506000856005015483612d309190614766565b9050600082612d3f8388614753565b612d499190614753565b6003880154909150612d65906001600160a01b031686846130e5565b8015612d84576003870154612d84906001600160a01b031633836130e5565b60038701546001600160a01b03166000908152600f602052604081208054859290612db0908490614766565b9250508190555082600e6000828254612dc99190614766565b90915550612dd89050886137be565b60088701805460ff1916600117905560405186815288907fc95485031ab8a7e2b9e325c6bdaafec43650b4434d8e819d55451d8a9826fb8a9060200160405180910390a26040516001600160a01b0386169089907f02aeab5f34ee393d2269c5a9265aa8f9ebffd7164c602a1ded2f9d04a268313090600090a36003870154604080518581526001600160a01b0390921660208301527f0c2a2f565c7774c59e49ef6b3c255329f4d254147e06e724d3a8569bb7bd21ad910160405180910390a150505050505050610ddb6001600655565b60006001600160e01b031982166380ac58cd60e01b1480612edb57506001600160e01b03198216635b5e139f60e01b145b80610be557506301ffc9a760e01b6001600160e01b0319831614610be5565b6000818152600260205260408120546001600160a01b031680610be557604051637e27328960e01b815260048101849052602401610cec565b61153883838360016137f9565b600260065403612f6357604051633ee5aeb560e01b815260040160405180910390fd5b6002600655565b600081815260156020908152604080832080548251818502810185019093528083529192909190830182828015612fc057602002820191906000526020600020905b815481526020019060010190808311612fac575b5050505050905060005b8151811015611538576000828281518110612fe757612fe7614828565b602090810291909101810151600081815260129092526040822090925090600882015460ff16600381111561301e5761301e61400b565b0361305a5760028101546007820154600383015461304a926001600160a01b03918216929116906130e5565b60088101805460ff191660031790555b5050600101612fca565b6000806130728585856138ff565b90506001600160a01b0381161580159061309457506001600160a01b03851615155b156130dd576001600160a01b03811660009081526014602052604090206130bb908561352f565b6001600160a01b03851660009081526014602052604090206130dd908561323b565b949350505050565b6040516001600160a01b0383811660248301526044820183905261153891859182169063a9059cbb906064015b604051602081830303815290604052915060e01b6020820180516001600160e01b03838183161783525050505061390c565b61314c61397d565b6007805460ff191690557f5db9ee0a495bf2e6ff9c91a7834c1ba4fdd244a5e8aa4e537bd38aeae4b073aa335b6040516001600160a01b03909116815260200160405180910390a1565b61319e6131d3565b6007805460ff191660011790557f62e78cea01bee320cd4e420270b5ea74000d11b0c9f74754ebdbfc544b05a2586131793390565b60075460ff161561138f5760405163d93c066560e01b815260040160405180910390fd5b61320182826139a0565b6040516001600160a01b0383169082907f0176f203df400d7bd5f1b1c9ef36c16709bf3b5d9fd35f000a6bae32393f66c390600090a35050565b6132948280548060200260200160405190810160405280929190818152602001828054801561328957602002820191906000526020600020905b815481526020019060010190808311613275575b5050505050826139ba565b1561329d575050565b81546001810183556000928352602090922090910155565b6001600160a01b0382166132e757604051630b61174360e31b81526001600160a01b0383166004820152602401610cec565b6001600160a01b03838116600081815260056020908152604080832094871680845294825291829020805460ff191686151590811790915591519182527f17307eab39ab6107e8899845ad3d59bd9653f200f220920489ca2b5937696c31910160405180910390a3505050565b6001600160a01b0383163b1561347857604051630a85bd0160e11b81526001600160a01b0384169063150b7a029061339690889088908790879060040161483e565b6020604051808303816000875af19250505080156133d1575060408051601f3d908101601f191682019092526133ce9181019061487b565b60015b61343a573d8080156133ff576040519150601f19603f3d011682016040523d82523d6000602084013e613404565b606091505b50805160000361343257604051633250574960e11b81526001600160a01b0385166004820152602401610cec565b805181602001fd5b6001600160e01b03198116630a85bd0160e11b1461347657604051633250574960e11b81526001600160a01b0385166004820152602401610cec565b505b5050505050565b6001600160a01b0382166134a957604051633250574960e11b815260006004820152602401610cec565b60006134b783836000613064565b90506001600160a01b0381166134e357604051637e27328960e01b815260048101839052602401610cec565b836001600160a01b0316816001600160a01b03161461100d576040516364283d7b60e01b81526001600160a01b0380861660048301526024820184905282166044820152606401610cec565b613586828054806020026020016040519081016040528092919081815260200182805480156132895760200282019190600052602060002090815481526020019060010190808311613275575050505050826139ba565b61358e575050565b60006135e9838054806020026020016040519081016040528092919081815260200182805480156135de57602002820191906000526020600020905b8154815260200190600101908083116135ca575b5050505050836139d0565b90506115388382613a13565b60008281526015602090815260408083208054825181850281018501909352808352919290919083018282801561364b57602002820191906000526020600020905b815481526020019060010190808311613637575b5050505050905060005b815181101561100d57600082828151811061367257613672614828565b602002602001015190508381146136e957600081815260126020526040812090600882015460ff1660038111156136ab576136ab61400b565b036136e7576002810154600782015460038301546136d7926001600160a01b03918216929116906130e5565b60088101805460ff191660031790555b505b50600101613655565b606060006136ff83613a95565b600101905060008167ffffffffffffffff81111561371f5761371f614491565b6040519080825280601f01601f191660200182016040528015613749576020820181803683370190505b5090508181016020015b600019016f181899199a1a9b1b9c1cb0b131b232b360811b600a86061a8153600a850494508461375357509392505050565b6040516001600160a01b03848116602483015283811660448301526064820183905261100d9186918216906323b872dd90608401613112565b60006137cd6000836000613064565b90506001600160a01b038116610cb157604051637e27328960e01b815260048101839052602401610cec565b808061380d57506001600160a01b03821615155b156138cf57600061381d84612efa565b90506001600160a01b038316158015906138495750826001600160a01b0316816001600160a01b031614155b801561385c575061385a8184612a0a565b155b156138855760405163a9fbf51f60e01b81526001600160a01b0384166004820152602401610cec565b81156138cd5783856001600160a01b0316826001600160a01b03167f8c5be1e5ebec7d5bd14f71427d1e84f3dd0314c0f7b2291e5b200ac8c7c3b92560405160405180910390a45b505b5050600090815260046020526040902080546001600160a01b0319166001600160a01b0392909216919091179055565b60006130dd848484613b6d565b600080602060008451602086016000885af18061392f576040513d6000823e3d81fd5b50506000513d91508115613947578060011415613954565b6001600160a01b0384163b155b1561100d57604051635274afe760e01b81526001600160a01b0385166004820152602401610cec565b60075460ff1661138f57604051638dfc202b60e01b815260040160405180910390fd5b610cb1828260405180602001604052806000815250613c66565b600082516139c884846139d0565b109392505050565b815160009081905b84518210156130dd57838583815181106139f4576139f4614828565b602002602001015103613a085750806130dd565b8160010191506139d8565b8154811115613a20575050565b81548290613a3090600190614753565b81548110613a4057613a40614828565b9060005260206000200154828281548110613a5d57613a5d614828565b906000526020600020018190555081805480613a7b57613a7b614898565b600190038181906000526020600020016000905590555050565b60008072184f03e93ff9f4daa797ed6e38ed64bf6a1f0160401b8310613ad45772184f03e93ff9f4daa797ed6e38ed64bf6a1f0160401b830492506040015b6d04ee2d6d415b85acef81000000008310613b00576d04ee2d6d415b85acef8100000000830492506020015b662386f26fc100008310613b1e57662386f26fc10000830492506010015b6305f5e1008310613b36576305f5e100830492506008015b6127108310613b4a57612710830492506004015b60648310613b5c576064830492506002015b600a8310610be55760010192915050565b6000828152600260205260408120546001600160a01b0390811690831615613b9a57613b9a818486613c7e565b6001600160a01b03811615613bd857613bb76000856000806137f9565b6001600160a01b038116600090815260036020526040902080546000190190555b6001600160a01b03851615613c07576001600160a01b0385166000908152600360205260409020805460010190555b60008481526002602052604080822080546001600160a01b0319166001600160a01b0389811691821790925591518793918516917fddf252ad1be2c89b69c2b068fc378daa952ba7f163c4a11628f55a4df523b3ef91a4949350505050565b613c708383613ce2565b611538336000858585613354565b613c89838383613d47565b611538576001600160a01b038316613cb757604051637e27328960e01b815260048101829052602401610cec565b60405163177e802f60e01b81526001600160a01b038316600482015260248101829052604401610cec565b6001600160a01b038216613d0c57604051633250574960e11b815260006004820152602401610cec565b6000613d1a83836000613064565b90506001600160a01b03811615611538576040516339e3563760e11b815260006004820152602401610cec565b60006001600160a01b038316158015906130dd5750826001600160a01b0316846001600160a01b03161480613d815750613d818484612a0a565b806130dd5750506000908152600460205260409020546001600160a01b03908116911614919050565b6040518061016001604052806000815260200160006001600160a01b0316815260200160006001600160a01b0316815260200160006001600160a01b031681526020016000815260200160008152602001600081526020016000815260200160006002811115613e1c57613e1c61400b565b8152602001613e4560405180606001604052806000815260200160008152602001600081525090565b8152602001600081525090565b6040518060a001604052806000815260200160006001600160a01b03168152602001600081526020016000815260200160006002811115613e9557613e9561400b565b905290565b6040518060e00160405280600081526020016000815260200160006001600160a01b0316815260200160006001600160a01b03168152602001613ef760405180606001604052806000815260200160008152602001600081525090565b81526020016000815260200160006003811115613e9557613e9561400b565b6001600160e01b031981168114610ddb57600080fd5b600060208284031215613f3e57600080fd5b81356125e281613f16565b60005b83811015613f64578181015183820152602001613f4c565b50506000910152565b60008151808452613f85816020860160208601613f49565b601f01601f19169290920160200192915050565b6020815260006125e26020830184613f6d565b600060208284031215613fbe57600080fd5b5035919050565b80356001600160a01b0381168114613fdc57600080fd5b919050565b60008060408385031215613ff457600080fd5b613ffd83613fc5565b946020939093013593505050565b634e487b7160e01b600052602160045260246000fd5b60038110610ddb57610ddb61400b565b61403a81614021565b9052565b80518252602081015161405c60208401826001600160a01b03169052565b50604081015161407760408401826001600160a01b03169052565b50606081015161409260608401826001600160a01b03169052565b506080810151608083015260a081015160a083015260c081015160c083015260e081015160e08301526101008101516140cf610100840182614031565b506101208101516140f86101208401828051825260208082015190830152604090810151910152565b5061014001516101809190910152565b6101a08101610be5828461403e565b60008060006060848603121561412c57600080fd5b61413584613fc5565b925061414360208501613fc5565b929592945050506040919091013590565b8b81526001600160a01b038b811660208301528a81166040830152891660608201526080810188905260a0810187905260c0810186905260e081018590526101a081016141a085614021565b610100820194909452825161012082015260208301516101408201526040909201516101608301526101809091015298975050505050505050565b815181526020808301516001600160a01b0316908201526040808301519082015260608083015190820152608082015160a082019061421981614021565b8060808401525092915050565b6000806040838503121561423957600080fd5b8235915061424960208401613fc5565b90509250929050565b60008060006060848603121561426757600080fd5b505081359360208301359350604090920135919050565b6004811061403a5761403a61400b565b81518152602080830151818301526040808401516001600160a01b0390811682850152606080860151909116908401526080808501518051918501919091529182015160a084015281015160c08301526101208201905060a083015160e083015260c083015161430261010084018261427e565b5092915050565b6101c08101614318828561403e565b6001600160a01b03929092166101a09190910152919050565b602080825282518282018190526000918401906040840190835b8181101561436957835183526020938401939092019160010161434b565b509095945050505050565b60006020828403121561438657600080fd5b6125e282613fc5565b600080604083850312156143a257600080fd5b6143ab83613fc5565b9150602083013580151581146143c057600080fd5b809150509250929050565b878152602081018790526001600160a01b03868116604083015285166060820152610120810161441260808301868051825260208082015190830152604090810151910152565b8360e083015261442661010083018461427e565b98975050505050505050565b6000806040838503121561444557600080fd5b50508035926020909101359150565b8581526001600160a01b0385166020820152604081018490526060810183905260a0810161448183614021565b8260808301529695505050505050565b634e487b7160e01b600052604160045260246000fd5b604051601f8201601f1916810167ffffffffffffffff811182821017156144d0576144d0614491565b604052919050565b600080600080608085870312156144ee57600080fd5b6144f785613fc5565b935061450560208601613fc5565b925060408501359150606085013567ffffffffffffffff81111561452857600080fd5b8501601f8101871361453957600080fd5b803567ffffffffffffffff81111561455357614553614491565b614566601f8201601f19166020016144a7565b81815288602083850101111561457b57600080fd5b8160208401602083013760006020838301015280935050505092959194509250565b81518152602080830151908201526040808301519082015260608101610be5565b600080600083850360a08112156145d457600080fd5b843593506145e460208601613fc5565b92506060603f19820112156145f857600080fd5b506040516060810167ffffffffffffffff8111828210171561461c5761461c614491565b60409081528581013582526060860135602083015260809095013594810194909452509093909250565b6000806040838503121561465957600080fd5b61466283613fc5565b915061424960208401613fc5565b600181811c9082168061468457607f821691505b6020821081036146a457634e487b7160e01b600052602260045260246000fd5b50919050565b6020808252601b908201527f42696c6c207265717565737420646f6573206e6f742065786973740000000000604082015260600190565b6020808252601590820152742134b636103932b8bab2b9ba103737ba1037b832b760591b604082015260600190565b602080825260139082015272109a5b1b08191bd95cc81b9bdd08195e1a5cdd606a1b604082015260600190565b634e487b7160e01b600052601160045260246000fd5b81810381811115610be557610be561473d565b80820180821115610be557610be561473d565b60208082526014908201527313d999995c88191bd95cc81b9bdd08195e1a5cdd60621b604082015260600190565b6000600182016147b9576147b961473d565b5060010190565b600083516147d2818460208801613f49565b8351908301906147e6818360208801613f49565b01949350505050565b8082028115828204841417610be557610be561473d565b60008261482357634e487b7160e01b600052601260045260246000fd5b500490565b634e487b7160e01b600052603260045260246000fd5b6001600160a01b038581168252841660208201526040810183905260806060820181905260009061487190830184613f6d565b9695505050505050565b60006020828403121561488d57600080fd5b81516125e281613f16565b634e487b7160e01b600052603160045260246000fdfea26469706673582212203af0146f50aef7a4dee4148cc9581353fa9ad18fcb4647e96030130ce5e4656c64736f6c634300081c0033",
  "linkReferences": {},
  "deployedLinkReferences": {}
}