{
  "_format": "hh-sol-artifact-1",
  "contractName": "FactoringContract",
  "sourceName": "contracts/FactoringContract.sol",
  "abi": [
    {
      "inputs": [
        {
          "internalType": "address",
          "name": "_usdc",
          "type": "address"
        },
        {
          "internalType": "address",
          "name": "_usdt",
          "type": "address"
        }
      ],
      "stateMutability": "nonpayable",
      "type": "constructor"
    },
    {
      "inputs": [
        {
          "internalType": "address",
          "name": "sender",
          "type": "address"
        },
        {
          "internalType": "uint256",
          "name": "tokenId",
          "type": "uint256"
        },
        {
          "internalType": "address",
          "name": "owner",
          "type": "address"
        }
      ],
      "name": "ERC721IncorrectOwner",
      "type": "error"
    },
    {
      "inputs": [
        {
          "internalType": "address",
          "name": "operator",
          "type": "address"
        },
        {
          "internalType": "uint256",
          "name": "tokenId",
          "type": "uint256"
        }
      ],
      "name": "ERC721InsufficientApproval",
      "type": "error"
    },
    {
      "inputs": [
        {
          "internalType": "address",
          "name": "approver",
          "type": "address"
        }
      ],
      "name": "ERC721InvalidApprover",
      "type": "error"
    },
    {
      "inputs": [
        {
          "internalType": "address",
          "name": "operator",
          "type": "address"
        }
      ],
      "name": "ERC721InvalidOperator",
      "type": "error"
    },
    {
      "inputs": [
        {
          "internalType": "address",
          "name": "owner",
          "type": "address"
        }
      ],
      "name": "ERC721InvalidOwner",
      "type": "error"
    },
    {
      "inputs": [
        {
          "internalType": "address",
          "name": "receiver",
          "type": "address"
        }
      ],
      "name": "ERC721InvalidReceiver",
      "type": "error"
    },
    {
      "inputs": [
        {
          "internalType": "address",
          "name": "sender",
          "type": "address"
        }
      ],
      "name": "ERC721InvalidSender",
      "type": "error"
    },
    {
      "inputs": [
        {
          "internalType": "uint256",
          "name": "tokenId",
          "type": "uint256"
        }
      ],
      "name": "ERC721NonexistentToken",
      "type": "error"
    },
    {
      "inputs": [],
      "name": "EnforcedPause",
      "type": "error"
    },
    {
      "inputs": [],
      "name": "ExpectedPause",
      "type": "error"
    },
    {
      "inputs": [],
      "name": "InvalidArrayLength",
      "type": "error"
    },
    {
      "inputs": [],
      "name": "ReentrancyGuardReentrantCall",
      "type": "error"
    },
    {
      "inputs": [
        {
          "internalType": "address",
          "name": "token",
          "type": "address"
        }
      ],
      "name": "SafeERC20FailedOperation",
      "type": "error"
    },
    {
      "inputs": [],
      "name": "Unauthorized",
      "type": "error"
    },
    {
      "anonymous": false,
      "inputs": [
        {
          "indexed": true,
          "internalType": "address",
          "name": "owner",
          "type": "address"
        },
        {
          "indexed": true,
          "internalType": "address",
          "name": "approved",
          "type": "address"
        },
        {
          "indexed": true,
          "internalType": "uint256",
          "name": "tokenId",
          "type": "uint256"
        }
      ],
      "name": "Approval",
      "type": "event"
    },
    {
      "anonymous": false,
      "inputs": [
        {
          "indexed": true,
          "internalType": "address",
          "name": "owner",
          "type": "address"
        },
        {
          "indexed": true,
          "internalType": "address",
          "name": "operator",
          "type": "address"
        },
        {
          "indexed": false,
          "internalType": "bool",
          "name": "approved",
          "type": "bool"
        }
      ],
      "name": "ApprovalForAll",
      "type": "event"
    },
    {
      "anonymous": false,
      "inputs": [
        {
          "indexed": true,
          "internalType": "uint256",
          "name": "billId",
          "type": "uint256"
        },
        {
          "indexed": false,
          "internalType": "uint256",
          "name": "finalAmount",
          "type": "uint256"
        }
      ],
      "name": "BillCompleted",
      "type": "event"
    },
    {
      "anonymous": false,
      "inputs": [
        {
          "indexed": true,
          "internalType": "uint256",
          "name": "billId",
          "type": "uint256"
        },
        {
          "indexed": true,
          "internalType": "address",
          "name": "debtor",
          "type": "address"
        },
        {
          "indexed": true,
          "internalType": "address",
          "name": "lender",
          "type": "address"
        },
        {
          "indexed": false,
          "internalType": "uint256",
          "name": "amount",
          "type": "uint256"
        },
        {
          "indexed": false,
          "internalType": "address",
          "name": "stablecoin",
          "type": "address"
        }
      ],
      "name": "BillCreated",
      "type": "event"
    },
    {
      "anonymous": false,
      "inputs": [
        {
          "indexed": true,
          "internalType": "uint256",
          "name": "billId",
          "type": "uint256"
        },
        {
          "indexed": true,
          "internalType": "address",
          "name": "lastOwner",
          "type": "address"
        }
      ],
      "name": "BillNFTBurned",
      "type": "event"
    },
    {
      "anonymous": false,
      "inputs": [
        {
          "indexed": true,
          "internalType": "uint256",
          "name": "billRequestId",
          "type": "uint256"
        }
      ],
      "name": "BillRequestCancelled",
      "type": "event"
    },
    {
      "anonymous": false,
      "inputs": [
        {
          "indexed": true,
          "internalType": "uint256",
          "name": "billRequestId",
          "type": "uint256"
        },
        {
          "indexed": true,
          "internalType": "address",
          "name": "debtor",
          "type": "address"
        },
        {
          "indexed": false,
          "internalType": "uint256",
          "name": "amount",
          "type": "uint256"
        },
        {
          "indexed": false,
          "internalType": "address",
          "name": "stablecoin",
          "type": "address"
        }
      ],
      "name": "BillRequestCreated",
      "type": "event"
    },
    {
      "anonymous": false,
      "inputs": [
        {
          "indexed": false,
          "internalType": "uint256",
          "name": "feePercentage",
          "type": "uint256"
        },
        {
          "indexed": false,
          "internalType": "uint256",
          "name": "upfrontPercentage",
          "type": "uint256"
        },
        {
          "indexed": false,
          "internalType": "uint256",
          "name": "ownerPercentage",
          "type": "uint256"
        }
      ],
      "name": "DefaultConditionsUpdated",
      "type": "event"
    },
    {
      "anonymous": false,
      "inputs": [
        {
          "indexed": false,
          "internalType": "uint256",
          "name": "amount",
          "type": "uint256"
        },
        {
          "indexed": false,
          "internalType": "address",
          "name": "stablecoin",
          "type": "address"
        }
      ],
      "name": "FeesCollected",
      "type": "event"
    },
    {
      "anonymous": false,
      "inputs": [
        {
          "indexed": true,
          "internalType": "uint256",
          "name": "tokenId",
          "type": "uint256"
        },
        {
          "indexed": true,
          "internalType": "address",
          "name": "to",
          "type": "address"
        }
      ],
      "name": "NFTMinted",
      "type": "event"
    },
    {
      "anonymous": false,
      "inputs": [
        {
          "indexed": true,
          "internalType": "uint256",
          "name": "offerId",
          "type": "uint256"
        },
        {
          "indexed": true,
          "internalType": "uint256",
          "name": "billRequestId",
          "type": "uint256"
        },
        {
          "indexed": true,
          "internalType": "address",
          "name": "debtor",
          "type": "address"
        },
        {
          "indexed": false,
          "internalType": "address",
          "name": "lender",
          "type": "address"
        }
      ],
      "name": "OfferAccepted",
      "type": "event"
    },
    {
      "anonymous": false,
      "inputs": [
        {
          "indexed": true,
          "internalType": "uint256",
          "name": "offerId",
          "type": "uint256"
        },
        {
          "indexed": true,
          "internalType": "uint256",
          "name": "billRequestId",
          "type": "uint256"
        },
        {
          "indexed": true,
          "internalType": "address",
          "name": "lender",
          "type": "address"
        },
        {
          "indexed": false,
          "internalType": "uint256",
          "name": "upfrontAmount",
          "type": "uint256"
        }
      ],
      "name": "OfferCreated",
      "type": "event"
    },
    {
      "anonymous": false,
      "inputs": [
        {
          "indexed": true,
          "internalType": "uint256",
          "name": "offerId",
          "type": "uint256"
        },
        {
          "indexed": true,
          "internalType": "address",
          "name": "lender",
          "type": "address"
        }
      ],
      "name": "OfferWithdrawn",
      "type": "event"
    },
    {
      "anonymous": false,
      "inputs": [
        {
          "indexed": false,
          "internalType": "address",
          "name": "account",
          "type": "address"
        }
      ],
      "name": "Paused",
      "type": "event"
    },
    {
      "anonymous": false,
      "inputs": [
        {
          "indexed": true,
          "internalType": "address",
          "name": "depositor",
          "type": "address"
        },
        {
          "indexed": false,
          "internalType": "uint256",
          "name": "amount",
          "type": "uint256"
        },
        {
          "indexed": false,
          "internalType": "address",
          "name": "stablecoin",
          "type": "address"
        }
      ],
      "name": "PoolDeposit",
      "type": "event"
    },
    {
      "anonymous": false,
      "inputs": [
        {
          "indexed": true,
          "internalType": "address",
          "name": "withdrawer",
          "type": "address"
        },
        {
          "indexed": false,
          "internalType": "uint256",
          "name": "amount",
          "type": "uint256"
        },
        {
          "indexed": false,
          "internalType": "address",
          "name": "stablecoin",
          "type": "address"
        }
      ],
      "name": "PoolWithdraw",
      "type": "event"
    },
    {
      "anonymous": false,
      "inputs": [
        {
          "indexed": true,
          "internalType": "address",
          "name": "admin",
          "type": "address"
        }
      ],
      "name": "SetAdmin",
      "type": "event"
    },
    {
      "anonymous": false,
      "inputs": [
        {
          "indexed": true,
          "internalType": "address",
          "name": "authOperator",
          "type": "address"
        }
      ],
      "name": "SetAuthOperator",
      "type": "event"
    },
    {
      "anonymous": false,
      "inputs": [
        {
          "indexed": true,
          "internalType": "address",
          "name": "operator",
          "type": "address"
        }
      ],
      "name": "SetOperator",
      "type": "event"
    },
    {
      "anonymous": false,
      "inputs": [
        {
          "indexed": true,
          "internalType": "address",
          "name": "from",
          "type": "address"
        },
        {
          "indexed": true,
          "internalType": "address",
          "name": "to",
          "type": "address"
        },
        {
          "indexed": true,
          "internalType": "uint256",
          "name": "tokenId",
          "type": "uint256"
        }
      ],
      "name": "Transfer",
      "type": "event"
    },
    {
      "anonymous": false,
      "inputs": [
        {
          "indexed": false,
          "internalType": "address",
          "name": "account",
          "type": "address"
        }
      ],
      "name": "Unpaused",
      "type": "event"
    },
    {
      "inputs": [],
      "name": "BASIS_POINTS",
      "outputs": [
        {
          "internalType": "uint256",
          "name": "",
          "type": "uint256"
        }
      ],
      "stateMutability": "view",
      "type": "function"
    },
    {
      "inputs": [],
      "name": "USDC",
      "outputs": [
        {
          "internalType": "contract IERC20",
          "name": "",
          "type": "address"
        }
      ],
      "stateMutability": "view",
      "type": "function"
    },
    {
      "inputs": [],
      "name": "USDT",
      "outputs": [
        {
          "internalType": "contract IERC20",
          "name": "",
          "type": "address"
        }
      ],
      "stateMutability": "view",
      "type": "function"
    },
    {
      "inputs": [
        {
          "internalType": "uint256",
          "name": "offerId",
          "type": "uint256"
        }
      ],
      "name": "acceptOffer",
      "outputs": [],
      "stateMutability": "nonpayable",
      "type": "function"
    },
    {
      "inputs": [
        {
          "internalType": "address",
          "name": "to",
          "type": "address"
        },
        {
          "internalType": "uint256",
          "name": "tokenId",
          "type": "uint256"
        }
      ],
      "name": "approve",
      "outputs": [],
      "stateMutability": "nonpayable",
      "type": "function"
    },
    {
      "inputs": [
        {
          "internalType": "address",
          "name": "owner",
          "type": "address"
        }
      ],
      "name": "balanceOf",
      "outputs": [
        {
          "internalType": "uint256",
          "name": "",
          "type": "uint256"
        }
      ],
      "stateMutability": "view",
      "type": "function"
    },
    {
      "inputs": [
        {
          "internalType": "uint256",
          "name": "",
          "type": "uint256"
        },
        {
          "internalType": "uint256",
          "name": "",
          "type": "uint256"
        }
      ],
      "name": "billRequestOffers",
      "outputs": [
        {
          "internalType": "uint256",
          "name": "",
          "type": "uint256"
        }
      ],
      "stateMutability": "view",
      "type": "function"
    },
    {
      "inputs": [
        {
          "internalType": "uint256",
          "name": "",
          "type": "uint256"
        }
      ],
      "name": "billRequests",
      "outputs": [
        {
          "internalType": "uint256",
          "name": "id",
          "type": "uint256"
        },
        {
          "internalType": "address",
          "name": "debtor",
          "type": "address"
        },
        {
          "internalType": "uint256",
          "name": "totalAmount",
          "type": "uint256"
        },
        {
          "internalType": "uint256",
          "name": "dueDate",
          "type": "uint256"
        },
        {
          "internalType": "enum FactoringContract.BillRequestStatus",
          "name": "status",
          "type": "uint8"
        }
      ],
      "stateMutability": "view",
      "type": "function"
    },
    {
      "inputs": [
        {
          "internalType": "uint256",
          "name": "",
          "type": "uint256"
        }
      ],
      "name": "bills",
      "outputs": [
        {
          "internalType": "uint256",
          "name": "id",
          "type": "uint256"
        },
        {
          "internalType": "address",
          "name": "debtor",
          "type": "address"
        },
        {
          "internalType": "address",
          "name": "lender",
          "type": "address"
        },
        {
          "internalType": "address",
          "name": "stablecoin",
          "type": "address"
        },
        {
          "internalType": "uint256",
          "name": "totalAmount",
          "type": "uint256"
        },
        {
          "internalType": "uint256",
          "name": "upfrontPaid",
          "type": "uint256"
        },
        {
          "internalType": "uint256",
          "name": "remainingAmount",
          "type": "uint256"
        },
        {
          "internalType": "uint256",
          "name": "dueDate",
          "type": "uint256"
        },
        {
          "internalType": "enum FactoringContract.BillStatus",
          "name": "status",
          "type": "uint8"
        },
        {
          "components": [
            {
              "internalType": "uint256",
              "name": "feePercentage",
              "type": "uint256"
            },
            {
              "internalType": "uint256",
              "name": "upfrontPercentage",
              "type": "uint256"
            },
            {
              "internalType": "uint256",
              "name": "ownerPercentage",
              "type": "uint256"
            }
          ],
          "internalType": "struct FactoringContract.Conditions",
          "name": "conditions",
          "type": "tuple"
        },
        {
          "internalType": "uint256",
          "name": "acceptedOfferId",
          "type": "uint256"
        }
      ],
      "stateMutability": "view",
      "type": "function"
    },
    {
      "inputs": [
        {
          "internalType": "uint256",
          "name": "billRequestId",
          "type": "uint256"
        }
      ],
      "name": "cancelBillRequest",
      "outputs": [],
      "stateMutability": "nonpayable",
      "type": "function"
    },
    {
      "inputs": [
        {
          "internalType": "uint256",
          "name": "billId",
          "type": "uint256"
        }
      ],
      "name": "completeBill",
      "outputs": [],
      "stateMutability": "payable",
      "type": "function"
    },
    {
      "inputs": [
        {
          "internalType": "uint256",
          "name": "totalAmount",
          "type": "uint256"
        },
        {
          "internalType": "uint256",
          "name": "dueDate",
          "type": "uint256"
        }
      ],
      "name": "createBillRequest",
      "outputs": [
        {
          "internalType": "uint256",
          "name": "",
          "type": "uint256"
        }
      ],
      "stateMutability": "nonpayable",
      "type": "function"
    },
    {
      "inputs": [
        {
          "internalType": "uint256",
          "name": "billRequestId",
          "type": "uint256"
        },
        {
          "internalType": "address",
          "name": "stablecoin",
          "type": "address"
        },
        {
          "components": [
            {
              "internalType": "uint256",
              "name": "feePercentage",
              "type": "uint256"
            },
            {
              "internalType": "uint256",
              "name": "upfrontPercentage",
              "type": "uint256"
            },
            {
              "internalType": "uint256",
              "name": "ownerPercentage",
              "type": "uint256"
            }
          ],
          "internalType": "struct FactoringContract.Conditions",
          "name": "conditions",
          "type": "tuple"
        }
      ],
      "name": "createOffer",
      "outputs": [
        {
          "internalType": "uint256",
          "name": "",
          "type": "uint256"
        }
      ],
      "stateMutability": "nonpayable",
      "type": "function"
    },
    {
      "inputs": [],
      "name": "defaultConditions",
      "outputs": [
        {
          "internalType": "uint256",
          "name": "feePercentage",
          "type": "uint256"
        },
        {
          "internalType": "uint256",
          "name": "upfrontPercentage",
          "type": "uint256"
        },
        {
          "internalType": "uint256",
          "name": "ownerPercentage",
          "type": "uint256"
        }
      ],
      "stateMutability": "view",
      "type": "function"
    },
    {
      "inputs": [
        {
          "internalType": "uint256",
          "name": "tokenId",
          "type": "uint256"
        }
      ],
      "name": "getApproved",
      "outputs": [
        {
          "internalType": "address",
          "name": "",
          "type": "address"
        }
      ],
      "stateMutability": "view",
      "type": "function"
    },
    {
      "inputs": [
        {
          "internalType": "address",
          "name": "_admin",
          "type": "address"
        }
      ],
      "name": "getAuthorizedAdmin",
      "outputs": [
        {
          "internalType": "bool",
          "name": "",
          "type": "bool"
        }
      ],
      "stateMutability": "view",
      "type": "function"
    },
    {
      "inputs": [
        {
          "internalType": "address",
          "name": "_operator",
          "type": "address"
        }
      ],
      "name": "getAuthorizedOperator",
      "outputs": [
        {
          "internalType": "bool",
          "name": "",
          "type": "bool"
        }
      ],
      "stateMutability": "view",
      "type": "function"
    },
    {
      "inputs": [
        {
          "internalType": "uint256",
          "name": "billId",
          "type": "uint256"
        }
      ],
      "name": "getBill",
      "outputs": [
        {
          "components": [
            {
              "internalType": "uint256",
              "name": "id",
              "type": "uint256"
            },
            {
              "internalType": "address",
              "name": "debtor",
              "type": "address"
            },
            {
              "internalType": "address",
              "name": "lender",
              "type": "address"
            },
            {
              "internalType": "address",
              "name": "stablecoin",
              "type": "address"
            },
            {
              "internalType": "uint256",
              "name": "totalAmount",
              "type": "uint256"
            },
            {
              "internalType": "uint256",
              "name": "upfrontPaid",
              "type": "uint256"
            },
            {
              "internalType": "uint256",
              "name": "remainingAmount",
              "type": "uint256"
            },
            {
              "internalType": "uint256",
              "name": "dueDate",
              "type": "uint256"
            },
            {
              "internalType": "enum FactoringContract.BillStatus",
              "name": "status",
              "type": "uint8"
            },
            {
              "components": [
                {
                  "internalType": "uint256",
                  "name": "feePercentage",
                  "type": "uint256"
                },
                {
                  "internalType": "uint256",
                  "name": "upfrontPercentage",
                  "type": "uint256"
                },
                {
                  "internalType": "uint256",
                  "name": "ownerPercentage",
                  "type": "uint256"
                }
              ],
              "internalType": "struct FactoringContract.Conditions",
              "name": "conditions",
              "type": "tuple"
            },
            {
              "internalType": "uint256",
              "name": "acceptedOfferId",
              "type": "uint256"
            }
          ],
          "internalType": "struct FactoringContract.Bill",
          "name": "",
          "type": "tuple"
        }
      ],
      "stateMutability": "view",
      "type": "function"
    },
    {
      "inputs": [
        {
          "internalType": "uint256",
          "name": "nftId",
          "type": "uint256"
        }
      ],
      "name": "getBillByNFT",
      "outputs": [
        {
          "components": [
            {
              "internalType": "uint256",
              "name": "id",
              "type": "uint256"
            },
            {
              "internalType": "address",
              "name": "debtor",
              "type": "address"
            },
            {
              "internalType": "address",
              "name": "lender",
              "type": "address"
            },
            {
              "internalType": "address",
              "name": "stablecoin",
              "type": "address"
            },
            {
              "internalType": "uint256",
              "name": "totalAmount",
              "type": "uint256"
            },
            {
              "internalType": "uint256",
              "name": "upfrontPaid",
              "type": "uint256"
            },
            {
              "internalType": "uint256",
              "name": "remainingAmount",
              "type": "uint256"
            },
            {
              "internalType": "uint256",
              "name": "dueDate",
              "type": "uint256"
            },
            {
              "internalType": "enum FactoringContract.BillStatus",
              "name": "status",
              "type": "uint8"
            },
            {
              "components": [
                {
                  "internalType": "uint256",
                  "name": "feePercentage",
                  "type": "uint256"
                },
                {
                  "internalType": "uint256",
                  "name": "upfrontPercentage",
                  "type": "uint256"
                },
                {
                  "internalType": "uint256",
                  "name": "ownerPercentage",
                  "type": "uint256"
                }
              ],
              "internalType": "struct FactoringContract.Conditions",
              "name": "conditions",
              "type": "tuple"
            },
            {
              "internalType": "uint256",
              "name": "acceptedOfferId",
              "type": "uint256"
            }
          ],
          "internalType": "struct FactoringContract.Bill",
          "name": "",
          "type": "tuple"
        }
      ],
      "stateMutability": "view",
      "type": "function"
    },
    {
      "inputs": [
        {
          "internalType": "uint256",
          "name": "tokenId",
          "type": "uint256"
        }
      ],
      "name": "getBillNFTOwner",
      "outputs": [
        {
          "internalType": "address",
          "name": "",
          "type": "address"
        }
      ],
      "stateMutability": "view",
      "type": "function"
    },
    {
      "inputs": [
        {
          "internalType": "uint256",
          "name": "billRequestId",
          "type": "uint256"
        }
      ],
      "name": "getBillRequest",
      "outputs": [
        {
          "components": [
            {
              "internalType": "uint256",
              "name": "id",
              "type": "uint256"
            },
            {
              "internalType": "address",
              "name": "debtor",
              "type": "address"
            },
            {
              "internalType": "uint256",
              "name": "totalAmount",
              "type": "uint256"
            },
            {
              "internalType": "uint256",
              "name": "dueDate",
              "type": "uint256"
            },
            {
              "internalType": "enum FactoringContract.BillRequestStatus",
              "name": "status",
              "type": "uint8"
            }
          ],
          "internalType": "struct FactoringContract.BillRequest",
          "name": "",
          "type": "tuple"
        }
      ],
      "stateMutability": "view",
      "type": "function"
    },
    {
      "inputs": [
        {
          "internalType": "uint256",
          "name": "billId",
          "type": "uint256"
        }
      ],
      "name": "getBillWithOwner",
      "outputs": [
        {
          "components": [
            {
              "internalType": "uint256",
              "name": "id",
              "type": "uint256"
            },
            {
              "internalType": "address",
              "name": "debtor",
              "type": "address"
            },
            {
              "internalType": "address",
              "name": "lender",
              "type": "address"
            },
            {
              "internalType": "address",
              "name": "stablecoin",
              "type": "address"
            },
            {
              "internalType": "uint256",
              "name": "totalAmount",
              "type": "uint256"
            },
            {
              "internalType": "uint256",
              "name": "upfrontPaid",
              "type": "uint256"
            },
            {
              "internalType": "uint256",
              "name": "remainingAmount",
              "type": "uint256"
            },
            {
              "internalType": "uint256",
              "name": "dueDate",
              "type": "uint256"
            },
            {
              "internalType": "enum FactoringContract.BillStatus",
              "name": "status",
              "type": "uint8"
            },
            {
              "components": [
                {
                  "internalType": "uint256",
                  "name": "feePercentage",
                  "type": "uint256"
                },
                {
                  "internalType": "uint256",
                  "name": "upfrontPercentage",
                  "type": "uint256"
                },
                {
                  "internalType": "uint256",
                  "name": "ownerPercentage",
                  "type": "uint256"
                }
              ],
              "internalType": "struct FactoringContract.Conditions",
              "name": "conditions",
              "type": "tuple"
            },
            {
              "internalType": "uint256",
              "name": "acceptedOfferId",
              "type": "uint256"
            }
          ],
          "internalType": "struct FactoringContract.Bill",
          "name": "bill",
          "type": "tuple"
        },
        {
          "internalType": "address",
          "name": "currentOwner",
          "type": "address"
        }
      ],
      "stateMutability": "view",
      "type": "function"
    },
    {
      "inputs": [
        {
          "internalType": "address",
          "name": "_owner",
          "type": "address"
        }
      ],
      "name": "getBillsByOwner",
      "outputs": [
        {
          "internalType": "uint256[]",
          "name": "",
          "type": "uint256[]"
        }
      ],
      "stateMutability": "view",
      "type": "function"
    },
    {
      "inputs": [],
      "name": "getDefaultConditions",
      "outputs": [
        {
          "components": [
            {
              "internalType": "uint256",
              "name": "feePercentage",
              "type": "uint256"
            },
            {
              "internalType": "uint256",
              "name": "upfrontPercentage",
              "type": "uint256"
            },
            {
              "internalType": "uint256",
              "name": "ownerPercentage",
              "type": "uint256"
            }
          ],
          "internalType": "struct FactoringContract.Conditions",
          "name": "",
          "type": "tuple"
        }
      ],
      "stateMutability": "view",
      "type": "function"
    },
    {
      "inputs": [
        {
          "internalType": "uint256",
          "name": "tokenId",
          "type": "uint256"
        }
      ],
      "name": "getNFTOwner",
      "outputs": [
        {
          "internalType": "address",
          "name": "",
          "type": "address"
        }
      ],
      "stateMutability": "view",
      "type": "function"
    },
    {
      "inputs": [
        {
          "internalType": "uint256",
          "name": "offerId",
          "type": "uint256"
        }
      ],
      "name": "getOffer",
      "outputs": [
        {
          "components": [
            {
              "internalType": "uint256",
              "name": "id",
              "type": "uint256"
            },
            {
              "internalType": "uint256",
              "name": "billRequestId",
              "type": "uint256"
            },
            {
              "internalType": "address",
              "name": "lender",
              "type": "address"
            },
            {
              "internalType": "address",
              "name": "stablecoin",
              "type": "address"
            },
            {
              "components": [
                {
                  "internalType": "uint256",
                  "name": "feePercentage",
                  "type": "uint256"
                },
                {
                  "internalType": "uint256",
                  "name": "upfrontPercentage",
                  "type": "uint256"
                },
                {
                  "internalType": "uint256",
                  "name": "ownerPercentage",
                  "type": "uint256"
                }
              ],
              "internalType": "struct FactoringContract.Conditions",
              "name": "conditions",
              "type": "tuple"
            },
            {
              "internalType": "uint256",
              "name": "depositedAmount",
              "type": "uint256"
            },
            {
              "internalType": "enum FactoringContract.OfferStatus",
              "name": "status",
              "type": "uint8"
            }
          ],
          "internalType": "struct FactoringContract.Offer",
          "name": "",
          "type": "tuple"
        }
      ],
      "stateMutability": "view",
      "type": "function"
    },
    {
      "inputs": [
        {
          "internalType": "uint256",
          "name": "billRequestId",
          "type": "uint256"
        }
      ],
      "name": "getOffersForBillRequest",
      "outputs": [
        {
          "internalType": "uint256[]",
          "name": "",
          "type": "uint256[]"
        }
      ],
      "stateMutability": "view",
      "type": "function"
    },
    {
      "inputs": [],
      "name": "getOwner",
      "outputs": [
        {
          "internalType": "address",
          "name": "",
          "type": "address"
        }
      ],
      "stateMutability": "view",
      "type": "function"
    },
    {
      "inputs": [
        {
          "internalType": "address",
          "name": "stablecoin",
          "type": "address"
        }
      ],
      "name": "getPoolBalance",
      "outputs": [
        {
          "internalType": "uint256",
          "name": "",
          "type": "uint256"
        }
      ],
      "stateMutability": "view",
      "type": "function"
    },
    {
      "inputs": [
        {
          "internalType": "address",
          "name": "owner",
          "type": "address"
        },
        {
          "internalType": "address",
          "name": "operator",
          "type": "address"
        }
      ],
      "name": "isApprovedForAll",
      "outputs": [
        {
          "internalType": "bool",
          "name": "",
          "type": "bool"
        }
      ],
      "stateMutability": "view",
      "type": "function"
    },
    {
      "inputs": [
        {
          "internalType": "uint256",
          "name": "billId",
          "type": "uint256"
        }
      ],
      "name": "markBillDefaulted",
      "outputs": [],
      "stateMutability": "nonpayable",
      "type": "function"
    },
    {
      "inputs": [],
      "name": "name",
      "outputs": [
        {
          "internalType": "string",
          "name": "",
          "type": "string"
        }
      ],
      "stateMutability": "view",
      "type": "function"
    },
    {
      "inputs": [
        {
          "internalType": "uint256",
          "name": "",
          "type": "uint256"
        }
      ],
      "name": "offers",
      "outputs": [
        {
          "internalType": "uint256",
          "name": "id",
          "type": "uint256"
        },
        {
          "internalType": "uint256",
          "name": "billRequestId",
          "type": "uint256"
        },
        {
          "internalType": "address",
          "name": "lender",
          "type": "address"
        },
        {
          "internalType": "address",
          "name": "stablecoin",
          "type": "address"
        },
        {
          "components": [
            {
              "internalType": "uint256",
              "name": "feePercentage",
              "type": "uint256"
            },
            {
              "internalType": "uint256",
              "name": "upfrontPercentage",
              "type": "uint256"
            },
            {
              "internalType": "uint256",
              "name": "ownerPercentage",
              "type": "uint256"
            }
          ],
          "internalType": "struct FactoringContract.Conditions",
          "name": "conditions",
          "type": "tuple"
        },
        {
          "internalType": "uint256",
          "name": "depositedAmount",
          "type": "uint256"
        },
        {
          "internalType": "enum FactoringContract.OfferStatus",
          "name": "status",
          "type": "uint8"
        }
      ],
      "stateMutability": "view",
      "type": "function"
    },
    {
      "inputs": [
        {
          "internalType": "address",
          "name": "",
          "type": "address"
        },
        {
          "internalType": "uint256",
          "name": "",
          "type": "uint256"
        }
      ],
      "name": "ownerBills",
      "outputs": [
        {
          "internalType": "uint256",
          "name": "",
          "type": "uint256"
        }
      ],
      "stateMutability": "view",
      "type": "function"
    },
    {
      "inputs": [
        {
          "internalType": "uint256",
          "name": "tokenId",
          "type": "uint256"
        }
      ],
      "name": "ownerOf",
      "outputs": [
        {
          "internalType": "address",
          "name": "",
          "type": "address"
        }
      ],
      "stateMutability": "view",
      "type": "function"
    },
    {
      "inputs": [],
      "name": "pause",
      "outputs": [],
      "stateMutability": "nonpayable",
      "type": "function"
    },
    {
      "inputs": [],
      "name": "paused",
      "outputs": [
        {
          "internalType": "bool",
          "name": "",
          "type": "bool"
        }
      ],
      "stateMutability": "view",
      "type": "function"
    },
    {
      "inputs": [
        {
          "internalType": "address",
          "name": "",
          "type": "address"
        }
      ],
      "name": "poolBalances",
      "outputs": [
        {
          "internalType": "uint256",
          "name": "",
          "type": "uint256"
        }
      ],
      "stateMutability": "view",
      "type": "function"
    },
    {
      "inputs": [
        {
          "internalType": "address",
          "name": "from",
          "type": "address"
        },
        {
          "internalType": "address",
          "name": "to",
          "type": "address"
        },
        {
          "internalType": "uint256",
          "name": "tokenId",
          "type": "uint256"
        }
      ],
      "name": "safeTransferFrom",
      "outputs": [],
      "stateMutability": "nonpayable",
      "type": "function"
    },
    {
      "inputs": [
        {
          "internalType": "address",
          "name": "from",
          "type": "address"
        },
        {
          "internalType": "address",
          "name": "to",
          "type": "address"
        },
        {
          "internalType": "uint256",
          "name": "tokenId",
          "type": "uint256"
        },
        {
          "internalType": "bytes",
          "name": "data",
          "type": "bytes"
        }
      ],
      "name": "safeTransferFrom",
      "outputs": [],
      "stateMutability": "nonpayable",
      "type": "function"
    },
    {
      "inputs": [
        {
          "internalType": "address",
          "name": "operator",
          "type": "address"
        },
        {
          "internalType": "bool",
          "name": "approved",
          "type": "bool"
        }
      ],
      "name": "setApprovalForAll",
      "outputs": [],
      "stateMutability": "nonpayable",
      "type": "function"
    },
    {
      "inputs": [
        {
          "internalType": "address",
          "name": "_admin",
          "type": "address"
        },
        {
          "internalType": "bool",
          "name": "status",
          "type": "bool"
        }
      ],
      "name": "setAuthorizedAdmin",
      "outputs": [],
      "stateMutability": "nonpayable",
      "type": "function"
    },
    {
      "inputs": [
        {
          "internalType": "address",
          "name": "_operator",
          "type": "address"
        },
        {
          "internalType": "bool",
          "name": "status",
          "type": "bool"
        }
      ],
      "name": "setAuthorizedOperator",
      "outputs": [],
      "stateMutability": "nonpayable",
      "type": "function"
    },
    {
      "inputs": [
        {
          "internalType": "uint256",
          "name": "_feePercentage",
          "type": "uint256"
        },
        {
          "internalType": "uint256",
          "name": "_upfrontPercentage",
          "type": "uint256"
        },
        {
          "internalType": "uint256",
          "name": "_ownerPercentage",
          "type": "uint256"
        }
      ],
      "name": "setDefaultConditions",
      "outputs": [],
      "stateMutability": "nonpayable",
      "type": "function"
    },
    {
      "inputs": [
        {
          "internalType": "bytes4",
          "name": "interfaceId",
          "type": "bytes4"
        }
      ],
      "name": "supportsInterface",
      "outputs": [
        {
          "internalType": "bool",
          "name": "",
          "type": "bool"
        }
      ],
      "stateMutability": "view",
      "type": "function"
    },
    {
      "inputs": [],
      "name": "symbol",
      "outputs": [
        {
          "internalType": "string",
          "name": "",
          "type": "string"
        }
      ],
      "stateMutability": "view",
      "type": "function"
    },
    {
      "inputs": [
        {
          "internalType": "uint256",
          "name": "tokenId",
          "type": "uint256"
        }
      ],
      "name": "tokenURI",
      "outputs": [
        {
          "internalType": "string",
          "name": "",
          "type": "string"
        }
      ],
      "stateMutability": "view",
      "type": "function"
    },
    {
      "inputs": [],
      "name": "totalPoolBalance",
      "outputs": [
        {
          "internalType": "uint256",
          "name": "",
          "type": "uint256"
        }
      ],
      "stateMutability": "view",
      "type": "function"
    },
    {
      "inputs": [
        {
          "internalType": "address",
          "name": "from",
          "type": "address"
        },
        {
          "internalType": "address",
          "name": "to",
          "type": "address"
        },
        {
          "internalType": "uint256",
          "name": "tokenId",
          "type": "uint256"
        }
      ],
      "name": "transferFrom",
      "outputs": [],
      "stateMutability": "nonpayable",
      "type": "function"
    },
    {
      "inputs": [
        {
          "internalType": "address",
          "name": "newOwner",
          "type": "address"
        }
      ],
      "name": "transferOwnership",
      "outputs": [],
      "stateMutability": "nonpayable",
      "type": "function"
    },
    {
      "inputs": [],
      "name": "unpause",
      "outputs": [],
      "stateMutability": "nonpayable",
      "type": "function"
    },
    {
      "inputs": [
        {
          "internalType": "uint256",
          "name": "amount",
          "type": "uint256"
        },
        {
          "internalType": "address",
          "name": "stablecoin",
          "type": "address"
        }
      ],
      "name": "withdrawFromPool",
      "outputs": [],
      "stateMutability": "nonpayable",
      "type": "function"
    },
    {
      "inputs": [
        {
          "internalType": "uint256",
          "name": "offerId",
          "type": "uint256"
        }
      ],
      "name": "withdrawOffer",
      "outputs": [],
      "stateMutability": "nonpayable",
      "type": "function"
    }
  ],
  "bytecode": "0x610120604052600560c0819052605060e0819052600f610100819052600a92909255600b55600c5534801561003357600080fd5b50604051614cce380380614cce833981016040819052610052916101c3565b6040518060400160405280600d81526020016c119858dd1bdc9a5b99d09a5b1b609a1b81525060405180604001604052806005815260200164119092531360da1b815250818181600090816100a79190610295565b5060016100b48282610295565b50506001600655505060078054610100600160a81b0319163361010002179055506001600160a01b0382166101305760405162461bcd60e51b815260206004820152601460248201527f496e76616c69642055534443206164647265737300000000000000000000000060448201526064015b60405180910390fd5b6001600160a01b0381166101865760405162461bcd60e51b815260206004820152601460248201527f496e76616c6964205553445420616464726573730000000000000000000000006044820152606401610127565b6001600160a01b039182166080521660a0526001600d819055601055610353565b80516001600160a01b03811681146101be57600080fd5b919050565b600080604083850312156101d657600080fd5b6101df836101a7565b91506101ed602084016101a7565b90509250929050565b634e487b7160e01b600052604160045260246000fd5b600181811c9082168061022057607f821691505b60208210810361024057634e487b7160e01b600052602260045260246000fd5b50919050565b601f82111561029057806000526020600020601f840160051c8101602085101561026d5750805b601f840160051c820191505b8181101561028d5760008155600101610279565b50505b505050565b81516001600160401b038111156102ae576102ae6101f6565b6102c2816102bc845461020c565b84610246565b6020601f8211600181146102f657600083156102de5750848201515b600019600385901b1c1916600184901b17845561028d565b600084815260208120601f198516915b828110156103265787850151825560209485019460019092019101610306565b50848210156103445786840151600019600387901b60f8161c191681555b50505050600190811b01905550565b60805160a05161493a61039460003960008181610a40015281816111b001526126b90152600081816107c901528181611175015261267e015261493a6000f3fe60806040526004361061031a5760003560e01c80638610f045116101ab578063c30e5493116100f7578063cdf3a2c811610095578063e1f1c4a71161006f578063e1f1c4a714610b71578063e985e9c514610b86578063f2fde38b14610ba6578063fb4de28314610bc657600080fd5b8063cdf3a2c814610b1b578063d28682ea14610b3b578063deaea2e31461066457600080fd5b8063c85ab9d4116100d1578063c85ab9d414610a82578063c87b56dd14610aa2578063c8f6fbf714610ac2578063cb35124414610ae257600080fd5b8063c30e549314610a0c578063c54e44eb14610a2e578063c815729d14610a6257600080fd5b806395d89b4111610164578063a21d21031161013e578063a21d21031461098c578063a22cb465146109ac578063b1cd06e6146109cc578063b88d4fde146109ec57600080fd5b806395d89b41146108ef578063979631ee14610904578063a1afec2e1461092457600080fd5b80638610f04514610774578063893d20e81461079457806389a30271146107b75780638a72ea6a146107eb57806390fe3e32146108895780639155ccc8146108c257600080fd5b8063418836a31161026a5780635026d63e1161022357806370a08231116101fd57806370a08231146106ff57806371c3a4b11461071f578063788f737d1461073f5780638456cb591461075f57600080fd5b80635026d63e146106b15780635c975abb146106c75780636352211e146106df57600080fd5b8063418836a3146105c957806342842e0e146105e95780634579268a1461060957806346344581146106365780634710390f146106645780634884a6691461068457600080fd5b80631e701add116102d75780632bfac9f1116102b15780632bfac9f11461052d5780632cbcb1f21461055a5780633479c47c1461057a5780633f4ba83a146105b457600080fd5b80631e701add1461041e57806323b872dd1461044b57806328bdcde81461046b57600080fd5b806301ffc9a71461031f57806306fdde0314610354578063081812fc14610376578063095ea7b3146103ae578063143694d0146103d057806317444e37146103f0575b600080fd5b34801561032b57600080fd5b5061033f61033a366004613f82565b610bd9565b60405190151581526020015b60405180910390f35b34801561036057600080fd5b50610369610bea565b60405161034b9190613fef565b34801561038257600080fd5b50610396610391366004614002565b610c7c565b6040516001600160a01b03909116815260200161034b565b3480156103ba57600080fd5b506103ce6103c9366004614037565b610ca5565b005b3480156103dc57600080fd5b506103ce6103eb366004614002565b610cb4565b3480156103fc57600080fd5b5061041061040b366004614037565b610ddd565b60405190815260200161034b565b34801561042a57600080fd5b5061043e610439366004614002565b610e0e565b60405161034b919061415e565b34801561045757600080fd5b506103ce61046636600461416d565b610f87565b34801561047757600080fd5b50610516610486366004614002565b6013602090815260009182526040918290208054600182015460028301546003840154600485015460058601546006870154600788015460088901548b51606081018d5260098b01548152600a8b01549b81019b909b52600b8a01549b8b019b909b52600c9098015496996001600160a01b03968716999587169894909616969295919490939260ff909216918b565b60405161034b9b9a999897969594939291906141aa565b34801561053957600080fd5b5061054d610548366004614002565b611012565b60405161034b9190614231565b34801561056657600080fd5b506103ce61057536600461427c565b6110ce565b34801561058657600080fd5b50600a54600b54600c5461059992919083565b6040805193845260208401929092529082015260600161034b565b3480156105c057600080fd5b506103ce611339565b3480156105d557600080fd5b506103ce6105e43660046142a8565b611390565b3480156105f557600080fd5b506103ce61060436600461416d565b61151b565b34801561061557600080fd5b50610629610624366004614002565b61153b565b60405161034b91906142e4565b34801561064257600080fd5b50610656610651366004614002565b611629565b60405161034b92919061435f565b34801561067057600080fd5b5061039661067f366004614002565b611755565b34801561069057600080fd5b506106a461069f366004614002565b6117b7565b60405161034b9190614387565b3480156106bd57600080fd5b50610410600e5481565b3480156106d357600080fd5b5060075460ff1661033f565b3480156106eb57600080fd5b506103966106fa366004614002565b611819565b34801561070b57600080fd5b5061041061071a3660046143ca565b611824565b34801561072b57600080fd5b506103ce61073a3660046143e5565b61186c565b34801561074b57600080fd5b506103ce61075a3660046143e5565b6119f5565b34801561076b57600080fd5b506103ce611b81565b34801561078057600080fd5b506103ce61078f366004614002565b611bd6565b3480156107a057600080fd5b5060075461010090046001600160a01b0316610396565b3480156107c357600080fd5b506103967f000000000000000000000000000000000000000000000000000000000000000081565b3480156107f757600080fd5b50610876610806366004614002565b60126020908152600091825260409182902080546001820154600283015460038401548651606081018852600486015481526005860154968101969096526006850154968601969096526007840154600890940154929591946001600160a01b0391821694919092169260ff1687565b60405161034b9796959493929190614421565b34801561089557600080fd5b5061033f6108a43660046143ca565b6001600160a01b031660009081526009602052604090205460ff1690565b3480156108ce57600080fd5b506104106108dd3660046143ca565b600f6020526000908152604090205481565b3480156108fb57600080fd5b50610369611d2c565b34801561091057600080fd5b5061041061091f366004614488565b611d3b565b34801561093057600080fd5b5061097b61093f366004614002565b6011602052600090815260409020805460018201546002830154600384015460049094015492936001600160a01b039092169290919060ff1685565b60405161034b9594939291906144aa565b34801561099857600080fd5b506106a46109a73660046143ca565b611f11565b3480156109b857600080fd5b506103ce6109c73660046143e5565b611f7b565b3480156109d857600080fd5b5061043e6109e7366004614002565b611f86565b3480156109f857600080fd5b506103ce610a0736600461452e565b611f8e565b348015610a1857600080fd5b50610a21611fa6565b60405161034b91906145f3565b348015610a3a57600080fd5b506103967f000000000000000000000000000000000000000000000000000000000000000081565b348015610a6e57600080fd5b506103ce610a7d366004614002565b611fef565b348015610a8e57600080fd5b506103ce610a9d366004614002565b612445565b348015610aae57600080fd5b50610369610abd366004614002565b612572565b348015610ace57600080fd5b50610410610add366004614488565b6125e7565b348015610aee57600080fd5b5061033f610afd3660046143ca565b6001600160a01b031660009081526008602052604090205460ff1690565b348015610b2757600080fd5b50610410610b36366004614614565b612603565b348015610b4757600080fd5b50610410610b563660046143ca565b6001600160a01b03166000908152600f602052604090205490565b348015610b7d57600080fd5b50610410606481565b348015610b9257600080fd5b5061033f610ba136600461469c565b612a06565b348015610bb257600080fd5b506103ce610bc13660046143ca565b612a34565b6103ce610bd4366004614002565b612c05565b6000610be482612f00565b92915050565b606060008054610bf9906146c6565b80601f0160208091040260200160405190810160405280929190818152602001828054610c25906146c6565b8015610c725780601f10610c4757610100808354040283529160200191610c72565b820191906000526020600020905b815481529060010190602001808311610c5557829003601f168201915b5050505050905090565b6000610c8782612f50565b506000828152600460205260409020546001600160a01b0316610be4565b610cb0828233612f89565b5050565b610cbc612f96565b60008181526011602052604081208054909103610cf45760405162461bcd60e51b8152600401610ceb90614700565b60405180910390fd5b6000600482015460ff166002811115610d0f57610d0f614061565b14610d2c5760405162461bcd60e51b8152600401610ceb90614737565b33610d3683611819565b6001600160a01b031614610d8c5760405162461bcd60e51b815260206004820152601960248201527f4f6e6c79204e4654206f776e65722063616e2063616e63656c000000000000006044820152606401610ceb565b60048101805460ff19166002179055610da482612fc0565b60405182907f66387ca682421ce832187633e62f16d1a996c0c1a851225282e7a01407a0f60190600090a250610dda6001600655565b50565b60146020528160005260406000208181548110610df957600080fd5b90600052602060002001600091509150505481565b610e16613e00565b6000828152600260205260409020546001600160a01b0316610e6f5760405162461bcd60e51b815260206004820152601260248201527113919508191bd95cc81b9bdd08195e1a5cdd60721b6044820152606401610ceb565b6000828152601360205260408120549003610e9c5760405162461bcd60e51b8152600401610ceb90614766565b6000828152601360209081526040918290208251610160810184528154815260018201546001600160a01b03908116938201939093526002808301548416948201949094526003820154909216606083015260048101546080830152600581015460a0830152600681015460c0830152600781015460e083015260088101549192909161010084019160ff90911690811115610f3a57610f3a614061565b6002811115610f4b57610f4b614061565b81526040805160608101825260098401548152600a840154602082810191909152600b85015482840152830152600c9092015491015292915050565b6001600160a01b038216610fb157604051633250574960e11b815260006004820152602401610ceb565b6000610fbe8383336130ba565b9050836001600160a01b0316816001600160a01b03161461100c576040516364283d7b60e01b81526001600160a01b0380861660048301526024820184905282166044820152606401610ceb565b50505050565b61101a613ea8565b60008281526011602052604081205490036110475760405162461bcd60e51b8152600401610ceb90614700565b600082815260116020908152604091829020825160a0810184528154815260018201546001600160a01b0316928101929092526002808201549383019390935260038101546060830152600481015491929091608084019160ff909116908111156110b4576110b4614061565b60028111156110c5576110c5614061565b90525092915050565b60075461010090046001600160a01b031633148015906110fe57503360009081526008602052604090205460ff16155b1561111b576040516282b42960e81b815260040160405180910390fd5b611123612f96565b600082116111735760405162461bcd60e51b815260206004820152601d60248201527f416d6f756e74206d7573742062652067726561746572207468616e20300000006044820152606401610ceb565b7f00000000000000000000000000000000000000000000000000000000000000006001600160a01b0316816001600160a01b031614806111e457507f00000000000000000000000000000000000000000000000000000000000000006001600160a01b0316816001600160a01b0316145b6112295760405162461bcd60e51b81526020600482015260166024820152752ab739bab83837b93a32b21039ba30b13632b1b7b4b760511b6044820152606401610ceb565b6001600160a01b0381166000908152600f60205260409020548211156112915760405162461bcd60e51b815260206004820152601960248201527f496e73756666696369656e7420706f6f6c2062616c616e6365000000000000006044820152606401610ceb565b6001600160a01b0381166000908152600f6020526040812080548492906112b99084906147a9565b9250508190555081600e60008282546112d291906147a9565b909155506112ec90506001600160a01b038216338461313b565b604080518381526001600160a01b038316602082015233917f8b0504e8295c096414bd80c776379b299419cf1f33f17aa53b3e7538cb36664a910160405180910390a2610cb06001600655565b60075461010090046001600160a01b0316331480159061136957503360009081526008602052604090205460ff16155b15611386576040516282b42960e81b815260040160405180910390fd5b61138e61319a565b565b60075461010090046001600160a01b031633146113bf576040516282b42960e81b815260040160405180910390fd5b6064826113cc83866147bc565b6113d691906147bc565b11156114385760405162461bcd60e51b815260206004820152602b60248201527f496e76616c69642070657263656e74616765733a2073756d2063616e6e6f742060448201526a657863656564203130302560a81b6064820152608401610ceb565b6000831180156114485750600082115b80156114545750600081115b6114af5760405162461bcd60e51b815260206004820152602660248201527f416c6c2070657263656e7461676573206d75737420626520677265617465722060448201526507468616e20360d41b6064820152608401610ceb565b60408051606080820183528582526020808301869052918301849052600a869055600b859055600c84905582518681529182018590529181018390527fea22662bd67ac75f6753ec8a9ab71af344497326e12f9d1ceee202aa1bcf1235910160405180910390a1505050565b61153683838360405180602001604052806000815250611f8e565b505050565b611543613ef0565b60008281526012602052604081205490036115705760405162461bcd60e51b8152600401610ceb906147cf565b600082815260126020908152604091829020825160e0810184528154815260018201548184015260028201546001600160a01b039081168286015260038084015490911660608084019190915285519081018652600484015481526005840154948101949094526006830154948401949094526080810192909252600781015460a083015260088101549192909160c084019160ff9091169081111561161857611618614061565b60038111156110c5576110c5614061565b611631613e00565b600082815260136020526040812054810361165e5760405162461bcd60e51b8152600401610ceb90614766565b6000838152601360209081526040918290208251610160810184528154815260018201546001600160a01b03908116938201939093526002808301548416948201949094526003820154909216606083015260048101546080830152600581015460a0830152600681015460c0830152600781015460e083015260088101549192909161010084019160ff909116908111156116fc576116fc614061565b600281111561170d5761170d614061565b81526040805160608101825260098401548152600a840154602082810191909152600b85015482840152830152600c90920154910152915061174e83611819565b9050915091565b6000818152600260205260408120546001600160a01b03166117ae5760405162461bcd60e51b815260206004820152601260248201527113919508191bd95cc81b9bdd08195e1a5cdd60721b6044820152606401610ceb565b610be482611819565b60008181526015602090815260409182902080548351818402810184019094528084526060939283018282801561180d57602002820191906000526020600020905b8154815260200190600101908083116117f9575b50505050509050919050565b6000610be482612f50565b60006001600160a01b038216611850576040516322718ad960e21b815260006004820152602401610ceb565b506001600160a01b031660009081526003602052604090205490565b60075461010090046001600160a01b0316331480159061189c57503360009081526008602052604090205460ff16155b156118b9576040516282b42960e81b815260040160405180910390fd5b6001600160a01b0382166119275760405162461bcd60e51b815260206004820152602f60248201527f417574686f72697a65642053797374656d3a2041646d696e206164647265737360448201526e0818d85b9b9bdd081899481b9d5b1b608a1b6064820152608401610ceb565b6001600160a01b03821660009081526009602052604090205460ff16156119a75760405162461bcd60e51b815260206004820152602e60248201527f417574686f72697a65642053797374656d3a2041646d696e2063616e6e6f742060448201526d31329030b71037b832b930ba37b960911b6064820152608401610ceb565b6001600160a01b038216600081815260086020526040808220805460ff1916851515179055517f5a272403b402d892977df56625f4164ccaf70ca3863991c43ecfe76a6905b0a19190a25050565b60075461010090046001600160a01b03163314801590611a2557503360009081526008602052604090205460ff16155b15611a42576040516282b42960e81b815260040160405180910390fd5b6001600160a01b038216611ab35760405162461bcd60e51b815260206004820152603260248201527f417574686f72697a65642053797374656d3a204f70657261746f722061646472604482015271195cdcc818d85b9b9bdd081899481b9d5b1b60721b6064820152608401610ceb565b6001600160a01b03821660009081526008602052604090205460ff1615611b335760405162461bcd60e51b815260206004820152602e60248201527f417574686f72697a65642053797374656d3a204f70657261746f722063616e6e60448201526d37ba1031329030b71030b236b4b760911b6064820152608401610ceb565b6001600160a01b038216600081815260096020526040808220805460ff1916851515179055517fdbebfba65bd6398fb722063efc10c99f624f9cd8ba657201056af918a676d5ee9190a25050565b60075461010090046001600160a01b03163314801590611bb157503360009081526008602052604090205460ff16155b15611bce576040516282b42960e81b815260040160405180910390fd5b61138e6131ec565b611bde612f96565b60008181526012602052604081208054909103611c0d5760405162461bcd60e51b8152600401610ceb906147cf565b6000600882015460ff166003811115611c2857611c28614061565b14611c685760405162461bcd60e51b815260206004820152601060248201526f4f66666572206e6f742061637469766560801b6044820152606401610ceb565b60028101546001600160a01b03163314611cc45760405162461bcd60e51b815260206004820152601e60248201527f4f6e6c79206c656e6465722063616e207769746864726177206f6666657200006044820152606401610ceb565b60078101546003820154611ce5916001600160a01b0390911690339061313b565b60088101805460ff19166002179055604051339083907fe6f4d8e39c4a3ade2f3812a17eb8f658c1cc293ceee263362516f01750847ac890600090a350610dda6001600655565b606060018054610bf9906146c6565b6000611d45612f96565b611d4d613229565b60008311611d9d5760405162461bcd60e51b815260206004820152601d60248201527f416d6f756e74206d7573742062652067726561746572207468616e20300000006044820152606401610ceb565b428211611dec5760405162461bcd60e51b815260206004820152601e60248201527f4475652064617465206d75737420626520696e207468652066757475726500006044820152606401610ceb565b600d805460009182611dfd836147fd565b909155506040805160a08101825282815233602080830191825282840189815260608401898152600060808601818152888252601190945295909520845181559251600180850180546001600160a01b0319166001600160a01b039093169290921790915590516002808501919091559451600384015590516004830180549697509395929490939260ff191691908490811115611e9d57611e9d614061565b0217905550905050611eaf338261324d565b336000908152601460205260409020611ec89082613291565b6040805185815260006020820152339183917ff0cc679c5da107ddb73531c12cdb064e51bc2134aa17742ce4e9fd880e16ffce910160405180910390a39050610be46001600655565b6001600160a01b03811660009081526014602090815260409182902080548351818402810184019094528084526060939283018282801561180d57602002820191906000526020600020908154815260200190600101908083116117f95750505050509050919050565b610cb033838361330b565b610e6f613e00565b611f99848484610f87565b61100c33858585856133aa565b611fca60405180606001604052806000815260200160008152602001600081525090565b5060408051606081018252600a548152600b546020820152600c549181019190915290565b611ff7612f96565b611fff613229565b6000818152601260205260408120805490910361202e5760405162461bcd60e51b8152600401610ceb906147cf565b6000600882015460ff16600381111561204957612049614061565b146120895760405162461bcd60e51b815260206004820152601060248201526f4f66666572206e6f742061637469766560801b6044820152606401610ceb565b6001810154600090815260116020526040812090600482015460ff1660028111156120b6576120b6614061565b146120d35760405162461bcd60e51b8152600401610ceb90614737565b336001600160a01b03166120ea8360010154611819565b6001600160a01b0316146121405760405162461bcd60e51b815260206004820181905260248201527f4f6e6c79204e4654206f776e65722063616e20616363657074206f66666572736044820152606401610ceb565b60078201546003830154612161916001600160a01b0390911690339061313b565b600282015460018301546121829133916001600160a01b03909116906134d5565b33600090815260146020526040902060018301546121a09190613585565b60028201546001600160a01b0316600090815260146020526040902060018301546121cb9190613291565b6040805161016081018252600184015481523360208201526002808501546001600160a01b0390811693830193909352600385015490921660608201529082015460808201819052600784015460a0830181905260c083019161222e91906147a9565b81526003830154602082015260400160008152604080516060808201835260048781015483526005808901546020808601919091526006808b015486880152818801959095529585018a90526001808a0154600090815260138852869020885181559688015187820180546001600160a01b03199081166001600160a01b0393841617909155968901516002808a0180548a16928416929092179091559489015160038901805490981691161790955560808701519186019190915560a08601519085015560c08501519184019190915560e084015160078401556101008401516008840180549193909260ff1990921691849081111561233157612331614061565b0217905550610120820151805160098301556020810151600a83015560400151600b82015561014090910151600c90910155600882018054600160ff19918216811790925560048301805490911682179055820154612390908461364b565b600182015460028301546040516001600160a01b03909116815233919085907fffa8e4adef20403a71fedeb00a7d0c21f7c714855d9ac581923d2c44cc6f10809060200160405180910390a46002828101546001840154918301546003850154604080519283526001600160a01b039182166020840152921692339290917f7163841de0fbe6ab7e904fff10718e6fd9a43d7e690a26ed1458ffe8f8efd310910160405180910390a45050610dda6001600655565b60075461010090046001600160a01b0316331480159061247557503360009081526008602052604090205460ff16155b15612492576040516282b42960e81b815260040160405180910390fd5b600081815260136020526040812080549091036124c15760405162461bcd60e51b8152600401610ceb90614766565b6000600882015460ff1660028111156124dc576124dc614061565b1461251b5760405162461bcd60e51b815260206004820152600f60248201526e42696c6c206e6f742061637469766560881b6044820152606401610ceb565b806007015442116125615760405162461bcd60e51b815260206004820152601060248201526f42696c6c206e6f74207965742064756560801b6044820152606401610ceb565b600801805460ff1916600217905550565b606061257d82612f50565b50600061259560408051602081019091526000815290565b905060008151116125b557604051806020016040528060008152506125e0565b806125bf84613748565b6040516020016125d0929190614816565b6040516020818303038152906040525b9392505050565b60156020528160005260406000208181548110610df957600080fd5b600061260d612f96565b612615613229565b600084815260116020526040812080549091036126445760405162461bcd60e51b8152600401610ceb90614700565b6000600482015460ff16600281111561265f5761265f614061565b1461267c5760405162461bcd60e51b8152600401610ceb90614737565b7f00000000000000000000000000000000000000000000000000000000000000006001600160a01b0316846001600160a01b031614806126ed57507f00000000000000000000000000000000000000000000000000000000000000006001600160a01b0316846001600160a01b0316145b6127325760405162461bcd60e51b81526020600482015260166024820152752ab739bab83837b93a32b21039ba30b13632b1b7b4b760511b6044820152606401610ceb565b6020830151604084015184516064929161274b916147bc565b61275591906147bc565b11156127b65760405162461bcd60e51b815260206004820152602a60248201527f496e76616c696420636f6e646974696f6e733a2073756d2063616e6e6f7420656044820152697863656564203130302560b01b6064820152608401610ceb565b8251158015906127ca575060008360200151115b80156127da575060008360400151115b61283f5760405162461bcd60e51b815260206004820152603060248201527f416c6c20636f6e646974696f6e2070657263656e7461676573206d757374206260448201526f0652067726561746572207468616e20360841b6064820152608401610ceb565b6010805460009182612850836147fd565b919050559050600060648560200151846002015461286e9190614845565b612878919061485c565b905061288f6001600160a01b0387163330846137db565b6040518060e00160405280838152602001888152602001336001600160a01b03168152602001876001600160a01b03168152602001868152602001828152602001600060038111156128e3576128e3614061565b90526000838152601260209081526040918290208351815583820151600180830191909155848401516002830180546001600160a01b03199081166001600160a01b0393841617909155606087015160038086018054909316919093161790556080860151805160048501559384015160058401559290930151600682015560a0840151600782015560c084015160088201805492949193909260ff19169190849081111561299457612994614061565b0217905550505060008781526015602052604090206129b39083613291565b336001600160a01b031687837f32645f28ae455f14af7a547728c579fc5a3f52d9c6db6d22a0de0ded95c82cbe846040516129f091815260200190565b60405180910390a4509150506125e06001600655565b6001600160a01b03918216600090815260056020908152604080832093909416825291909152205460ff1690565b60075461010090046001600160a01b03163314612a63576040516282b42960e81b815260040160405180910390fd5b6001600160a01b038116612acd5760405162461bcd60e51b815260206004820152602b60248201527f417574686f72697a65642053797374656d3a204e6577206f776e65722063616e60448201526a1b9bdd081899481b9d5b1b60aa1b6064820152608401610ceb565b6007546001600160a01b03610100909104811690821603612b565760405162461bcd60e51b815260206004820152603c60248201527f417574686f72697a65642053797374656d3a204e6577206f776e65722063616e60448201527f6e6f74206265207468652073616d65206173206f6c64206f776e6572000000006064820152608401610ceb565b60075461010090046001600160a01b031660009081526009602052604090205460ff1615612bdd5760405162461bcd60e51b815260206004820152602e60248201527f417574686f72697a65642053797374656d3a204f776e65722063616e6e6f742060448201526d31329030b71037b832b930ba37b960911b6064820152608401610ceb565b600780546001600160a01b0390921661010002610100600160a81b0319909216919091179055565b612c0d612f96565b612c15613229565b60008181526013602052604081208054909103612c445760405162461bcd60e51b8152600401610ceb90614766565b6000600882015460ff166002811115612c5f57612c5f614061565b14612c9e5760405162461bcd60e51b815260206004820152600f60248201526e42696c6c206e6f742061637469766560881b6044820152606401610ceb565b60018101546001600160a01b03163314612cfa5760405162461bcd60e51b815260206004820152601d60248201527f4f6e6c7920646562746f722063616e20636f6d706c6574652062696c6c0000006044820152606401610ceb565b60048101546003820154612d19906001600160a01b03163330846137db565b6000612d2484611819565b90506000606484600901600201548560040154612d419190614845565b612d4b919061485c565b90506000606485600901600001548660040154612d689190614845565b612d72919061485c565b90506000856005015483612d8691906147bc565b9050600082612d9583886147a9565b612d9f91906147a9565b6003880154909150612dbb906001600160a01b0316868461313b565b8015612dda576003870154612dda906001600160a01b0316338361313b565b60038701546001600160a01b03166000908152600f602052604081208054859290612e069084906147bc565b9250508190555082600e6000828254612e1f91906147bc565b90915550612e2e905088613814565b60088701805460ff1916600117905560405186815288907fc95485031ab8a7e2b9e325c6bdaafec43650b4434d8e819d55451d8a9826fb8a9060200160405180910390a26040516001600160a01b0386169089907f02aeab5f34ee393d2269c5a9265aa8f9ebffd7164c602a1ded2f9d04a268313090600090a36003870154604080518581526001600160a01b0390921660208301527f0c2a2f565c7774c59e49ef6b3c255329f4d254147e06e724d3a8569bb7bd21ad910160405180910390a150505050505050610dda6001600655565b60006001600160e01b031982166380ac58cd60e01b1480612f3157506001600160e01b03198216635b5e139f60e01b145b80610be457506301ffc9a760e01b6001600160e01b0319831614610be4565b6000818152600260205260408120546001600160a01b031680610be457604051637e27328960e01b815260048101849052602401610ceb565b611536838383600161384f565b600260065403612fb957604051633ee5aeb560e01b815260040160405180910390fd5b6002600655565b60008181526015602090815260408083208054825181850281018501909352808352919290919083018282801561301657602002820191906000526020600020905b815481526020019060010190808311613002575b5050505050905060005b815181101561153657600082828151811061303d5761303d61487e565b602090810291909101810151600081815260129092526040822090925090600882015460ff16600381111561307457613074614061565b036130b0576002810154600782015460038301546130a0926001600160a01b039182169291169061313b565b60088101805460ff191660031790555b5050600101613020565b6000806130c8858585613955565b90506001600160a01b038116158015906130ea57506001600160a01b03851615155b15613133576001600160a01b03811660009081526014602052604090206131119085613585565b6001600160a01b03851660009081526014602052604090206131339085613291565b949350505050565b6040516001600160a01b0383811660248301526044820183905261153691859182169063a9059cbb906064015b604051602081830303815290604052915060e01b6020820180516001600160e01b038381831617835250505050613962565b6131a26139d3565b6007805460ff191690557f5db9ee0a495bf2e6ff9c91a7834c1ba4fdd244a5e8aa4e537bd38aeae4b073aa335b6040516001600160a01b03909116815260200160405180910390a1565b6131f4613229565b6007805460ff191660011790557f62e78cea01bee320cd4e420270b5ea74000d11b0c9f74754ebdbfc544b05a2586131cf3390565b60075460ff161561138e5760405163d93c066560e01b815260040160405180910390fd5b61325782826139f6565b6040516001600160a01b0383169082907f0176f203df400d7bd5f1b1c9ef36c16709bf3b5d9fd35f000a6bae32393f66c390600090a35050565b6132ea828054806020026020016040519081016040528092919081815260200182805480156132df57602002820191906000526020600020905b8154815260200190600101908083116132cb575b505050505082613a10565b156132f3575050565b81546001810183556000928352602090922090910155565b6001600160a01b03821661333d57604051630b61174360e31b81526001600160a01b0383166004820152602401610ceb565b6001600160a01b03838116600081815260056020908152604080832094871680845294825291829020805460ff191686151590811790915591519182527f17307eab39ab6107e8899845ad3d59bd9653f200f220920489ca2b5937696c31910160405180910390a3505050565b6001600160a01b0383163b156134ce57604051630a85bd0160e11b81526001600160a01b0384169063150b7a02906133ec908890889087908790600401614894565b6020604051808303816000875af1925050508015613427575060408051601f3d908101601f19168201909252613424918101906148d1565b60015b613490573d808015613455576040519150601f19603f3d011682016040523d82523d6000602084013e61345a565b606091505b50805160000361348857604051633250574960e11b81526001600160a01b0385166004820152602401610ceb565b805181602001fd5b6001600160e01b03198116630a85bd0160e11b146134cc57604051633250574960e11b81526001600160a01b0385166004820152602401610ceb565b505b5050505050565b6001600160a01b0382166134ff57604051633250574960e11b815260006004820152602401610ceb565b600061350d838360006130ba565b90506001600160a01b03811661353957604051637e27328960e01b815260048101839052602401610ceb565b836001600160a01b0316816001600160a01b03161461100c576040516364283d7b60e01b81526001600160a01b0380861660048301526024820184905282166044820152606401610ceb565b6135dc828054806020026020016040519081016040528092919081815260200182805480156132df57602002820191906000526020600020908154815260200190600101908083116132cb57505050505082613a10565b6135e4575050565b600061363f8380548060200260200160405190810160405280929190818152602001828054801561363457602002820191906000526020600020905b815481526020019060010190808311613620575b505050505083613a26565b90506115368382613a69565b6000828152601560209081526040808320805482518185028101850190935280835291929091908301828280156136a157602002820191906000526020600020905b81548152602001906001019080831161368d575b5050505050905060005b815181101561100c5760008282815181106136c8576136c861487e565b6020026020010151905083811461373f57600081815260126020526040812090600882015460ff16600381111561370157613701614061565b0361373d5760028101546007820154600383015461372d926001600160a01b039182169291169061313b565b60088101805460ff191660031790555b505b506001016136ab565b6060600061375583613aeb565b600101905060008167ffffffffffffffff811115613775576137756144e7565b6040519080825280601f01601f19166020018201604052801561379f576020820181803683370190505b5090508181016020015b600019016f181899199a1a9b1b9c1cb0b131b232b360811b600a86061a8153600a85049450846137a957509392505050565b6040516001600160a01b03848116602483015283811660448301526064820183905261100c9186918216906323b872dd90608401613168565b600061382360008360006130ba565b90506001600160a01b038116610cb057604051637e27328960e01b815260048101839052602401610ceb565b808061386357506001600160a01b03821615155b1561392557600061387384612f50565b90506001600160a01b0383161580159061389f5750826001600160a01b0316816001600160a01b031614155b80156138b257506138b08184612a06565b155b156138db5760405163a9fbf51f60e01b81526001600160a01b0384166004820152602401610ceb565b81156139235783856001600160a01b0316826001600160a01b03167f8c5be1e5ebec7d5bd14f71427d1e84f3dd0314c0f7b2291e5b200ac8c7c3b92560405160405180910390a45b505b5050600090815260046020526040902080546001600160a01b0319166001600160a01b0392909216919091179055565b6000613133848484613bc3565b600080602060008451602086016000885af180613985576040513d6000823e3d81fd5b50506000513d9150811561399d5780600114156139aa565b6001600160a01b0384163b155b1561100c57604051635274afe760e01b81526001600160a01b0385166004820152602401610ceb565b60075460ff1661138e57604051638dfc202b60e01b815260040160405180910390fd5b610cb0828260405180602001604052806000815250613cbc565b60008251613a1e8484613a26565b109392505050565b815160009081905b84518210156131335783858381518110613a4a57613a4a61487e565b602002602001015103613a5e575080613133565b816001019150613a2e565b8154811115613a76575050565b81548290613a86906001906147a9565b81548110613a9657613a9661487e565b9060005260206000200154828281548110613ab357613ab361487e565b906000526020600020018190555081805480613ad157613ad16148ee565b600190038181906000526020600020016000905590555050565b60008072184f03e93ff9f4daa797ed6e38ed64bf6a1f0160401b8310613b2a5772184f03e93ff9f4daa797ed6e38ed64bf6a1f0160401b830492506040015b6d04ee2d6d415b85acef81000000008310613b56576d04ee2d6d415b85acef8100000000830492506020015b662386f26fc100008310613b7457662386f26fc10000830492506010015b6305f5e1008310613b8c576305f5e100830492506008015b6127108310613ba057612710830492506004015b60648310613bb2576064830492506002015b600a8310610be45760010192915050565b6000828152600260205260408120546001600160a01b0390811690831615613bf057613bf0818486613cd4565b6001600160a01b03811615613c2e57613c0d60008560008061384f565b6001600160a01b038116600090815260036020526040902080546000190190555b6001600160a01b03851615613c5d576001600160a01b0385166000908152600360205260409020805460010190555b60008481526002602052604080822080546001600160a01b0319166001600160a01b0389811691821790925591518793918516917fddf252ad1be2c89b69c2b068fc378daa952ba7f163c4a11628f55a4df523b3ef91a4949350505050565b613cc68383613d38565b6115363360008585856133aa565b613cdf838383613d9d565b611536576001600160a01b038316613d0d57604051637e27328960e01b815260048101829052602401610ceb565b60405163177e802f60e01b81526001600160a01b038316600482015260248101829052604401610ceb565b6001600160a01b038216613d6257604051633250574960e11b815260006004820152602401610ceb565b6000613d70838360006130ba565b90506001600160a01b03811615611536576040516339e3563760e11b815260006004820152602401610ceb565b60006001600160a01b038316158015906131335750826001600160a01b0316846001600160a01b03161480613dd75750613dd78484612a06565b806131335750506000908152600460205260409020546001600160a01b03908116911614919050565b6040518061016001604052806000815260200160006001600160a01b0316815260200160006001600160a01b0316815260200160006001600160a01b031681526020016000815260200160008152602001600081526020016000815260200160006002811115613e7257613e72614061565b8152602001613e9b60405180606001604052806000815260200160008152602001600081525090565b8152602001600081525090565b6040518060a001604052806000815260200160006001600160a01b03168152602001600081526020016000815260200160006002811115613eeb57613eeb614061565b905290565b6040518060e00160405280600081526020016000815260200160006001600160a01b0316815260200160006001600160a01b03168152602001613f4d60405180606001604052806000815260200160008152602001600081525090565b81526020016000815260200160006003811115613eeb57613eeb614061565b6001600160e01b031981168114610dda57600080fd5b600060208284031215613f9457600080fd5b81356125e081613f6c565b60005b83811015613fba578181015183820152602001613fa2565b50506000910152565b60008151808452613fdb816020860160208601613f9f565b601f01601f19169290920160200192915050565b6020815260006125e06020830184613fc3565b60006020828403121561401457600080fd5b5035919050565b80356001600160a01b038116811461403257600080fd5b919050565b6000806040838503121561404a57600080fd5b6140538361401b565b946020939093013593505050565b634e487b7160e01b600052602160045260246000fd5b60038110610dda57610dda614061565b61409081614077565b9052565b8051825260208101516140b260208401826001600160a01b03169052565b5060408101516140cd60408401826001600160a01b03169052565b5060608101516140e860608401826001600160a01b03169052565b506080810151608083015260a081015160a083015260c081015160c083015260e081015160e0830152610100810151614125610100840182614087565b5061012081015161414e6101208401828051825260208082015190830152604090810151910152565b5061014001516101809190910152565b6101a08101610be48284614094565b60008060006060848603121561418257600080fd5b61418b8461401b565b92506141996020850161401b565b929592945050506040919091013590565b8b81526001600160a01b038b811660208301528a81166040830152891660608201526080810188905260a0810187905260c0810186905260e081018590526101a081016141f685614077565b610100820194909452825161012082015260208301516101408201526040909201516101608301526101809091015298975050505050505050565b815181526020808301516001600160a01b0316908201526040808301519082015260608083015190820152608082015160a082019061426f81614077565b8060808401525092915050565b6000806040838503121561428f57600080fd5b8235915061429f6020840161401b565b90509250929050565b6000806000606084860312156142bd57600080fd5b505081359360208301359350604090920135919050565b6004811061409057614090614061565b81518152602080830151818301526040808401516001600160a01b0390811682850152606080860151909116908401526080808501518051918501919091529182015160a084015281015160c08301526101208201905060a083015160e083015260c08301516143586101008401826142d4565b5092915050565b6101c0810161436e8285614094565b6001600160a01b03929092166101a09190910152919050565b602080825282518282018190526000918401906040840190835b818110156143bf5783518352602093840193909201916001016143a1565b509095945050505050565b6000602082840312156143dc57600080fd5b6125e08261401b565b600080604083850312156143f857600080fd5b6144018361401b565b91506020830135801515811461441657600080fd5b809150509250929050565b878152602081018790526001600160a01b03868116604083015285166060820152610120810161446860808301868051825260208082015190830152604090810151910152565b8360e083015261447c6101008301846142d4565b98975050505050505050565b6000806040838503121561449b57600080fd5b50508035926020909101359150565b8581526001600160a01b0385166020820152604081018490526060810183905260a081016144d783614077565b8260808301529695505050505050565b634e487b7160e01b600052604160045260246000fd5b604051601f8201601f1916810167ffffffffffffffff81118282101715614526576145266144e7565b604052919050565b6000806000806080858703121561454457600080fd5b61454d8561401b565b935061455b6020860161401b565b925060408501359150606085013567ffffffffffffffff81111561457e57600080fd5b8501601f8101871361458f57600080fd5b803567ffffffffffffffff8111156145a9576145a96144e7565b6145bc601f8201601f19166020016144fd565b8181528860208385010111156145d157600080fd5b8160208401602083013760006020838301015280935050505092959194509250565b81518152602080830151908201526040808301519082015260608101610be4565b600080600083850360a081121561462a57600080fd5b8435935061463a6020860161401b565b92506060603f198201121561464e57600080fd5b506040516060810167ffffffffffffffff81118282101715614672576146726144e7565b60409081528581013582526060860135602083015260809095013594810194909452509093909250565b600080604083850312156146af57600080fd5b6146b88361401b565b915061429f6020840161401b565b600181811c908216806146da57607f821691505b6020821081036146fa57634e487b7160e01b600052602260045260246000fd5b50919050565b6020808252601b908201527f42696c6c207265717565737420646f6573206e6f742065786973740000000000604082015260600190565b6020808252601590820152742134b636103932b8bab2b9ba103737ba1037b832b760591b604082015260600190565b602080825260139082015272109a5b1b08191bd95cc81b9bdd08195e1a5cdd606a1b604082015260600190565b634e487b7160e01b600052601160045260246000fd5b81810381811115610be457610be4614793565b80820180821115610be457610be4614793565b60208082526014908201527313d999995c88191bd95cc81b9bdd08195e1a5cdd60621b604082015260600190565b60006001820161480f5761480f614793565b5060010190565b60008351614828818460208801613f9f565b83519083019061483c818360208801613f9f565b01949350505050565b8082028115828204841417610be457610be4614793565b60008261487957634e487b7160e01b600052601260045260246000fd5b500490565b634e487b7160e01b600052603260045260246000fd5b6001600160a01b03858116825284166020820152604081018390526080606082018190526000906148c790830184613fc3565b9695505050505050565b6000602082840312156148e357600080fd5b81516125e081613f6c565b634e487b7160e01b600052603160045260246000fdfea2646970667358221220b9fe786991b1cf371adbc813eaa7b545fed45b761c6023cdbcc74f4ad6d81a9464736f6c634300081c0033",
  "linkReferences": {},
  "deployedLinkReferences": {}
}