{
  "_format": "hh-sol-artifact-1",
  "contractName": "MockUSDT",
  "sourceName": "contracts/MockUSDT.sol",
  "abi": [
    {
      "inputs": [
        {
          "internalType": "string",
          "name": "_name",
          "type": "string"
        },
        {
          "internalType": "string",
          "name": "_symbol",
          "type": "string"
        },
        {
          "internalType": "uint8",
          "name": "decimals_",
          "type": "uint8"
        },
        {
          "internalType": "address",
          "name": "_owner",
          "type": "address"
        }
      ],
      "stateMutability": "nonpayable",
      "type": "constructor"
    },
    {
      "inputs": [
        {
          "internalType": "address",
          "name": "spender",
          "type": "address"
        },
        {
          "internalType": "uint256",
          "name": "allowance",
          "type": "uint256"
        },
        {
          "internalType": "uint256",
          "name": "needed",
          "type": "uint256"
        }
      ],
      "name": "ERC20InsufficientAllowance",
      "type": "error"
    },
    {
      "inputs": [
        {
          "internalType": "address",
          "name": "sender",
          "type": "address"
        },
        {
          "internalType": "uint256",
          "name": "balance",
          "type": "uint256"
        },
        {
          "internalType": "uint256",
          "name": "needed",
          "type": "uint256"
        }
      ],
      "name": "ERC20InsufficientBalance",
      "type": "error"
    },
    {
      "inputs": [
        {
          "internalType": "address",
          "name": "approver",
          "type": "address"
        }
      ],
      "name": "ERC20InvalidApprover",
      "type": "error"
    },
    {
      "inputs": [
        {
          "internalType": "address",
          "name": "receiver",
          "type": "address"
        }
      ],
      "name": "ERC20InvalidReceiver",
      "type": "error"
    },
    {
      "inputs": [
        {
          "internalType": "address",
          "name": "sender",
          "type": "address"
        }
      ],
      "name": "ERC20InvalidSender",
      "type": "error"
    },
    {
      "inputs": [
        {
          "internalType": "address",
          "name": "spender",
          "type": "address"
        }
      ],
      "name": "ERC20InvalidSpender",
      "type": "error"
    },
    {
      "inputs": [
        {
          "internalType": "address",
          "name": "owner",
          "type": "address"
        }
      ],
      "name": "OwnableInvalidOwner",
      "type": "error"
    },
    {
      "inputs": [
        {
          "internalType": "address",
          "name": "account",
          "type": "address"
        }
      ],
      "name": "OwnableUnauthorizedAccount",
      "type": "error"
    },
    {
      "anonymous": false,
      "inputs": [
        {
          "indexed": true,
          "internalType": "address",
          "name": "owner",
          "type": "address"
        },
        {
          "indexed": true,
          "internalType": "address",
          "name": "spender",
          "type": "address"
        },
        {
          "indexed": false,
          "internalType": "uint256",
          "name": "value",
          "type": "uint256"
        }
      ],
      "name": "Approval",
      "type": "event"
    },
    {
      "anonymous": false,
      "inputs": [
        {
          "indexed": true,
          "internalType": "address",
          "name": "previousOwner",
          "type": "address"
        },
        {
          "indexed": true,
          "internalType": "address",
          "name": "newOwner",
          "type": "address"
        }
      ],
      "name": "OwnershipTransferred",
      "type": "event"
    },
    {
      "anonymous": false,
      "inputs": [
        {
          "indexed": true,
          "internalType": "address",
          "name": "from",
          "type": "address"
        },
        {
          "indexed": true,
          "internalType": "address",
          "name": "to",
          "type": "address"
        },
        {
          "indexed": false,
          "internalType": "uint256",
          "name": "value",
          "type": "uint256"
        }
      ],
      "name": "Transfer",
      "type": "event"
    },
    {
      "inputs": [
        {
          "internalType": "address",
          "name": "owner",
          "type": "address"
        },
        {
          "internalType": "address",
          "name": "spender",
          "type": "address"
        }
      ],
      "name": "allowance",
      "outputs": [
        {
          "internalType": "uint256",
          "name": "",
          "type": "uint256"
        }
      ],
      "stateMutability": "view",
      "type": "function"
    },
    {
      "inputs": [
        {
          "internalType": "address",
          "name": "spender",
          "type": "address"
        },
        {
          "internalType": "uint256",
          "name": "value",
          "type": "uint256"
        }
      ],
      "name": "approve",
      "outputs": [
        {
          "internalType": "bool",
          "name": "",
          "type": "bool"
        }
      ],
      "stateMutability": "nonpayable",
      "type": "function"
    },
    {
      "inputs": [
        {
          "internalType": "address",
          "name": "account",
          "type": "address"
        }
      ],
      "name": "balanceOf",
      "outputs": [
        {
          "internalType": "uint256",
          "name": "",
          "type": "uint256"
        }
      ],
      "stateMutability": "view",
      "type": "function"
    },
    {
      "inputs": [],
      "name": "decimals",
      "outputs": [
        {
          "internalType": "uint8",
          "name": "",
          "type": "uint8"
        }
      ],
      "stateMutability": "view",
      "type": "function"
    },
    {
      "inputs": [
        {
          "internalType": "uint256",
          "name": "amount",
          "type": "uint256"
        }
      ],
      "name": "faucet",
      "outputs": [],
      "stateMutability": "nonpayable",
      "type": "function"
    },
    {
      "inputs": [
        {
          "internalType": "address",
          "name": "to",
          "type": "address"
        },
        {
          "internalType": "uint256",
          "name": "amount",
          "type": "uint256"
        }
      ],
      "name": "mint",
      "outputs": [],
      "stateMutability": "nonpayable",
      "type": "function"
    },
    {
      "inputs": [],
      "name": "name",
      "outputs": [
        {
          "internalType": "string",
          "name": "",
          "type": "string"
        }
      ],
      "stateMutability": "view",
      "type": "function"
    },
    {
      "inputs": [],
      "name": "owner",
      "outputs": [
        {
          "internalType": "address",
          "name": "",
          "type": "address"
        }
      ],
      "stateMutability": "view",
      "type": "function"
    },
    {
      "inputs": [],
      "name": "renounceOwnership",
      "outputs": [],
      "stateMutability": "nonpayable",
      "type": "function"
    },
    {
      "inputs": [],
      "name": "symbol",
      "outputs": [
        {
          "internalType": "string",
          "name": "",
          "type": "string"
        }
      ],
      "stateMutability": "view",
      "type": "function"
    },
    {
      "inputs": [],
      "name": "totalSupply",
      "outputs": [
        {
          "internalType": "uint256",
          "name": "",
          "type": "uint256"
        }
      ],
      "stateMutability": "view",
      "type": "function"
    },
    {
      "inputs": [
        {
          "internalType": "address",
          "name": "to",
          "type": "address"
        },
        {
          "internalType": "uint256",
          "name": "value",
          "type": "uint256"
        }
      ],
      "name": "transfer",
      "outputs": [
        {
          "internalType": "bool",
          "name": "",
          "type": "bool"
        }
      ],
      "stateMutability": "nonpayable",
      "type": "function"
    },
    {
      "inputs": [
        {
          "internalType": "address",
          "name": "from",
          "type": "address"
        },
        {
          "internalType": "address",
          "name": "to",
          "type": "address"
        },
        {
          "internalType": "uint256",
          "name": "value",
          "type": "uint256"
        }
      ],
      "name": "transferFrom",
      "outputs": [
        {
          "internalType": "bool",
          "name": "",
          "type": "bool"
        }
      ],
      "stateMutability": "nonpayable",
      "type": "function"
    },
    {
      "inputs": [
        {
          "internalType": "address",
          "name": "newOwner",
          "type": "address"
        }
      ],
      "name": "transferOwnership",
      "outputs": [],
      "stateMutability": "nonpayable",
      "type": "function"
    }
  ],
  "bytecode": "0x608060405234801561001057600080fd5b50604051610e56380380610e5683398101604081905261002f916101b8565b808484600361003e83826102e2565b50600461004b82826102e2565b5050506001600160a01b03811661007c57604051631e4fbdf760e01b81526000600482015260240160405180910390fd5b610085816100ad565b50506005805460ff909216600160a01b0260ff60a01b19909216919091179055506103a09050565b600580546001600160a01b038381166001600160a01b0319831681179093556040519116919082907f8be0079c531659141344cd1fd0a4f28419497f9722a3daafe3b4186f6b6457e090600090a35050565b634e487b7160e01b600052604160045260246000fd5b600082601f83011261012657600080fd5b81516001600160401b0381111561013f5761013f6100ff565b604051601f8201601f19908116603f011681016001600160401b038111828210171561016d5761016d6100ff565b60405281815283820160200185101561018557600080fd5b60005b828110156101a457602081860181015183830182015201610188565b506000918101602001919091529392505050565b600080600080608085870312156101ce57600080fd5b84516001600160401b038111156101e457600080fd5b6101f087828801610115565b602087015190955090506001600160401b0381111561020e57600080fd5b61021a87828801610115565b935050604085015160ff8116811461023157600080fd5b60608601519092506001600160a01b038116811461024e57600080fd5b939692955090935050565b600181811c9082168061026d57607f821691505b60208210810361028d57634e487b7160e01b600052602260045260246000fd5b50919050565b601f8211156102dd57806000526020600020601f840160051c810160208510156102ba5750805b601f840160051c820191505b818110156102da57600081556001016102c6565b50505b505050565b81516001600160401b038111156102fb576102fb6100ff565b61030f816103098454610259565b84610293565b6020601f821160018114610343576000831561032b5750848201515b600019600385901b1c1916600184901b1784556102da565b600084815260208120601f198516915b828110156103735787850151825560209485019460019092019101610353565b50848210156103915786840151600019600387901b60f8161c191681555b50505050600190811b01905550565b610aa7806103af6000396000f3fe608060405234801561001057600080fd5b50600436106100ea5760003560e01c806370a082311161008c57806395d89b411161006657806395d89b41146101e8578063a9059cbb146101f0578063dd62ed3e14610203578063f2fde38b1461023c57600080fd5b806370a082311461019c578063715018a6146101c55780638da5cb5b146101cd57600080fd5b806323b872dd116100c857806323b872dd14610142578063313ce5671461015557806340c10f1914610174578063579158971461018957600080fd5b806306fdde03146100ef578063095ea7b31461010d57806318160ddd14610130575b600080fd5b6100f761024f565b60405161010491906107c2565b60405180910390f35b61012061011b36600461082c565b6102e1565b6040519015158152602001610104565b6002545b604051908152602001610104565b610120610150366004610856565b6102fb565b600554600160a01b900460ff1660405160ff9091168152602001610104565b61018761018236600461082c565b61031f565b005b610187610197366004610893565b610335565b6101346101aa3660046108ac565b6001600160a01b031660009081526020819052604090205490565b6101876103b2565b6005546040516001600160a01b039091168152602001610104565b6100f76103c6565b6101206101fe36600461082c565b6103d5565b6101346102113660046108ce565b6001600160a01b03918216600090815260016020908152604080832093909416825291909152205490565b61018761024a3660046108ac565b6103e3565b60606003805461025e90610901565b80601f016020809104026020016040519081016040528092919081815260200182805461028a90610901565b80156102d75780601f106102ac576101008083540402835291602001916102d7565b820191906000526020600020905b8154815290600101906020018083116102ba57829003601f168201915b5050505050905090565b6000336102ef81858561041e565b60019150505b92915050565b600033610309858285610430565b6103148585856104af565b506001949350505050565b61032761050e565b610331828261053b565b5050565b60055461034d90600160a01b900460ff16600a610a38565b61035990612710610a47565b8111156103a55760405162461bcd60e51b815260206004820152601560248201527411985d58d95d081b1a5b5a5d08195e18d959591959605a1b60448201526064015b60405180910390fd5b6103af338261053b565b50565b6103ba61050e565b6103c46000610571565b565b60606004805461025e90610901565b6000336102ef8185856104af565b6103eb61050e565b6001600160a01b03811661041557604051631e4fbdf760e01b81526000600482015260240161039c565b6103af81610571565b61042b83838360016105c3565b505050565b6001600160a01b038381166000908152600160209081526040808320938616835292905220546000198110156104a9578181101561049a57604051637dc7a0d960e11b81526001600160a01b0384166004820152602481018290526044810183905260640161039c565b6104a9848484840360006105c3565b50505050565b6001600160a01b0383166104d957604051634b637e8f60e11b81526000600482015260240161039c565b6001600160a01b0382166105035760405163ec442f0560e01b81526000600482015260240161039c565b61042b838383610698565b6005546001600160a01b031633146103c45760405163118cdaa760e01b815233600482015260240161039c565b6001600160a01b0382166105655760405163ec442f0560e01b81526000600482015260240161039c565b61033160008383610698565b600580546001600160a01b038381166001600160a01b0319831681179093556040519116919082907f8be0079c531659141344cd1fd0a4f28419497f9722a3daafe3b4186f6b6457e090600090a35050565b6001600160a01b0384166105ed5760405163e602df0560e01b81526000600482015260240161039c565b6001600160a01b03831661061757604051634a1406b160e11b81526000600482015260240161039c565b6001600160a01b03808516600090815260016020908152604080832093871683529290522082905580156104a957826001600160a01b0316846001600160a01b03167f8c5be1e5ebec7d5bd14f71427d1e84f3dd0314c0f7b2291e5b200ac8c7c3b9258460405161068a91815260200190565b60405180910390a350505050565b6001600160a01b0383166106c35780600260008282546106b89190610a5e565b909155506107359050565b6001600160a01b038316600090815260208190526040902054818110156107165760405163391434e360e21b81526001600160a01b0385166004820152602481018290526044810183905260640161039c565b6001600160a01b03841660009081526020819052604090209082900390555b6001600160a01b03821661075157600280548290039055610770565b6001600160a01b03821660009081526020819052604090208054820190555b816001600160a01b0316836001600160a01b03167fddf252ad1be2c89b69c2b068fc378daa952ba7f163c4a11628f55a4df523b3ef836040516107b591815260200190565b60405180910390a3505050565b602081526000825180602084015260005b818110156107f057602081860181015160408684010152016107d3565b506000604082850101526040601f19601f83011684010191505092915050565b80356001600160a01b038116811461082757600080fd5b919050565b6000806040838503121561083f57600080fd5b61084883610810565b946020939093013593505050565b60008060006060848603121561086b57600080fd5b61087484610810565b925061088260208501610810565b929592945050506040919091013590565b6000602082840312156108a557600080fd5b5035919050565b6000602082840312156108be57600080fd5b6108c782610810565b9392505050565b600080604083850312156108e157600080fd5b6108ea83610810565b91506108f860208401610810565b90509250929050565b600181811c9082168061091557607f821691505b60208210810361093557634e487b7160e01b600052602260045260246000fd5b50919050565b634e487b7160e01b600052601160045260246000fd5b6001815b600184111561098c578085048111156109705761097061093b565b600184161561097e57908102905b60019390931c928002610955565b935093915050565b6000826109a3575060016102f5565b816109b0575060006102f5565b81600181146109c657600281146109d0576109ec565b60019150506102f5565b60ff8411156109e1576109e161093b565b50506001821b6102f5565b5060208310610133831016604e8410600b8410161715610a0f575081810a6102f5565b610a1c6000198484610951565b8060001904821115610a3057610a3061093b565b029392505050565b60006108c760ff841683610994565b80820281158282048414176102f5576102f561093b565b808201808211156102f5576102f561093b56fea26469706673582212202c5cef96a4a3acaec581e9802534c4b05814e0baca716a86d7bf56b5f8d04e5a64736f6c634300081c0033",
  "linkReferences": {},
  "deployedLinkReferences": {}
}