{
  "_format": "hh-sol-artifact-1",
  "contractName": "SimpleFund",
  "sourceName": "contracts/SimpleFund.sol",
  "abi": [
    {
      "inputs": [
        {
          "internalType": "address",
          "name": "_factoringContract",
          "type": "address"
        },
        {
          "internalType": "address",
          "name": "_usdc",
          "type": "address"
        },
        {
          "internalType": "address",
          "name": "_usdt",
          "type": "address"
        },
        {
          "components": [
            {
              "internalType": "uint256",
              "name": "managementFeePercentage",
              "type": "uint256"
            },
            {
              "internalType": "bool",
              "name": "acceptingDeposits",
              "type": "bool"
            }
          ],
          "internalType": "struct SimpleFund.FundConfig",
          "name": "_fundConfig",
          "type": "tuple"
        }
      ],
      "stateMutability": "nonpayable",
      "type": "constructor"
    },
    {
      "inputs": [],
      "name": "EnforcedPause",
      "type": "error"
    },
    {
      "inputs": [],
      "name": "ExpectedPause",
      "type": "error"
    },
    {
      "inputs": [],
      "name": "ReentrancyGuardReentrantCall",
      "type": "error"
    },
    {
      "inputs": [
        {
          "internalType": "address",
          "name": "token",
          "type": "address"
        }
      ],
      "name": "SafeERC20FailedOperation",
      "type": "error"
    },
    {
      "inputs": [],
      "name": "Unauthorized",
      "type": "error"
    },
    {
      "anonymous": false,
      "inputs": [
        {
          "indexed": true,
          "internalType": "uint256",
          "name": "billId",
          "type": "uint256"
        },
        {
          "indexed": false,
          "internalType": "uint256",
          "name": "totalReturn",
          "type": "uint256"
        }
      ],
      "name": "BillCompleted",
      "type": "event"
    },
    {
      "anonymous": false,
      "inputs": [
        {
          "indexed": true,
          "internalType": "uint256",
          "name": "billRequestId",
          "type": "uint256"
        },
        {
          "indexed": true,
          "internalType": "address",
          "name": "debtor",
          "type": "address"
        },
        {
          "indexed": false,
          "internalType": "uint256",
          "name": "amount",
          "type": "uint256"
        }
      ],
      "name": "BillRequestFunded",
      "type": "event"
    },
    {
      "anonymous": false,
      "inputs": [],
      "name": "FundConfigUpdated",
      "type": "event"
    },
    {
      "anonymous": false,
      "inputs": [
        {
          "indexed": true,
          "internalType": "address",
          "name": "depositor",
          "type": "address"
        },
        {
          "indexed": false,
          "internalType": "uint256",
          "name": "amount",
          "type": "uint256"
        },
        {
          "indexed": false,
          "internalType": "address",
          "name": "token",
          "type": "address"
        }
      ],
      "name": "FundsDeposited",
      "type": "event"
    },
    {
      "anonymous": false,
      "inputs": [
        {
          "indexed": true,
          "internalType": "address",
          "name": "withdrawer",
          "type": "address"
        },
        {
          "indexed": false,
          "internalType": "uint256",
          "name": "amount",
          "type": "uint256"
        },
        {
          "indexed": false,
          "internalType": "address",
          "name": "token",
          "type": "address"
        }
      ],
      "name": "FundsWithdrawn",
      "type": "event"
    },
    {
      "anonymous": false,
      "inputs": [
        {
          "indexed": false,
          "internalType": "uint256",
          "name": "amount",
          "type": "uint256"
        }
      ],
      "name": "ManagementFeesCollected",
      "type": "event"
    },
    {
      "anonymous": false,
      "inputs": [],
      "name": "OfferConfigUpdated",
      "type": "event"
    },
    {
      "anonymous": false,
      "inputs": [
        {
          "indexed": true,
          "internalType": "uint256",
          "name": "billRequestId",
          "type": "uint256"
        },
        {
          "indexed": true,
          "internalType": "uint256",
          "name": "offerId",
          "type": "uint256"
        },
        {
          "indexed": false,
          "internalType": "uint256",
          "name": "amount",
          "type": "uint256"
        }
      ],
      "name": "OfferCreatedAutomatically",
      "type": "event"
    },
    {
      "anonymous": false,
      "inputs": [
        {
          "indexed": true,
          "internalType": "uint256",
          "name": "offerId",
          "type": "uint256"
        },
        {
          "indexed": true,
          "internalType": "uint256",
          "name": "billRequestId",
          "type": "uint256"
        },
        {
          "indexed": false,
          "internalType": "uint256",
          "name": "amount",
          "type": "uint256"
        }
      ],
      "name": "OfferWithdrawn",
      "type": "event"
    },
    {
      "anonymous": false,
      "inputs": [
        {
          "indexed": false,
          "internalType": "address",
          "name": "account",
          "type": "address"
        }
      ],
      "name": "Paused",
      "type": "event"
    },
    {
      "anonymous": false,
      "inputs": [
        {
          "indexed": true,
          "internalType": "address",
          "name": "admin",
          "type": "address"
        }
      ],
      "name": "SetAdmin",
      "type": "event"
    },
    {
      "anonymous": false,
      "inputs": [
        {
          "indexed": true,
          "internalType": "address",
          "name": "authOperator",
          "type": "address"
        }
      ],
      "name": "SetAuthOperator",
      "type": "event"
    },
    {
      "anonymous": false,
      "inputs": [
        {
          "indexed": true,
          "internalType": "address",
          "name": "operator",
          "type": "address"
        }
      ],
      "name": "SetOperator",
      "type": "event"
    },
    {
      "anonymous": false,
      "inputs": [
        {
          "indexed": false,
          "internalType": "address",
          "name": "account",
          "type": "address"
        }
      ],
      "name": "Unpaused",
      "type": "event"
    },
    {
      "inputs": [],
      "name": "USDC",
      "outputs": [
        {
          "internalType": "contract IERC20",
          "name": "",
          "type": "address"
        }
      ],
      "stateMutability": "view",
      "type": "function"
    },
    {
      "inputs": [],
      "name": "USDT",
      "outputs": [
        {
          "internalType": "contract IERC20",
          "name": "",
          "type": "address"
        }
      ],
      "stateMutability": "view",
      "type": "function"
    },
    {
      "inputs": [
        {
          "internalType": "uint256",
          "name": "offerId",
          "type": "uint256"
        }
      ],
      "name": "acceptOfferForOwnedBill",
      "outputs": [],
      "stateMutability": "nonpayable",
      "type": "function"
    },
    {
      "inputs": [
        {
          "internalType": "uint256",
          "name": "",
          "type": "uint256"
        }
      ],
      "name": "billRequestToOffer",
      "outputs": [
        {
          "internalType": "uint256",
          "name": "",
          "type": "uint256"
        }
      ],
      "stateMutability": "view",
      "type": "function"
    },
    {
      "inputs": [
        {
          "internalType": "uint256",
          "name": "totalAmount",
          "type": "uint256"
        },
        {
          "internalType": "uint256",
          "name": "dueDate",
          "type": "uint256"
        }
      ],
      "name": "createBillRequestForDebtor",
      "outputs": [
        {
          "internalType": "uint256",
          "name": "",
          "type": "uint256"
        }
      ],
      "stateMutability": "nonpayable",
      "type": "function"
    },
    {
      "inputs": [
        {
          "internalType": "uint256",
          "name": "billRequestId",
          "type": "uint256"
        },
        {
          "internalType": "address",
          "name": "stablecoin",
          "type": "address"
        },
        {
          "components": [
            {
              "internalType": "uint256",
              "name": "feePercentage",
              "type": "uint256"
            },
            {
              "internalType": "uint256",
              "name": "upfrontPercentage",
              "type": "uint256"
            },
            {
              "internalType": "uint256",
              "name": "ownerPercentage",
              "type": "uint256"
            }
          ],
          "internalType": "struct FactoringContract.Conditions",
          "name": "conditions",
          "type": "tuple"
        }
      ],
      "name": "createOfferForBillRequest",
      "outputs": [],
      "stateMutability": "nonpayable",
      "type": "function"
    },
    {
      "inputs": [
        {
          "internalType": "uint256",
          "name": "amount",
          "type": "uint256"
        },
        {
          "internalType": "address",
          "name": "token",
          "type": "address"
        }
      ],
      "name": "deposit",
      "outputs": [],
      "stateMutability": "nonpayable",
      "type": "function"
    },
    {
      "inputs": [],
      "name": "factoringContract",
      "outputs": [
        {
          "internalType": "contract FactoringContract",
          "name": "",
          "type": "address"
        }
      ],
      "stateMutability": "view",
      "type": "function"
    },
    {
      "inputs": [],
      "name": "fundConfig",
      "outputs": [
        {
          "internalType": "uint256",
          "name": "managementFeePercentage",
          "type": "uint256"
        },
        {
          "internalType": "bool",
          "name": "acceptingDeposits",
          "type": "bool"
        }
      ],
      "stateMutability": "view",
      "type": "function"
    },
    {
      "inputs": [
        {
          "internalType": "address",
          "name": "_admin",
          "type": "address"
        }
      ],
      "name": "getAuthorizedAdmin",
      "outputs": [
        {
          "internalType": "bool",
          "name": "",
          "type": "bool"
        }
      ],
      "stateMutability": "view",
      "type": "function"
    },
    {
      "inputs": [
        {
          "internalType": "address",
          "name": "_operator",
          "type": "address"
        }
      ],
      "name": "getAuthorizedOperator",
      "outputs": [
        {
          "internalType": "bool",
          "name": "",
          "type": "bool"
        }
      ],
      "stateMutability": "view",
      "type": "function"
    },
    {
      "inputs": [
        {
          "internalType": "address",
          "name": "token",
          "type": "address"
        }
      ],
      "name": "getFundBalance",
      "outputs": [
        {
          "internalType": "uint256",
          "name": "",
          "type": "uint256"
        }
      ],
      "stateMutability": "view",
      "type": "function"
    },
    {
      "inputs": [],
      "name": "getOwner",
      "outputs": [
        {
          "internalType": "address",
          "name": "",
          "type": "address"
        }
      ],
      "stateMutability": "view",
      "type": "function"
    },
    {
      "inputs": [],
      "name": "getTotalFundValue",
      "outputs": [
        {
          "internalType": "uint256",
          "name": "",
          "type": "uint256"
        }
      ],
      "stateMutability": "view",
      "type": "function"
    },
    {
      "inputs": [
        {
          "internalType": "uint256",
          "name": "billId",
          "type": "uint256"
        }
      ],
      "name": "handleBillCompletion",
      "outputs": [],
      "stateMutability": "nonpayable",
      "type": "function"
    },
    {
      "inputs": [],
      "name": "managementFeesCollected",
      "outputs": [
        {
          "internalType": "uint256",
          "name": "",
          "type": "uint256"
        }
      ],
      "stateMutability": "view",
      "type": "function"
    },
    {
      "inputs": [
        {
          "internalType": "address",
          "name": "",
          "type": "address"
        },
        {
          "internalType": "address",
          "name": "",
          "type": "address"
        },
        {
          "internalType": "uint256",
          "name": "",
          "type": "uint256"
        },
        {
          "internalType": "bytes",
          "name": "",
          "type": "bytes"
        }
      ],
      "name": "onERC721Received",
      "outputs": [
        {
          "internalType": "bytes4",
          "name": "",
          "type": "bytes4"
        }
      ],
      "stateMutability": "pure",
      "type": "function"
    },
    {
      "inputs": [],
      "name": "pause",
      "outputs": [],
      "stateMutability": "nonpayable",
      "type": "function"
    },
    {
      "inputs": [],
      "name": "paused",
      "outputs": [
        {
          "internalType": "bool",
          "name": "",
          "type": "bool"
        }
      ],
      "stateMutability": "view",
      "type": "function"
    },
    {
      "inputs": [
        {
          "internalType": "uint256",
          "name": "billId",
          "type": "uint256"
        }
      ],
      "name": "payBillForDebtor",
      "outputs": [],
      "stateMutability": "nonpayable",
      "type": "function"
    },
    {
      "inputs": [
        {
          "internalType": "address",
          "name": "_admin",
          "type": "address"
        },
        {
          "internalType": "bool",
          "name": "status",
          "type": "bool"
        }
      ],
      "name": "setAuthorizedAdmin",
      "outputs": [],
      "stateMutability": "nonpayable",
      "type": "function"
    },
    {
      "inputs": [
        {
          "internalType": "address",
          "name": "_operator",
          "type": "address"
        },
        {
          "internalType": "bool",
          "name": "status",
          "type": "bool"
        }
      ],
      "name": "setAuthorizedOperator",
      "outputs": [],
      "stateMutability": "nonpayable",
      "type": "function"
    },
    {
      "inputs": [],
      "name": "totalEarnings",
      "outputs": [
        {
          "internalType": "uint256",
          "name": "",
          "type": "uint256"
        }
      ],
      "stateMutability": "view",
      "type": "function"
    },
    {
      "inputs": [
        {
          "internalType": "address",
          "name": "newOwner",
          "type": "address"
        }
      ],
      "name": "transferOwnership",
      "outputs": [],
      "stateMutability": "nonpayable",
      "type": "function"
    },
    {
      "inputs": [],
      "name": "unpause",
      "outputs": [],
      "stateMutability": "nonpayable",
      "type": "function"
    },
    {
      "inputs": [
        {
          "components": [
            {
              "internalType": "uint256",
              "name": "managementFeePercentage",
              "type": "uint256"
            },
            {
              "internalType": "bool",
              "name": "acceptingDeposits",
              "type": "bool"
            }
          ],
          "internalType": "struct SimpleFund.FundConfig",
          "name": "newConfig",
          "type": "tuple"
        }
      ],
      "name": "updateFundConfig",
      "outputs": [],
      "stateMutability": "nonpayable",
      "type": "function"
    },
    {
      "inputs": [
        {
          "internalType": "uint256",
          "name": "amount",
          "type": "uint256"
        },
        {
          "internalType": "address",
          "name": "token",
          "type": "address"
        }
      ],
      "name": "withdraw",
      "outputs": [],
      "stateMutability": "nonpayable",
      "type": "function"
    },
    {
      "inputs": [
        {
          "internalType": "address",
          "name": "stablecoin",
          "type": "address"
        },
        {
          "internalType": "address",
          "name": "receiver",
          "type": "address"
        }
      ],
      "name": "withdrawAll",
      "outputs": [],
      "stateMutability": "nonpayable",
      "type": "function"
    },
    {
      "inputs": [
        {
          "internalType": "address",
          "name": "token",
          "type": "address"
        }
      ],
      "name": "withdrawManagementFees",
      "outputs": [],
      "stateMutability": "nonpayable",
      "type": "function"
    },
    {
      "inputs": [
        {
          "internalType": "uint256",
          "name": "offerId",
          "type": "uint256"
        }
      ],
      "name": "withdrawOffer",
      "outputs": [],
      "stateMutability": "nonpayable",
      "type": "function"
    }
  ],
  "bytecode": "0x60e060405234801561001057600080fd5b5060405161335838038061335883398101604081905261002f916101a7565b600160008190558054610100600160a81b03191633610100021790556001600160a01b0384166100a65760405162461bcd60e51b815260206004820152601a60248201527f496e76616c696420666163746f72696e6720636f6e747261637400000000000060448201526064015b60405180910390fd5b6001600160a01b0383166100fc5760405162461bcd60e51b815260206004820152601460248201527f496e76616c696420555344432061646472657373000000000000000000000000604482015260640161009d565b6001600160a01b0382166101525760405162461bcd60e51b815260206004820152601460248201527f496e76616c696420555344542061646472657373000000000000000000000000604482015260640161009d565b6001600160a01b0393841660805291831660a05290911660c0528051600455602001516005805460ff1916911515919091179055610255565b80516001600160a01b03811681146101a257600080fd5b919050565b60008060008084860360a08112156101be57600080fd5b6101c78661018b565b94506101d56020870161018b565b93506101e36040870161018b565b92506040605f19820112156101f757600080fd5b50604080519081016001600160401b038111828210171561022857634e487b7160e01b600052604160045260246000fd5b604052606086015181526080860151801515811461024557600080fd5b6020820152939692955090935050565b60805160a05160c051613010610348600039600081816103df0152818161058101528181610a0601528181610ad601528181610d75015281816114420152611bfe0152600081816103700152818161054601528181610a2f01528181610a9b01528181610d3a015281816114070152611bc301526000818161047e01528181610770015281816108a40152818161098c01528181610e0701528181610f2d0152818161109d0152818161115e0152818161194301528181611ad801528181611d5001528181611fb40152818161204801528181612342015281816125600152818161267d015261272601526130106000f3fe608060405234801561001057600080fd5b50600436106101d95760003560e01c80638456cb5911610104578063c54e44eb116100a2578063eb511ad111610071578063eb511ad114610466578063ee9f097e14610479578063f2fde38b146104a0578063fae29373146104b357600080fd5b8063c54e44eb146103da578063cb35124414610401578063d6d11c7f1461042d578063e28d1d2e1461044057600080fd5b806389a30271116100de57806389a302711461036b57806390fe3e321461039257806395457a05146103be578063b423b79f146103c757600080fd5b80638456cb59146103265780638610f0451461032e578063893d20e81461034157600080fd5b8063328927d71161017c5780636e553f651161014b5780636e553f65146102da57806371c3a4b1146102ed578063788f737d146103005780637da34a3e1461031357600080fd5b8063328927d7146102955780633f4ba83a146102a85780635c975abb146102b05780635ef9ef86146102c757600080fd5b806308a91f88116101b857806308a91f881461023957806309cae2c814610241578063150b7a02146102545780632df3eba41461028c57600080fd5b8062f714ce146101de5780630278fffc146101f357806304224c5414610226575b600080fd5b6101f16101ec366004612950565b6104c6565b005b610213610201366004612980565b60086020526000908152604090205481565b6040519081526020015b60405180910390f35b6101f1610234366004612980565b6106e6565b6102136109ff565b6101f161024f366004612999565b610a62565b6102736102623660046129c7565b630a85bd0160e11b95945050505050565b6040516001600160e01b0319909116815260200161021d565b61021360065481565b6101f16102a3366004612b02565b610cbf565b6101f161122f565b60015460ff165b604051901515815260200161021d565b6101f16102d5366004612b7c565b611286565b6101f16102e8366004612950565b61131a565b6101f16102fb366004612be7565b6114e7565b6101f161030e366004612be7565b611670565b6101f1610321366004612980565b6117fc565b6101f1611864565b6101f161033c366004612980565b6118b9565b60015461010090046001600160a01b03165b6040516001600160a01b03909116815260200161021d565b6103537f000000000000000000000000000000000000000000000000000000000000000081565b6102b76103a0366004612c15565b6001600160a01b031660009081526003602052604090205460ff1690565b61021360075481565b6101f16103d5366004612c15565b611b8a565b6103537f000000000000000000000000000000000000000000000000000000000000000081565b6102b761040f366004612c15565b6001600160a01b031660009081526002602052604090205460ff1690565b61021361043b366004612c15565b611cbe565b600454600554610451919060ff1682565b6040805192835290151560208301520161021d565b6101f1610474366004612980565b611d2f565b6103537f000000000000000000000000000000000000000000000000000000000000000081565b6101f16104ae366004612c15565b6120b5565b6102136104c1366004612c39565b612286565b60015461010090046001600160a01b031633148015906104f657503360009081526002602052604090205460ff16155b15610513576040516282b42960e81b815260040160405180910390fd5b61051b612409565b600082116105445760405162461bcd60e51b815260040161053b90612c5b565b60405180910390fd5b7f00000000000000000000000000000000000000000000000000000000000000006001600160a01b0316816001600160a01b031614806105b557507f00000000000000000000000000000000000000000000000000000000000000006001600160a01b0316816001600160a01b0316145b6105d15760405162461bcd60e51b815260040161053b90612c92565b6040516370a0823160e01b815230600482015282906001600160a01b038316906370a0823190602401602060405180830381865afa158015610617573d6000803e3d6000fd5b505050506040513d601f19601f8201168201806040525081019061063b9190612cbd565b10156106805760405162461bcd60e51b8152602060048201526014602482015273496e73756666696369656e742062616c616e636560601b604482015260640161053b565b6106946001600160a01b0382163384612433565b604080518381526001600160a01b038316602082015233917fe9171aeff46c37ab955b8aff908e14ae9732bd06634fa131226cfe5c25bfd2fb91015b60405180910390a26106e26001600055565b5050565b60015461010090046001600160a01b0316331480159061071657503360009081526002602052604090205460ff16155b801561073257503360009081526003602052604090205460ff16155b1561074f576040516282b42960e81b815260040160405180910390fd5b610757612409565b6040516322bc934560e11b8152600481018290526000907f00000000000000000000000000000000000000000000000000000000000000006001600160a01b031690634579268a9060240161012060405180830381865afa1580156107c0573d6000803e3d6000fd5b505050506040513d601f19601f820116820180604052508101906107e49190612d21565b805190915060000361082f5760405162461bcd60e51b815260206004820152601460248201527313d999995c88191bd95cc81b9bdd08195e1a5cdd60621b604482015260640161053b565b8060c00151600381111561084557610845612daf565b156108855760405162461bcd60e51b815260206004820152601060248201526f4f66666572206e6f742061637469766560801b604482015260640161053b565b60208101516040516331a9108f60e11b81526000916001600160a01b037f00000000000000000000000000000000000000000000000000000000000000001691636352211e916108db9160040190815260200190565b602060405180830381865afa1580156108f8573d6000803e3d6000fd5b505050506040513d601f19601f8201168201806040525081019061091c9190612dc5565b90506001600160a01b03811630146109765760405162461bcd60e51b815260206004820152601960248201527f46756e6420646f6573206e6f74206f776e20746865204e465400000000000000604482015260640161053b565b60405163c815729d60e01b8152600481018490527f00000000000000000000000000000000000000000000000000000000000000006001600160a01b03169063c815729d90602401600060405180830381600087803b1580156109d857600080fd5b505af11580156109ec573d6000803e3d6000fd5b5050505050506109fc6001600055565b50565b6000610a2a7f0000000000000000000000000000000000000000000000000000000000000000611cbe565b610a537f0000000000000000000000000000000000000000000000000000000000000000611cbe565b610a5d9190612df8565b905090565b60015461010090046001600160a01b03163314610a91576040516282b42960e81b815260040160405180910390fd5b610a99612409565b7f00000000000000000000000000000000000000000000000000000000000000006001600160a01b0316826001600160a01b03161480610b0a57507f00000000000000000000000000000000000000000000000000000000000000006001600160a01b0316826001600160a01b0316145b610b4f5760405162461bcd60e51b81526020600482015260166024820152752ab739bab83837b93a32b21039ba30b13632b1b7b4b760511b604482015260640161053b565b6001600160a01b038116610ba55760405162461bcd60e51b815260206004820152601860248201527f496e76616c696420726563656976657220616464726573730000000000000000604482015260640161053b565b6040516370a0823160e01b81523060048201526000906001600160a01b038416906370a0823190602401602060405180830381865afa158015610bec573d6000803e3d6000fd5b505050506040513d601f19601f82011682018060405250810190610c109190612cbd565b905060008111610c5b5760405162461bcd60e51b81526020600482015260166024820152754e6f2062616c616e636520746f20776974686472617760501b604482015260640161053b565b610c6f6001600160a01b0384168383612433565b604080518281526001600160a01b0385811660208301528416917fe9171aeff46c37ab955b8aff908e14ae9732bd06634fa131226cfe5c25bfd2fb910160405180910390a2506106e26001600055565b60015461010090046001600160a01b03163314801590610cef57503360009081526002602052604090205460ff16155b8015610d0b57503360009081526003602052604090205460ff16155b15610d28576040516282b42960e81b815260040160405180910390fd5b610d30612409565b610d38612492565b7f00000000000000000000000000000000000000000000000000000000000000006001600160a01b0316826001600160a01b03161480610da957507f00000000000000000000000000000000000000000000000000000000000000006001600160a01b0316826001600160a01b0316145b610dee5760405162461bcd60e51b81526020600482015260166024820152752ab739bab83837b93a32b21039ba30b13632b1b7b4b760511b604482015260640161053b565b604051632bfac9f160e01b8152600481018490526000907f00000000000000000000000000000000000000000000000000000000000000006001600160a01b031690632bfac9f19060240160a060405180830381865afa158015610e56573d6000803e3d6000fd5b505050506040513d601f19601f82011682018060405250810190610e7a9190612e23565b8051909150600003610ece5760405162461bcd60e51b815260206004820152601b60248201527f42696c6c207265717565737420646f6573206e6f742065786973740000000000604482015260640161053b565b80608001516002811115610ee457610ee4612daf565b15610f295760405162461bcd60e51b81526020600482015260156024820152742134b636103932b8bab2b9ba103737ba1037b832b760591b604482015260640161053b565b60007f00000000000000000000000000000000000000000000000000000000000000006001600160a01b031663e1f1c4a76040518163ffffffff1660e01b8152600401602060405180830381865afa158015610f89573d6000803e3d6000fd5b505050506040513d601f19601f82011682018060405250810190610fad9190612cbd565b83602001518360400151610fc19190612eb6565b610fcb9190612ecd565b6040516370a0823160e01b815230600482015290915081906001600160a01b038616906370a0823190602401602060405180830381865afa158015611014573d6000803e3d6000fd5b505050506040513d601f19601f820116820180604052508101906110389190612cbd565b10156110865760405162461bcd60e51b815260206004820152601960248201527f496e73756666696369656e742066756e642062616c616e636500000000000000604482015260640161053b565b60405163095ea7b360e01b81526001600160a01b037f0000000000000000000000000000000000000000000000000000000000000000811660048301526024820183905285169063095ea7b3906044016020604051808303816000875af11580156110f5573d6000803e3d6000fd5b505050506040513d601f19601f820116820180604052508101906111199190612eef565b50604080516319be745960e31b8152600481018790526001600160a01b03868116602483015285516044830152602086015160648301529185015160848201526000917f0000000000000000000000000000000000000000000000000000000000000000169063cdf3a2c89060a4016020604051808303816000875af11580156111a7573d6000803e3d6000fd5b505050506040513d601f19601f820116820180604052508101906111cb9190612cbd565b6000878152600860205260409081902082905551909150819087907f976beaba3631459c97e9290d78fdbca69cc1b5111bc917f7fd4da50f2bfea170906112159086815260200190565b60405180910390a350505061122a6001600055565b505050565b60015461010090046001600160a01b0316331480159061125f57503360009081526002602052604090205460ff16155b1561127c576040516282b42960e81b815260040160405180910390fd5b6112846124b6565b565b60015461010090046001600160a01b031633148015906112b657503360009081526002602052604090205460ff16155b156112d3576040516282b42960e81b815260040160405180910390fd5b805160045560208101516005805460ff19169115159190911790556040517f8c191de7e47dfd8dbfd821a6f4dd303664e7ae97f1cbe824c1aedede09d2801590600090a150565b60015461010090046001600160a01b0316331480159061134a57503360009081526002602052604090205460ff16155b801561136657503360009081526003602052604090205460ff16155b15611383576040516282b42960e81b815260040160405180910390fd5b61138b612409565b611393612492565b60055460ff166113e55760405162461bcd60e51b815260206004820152601b60248201527f46756e64206e6f7420616363657074696e67206465706f736974730000000000604482015260640161053b565b600082116114055760405162461bcd60e51b815260040161053b90612c5b565b7f00000000000000000000000000000000000000000000000000000000000000006001600160a01b0316816001600160a01b0316148061147657507f00000000000000000000000000000000000000000000000000000000000000006001600160a01b0316816001600160a01b0316145b6114925760405162461bcd60e51b815260040161053b90612c92565b6114a76001600160a01b038216333085612508565b604080518381526001600160a01b038316602082015233917fdf4dcf17030d087ed1d90ed3c90719c7260706c1c4a88505dd2d0a982887cf4391016106d0565b60015461010090046001600160a01b0316331480159061151757503360009081526002602052604090205460ff16155b15611534576040516282b42960e81b815260040160405180910390fd5b6001600160a01b0382166115a25760405162461bcd60e51b815260206004820152602f60248201527f417574686f72697a65642053797374656d3a2041646d696e206164647265737360448201526e0818d85b9b9bdd081899481b9d5b1b608a1b606482015260840161053b565b6001600160a01b03821660009081526003602052604090205460ff16156116225760405162461bcd60e51b815260206004820152602e60248201527f417574686f72697a65642053797374656d3a2041646d696e2063616e6e6f742060448201526d31329030b71037b832b930ba37b960911b606482015260840161053b565b6001600160a01b038216600081815260026020526040808220805460ff1916851515179055517f5a272403b402d892977df56625f4164ccaf70ca3863991c43ecfe76a6905b0a19190a25050565b60015461010090046001600160a01b031633148015906116a057503360009081526002602052604090205460ff16155b156116bd576040516282b42960e81b815260040160405180910390fd5b6001600160a01b03821661172e5760405162461bcd60e51b815260206004820152603260248201527f417574686f72697a65642053797374656d3a204f70657261746f722061646472604482015271195cdcc818d85b9b9bdd081899481b9d5b1b60721b606482015260840161053b565b6001600160a01b03821660009081526002602052604090205460ff16156117ae5760405162461bcd60e51b815260206004820152602e60248201527f417574686f72697a65642053797374656d3a204f70657261746f722063616e6e60448201526d37ba1031329030b71030b236b4b760911b606482015260840161053b565b6001600160a01b038216600081815260036020526040808220805460ff1916851515179055517fdbebfba65bd6398fb722063efc10c99f624f9cd8ba657201056af918a676d5ee9190a25050565b60015461010090046001600160a01b0316331480159061182c57503360009081526002602052604090205460ff16155b15611849576040516282b42960e81b815260040160405180910390fd5b611851612409565b61185a81612547565b6109fc6001600055565b60015461010090046001600160a01b0316331480159061189457503360009081526002602052604090205460ff16155b156118b1576040516282b42960e81b815260040160405180910390fd5b61128461286c565b60015461010090046001600160a01b031633148015906118e957503360009081526002602052604090205460ff16155b801561190557503360009081526003602052604090205460ff16155b15611922576040516282b42960e81b815260040160405180910390fd5b61192a612409565b6040516322bc934560e11b8152600481018290526000907f00000000000000000000000000000000000000000000000000000000000000006001600160a01b031690634579268a9060240161012060405180830381865afa158015611993573d6000803e3d6000fd5b505050506040513d601f19601f820116820180604052508101906119b79190612d21565b8051909150600003611a025760405162461bcd60e51b815260206004820152601460248201527313d999995c88191bd95cc81b9bdd08195e1a5cdd60621b604482015260640161053b565b60408101516001600160a01b03163014611a6c5760405162461bcd60e51b815260206004820152602560248201527f46756e64206973206e6f7420746865206c656e64657220666f7220746869732060448201526437b33332b960d91b606482015260840161053b565b8060c001516003811115611a8257611a82612daf565b15611ac25760405162461bcd60e51b815260206004820152601060248201526f4f66666572206e6f742061637469766560801b604482015260640161053b565b604051638610f04560e01b8152600481018390527f00000000000000000000000000000000000000000000000000000000000000006001600160a01b031690638610f04590602401600060405180830381600087803b158015611b2457600080fd5b505af1158015611b38573d6000803e3d6000fd5b505050508060200151827fbd31be383a21b45a5ce64361844142babb314c7a870f6e23fb6302494da522078360a00151604051611b7791815260200190565b60405180910390a3506109fc6001600055565b60015461010090046001600160a01b03163314611bb9576040516282b42960e81b815260040160405180910390fd5b611bc1612409565b7f00000000000000000000000000000000000000000000000000000000000000006001600160a01b0316816001600160a01b03161480611c3257507f00000000000000000000000000000000000000000000000000000000000000006001600160a01b0316816001600160a01b0316145b611c4e5760405162461bcd60e51b815260040161053b90612c92565b600060075411611c965760405162461bcd60e51b81526020600482015260136024820152724e6f206665657320746f20776974686472617760681b604482015260640161053b565b600780546000909155611cb36001600160a01b0383163383612433565b506109fc6001600055565b6040516370a0823160e01b81523060048201526000906001600160a01b038316906370a0823190602401602060405180830381865afa158015611d05573d6000803e3d6000fd5b505050506040513d601f19601f82011682018060405250810190611d299190612cbd565b92915050565b611d37612409565b6040516358e6837360e11b8152600481018290526000907f00000000000000000000000000000000000000000000000000000000000000006001600160a01b03169063b1cd06e6906024016101a060405180830381865afa158015611da0573d6000803e3d6000fd5b505050506040513d601f19601f82011682018060405250810190611dc49190612f0c565b8051909150600003611e0e5760405162461bcd60e51b8152602060048201526013602482015272109a5b1b08191bd95cc81b9bdd08195e1a5cdd606a1b604482015260640161053b565b60208101516001600160a01b03163014611e635760405162461bcd60e51b8152602060048201526016602482015275233ab7321034b9903737ba103a3432903232b13a37b960511b604482015260640161053b565b8061010001516002811115611e7a57611e7a612daf565b15611ec75760405162461bcd60e51b815260206004820152601960248201527f42696c6c206e6f74206f70656e20666f72207061796d656e7400000000000000604482015260640161053b565b608081015160608201516040516370a0823160e01b81523060048201526001600160a01b03909116906370a0823190602401602060405180830381865afa158015611f16573d6000803e3d6000fd5b505050506040513d601f19601f82011682018060405250810190611f3a9190612cbd565b1015611f935760405162461bcd60e51b815260206004820152602260248201527f496e73756666696369656e742062616c616e636520696e20737461626c65636f60448201526134b760f11b606482015260840161053b565b6060810151608082015160405163095ea7b360e01b81526001600160a01b037f000000000000000000000000000000000000000000000000000000000000000081166004830152602482019290925291169063095ea7b3906044016020604051808303816000875af115801561200d573d6000803e3d6000fd5b505050506040513d601f19601f820116820180604052508101906120319190612eef565b5060405163fb4de28360e01b8152600481018390527f00000000000000000000000000000000000000000000000000000000000000006001600160a01b03169063fb4de28390602401600060405180830381600087803b15801561209457600080fd5b505af11580156120a8573d6000803e3d6000fd5b50505050611cb382612547565b60015461010090046001600160a01b031633146120e4576040516282b42960e81b815260040160405180910390fd5b6001600160a01b03811661214e5760405162461bcd60e51b815260206004820152602b60248201527f417574686f72697a65642053797374656d3a204e6577206f776e65722063616e60448201526a1b9bdd081899481b9d5b1b60aa1b606482015260840161053b565b6001546001600160a01b036101009091048116908216036121d75760405162461bcd60e51b815260206004820152603c60248201527f417574686f72697a65642053797374656d3a204e6577206f776e65722063616e60448201527f6e6f74206265207468652073616d65206173206f6c64206f776e657200000000606482015260840161053b565b60015461010090046001600160a01b031660009081526003602052604090205460ff161561225e5760405162461bcd60e51b815260206004820152602e60248201527f417574686f72697a65642053797374656d3a204f776e65722063616e6e6f742060448201526d31329030b71037b832b930ba37b960911b606482015260840161053b565b600180546001600160a01b0390921661010002610100600160a81b0319909216919091179055565b60015460009061010090046001600160a01b031633148015906122b957503360009081526002602052604090205460ff16155b80156122d557503360009081526003602052604090205460ff16155b156122f2576040516282b42960e81b815260040160405180910390fd5b6122fa612409565b612302612492565b600083116123225760405162461bcd60e51b815260040161053b90612c5b565b604051634bcb18f760e11b815260048101849052602481018390526000907f00000000000000000000000000000000000000000000000000000000000000006001600160a01b03169063979631ee906044016020604051808303816000875af1158015612393573d6000803e3d6000fd5b505050506040513d601f19601f820116820180604052508101906123b79190612cbd565b9050306001600160a01b0316817fbb5092a4aca5e6f16b116221da7ba1f8c803e9340adefe0134790aa910e0cfee866040516123f591815260200190565b60405180910390a39050611d296001600055565b60026000540361242c57604051633ee5aeb560e01b815260040160405180910390fd5b6002600055565b6040516001600160a01b0383811660248301526044820183905261122a91859182169063a9059cbb906064015b604051602081830303815290604052915060e01b6020820180516001600160e01b0383818316178352505050506128a7565b60015460ff16156112845760405163d93c066560e01b815260040160405180910390fd5b6124be612918565b6001805460ff191690557f5db9ee0a495bf2e6ff9c91a7834c1ba4fdd244a5e8aa4e537bd38aeae4b073aa335b6040516001600160a01b03909116815260200160405180910390a1565b6040516001600160a01b0384811660248301528381166044830152606482018390526125419186918216906323b872dd90608401612460565b50505050565b6040516358e6837360e11b8152600481018290526000907f00000000000000000000000000000000000000000000000000000000000000006001600160a01b03169063b1cd06e6906024016101a060405180830381865afa1580156125b0573d6000803e3d6000fd5b505050506040513d601f19601f820116820180604052508101906125d49190612f0c565b805190915060000361261e5760405162461bcd60e51b8152602060048201526013602482015272109a5b1b08191bd95cc81b9bdd08195e1a5cdd606a1b604482015260640161053b565b806101000151600281111561263557612635612daf565b6001146126795760405162461bcd60e51b8152602060048201526012602482015271109a5b1b081b9bdd0818dbdb5c1b195d195960721b604482015260640161053b565b60007f00000000000000000000000000000000000000000000000000000000000000006001600160a01b031663e1f1c4a76040518163ffffffff1660e01b8152600401602060405180830381865afa1580156126d9573d6000803e3d6000fd5b505050506040513d601f19601f820116820180604052508101906126fd9190612cbd565b8261012001516040015183608001516127169190612eb6565b6127209190612ecd565b905060007f00000000000000000000000000000000000000000000000000000000000000006001600160a01b031663e1f1c4a76040518163ffffffff1660e01b8152600401602060405180830381865afa158015612782573d6000803e3d6000fd5b505050506040513d601f19601f820116820180604052508101906127a69190612cbd565b6004546127b39084612eb6565b6127bd9190612ecd565b905060006127cb8284612fc7565b905080600660008282546127df9190612df8565b9250508190555081600760008282546127f89190612df8565b909155505060405183815285907fc95485031ab8a7e2b9e325c6bdaafec43650b4434d8e819d55451d8a9826fb8a9060200160405180910390a26040518281527fc8891b429f51b964c41c037370eaa5d4cb3d57c748e1569200de5fb0f37acb3b9060200160405180910390a15050505050565b612874612492565b6001805460ff1916811790557f62e78cea01bee320cd4e420270b5ea74000d11b0c9f74754ebdbfc544b05a258336124eb565b600080602060008451602086016000885af1806128ca576040513d6000823e3d81fd5b50506000513d915081156128e25780600114156128ef565b6001600160a01b0384163b155b1561254157604051635274afe760e01b81526001600160a01b038516600482015260240161053b565b60015460ff1661128457604051638dfc202b60e01b815260040160405180910390fd5b6001600160a01b03811681146109fc57600080fd5b6000806040838503121561296357600080fd5b8235915060208301356129758161293b565b809150509250929050565b60006020828403121561299257600080fd5b5035919050565b600080604083850312156129ac57600080fd5b82356129b78161293b565b915060208301356129758161293b565b6000806000806000608086880312156129df57600080fd5b85356129ea8161293b565b945060208601356129fa8161293b565b935060408601359250606086013567ffffffffffffffff811115612a1d57600080fd5b8601601f81018813612a2e57600080fd5b803567ffffffffffffffff811115612a4557600080fd5b886020828401011115612a5757600080fd5b959894975092955050506020019190565b6040516060810167ffffffffffffffff81118282101715612a9957634e487b7160e01b600052604160045260246000fd5b60405290565b60405160e0810167ffffffffffffffff81118282101715612a9957634e487b7160e01b600052604160045260246000fd5b604051610160810167ffffffffffffffff81118282101715612a9957634e487b7160e01b600052604160045260246000fd5b600080600083850360a0811215612b1857600080fd5b843593506020850135612b2a8161293b565b92506060603f1982011215612b3e57600080fd5b50612b47612a68565b60408581013582526060860135602083015260809095013594810194909452509093909250565b80151581146109fc57600080fd5b60006040828403128015612b8f57600080fd5b5060408051600091810167ffffffffffffffff81118282101715612bc157634e487b7160e01b83526041600452602483fd5b6040528335815260208401359150612bd882612b6e565b60208101919091529392505050565b60008060408385031215612bfa57600080fd5b8235612c058161293b565b9150602083013561297581612b6e565b600060208284031215612c2757600080fd5b8135612c328161293b565b9392505050565b60008060408385031215612c4c57600080fd5b50508035926020909101359150565b6020808252601d908201527f416d6f756e74206d7573742062652067726561746572207468616e2030000000604082015260600190565b6020808252601190820152702ab739bab83837b93a32b2103a37b5b2b760791b604082015260600190565b600060208284031215612ccf57600080fd5b5051919050565b8051612ce18161293b565b919050565b600060608284031215612cf857600080fd5b612d00612a68565b82518152602080840151908201526040928301519281019290925250919050565b6000610120828403128015612d3557600080fd5b506000612d40612a9f565b83518152602080850151908201526040840151612d5c8161293b565b60408201526060840151612d6f8161293b565b6060820152612d818560808601612ce6565b608082015260e084015160a082015261010084015160048110612da2578283fd5b60c0820152949350505050565b634e487b7160e01b600052602160045260246000fd5b600060208284031215612dd757600080fd5b8151612c328161293b565b634e487b7160e01b600052601160045260246000fd5b80820180821115611d2957611d29612de2565b600381106109fc57600080fd5b8051612ce181612e0b565b600060a0828403128015612e3657600080fd5b5060405160009060a0810167ffffffffffffffff81118282101715612e6957634e487b7160e01b83526041600452602483fd5b604052835181526020840151612e7e8161293b565b6020820152604084810151908201526060808501519082015260808401519150612ea782612e0b565b60808101919091529392505050565b8082028115828204841417611d2957611d29612de2565b600082612eea57634e487b7160e01b600052601260045260246000fd5b500490565b600060208284031215612f0157600080fd5b8151612c3281612b6e565b60006101a0828403128015612f2057600080fd5b506000612f2b612ad0565b83518152612f3b60208501612cd6565b6020820152612f4c60408501612cd6565b6040820152612f5d60608501612cd6565b60608201526080848101519082015260a0808501519082015260c0808501519082015260e08085015190820152612f976101008501612e18565b610100820152612fab856101208601612ce6565b6101208201526101809390930151610140840152509092915050565b81810381811115611d2957611d29612de256fea2646970667358221220163796368d4c9fdee46ecfa4eb003a6d8831421068dc034dc5eb67c8add8b41364736f6c634300081c0033",
  "linkReferences": {},
  "deployedLinkReferences": {}
}