{
  "_format": "hh-sol-artifact-1",
  "contractName": "SimpleFund",
  "sourceName": "contracts/SimpleFund.sol",
  "abi": [
    {
      "inputs": [
        {
          "internalType": "address",
          "name": "_factoringContract",
          "type": "address"
        },
        {
          "internalType": "address",
          "name": "_usdc",
          "type": "address"
        },
        {
          "internalType": "address",
          "name": "_usdt",
          "type": "address"
        },
        {
          "components": [
            {
              "internalType": "uint256",
              "name": "managementFeePercentage",
              "type": "uint256"
            },
            {
              "internalType": "bool",
              "name": "acceptingDeposits",
              "type": "bool"
            }
          ],
          "internalType": "struct SimpleFund.FundConfig",
          "name": "_fundConfig",
          "type": "tuple"
        }
      ],
      "stateMutability": "nonpayable",
      "type": "constructor"
    },
    {
      "inputs": [],
      "name": "EnforcedPause",
      "type": "error"
    },
    {
      "inputs": [],
      "name": "ExpectedPause",
      "type": "error"
    },
    {
      "inputs": [],
      "name": "ReentrancyGuardReentrantCall",
      "type": "error"
    },
    {
      "inputs": [
        {
          "internalType": "address",
          "name": "token",
          "type": "address"
        }
      ],
      "name": "SafeERC20FailedOperation",
      "type": "error"
    },
    {
      "inputs": [],
      "name": "Unauthorized",
      "type": "error"
    },
    {
      "anonymous": false,
      "inputs": [
        {
          "indexed": true,
          "internalType": "uint256",
          "name": "billId",
          "type": "uint256"
        },
        {
          "indexed": false,
          "internalType": "uint256",
          "name": "totalReturn",
          "type": "uint256"
        }
      ],
      "name": "BillCompleted",
      "type": "event"
    },
    {
      "anonymous": false,
      "inputs": [
        {
          "indexed": true,
          "internalType": "uint256",
          "name": "billRequestId",
          "type": "uint256"
        },
        {
          "indexed": true,
          "internalType": "address",
          "name": "debtor",
          "type": "address"
        },
        {
          "indexed": false,
          "internalType": "uint256",
          "name": "amount",
          "type": "uint256"
        }
      ],
      "name": "BillRequestFunded",
      "type": "event"
    },
    {
      "anonymous": false,
      "inputs": [],
      "name": "FundConfigUpdated",
      "type": "event"
    },
    {
      "anonymous": false,
      "inputs": [
        {
          "indexed": true,
          "internalType": "address",
          "name": "depositor",
          "type": "address"
        },
        {
          "indexed": false,
          "internalType": "uint256",
          "name": "amount",
          "type": "uint256"
        },
        {
          "indexed": false,
          "internalType": "address",
          "name": "token",
          "type": "address"
        }
      ],
      "name": "FundsDeposited",
      "type": "event"
    },
    {
      "anonymous": false,
      "inputs": [
        {
          "indexed": true,
          "internalType": "address",
          "name": "withdrawer",
          "type": "address"
        },
        {
          "indexed": false,
          "internalType": "uint256",
          "name": "amount",
          "type": "uint256"
        },
        {
          "indexed": false,
          "internalType": "address",
          "name": "token",
          "type": "address"
        }
      ],
      "name": "FundsWithdrawn",
      "type": "event"
    },
    {
      "anonymous": false,
      "inputs": [
        {
          "indexed": false,
          "internalType": "uint256",
          "name": "amount",
          "type": "uint256"
        }
      ],
      "name": "ManagementFeesCollected",
      "type": "event"
    },
    {
      "anonymous": false,
      "inputs": [],
      "name": "OfferConfigUpdated",
      "type": "event"
    },
    {
      "anonymous": false,
      "inputs": [
        {
          "indexed": true,
          "internalType": "uint256",
          "name": "billRequestId",
          "type": "uint256"
        },
        {
          "indexed": true,
          "internalType": "uint256",
          "name": "offerId",
          "type": "uint256"
        },
        {
          "indexed": false,
          "internalType": "uint256",
          "name": "amount",
          "type": "uint256"
        }
      ],
      "name": "OfferCreatedAutomatically",
      "type": "event"
    },
    {
      "anonymous": false,
      "inputs": [
        {
          "indexed": true,
          "internalType": "uint256",
          "name": "offerId",
          "type": "uint256"
        },
        {
          "indexed": true,
          "internalType": "uint256",
          "name": "billRequestId",
          "type": "uint256"
        },
        {
          "indexed": false,
          "internalType": "uint256",
          "name": "amount",
          "type": "uint256"
        }
      ],
      "name": "OfferWithdrawn",
      "type": "event"
    },
    {
      "anonymous": false,
      "inputs": [
        {
          "indexed": false,
          "internalType": "address",
          "name": "account",
          "type": "address"
        }
      ],
      "name": "Paused",
      "type": "event"
    },
    {
      "anonymous": false,
      "inputs": [
        {
          "indexed": true,
          "internalType": "address",
          "name": "admin",
          "type": "address"
        }
      ],
      "name": "SetAdmin",
      "type": "event"
    },
    {
      "anonymous": false,
      "inputs": [
        {
          "indexed": true,
          "internalType": "address",
          "name": "authOperator",
          "type": "address"
        }
      ],
      "name": "SetAuthOperator",
      "type": "event"
    },
    {
      "anonymous": false,
      "inputs": [
        {
          "indexed": true,
          "internalType": "address",
          "name": "operator",
          "type": "address"
        }
      ],
      "name": "SetOperator",
      "type": "event"
    },
    {
      "anonymous": false,
      "inputs": [
        {
          "indexed": false,
          "internalType": "address",
          "name": "account",
          "type": "address"
        }
      ],
      "name": "Unpaused",
      "type": "event"
    },
    {
      "inputs": [],
      "name": "USDC",
      "outputs": [
        {
          "internalType": "contract IERC20",
          "name": "",
          "type": "address"
        }
      ],
      "stateMutability": "view",
      "type": "function"
    },
    {
      "inputs": [],
      "name": "USDT",
      "outputs": [
        {
          "internalType": "contract IERC20",
          "name": "",
          "type": "address"
        }
      ],
      "stateMutability": "view",
      "type": "function"
    },
    {
      "inputs": [
        {
          "internalType": "uint256",
          "name": "offerId",
          "type": "uint256"
        }
      ],
      "name": "acceptOfferForOwnedBill",
      "outputs": [],
      "stateMutability": "nonpayable",
      "type": "function"
    },
    {
      "inputs": [
        {
          "internalType": "uint256",
          "name": "",
          "type": "uint256"
        }
      ],
      "name": "activeBillRequests",
      "outputs": [
        {
          "internalType": "bool",
          "name": "",
          "type": "bool"
        }
      ],
      "stateMutability": "view",
      "type": "function"
    },
    {
      "inputs": [
        {
          "internalType": "uint256",
          "name": "",
          "type": "uint256"
        }
      ],
      "name": "billRequestToOffer",
      "outputs": [
        {
          "internalType": "uint256",
          "name": "",
          "type": "uint256"
        }
      ],
      "stateMutability": "view",
      "type": "function"
    },
    {
      "inputs": [
        {
          "internalType": "uint256",
          "name": "totalAmount",
          "type": "uint256"
        },
        {
          "internalType": "uint256",
          "name": "dueDate",
          "type": "uint256"
        }
      ],
      "name": "createBillRequestForDebtor",
      "outputs": [
        {
          "internalType": "uint256",
          "name": "",
          "type": "uint256"
        }
      ],
      "stateMutability": "nonpayable",
      "type": "function"
    },
    {
      "inputs": [
        {
          "internalType": "uint256",
          "name": "totalAmount",
          "type": "uint256"
        },
        {
          "internalType": "uint256",
          "name": "dueDate",
          "type": "uint256"
        },
        {
          "internalType": "address",
          "name": "stablecoin",
          "type": "address"
        },
        {
          "components": [
            {
              "internalType": "uint256",
              "name": "feePercentage",
              "type": "uint256"
            },
            {
              "internalType": "uint256",
              "name": "upfrontPercentage",
              "type": "uint256"
            },
            {
              "internalType": "uint256",
              "name": "ownerPercentage",
              "type": "uint256"
            }
          ],
          "internalType": "struct FactoringContract.Conditions",
          "name": "conditions",
          "type": "tuple"
        }
      ],
      "name": "createCompleteBill",
      "outputs": [
        {
          "internalType": "uint256",
          "name": "",
          "type": "uint256"
        }
      ],
      "stateMutability": "nonpayable",
      "type": "function"
    },
    {
      "inputs": [
        {
          "internalType": "uint256",
          "name": "billRequestId",
          "type": "uint256"
        },
        {
          "internalType": "address",
          "name": "stablecoin",
          "type": "address"
        },
        {
          "components": [
            {
              "internalType": "uint256",
              "name": "feePercentage",
              "type": "uint256"
            },
            {
              "internalType": "uint256",
              "name": "upfrontPercentage",
              "type": "uint256"
            },
            {
              "internalType": "uint256",
              "name": "ownerPercentage",
              "type": "uint256"
            }
          ],
          "internalType": "struct FactoringContract.Conditions",
          "name": "conditions",
          "type": "tuple"
        }
      ],
      "name": "createOfferForBillRequest",
      "outputs": [],
      "stateMutability": "nonpayable",
      "type": "function"
    },
    {
      "inputs": [
        {
          "internalType": "uint256",
          "name": "amount",
          "type": "uint256"
        },
        {
          "internalType": "address",
          "name": "token",
          "type": "address"
        }
      ],
      "name": "deposit",
      "outputs": [],
      "stateMutability": "nonpayable",
      "type": "function"
    },
    {
      "inputs": [],
      "name": "factoringContract",
      "outputs": [
        {
          "internalType": "contract FactoringContract",
          "name": "",
          "type": "address"
        }
      ],
      "stateMutability": "view",
      "type": "function"
    },
    {
      "inputs": [
        {
          "internalType": "address",
          "name": "",
          "type": "address"
        }
      ],
      "name": "fundBalances",
      "outputs": [
        {
          "internalType": "uint256",
          "name": "",
          "type": "uint256"
        }
      ],
      "stateMutability": "view",
      "type": "function"
    },
    {
      "inputs": [],
      "name": "fundConfig",
      "outputs": [
        {
          "internalType": "uint256",
          "name": "managementFeePercentage",
          "type": "uint256"
        },
        {
          "internalType": "bool",
          "name": "acceptingDeposits",
          "type": "bool"
        }
      ],
      "stateMutability": "view",
      "type": "function"
    },
    {
      "inputs": [
        {
          "internalType": "address",
          "name": "_admin",
          "type": "address"
        }
      ],
      "name": "getAuthorizedAdmin",
      "outputs": [
        {
          "internalType": "bool",
          "name": "",
          "type": "bool"
        }
      ],
      "stateMutability": "view",
      "type": "function"
    },
    {
      "inputs": [
        {
          "internalType": "address",
          "name": "_operator",
          "type": "address"
        }
      ],
      "name": "getAuthorizedOperator",
      "outputs": [
        {
          "internalType": "bool",
          "name": "",
          "type": "bool"
        }
      ],
      "stateMutability": "view",
      "type": "function"
    },
    {
      "inputs": [
        {
          "internalType": "address",
          "name": "token",
          "type": "address"
        }
      ],
      "name": "getFundBalance",
      "outputs": [
        {
          "internalType": "uint256",
          "name": "",
          "type": "uint256"
        }
      ],
      "stateMutability": "view",
      "type": "function"
    },
    {
      "inputs": [],
      "name": "getOwner",
      "outputs": [
        {
          "internalType": "address",
          "name": "",
          "type": "address"
        }
      ],
      "stateMutability": "view",
      "type": "function"
    },
    {
      "inputs": [],
      "name": "getTotalFundValue",
      "outputs": [
        {
          "internalType": "uint256",
          "name": "",
          "type": "uint256"
        }
      ],
      "stateMutability": "view",
      "type": "function"
    },
    {
      "inputs": [
        {
          "internalType": "uint256",
          "name": "billId",
          "type": "uint256"
        }
      ],
      "name": "handleBillCompletion",
      "outputs": [],
      "stateMutability": "nonpayable",
      "type": "function"
    },
    {
      "inputs": [],
      "name": "managementFeesCollected",
      "outputs": [
        {
          "internalType": "uint256",
          "name": "",
          "type": "uint256"
        }
      ],
      "stateMutability": "view",
      "type": "function"
    },
    {
      "inputs": [
        {
          "internalType": "address",
          "name": "",
          "type": "address"
        },
        {
          "internalType": "address",
          "name": "",
          "type": "address"
        },
        {
          "internalType": "uint256",
          "name": "",
          "type": "uint256"
        },
        {
          "internalType": "bytes",
          "name": "",
          "type": "bytes"
        }
      ],
      "name": "onERC721Received",
      "outputs": [
        {
          "internalType": "bytes4",
          "name": "",
          "type": "bytes4"
        }
      ],
      "stateMutability": "pure",
      "type": "function"
    },
    {
      "inputs": [],
      "name": "pause",
      "outputs": [],
      "stateMutability": "nonpayable",
      "type": "function"
    },
    {
      "inputs": [],
      "name": "paused",
      "outputs": [
        {
          "internalType": "bool",
          "name": "",
          "type": "bool"
        }
      ],
      "stateMutability": "view",
      "type": "function"
    },
    {
      "inputs": [
        {
          "internalType": "uint256",
          "name": "billId",
          "type": "uint256"
        }
      ],
      "name": "payBillForDebtor",
      "outputs": [],
      "stateMutability": "nonpayable",
      "type": "function"
    },
    {
      "inputs": [
        {
          "internalType": "address",
          "name": "_admin",
          "type": "address"
        },
        {
          "internalType": "bool",
          "name": "status",
          "type": "bool"
        }
      ],
      "name": "setAuthorizedAdmin",
      "outputs": [],
      "stateMutability": "nonpayable",
      "type": "function"
    },
    {
      "inputs": [
        {
          "internalType": "address",
          "name": "_operator",
          "type": "address"
        },
        {
          "internalType": "bool",
          "name": "status",
          "type": "bool"
        }
      ],
      "name": "setAuthorizedOperator",
      "outputs": [],
      "stateMutability": "nonpayable",
      "type": "function"
    },
    {
      "inputs": [],
      "name": "totalEarnings",
      "outputs": [
        {
          "internalType": "uint256",
          "name": "",
          "type": "uint256"
        }
      ],
      "stateMutability": "view",
      "type": "function"
    },
    {
      "inputs": [],
      "name": "totalFundValue",
      "outputs": [
        {
          "internalType": "uint256",
          "name": "",
          "type": "uint256"
        }
      ],
      "stateMutability": "view",
      "type": "function"
    },
    {
      "inputs": [
        {
          "internalType": "address",
          "name": "newOwner",
          "type": "address"
        }
      ],
      "name": "transferOwnership",
      "outputs": [],
      "stateMutability": "nonpayable",
      "type": "function"
    },
    {
      "inputs": [],
      "name": "unpause",
      "outputs": [],
      "stateMutability": "nonpayable",
      "type": "function"
    },
    {
      "inputs": [
        {
          "components": [
            {
              "internalType": "uint256",
              "name": "managementFeePercentage",
              "type": "uint256"
            },
            {
              "internalType": "bool",
              "name": "acceptingDeposits",
              "type": "bool"
            }
          ],
          "internalType": "struct SimpleFund.FundConfig",
          "name": "newConfig",
          "type": "tuple"
        }
      ],
      "name": "updateFundConfig",
      "outputs": [],
      "stateMutability": "nonpayable",
      "type": "function"
    },
    {
      "inputs": [
        {
          "internalType": "uint256",
          "name": "amount",
          "type": "uint256"
        },
        {
          "internalType": "address",
          "name": "token",
          "type": "address"
        }
      ],
      "name": "withdraw",
      "outputs": [],
      "stateMutability": "nonpayable",
      "type": "function"
    },
    {
      "inputs": [
        {
          "internalType": "address",
          "name": "token",
          "type": "address"
        }
      ],
      "name": "withdrawManagementFees",
      "outputs": [],
      "stateMutability": "nonpayable",
      "type": "function"
    },
    {
      "inputs": [
        {
          "internalType": "uint256",
          "name": "offerId",
          "type": "uint256"
        }
      ],
      "name": "withdrawOffer",
      "outputs": [],
      "stateMutability": "nonpayable",
      "type": "function"
    }
  ],
  "bytecode": "0x60e060405234801561001057600080fd5b50604051613a29380380613a2983398101604081905261002f916101a7565b600160008190558054610100600160a81b03191633610100021790556001600160a01b0384166100a65760405162461bcd60e51b815260206004820152601a60248201527f496e76616c696420666163746f72696e6720636f6e747261637400000000000060448201526064015b60405180910390fd5b6001600160a01b0383166100fc5760405162461bcd60e51b815260206004820152601460248201527f496e76616c696420555344432061646472657373000000000000000000000000604482015260640161009d565b6001600160a01b0382166101525760405162461bcd60e51b815260206004820152601460248201527f496e76616c696420555344542061646472657373000000000000000000000000604482015260640161009d565b6001600160a01b0393841660805291831660a05290911660c0528051600455602001516005805460ff1916911515919091179055610255565b80516001600160a01b03811681146101a257600080fd5b919050565b60008060008084860360a08112156101be57600080fd5b6101c78661018b565b94506101d56020870161018b565b93506101e36040870161018b565b92506040605f19820112156101f757600080fd5b50604080519081016001600160401b038111828210171561022857634e487b7160e01b600052604160045260246000fd5b604052606086015181526080860151801515811461024557600080fd5b6020820152939692955090935050565b60805160a05160c0516136b76103726000396000818161044b0152818161062a01528181610e76015281816113a401528181611a48015261229c015260008181610390015281816105ef01528181610e3b0152818161136901528181611a0d0152612261015260008181610500015281816106f4015281816107c60152818161089b0152818161097201528181610aac01528181610b5101528181610bec01528181610c920152818161105f015281816111930152818161127b015281816114360152818161155c015281816116be0152818161175501528181611f8d015281816121220152818161237d01528181612590015281816126240152818161291e01528181612b5601528181612c730152612d1c01526136b76000f3fe608060405234801561001057600080fd5b50600436106101f95760003560e01c80638610f0451161011a578063b423b79f116100ad578063e28d1d2e1161007c578063e28d1d2e146104c2578063eb511ad1146104e8578063ee9f097e146104fb578063f2fde38b14610522578063fae293731461053557600080fd5b8063b423b79f14610433578063c54e44eb14610446578063cb3512441461046d578063d6d11c7f1461049957600080fd5b806395457a05116100e957806395457a05146103de578063a3184939146103e7578063a81e0c661461040a578063ad60ffcc1461042a57600080fd5b80638610f0451461034e578063893d20e81461036157806389a302711461038b57806390fe3e32146103b257600080fd5b80633f4ba83a1161019257806371c3a4b11161016157806371c3a4b11461030d578063788f737d146103205780637da34a3e146103335780638456cb591461034657600080fd5b80633f4ba83a146102c85780635c975abb146102d05780635ef9ef86146102e75780636e553f65146102fa57600080fd5b806308a91f88116101ce57806308a91f881461026c578063150b7a02146102745780632df3eba4146102ac578063328927d7146102b557600080fd5b8062a597e5146101fe578062f714ce146102245780630278fffc1461023957806304224c5414610259575b600080fd5b61021161020c36600461306a565b610548565b6040519081526020015b60405180910390f35b6102376102323660046130b3565b610dc4565b005b6102116102473660046130e3565b600b6020526000908152604090205481565b6102376102673660046130e3565b610fd5565b600654610211565b6102936102823660046130fc565b630a85bd0160e11b95945050505050565b6040516001600160e01b0319909116815260200161021b565b61021160075481565b6102376102c336600461319d565b6112ee565b610237611835565b60015460ff165b604051901515815260200161021b565b6102376102f53660046131ea565b61188c565b6102376103083660046130b3565b611920565b61023761031b366004613255565b611b31565b61023761032e366004613255565b611cba565b6102376103413660046130e3565b611e46565b610237611eae565b61023761035c3660046130e3565b611f03565b60015461010090046001600160a01b03165b6040516001600160a01b03909116815260200161021b565b6103737f000000000000000000000000000000000000000000000000000000000000000081565b6102d76103c0366004613283565b6001600160a01b031660009081526003602052604090205460ff1690565b61021160085481565b6102d76103f53660046130e3565b600a6020526000908152604090205460ff1681565b610211610418366004613283565b60096020526000908152604090205481565b61021160065481565b610237610441366004613283565b612228565b6103737f000000000000000000000000000000000000000000000000000000000000000081565b6102d761047b366004613283565b6001600160a01b031660009081526002602052604090205460ff1690565b6102116104a7366004613283565b6001600160a01b031660009081526009602052604090205490565b6004546005546104d3919060ff1682565b6040805192835290151560208301520161021b565b6102376104f63660046130e3565b61235c565b6103737f000000000000000000000000000000000000000000000000000000000000000081565b610237610530366004613283565b612691565b6102116105433660046132a7565b612862565b60015460009061010090046001600160a01b0316331480159061057b57503360009081526002602052604090205460ff16155b801561059757503360009081526003602052604090205460ff16155b156105b4576040516282b42960e81b815260040160405180910390fd5b6105bc6129ff565b6105c4612a29565b600085116105ed5760405162461bcd60e51b81526004016105e4906132c9565b60405180910390fd5b7f00000000000000000000000000000000000000000000000000000000000000006001600160a01b0316836001600160a01b0316148061065e57507f00000000000000000000000000000000000000000000000000000000000000006001600160a01b0316836001600160a01b0316145b6106a35760405162461bcd60e51b81526020600482015260166024820152752ab739bab83837b93a32b21039ba30b13632b1b7b4b760511b60448201526064016105e4565b4284116106f25760405162461bcd60e51b815260206004820152601e60248201527f4475652064617465206d75737420626520696e2074686520667574757265000060448201526064016105e4565b7f00000000000000000000000000000000000000000000000000000000000000006001600160a01b031663e1f1c4a76040518163ffffffff1660e01b8152600401602060405180830381865afa158015610750573d6000803e3d6000fd5b505050506040513d601f19601f820116820180604052508101906107749190613300565b825111156107c45760405162461bcd60e51b815260206004820152601760248201527f4665652070657263656e7461676520746f6f206869676800000000000000000060448201526064016105e4565b7f00000000000000000000000000000000000000000000000000000000000000006001600160a01b031663e1f1c4a76040518163ffffffff1660e01b8152600401602060405180830381865afa158015610822573d6000803e3d6000fd5b505050506040513d601f19601f820116820180604052508101906108469190613300565b826020015111156108995760405162461bcd60e51b815260206004820152601b60248201527f557066726f6e742070657263656e7461676520746f6f2068696768000000000060448201526064016105e4565b7f00000000000000000000000000000000000000000000000000000000000000006001600160a01b031663e1f1c4a76040518163ffffffff1660e01b8152600401602060405180830381865afa1580156108f7573d6000803e3d6000fd5b505050506040513d601f19601f8201168201806040525081019061091b9190613300565b8260400151111561096e5760405162461bcd60e51b815260206004820152601960248201527f4f776e65722070657263656e7461676520746f6f20686967680000000000000060448201526064016105e4565b60007f00000000000000000000000000000000000000000000000000000000000000006001600160a01b031663e1f1c4a76040518163ffffffff1660e01b8152600401602060405180830381865afa1580156109ce573d6000803e3d6000fd5b505050506040513d601f19601f820116820180604052508101906109f29190613300565b6020840151610a01908861332f565b610a0b9190613346565b6001600160a01b038516600090815260096020526040902054909150811115610a8c5760405162461bcd60e51b815260206004820152602d60248201527f496e73756666696369656e742066756e642062616c616e636520666f7220757060448201526c199c9bdb9d081c185e5b595b9d609a1b60648201526084016105e4565b604051634bcb18f760e11b815260048101879052602481018690526000907f00000000000000000000000000000000000000000000000000000000000000006001600160a01b03169063979631ee906044016020604051808303816000875af1158015610afd573d6000803e3d6000fd5b505050506040513d601f19601f82011682018060405250810190610b219190613300565b6000818152600a602052604090819020805460ff191660011790555163095ea7b360e01b81526001600160a01b037f000000000000000000000000000000000000000000000000000000000000000081166004830152602482018590529192509086169063095ea7b3906044016020604051808303816000875af1158015610bad573d6000803e3d6000fd5b505050506040513d601f19601f82011682018060405250810190610bd19190613368565b506040516319be745960e31b81526000906001600160a01b037f0000000000000000000000000000000000000000000000000000000000000000169063cdf3a2c890610c259085908a908a90600401613385565b6020604051808303816000875af1158015610c44573d6000803e3d6000fd5b505050506040513d601f19601f82011682018060405250810190610c689190613300565b6000838152600b6020526040908190208290555163c815729d60e01b8152600481018290529091507f00000000000000000000000000000000000000000000000000000000000000006001600160a01b03169063c815729d90602401600060405180830381600087803b158015610cde57600080fd5b505af1158015610cf2573d6000803e3d6000fd5b505050506001600160a01b03861660009081526009602052604081208054859290610d1e9084906133be565b925050819055508260066000828254610d3791906133be565b9091555050604051888152309083907fbb5092a4aca5e6f16b116221da7ba1f8c803e9340adefe0134790aa910e0cfee9060200160405180910390a380827f976beaba3631459c97e9290d78fdbca69cc1b5111bc917f7fd4da50f2bfea17085604051610da691815260200190565b60405180910390a350915050610dbc6001600055565b949350505050565b60015461010090046001600160a01b03163314801590610df457503360009081526002602052604090205460ff16155b15610e11576040516282b42960e81b815260040160405180910390fd5b610e196129ff565b60008211610e395760405162461bcd60e51b81526004016105e4906132c9565b7f00000000000000000000000000000000000000000000000000000000000000006001600160a01b0316816001600160a01b03161480610eaa57507f00000000000000000000000000000000000000000000000000000000000000006001600160a01b0316816001600160a01b0316145b610ec65760405162461bcd60e51b81526004016105e4906133d1565b6001600160a01b038116600090815260096020526040902054821115610f2a5760405162461bcd60e51b8152602060048201526019602482015278496e73756666696369656e742066756e642062616c616e636560381b60448201526064016105e4565b8160066000828254610f3c91906133be565b90915550506001600160a01b03811660009081526009602052604081208054849290610f699084906133be565b90915550610f8390506001600160a01b0382163384612a4d565b604080518381526001600160a01b038316602082015233917fe9171aeff46c37ab955b8aff908e14ae9732bd06634fa131226cfe5c25bfd2fb91015b60405180910390a2610fd16001600055565b5050565b60015461010090046001600160a01b0316331480159061100557503360009081526002602052604090205460ff16155b801561102157503360009081526003602052604090205460ff16155b1561103e576040516282b42960e81b815260040160405180910390fd5b6110466129ff565b6040516322bc934560e11b8152600481018290526000907f00000000000000000000000000000000000000000000000000000000000000006001600160a01b031690634579268a9060240161012060405180830381865afa1580156110af573d6000803e3d6000fd5b505050506040513d601f19601f820116820180604052508101906110d39190613447565b805190915060000361111e5760405162461bcd60e51b815260206004820152601460248201527313d999995c88191bd95cc81b9bdd08195e1a5cdd60621b60448201526064016105e4565b8060c001516003811115611134576111346134d5565b156111745760405162461bcd60e51b815260206004820152601060248201526f4f66666572206e6f742061637469766560801b60448201526064016105e4565b60208101516040516331a9108f60e11b81526000916001600160a01b037f00000000000000000000000000000000000000000000000000000000000000001691636352211e916111ca9160040190815260200190565b602060405180830381865afa1580156111e7573d6000803e3d6000fd5b505050506040513d601f19601f8201168201806040525081019061120b91906134eb565b90506001600160a01b03811630146112655760405162461bcd60e51b815260206004820152601960248201527f46756e6420646f6573206e6f74206f776e20746865204e46540000000000000060448201526064016105e4565b60405163c815729d60e01b8152600481018490527f00000000000000000000000000000000000000000000000000000000000000006001600160a01b03169063c815729d90602401600060405180830381600087803b1580156112c757600080fd5b505af11580156112db573d6000803e3d6000fd5b5050505050506112eb6001600055565b50565b60015461010090046001600160a01b0316331480159061131e57503360009081526002602052604090205460ff16155b801561133a57503360009081526003602052604090205460ff16155b15611357576040516282b42960e81b815260040160405180910390fd5b61135f6129ff565b611367612a29565b7f00000000000000000000000000000000000000000000000000000000000000006001600160a01b0316826001600160a01b031614806113d857507f00000000000000000000000000000000000000000000000000000000000000006001600160a01b0316826001600160a01b0316145b61141d5760405162461bcd60e51b81526020600482015260166024820152752ab739bab83837b93a32b21039ba30b13632b1b7b4b760511b60448201526064016105e4565b604051632bfac9f160e01b8152600481018490526000907f00000000000000000000000000000000000000000000000000000000000000006001600160a01b031690632bfac9f19060240160a060405180830381865afa158015611485573d6000803e3d6000fd5b505050506040513d601f19601f820116820180604052508101906114a99190613520565b80519091506000036114fd5760405162461bcd60e51b815260206004820152601b60248201527f42696c6c207265717565737420646f6573206e6f74206578697374000000000060448201526064016105e4565b80608001516002811115611513576115136134d5565b156115585760405162461bcd60e51b81526020600482015260156024820152742134b636103932b8bab2b9ba103737ba1037b832b760591b60448201526064016105e4565b60007f00000000000000000000000000000000000000000000000000000000000000006001600160a01b031663e1f1c4a76040518163ffffffff1660e01b8152600401602060405180830381865afa1580156115b8573d6000803e3d6000fd5b505050506040513d601f19601f820116820180604052508101906115dc9190613300565b836020015183604001516115f0919061332f565b6115fa9190613346565b6001600160a01b0385166000908152600960205260409020549091508111156116615760405162461bcd60e51b8152602060048201526019602482015278496e73756666696369656e742066756e642062616c616e636560381b60448201526064016105e4565b6001600160a01b038416600090815260096020526040812080548392906116899084906133be565b9250508190555080600660008282546116a291906133be565b909155505060405163095ea7b360e01b81526001600160a01b037f0000000000000000000000000000000000000000000000000000000000000000811660048301526024820183905285169063095ea7b3906044016020604051808303816000875af1158015611716573d6000803e3d6000fd5b505050506040513d601f19601f8201168201806040525081019061173a9190613368565b506040516319be745960e31b81526000906001600160a01b037f0000000000000000000000000000000000000000000000000000000000000000169063cdf3a2c89061178e90899089908990600401613385565b6020604051808303816000875af11580156117ad573d6000803e3d6000fd5b505050506040513d601f19601f820116820180604052508101906117d19190613300565b6000878152600b60205260409081902082905551909150819087907f976beaba3631459c97e9290d78fdbca69cc1b5111bc917f7fd4da50f2bfea1709061181b9086815260200190565b60405180910390a35050506118306001600055565b505050565b60015461010090046001600160a01b0316331480159061186557503360009081526002602052604090205460ff16155b15611882576040516282b42960e81b815260040160405180910390fd5b61188a612aac565b565b60015461010090046001600160a01b031633148015906118bc57503360009081526002602052604090205460ff16155b156118d9576040516282b42960e81b815260040160405180910390fd5b805160045560208101516005805460ff19169115159190911790556040517f8c191de7e47dfd8dbfd821a6f4dd303664e7ae97f1cbe824c1aedede09d2801590600090a150565b60015461010090046001600160a01b0316331480159061195057503360009081526002602052604090205460ff16155b801561196c57503360009081526003602052604090205460ff16155b15611989576040516282b42960e81b815260040160405180910390fd5b6119916129ff565b611999612a29565b60055460ff166119eb5760405162461bcd60e51b815260206004820152601b60248201527f46756e64206e6f7420616363657074696e67206465706f73697473000000000060448201526064016105e4565b60008211611a0b5760405162461bcd60e51b81526004016105e4906132c9565b7f00000000000000000000000000000000000000000000000000000000000000006001600160a01b0316816001600160a01b03161480611a7c57507f00000000000000000000000000000000000000000000000000000000000000006001600160a01b0316816001600160a01b0316145b611a985760405162461bcd60e51b81526004016105e4906133d1565b611aad6001600160a01b038216333085612afe565b8160066000828254611abf91906135b3565b90915550506001600160a01b03811660009081526009602052604081208054849290611aec9084906135b3565b9091555050604080518381526001600160a01b038316602082015233917fdf4dcf17030d087ed1d90ed3c90719c7260706c1c4a88505dd2d0a982887cf439101610fbf565b60015461010090046001600160a01b03163314801590611b6157503360009081526002602052604090205460ff16155b15611b7e576040516282b42960e81b815260040160405180910390fd5b6001600160a01b038216611bec5760405162461bcd60e51b815260206004820152602f60248201527f417574686f72697a65642053797374656d3a2041646d696e206164647265737360448201526e0818d85b9b9bdd081899481b9d5b1b608a1b60648201526084016105e4565b6001600160a01b03821660009081526003602052604090205460ff1615611c6c5760405162461bcd60e51b815260206004820152602e60248201527f417574686f72697a65642053797374656d3a2041646d696e2063616e6e6f742060448201526d31329030b71037b832b930ba37b960911b60648201526084016105e4565b6001600160a01b038216600081815260026020526040808220805460ff1916851515179055517f5a272403b402d892977df56625f4164ccaf70ca3863991c43ecfe76a6905b0a19190a25050565b60015461010090046001600160a01b03163314801590611cea57503360009081526002602052604090205460ff16155b15611d07576040516282b42960e81b815260040160405180910390fd5b6001600160a01b038216611d785760405162461bcd60e51b815260206004820152603260248201527f417574686f72697a65642053797374656d3a204f70657261746f722061646472604482015271195cdcc818d85b9b9bdd081899481b9d5b1b60721b60648201526084016105e4565b6001600160a01b03821660009081526002602052604090205460ff1615611df85760405162461bcd60e51b815260206004820152602e60248201527f417574686f72697a65642053797374656d3a204f70657261746f722063616e6e60448201526d37ba1031329030b71030b236b4b760911b60648201526084016105e4565b6001600160a01b038216600081815260036020526040808220805460ff1916851515179055517fdbebfba65bd6398fb722063efc10c99f624f9cd8ba657201056af918a676d5ee9190a25050565b60015461010090046001600160a01b03163314801590611e7657503360009081526002602052604090205460ff16155b15611e93576040516282b42960e81b815260040160405180910390fd5b611e9b6129ff565b611ea481612b3d565b6112eb6001600055565b60015461010090046001600160a01b03163314801590611ede57503360009081526002602052604090205460ff16155b15611efb576040516282b42960e81b815260040160405180910390fd5b61188a612eb1565b60015461010090046001600160a01b03163314801590611f3357503360009081526002602052604090205460ff16155b8015611f4f57503360009081526003602052604090205460ff16155b15611f6c576040516282b42960e81b815260040160405180910390fd5b611f746129ff565b6040516322bc934560e11b8152600481018290526000907f00000000000000000000000000000000000000000000000000000000000000006001600160a01b031690634579268a9060240161012060405180830381865afa158015611fdd573d6000803e3d6000fd5b505050506040513d601f19601f820116820180604052508101906120019190613447565b805190915060000361204c5760405162461bcd60e51b815260206004820152601460248201527313d999995c88191bd95cc81b9bdd08195e1a5cdd60621b60448201526064016105e4565b60408101516001600160a01b031630146120b65760405162461bcd60e51b815260206004820152602560248201527f46756e64206973206e6f7420746865206c656e64657220666f7220746869732060448201526437b33332b960d91b60648201526084016105e4565b8060c0015160038111156120cc576120cc6134d5565b1561210c5760405162461bcd60e51b815260206004820152601060248201526f4f66666572206e6f742061637469766560801b60448201526064016105e4565b604051638610f04560e01b8152600481018390527f00000000000000000000000000000000000000000000000000000000000000006001600160a01b031690638610f04590602401600060405180830381600087803b15801561216e57600080fd5b505af1158015612182573d6000803e3d6000fd5b50505060a082015160608301516001600160a01b031660009081526009602052604081208054929350916121b79084906135b3565b909155505060a0810151600680546000906121d39084906135b3565b925050819055508060200151827fbd31be383a21b45a5ce64361844142babb314c7a870f6e23fb6302494da522078360a0015160405161221591815260200190565b60405180910390a3506112eb6001600055565b60015461010090046001600160a01b03163314612257576040516282b42960e81b815260040160405180910390fd5b61225f6129ff565b7f00000000000000000000000000000000000000000000000000000000000000006001600160a01b0316816001600160a01b031614806122d057507f00000000000000000000000000000000000000000000000000000000000000006001600160a01b0316816001600160a01b0316145b6122ec5760405162461bcd60e51b81526004016105e4906133d1565b6000600854116123345760405162461bcd60e51b81526020600482015260136024820152724e6f206665657320746f20776974686472617760681b60448201526064016105e4565b6008805460009091556123516001600160a01b0383163383612a4d565b506112eb6001600055565b6123646129ff565b6040516358e6837360e11b8152600481018290526000907f00000000000000000000000000000000000000000000000000000000000000006001600160a01b03169063b1cd06e6906024016101a060405180830381865afa1580156123cd573d6000803e3d6000fd5b505050506040513d601f19601f820116820180604052508101906123f191906135c6565b805190915060000361243b5760405162461bcd60e51b8152602060048201526013602482015272109a5b1b08191bd95cc81b9bdd08195e1a5cdd606a1b60448201526064016105e4565b60208101516001600160a01b031630146124905760405162461bcd60e51b8152602060048201526016602482015275233ab7321034b9903737ba103a3432903232b13a37b960511b60448201526064016105e4565b80610100015160028111156124a7576124a76134d5565b156124f45760405162461bcd60e51b815260206004820152601960248201527f42696c6c206e6f74206f70656e20666f72207061796d656e740000000000000060448201526064016105e4565b608081015160608201516001600160a01b0316600090815260096020526040902054101561256f5760405162461bcd60e51b815260206004820152602260248201527f496e73756666696369656e742062616c616e636520696e20737461626c65636f60448201526134b760f11b60648201526084016105e4565b6060810151608082015160405163095ea7b360e01b81526001600160a01b037f000000000000000000000000000000000000000000000000000000000000000081166004830152602482019290925291169063095ea7b3906044016020604051808303816000875af11580156125e9573d6000803e3d6000fd5b505050506040513d601f19601f8201168201806040525081019061260d9190613368565b5060405163fb4de28360e01b8152600481018390527f00000000000000000000000000000000000000000000000000000000000000006001600160a01b03169063fb4de28390602401600060405180830381600087803b15801561267057600080fd5b505af1158015612684573d6000803e3d6000fd5b5050505061235182612b3d565b60015461010090046001600160a01b031633146126c0576040516282b42960e81b815260040160405180910390fd5b6001600160a01b03811661272a5760405162461bcd60e51b815260206004820152602b60248201527f417574686f72697a65642053797374656d3a204e6577206f776e65722063616e60448201526a1b9bdd081899481b9d5b1b60aa1b60648201526084016105e4565b6001546001600160a01b036101009091048116908216036127b35760405162461bcd60e51b815260206004820152603c60248201527f417574686f72697a65642053797374656d3a204e6577206f776e65722063616e60448201527f6e6f74206265207468652073616d65206173206f6c64206f776e65720000000060648201526084016105e4565b60015461010090046001600160a01b031660009081526003602052604090205460ff161561283a5760405162461bcd60e51b815260206004820152602e60248201527f417574686f72697a65642053797374656d3a204f776e65722063616e6e6f742060448201526d31329030b71037b832b930ba37b960911b60648201526084016105e4565b600180546001600160a01b0390921661010002610100600160a81b0319909216919091179055565b60015460009061010090046001600160a01b0316331480159061289557503360009081526002602052604090205460ff16155b80156128b157503360009081526003602052604090205460ff16155b156128ce576040516282b42960e81b815260040160405180910390fd5b6128d66129ff565b6128de612a29565b600083116128fe5760405162461bcd60e51b81526004016105e4906132c9565b604051634bcb18f760e11b815260048101849052602481018390526000907f00000000000000000000000000000000000000000000000000000000000000006001600160a01b03169063979631ee906044016020604051808303816000875af115801561296f573d6000803e3d6000fd5b505050506040513d601f19601f820116820180604052508101906129939190613300565b6000818152600a602052604090819020805460ff1916600117905551909150309082907fbb5092a4aca5e6f16b116221da7ba1f8c803e9340adefe0134790aa910e0cfee906129e59088815260200190565b60405180910390a390506129f96001600055565b92915050565b600260005403612a2257604051633ee5aeb560e01b815260040160405180910390fd5b6002600055565b60015460ff161561188a5760405163d93c066560e01b815260040160405180910390fd5b6040516001600160a01b0383811660248301526044820183905261183091859182169063a9059cbb906064015b604051602081830303815290604052915060e01b6020820180516001600160e01b038381831617835250505050612eec565b612ab4612f5d565b6001805460ff191690557f5db9ee0a495bf2e6ff9c91a7834c1ba4fdd244a5e8aa4e537bd38aeae4b073aa335b6040516001600160a01b03909116815260200160405180910390a1565b6040516001600160a01b038481166024830152838116604483015260648201839052612b379186918216906323b872dd90608401612a7a565b50505050565b6040516358e6837360e11b8152600481018290526000907f00000000000000000000000000000000000000000000000000000000000000006001600160a01b03169063b1cd06e6906024016101a060405180830381865afa158015612ba6573d6000803e3d6000fd5b505050506040513d601f19601f82011682018060405250810190612bca91906135c6565b8051909150600003612c145760405162461bcd60e51b8152602060048201526013602482015272109a5b1b08191bd95cc81b9bdd08195e1a5cdd606a1b60448201526064016105e4565b8061010001516002811115612c2b57612c2b6134d5565b600114612c6f5760405162461bcd60e51b8152602060048201526012602482015271109a5b1b081b9bdd0818dbdb5c1b195d195960721b60448201526064016105e4565b60007f00000000000000000000000000000000000000000000000000000000000000006001600160a01b031663e1f1c4a76040518163ffffffff1660e01b8152600401602060405180830381865afa158015612ccf573d6000803e3d6000fd5b505050506040513d601f19601f82011682018060405250810190612cf39190613300565b826101200151604001518360800151612d0c919061332f565b612d169190613346565b905060007f00000000000000000000000000000000000000000000000000000000000000006001600160a01b031663e1f1c4a76040518163ffffffff1660e01b8152600401602060405180830381865afa158015612d78573d6000803e3d6000fd5b505050506040513d601f19601f82011682018060405250810190612d9c9190613300565b600454612da9908461332f565b612db39190613346565b90506000612dc182846133be565b60608501516001600160a01b0316600090815260096020526040812080549293508392909190612df29084906135b3565b925050819055508060066000828254612e0b91906135b3565b925050819055508060076000828254612e2491906135b3565b925050819055508160086000828254612e3d91906135b3565b909155505060405183815285907fc95485031ab8a7e2b9e325c6bdaafec43650b4434d8e819d55451d8a9826fb8a9060200160405180910390a26040518281527fc8891b429f51b964c41c037370eaa5d4cb3d57c748e1569200de5fb0f37acb3b9060200160405180910390a15050505050565b612eb9612a29565b6001805460ff1916811790557f62e78cea01bee320cd4e420270b5ea74000d11b0c9f74754ebdbfc544b05a25833612ae1565b600080602060008451602086016000885af180612f0f576040513d6000823e3d81fd5b50506000513d91508115612f27578060011415612f34565b6001600160a01b0384163b155b15612b3757604051635274afe760e01b81526001600160a01b03851660048201526024016105e4565b60015460ff1661188a57604051638dfc202b60e01b815260040160405180910390fd5b6001600160a01b03811681146112eb57600080fd5b6040516060810167ffffffffffffffff81118282101715612fc657634e487b7160e01b600052604160045260246000fd5b60405290565b60405160e0810167ffffffffffffffff81118282101715612fc657634e487b7160e01b600052604160045260246000fd5b604051610160810167ffffffffffffffff81118282101715612fc657634e487b7160e01b600052604160045260246000fd5b60006060828403121561304157600080fd5b613049612f95565b82358152602080840135908201526040928301359281019290925250919050565b60008060008060c0858703121561308057600080fd5b8435935060208501359250604085013561309981612f80565b91506130a8866060870161302f565b905092959194509250565b600080604083850312156130c657600080fd5b8235915060208301356130d881612f80565b809150509250929050565b6000602082840312156130f557600080fd5b5035919050565b60008060008060006080868803121561311457600080fd5b853561311f81612f80565b9450602086013561312f81612f80565b935060408601359250606086013567ffffffffffffffff81111561315257600080fd5b8601601f8101881361316357600080fd5b803567ffffffffffffffff81111561317a57600080fd5b88602082840101111561318c57600080fd5b959894975092955050506020019190565b600080600060a084860312156131b257600080fd5b8335925060208401356131c481612f80565b91506131d3856040860161302f565b90509250925092565b80151581146112eb57600080fd5b600060408284031280156131fd57600080fd5b5060408051600091810167ffffffffffffffff8111828210171561322f57634e487b7160e01b83526041600452602483fd5b6040528335815260208401359150613246826131dc565b60208101919091529392505050565b6000806040838503121561326857600080fd5b823561327381612f80565b915060208301356130d8816131dc565b60006020828403121561329557600080fd5b81356132a081612f80565b9392505050565b600080604083850312156132ba57600080fd5b50508035926020909101359150565b6020808252601d908201527f416d6f756e74206d7573742062652067726561746572207468616e2030000000604082015260600190565b60006020828403121561331257600080fd5b5051919050565b634e487b7160e01b600052601160045260246000fd5b80820281158282048414176129f9576129f9613319565b60008261336357634e487b7160e01b600052601260045260246000fd5b500490565b60006020828403121561337a57600080fd5b81516132a0816131dc565b9283526001600160a01b039190911660208084019190915281516040808501919091529082015160608401520151608082015260a00190565b818103818111156129f9576129f9613319565b6020808252601190820152702ab739bab83837b93a32b2103a37b5b2b760791b604082015260600190565b805161340781612f80565b919050565b60006060828403121561341e57600080fd5b613426612f95565b82518152602080840151908201526040928301519281019290925250919050565b600061012082840312801561345b57600080fd5b506000613466612fcc565b8351815260208085015190820152604084015161348281612f80565b6040820152606084015161349581612f80565b60608201526134a7856080860161340c565b608082015260e084015160a0820152610100840151600481106134c8578283fd5b60c0820152949350505050565b634e487b7160e01b600052602160045260246000fd5b6000602082840312156134fd57600080fd5b81516132a081612f80565b600381106112eb57600080fd5b805161340781613508565b600060a082840312801561353357600080fd5b5060405160009060a0810167ffffffffffffffff8111828210171561356657634e487b7160e01b83526041600452602483fd5b60405283518152602084015161357b81612f80565b60208201526040848101519082015260608085015190820152608084015191506135a482613508565b60808101919091529392505050565b808201808211156129f9576129f9613319565b60006101a08284031280156135da57600080fd5b5060006135e5612ffd565b835181526135f5602085016133fc565b6020820152613606604085016133fc565b6040820152613617606085016133fc565b60608201526080848101519082015260a0808501519082015260c0808501519082015260e080850151908201526136516101008501613515565b61010082015261366585610120860161340c565b610120820152610180939093015161014084015250909291505056fea2646970667358221220c21e78788d8bf31b4b12ccb75238905f84ca3ec389a75d9f377cc898bfe8779364736f6c634300081c0033",
  "linkReferences": {},
  "deployedLinkReferences": {}
}