{
  "_format": "hh-sol-artifact-1",
  "contractName": "SimpleFund",
  "sourceName": "contracts/SimpleFund.sol",
  "abi": [
    {
      "inputs": [
        {
          "internalType": "address",
          "name": "_factoringContract",
          "type": "address"
        },
        {
          "internalType": "address",
          "name": "_usdc",
          "type": "address"
        },
        {
          "internalType": "address",
          "name": "_usdt",
          "type": "address"
        },
        {
          "components": [
            {
              "internalType": "uint256",
              "name": "managementFeePercentage",
              "type": "uint256"
            },
            {
              "internalType": "bool",
              "name": "acceptingDeposits",
              "type": "bool"
            }
          ],
          "internalType": "struct SimpleFund.FundConfig",
          "name": "_fundConfig",
          "type": "tuple"
        }
      ],
      "stateMutability": "nonpayable",
      "type": "constructor"
    },
    {
      "inputs": [],
      "name": "EnforcedPause",
      "type": "error"
    },
    {
      "inputs": [],
      "name": "ExpectedPause",
      "type": "error"
    },
    {
      "inputs": [],
      "name": "ReentrancyGuardReentrantCall",
      "type": "error"
    },
    {
      "inputs": [
        {
          "internalType": "address",
          "name": "token",
          "type": "address"
        }
      ],
      "name": "SafeERC20FailedOperation",
      "type": "error"
    },
    {
      "inputs": [],
      "name": "Unauthorized",
      "type": "error"
    },
    {
      "anonymous": false,
      "inputs": [
        {
          "indexed": true,
          "internalType": "uint256",
          "name": "billId",
          "type": "uint256"
        },
        {
          "indexed": false,
          "internalType": "uint256",
          "name": "totalReturn",
          "type": "uint256"
        }
      ],
      "name": "BillCompleted",
      "type": "event"
    },
    {
      "anonymous": false,
      "inputs": [
        {
          "indexed": true,
          "internalType": "uint256",
          "name": "billRequestId",
          "type": "uint256"
        },
        {
          "indexed": true,
          "internalType": "address",
          "name": "debtor",
          "type": "address"
        },
        {
          "indexed": false,
          "internalType": "uint256",
          "name": "amount",
          "type": "uint256"
        }
      ],
      "name": "BillRequestFunded",
      "type": "event"
    },
    {
      "anonymous": false,
      "inputs": [],
      "name": "FundConfigUpdated",
      "type": "event"
    },
    {
      "anonymous": false,
      "inputs": [
        {
          "indexed": true,
          "internalType": "address",
          "name": "depositor",
          "type": "address"
        },
        {
          "indexed": false,
          "internalType": "uint256",
          "name": "amount",
          "type": "uint256"
        },
        {
          "indexed": false,
          "internalType": "address",
          "name": "token",
          "type": "address"
        }
      ],
      "name": "FundsDeposited",
      "type": "event"
    },
    {
      "anonymous": false,
      "inputs": [
        {
          "indexed": true,
          "internalType": "address",
          "name": "withdrawer",
          "type": "address"
        },
        {
          "indexed": false,
          "internalType": "uint256",
          "name": "amount",
          "type": "uint256"
        },
        {
          "indexed": false,
          "internalType": "address",
          "name": "token",
          "type": "address"
        }
      ],
      "name": "FundsWithdrawn",
      "type": "event"
    },
    {
      "anonymous": false,
      "inputs": [
        {
          "indexed": false,
          "internalType": "uint256",
          "name": "amount",
          "type": "uint256"
        }
      ],
      "name": "ManagementFeesCollected",
      "type": "event"
    },
    {
      "anonymous": false,
      "inputs": [],
      "name": "OfferConfigUpdated",
      "type": "event"
    },
    {
      "anonymous": false,
      "inputs": [
        {
          "indexed": true,
          "internalType": "uint256",
          "name": "billRequestId",
          "type": "uint256"
        },
        {
          "indexed": true,
          "internalType": "uint256",
          "name": "offerId",
          "type": "uint256"
        },
        {
          "indexed": false,
          "internalType": "uint256",
          "name": "amount",
          "type": "uint256"
        }
      ],
      "name": "OfferCreatedAutomatically",
      "type": "event"
    },
    {
      "anonymous": false,
      "inputs": [
        {
          "indexed": false,
          "internalType": "address",
          "name": "account",
          "type": "address"
        }
      ],
      "name": "Paused",
      "type": "event"
    },
    {
      "anonymous": false,
      "inputs": [
        {
          "indexed": true,
          "internalType": "address",
          "name": "admin",
          "type": "address"
        }
      ],
      "name": "SetAdmin",
      "type": "event"
    },
    {
      "anonymous": false,
      "inputs": [
        {
          "indexed": true,
          "internalType": "address",
          "name": "authOperator",
          "type": "address"
        }
      ],
      "name": "SetAuthOperator",
      "type": "event"
    },
    {
      "anonymous": false,
      "inputs": [
        {
          "indexed": true,
          "internalType": "address",
          "name": "operator",
          "type": "address"
        }
      ],
      "name": "SetOperator",
      "type": "event"
    },
    {
      "anonymous": false,
      "inputs": [
        {
          "indexed": false,
          "internalType": "address",
          "name": "account",
          "type": "address"
        }
      ],
      "name": "Unpaused",
      "type": "event"
    },
    {
      "inputs": [],
      "name": "USDC",
      "outputs": [
        {
          "internalType": "contract IERC20",
          "name": "",
          "type": "address"
        }
      ],
      "stateMutability": "view",
      "type": "function"
    },
    {
      "inputs": [],
      "name": "USDT",
      "outputs": [
        {
          "internalType": "contract IERC20",
          "name": "",
          "type": "address"
        }
      ],
      "stateMutability": "view",
      "type": "function"
    },
    {
      "inputs": [
        {
          "internalType": "uint256",
          "name": "offerId",
          "type": "uint256"
        }
      ],
      "name": "acceptOfferForOwnedBill",
      "outputs": [],
      "stateMutability": "nonpayable",
      "type": "function"
    },
    {
      "inputs": [
        {
          "internalType": "uint256",
          "name": "",
          "type": "uint256"
        }
      ],
      "name": "activeBillRequests",
      "outputs": [
        {
          "internalType": "bool",
          "name": "",
          "type": "bool"
        }
      ],
      "stateMutability": "view",
      "type": "function"
    },
    {
      "inputs": [
        {
          "internalType": "uint256",
          "name": "",
          "type": "uint256"
        }
      ],
      "name": "billRequestToOffer",
      "outputs": [
        {
          "internalType": "uint256",
          "name": "",
          "type": "uint256"
        }
      ],
      "stateMutability": "view",
      "type": "function"
    },
    {
      "inputs": [
        {
          "internalType": "uint256",
          "name": "totalAmount",
          "type": "uint256"
        },
        {
          "internalType": "uint256",
          "name": "dueDate",
          "type": "uint256"
        }
      ],
      "name": "createBillRequestForDebtor",
      "outputs": [
        {
          "internalType": "uint256",
          "name": "",
          "type": "uint256"
        }
      ],
      "stateMutability": "nonpayable",
      "type": "function"
    },
    {
      "inputs": [
        {
          "internalType": "uint256",
          "name": "totalAmount",
          "type": "uint256"
        },
        {
          "internalType": "uint256",
          "name": "dueDate",
          "type": "uint256"
        },
        {
          "internalType": "address",
          "name": "stablecoin",
          "type": "address"
        },
        {
          "components": [
            {
              "internalType": "uint256",
              "name": "feePercentage",
              "type": "uint256"
            },
            {
              "internalType": "uint256",
              "name": "upfrontPercentage",
              "type": "uint256"
            },
            {
              "internalType": "uint256",
              "name": "ownerPercentage",
              "type": "uint256"
            }
          ],
          "internalType": "struct FactoringContract.Conditions",
          "name": "conditions",
          "type": "tuple"
        }
      ],
      "name": "createCompleteBill",
      "outputs": [
        {
          "internalType": "uint256",
          "name": "",
          "type": "uint256"
        }
      ],
      "stateMutability": "nonpayable",
      "type": "function"
    },
    {
      "inputs": [
        {
          "internalType": "uint256",
          "name": "billRequestId",
          "type": "uint256"
        },
        {
          "internalType": "address",
          "name": "stablecoin",
          "type": "address"
        },
        {
          "components": [
            {
              "internalType": "uint256",
              "name": "feePercentage",
              "type": "uint256"
            },
            {
              "internalType": "uint256",
              "name": "upfrontPercentage",
              "type": "uint256"
            },
            {
              "internalType": "uint256",
              "name": "ownerPercentage",
              "type": "uint256"
            }
          ],
          "internalType": "struct FactoringContract.Conditions",
          "name": "conditions",
          "type": "tuple"
        }
      ],
      "name": "createOfferForBillRequest",
      "outputs": [],
      "stateMutability": "nonpayable",
      "type": "function"
    },
    {
      "inputs": [
        {
          "internalType": "uint256",
          "name": "amount",
          "type": "uint256"
        },
        {
          "internalType": "address",
          "name": "token",
          "type": "address"
        }
      ],
      "name": "deposit",
      "outputs": [],
      "stateMutability": "nonpayable",
      "type": "function"
    },
    {
      "inputs": [],
      "name": "factoringContract",
      "outputs": [
        {
          "internalType": "contract FactoringContract",
          "name": "",
          "type": "address"
        }
      ],
      "stateMutability": "view",
      "type": "function"
    },
    {
      "inputs": [
        {
          "internalType": "address",
          "name": "",
          "type": "address"
        }
      ],
      "name": "fundBalances",
      "outputs": [
        {
          "internalType": "uint256",
          "name": "",
          "type": "uint256"
        }
      ],
      "stateMutability": "view",
      "type": "function"
    },
    {
      "inputs": [],
      "name": "fundConfig",
      "outputs": [
        {
          "internalType": "uint256",
          "name": "managementFeePercentage",
          "type": "uint256"
        },
        {
          "internalType": "bool",
          "name": "acceptingDeposits",
          "type": "bool"
        }
      ],
      "stateMutability": "view",
      "type": "function"
    },
    {
      "inputs": [
        {
          "internalType": "address",
          "name": "_admin",
          "type": "address"
        }
      ],
      "name": "getAuthorizedAdmin",
      "outputs": [
        {
          "internalType": "bool",
          "name": "",
          "type": "bool"
        }
      ],
      "stateMutability": "view",
      "type": "function"
    },
    {
      "inputs": [
        {
          "internalType": "address",
          "name": "_operator",
          "type": "address"
        }
      ],
      "name": "getAuthorizedOperator",
      "outputs": [
        {
          "internalType": "bool",
          "name": "",
          "type": "bool"
        }
      ],
      "stateMutability": "view",
      "type": "function"
    },
    {
      "inputs": [
        {
          "internalType": "address",
          "name": "token",
          "type": "address"
        }
      ],
      "name": "getFundBalance",
      "outputs": [
        {
          "internalType": "uint256",
          "name": "",
          "type": "uint256"
        }
      ],
      "stateMutability": "view",
      "type": "function"
    },
    {
      "inputs": [],
      "name": "getOwner",
      "outputs": [
        {
          "internalType": "address",
          "name": "",
          "type": "address"
        }
      ],
      "stateMutability": "view",
      "type": "function"
    },
    {
      "inputs": [],
      "name": "getTotalFundValue",
      "outputs": [
        {
          "internalType": "uint256",
          "name": "",
          "type": "uint256"
        }
      ],
      "stateMutability": "view",
      "type": "function"
    },
    {
      "inputs": [
        {
          "internalType": "uint256",
          "name": "billId",
          "type": "uint256"
        }
      ],
      "name": "handleBillCompletion",
      "outputs": [],
      "stateMutability": "nonpayable",
      "type": "function"
    },
    {
      "inputs": [],
      "name": "managementFeesCollected",
      "outputs": [
        {
          "internalType": "uint256",
          "name": "",
          "type": "uint256"
        }
      ],
      "stateMutability": "view",
      "type": "function"
    },
    {
      "inputs": [
        {
          "internalType": "address",
          "name": "",
          "type": "address"
        },
        {
          "internalType": "address",
          "name": "",
          "type": "address"
        },
        {
          "internalType": "uint256",
          "name": "",
          "type": "uint256"
        },
        {
          "internalType": "bytes",
          "name": "",
          "type": "bytes"
        }
      ],
      "name": "onERC721Received",
      "outputs": [
        {
          "internalType": "bytes4",
          "name": "",
          "type": "bytes4"
        }
      ],
      "stateMutability": "pure",
      "type": "function"
    },
    {
      "inputs": [],
      "name": "pause",
      "outputs": [],
      "stateMutability": "nonpayable",
      "type": "function"
    },
    {
      "inputs": [],
      "name": "paused",
      "outputs": [
        {
          "internalType": "bool",
          "name": "",
          "type": "bool"
        }
      ],
      "stateMutability": "view",
      "type": "function"
    },
    {
      "inputs": [
        {
          "internalType": "uint256",
          "name": "billId",
          "type": "uint256"
        },
        {
          "internalType": "address",
          "name": "realDebtor",
          "type": "address"
        }
      ],
      "name": "payBillForDebtor",
      "outputs": [],
      "stateMutability": "nonpayable",
      "type": "function"
    },
    {
      "inputs": [
        {
          "internalType": "address",
          "name": "_admin",
          "type": "address"
        },
        {
          "internalType": "bool",
          "name": "status",
          "type": "bool"
        }
      ],
      "name": "setAuthorizedAdmin",
      "outputs": [],
      "stateMutability": "nonpayable",
      "type": "function"
    },
    {
      "inputs": [
        {
          "internalType": "address",
          "name": "_operator",
          "type": "address"
        },
        {
          "internalType": "bool",
          "name": "status",
          "type": "bool"
        }
      ],
      "name": "setAuthorizedOperator",
      "outputs": [],
      "stateMutability": "nonpayable",
      "type": "function"
    },
    {
      "inputs": [],
      "name": "totalEarnings",
      "outputs": [
        {
          "internalType": "uint256",
          "name": "",
          "type": "uint256"
        }
      ],
      "stateMutability": "view",
      "type": "function"
    },
    {
      "inputs": [],
      "name": "totalFundValue",
      "outputs": [
        {
          "internalType": "uint256",
          "name": "",
          "type": "uint256"
        }
      ],
      "stateMutability": "view",
      "type": "function"
    },
    {
      "inputs": [
        {
          "internalType": "address",
          "name": "newOwner",
          "type": "address"
        }
      ],
      "name": "transferOwnership",
      "outputs": [],
      "stateMutability": "nonpayable",
      "type": "function"
    },
    {
      "inputs": [],
      "name": "unpause",
      "outputs": [],
      "stateMutability": "nonpayable",
      "type": "function"
    },
    {
      "inputs": [
        {
          "components": [
            {
              "internalType": "uint256",
              "name": "managementFeePercentage",
              "type": "uint256"
            },
            {
              "internalType": "bool",
              "name": "acceptingDeposits",
              "type": "bool"
            }
          ],
          "internalType": "struct SimpleFund.FundConfig",
          "name": "newConfig",
          "type": "tuple"
        }
      ],
      "name": "updateFundConfig",
      "outputs": [],
      "stateMutability": "nonpayable",
      "type": "function"
    },
    {
      "inputs": [
        {
          "internalType": "uint256",
          "name": "amount",
          "type": "uint256"
        },
        {
          "internalType": "address",
          "name": "token",
          "type": "address"
        }
      ],
      "name": "withdraw",
      "outputs": [],
      "stateMutability": "nonpayable",
      "type": "function"
    },
    {
      "inputs": [
        {
          "internalType": "address",
          "name": "token",
          "type": "address"
        }
      ],
      "name": "withdrawManagementFees",
      "outputs": [],
      "stateMutability": "nonpayable",
      "type": "function"
    }
  ],
  "bytecode": "0x60e060405234801561001057600080fd5b5060405161332238038061332283398101604081905261002f916101a7565b600160008190558054610100600160a81b03191633610100021790556001600160a01b0384166100a65760405162461bcd60e51b815260206004820152601a60248201527f496e76616c696420666163746f72696e6720636f6e747261637400000000000060448201526064015b60405180910390fd5b6001600160a01b0383166100fc5760405162461bcd60e51b815260206004820152601460248201527f496e76616c696420555344432061646472657373000000000000000000000000604482015260640161009d565b6001600160a01b0382166101525760405162461bcd60e51b815260206004820152601460248201527f496e76616c696420555344542061646472657373000000000000000000000000604482015260640161009d565b6001600160a01b0393841660805291831660a05290911660c0528051600455602001516005805460ff1916911515919091179055610255565b80516001600160a01b03811681146101a257600080fd5b919050565b60008060008084860360a08112156101be57600080fd5b6101c78661018b565b94506101d56020870161018b565b93506101e36040870161018b565b92506040605f19820112156101f757600080fd5b50604080519081016001600160401b038111828210171561022857634e487b7160e01b600052604160045260246000fd5b604052606086015181526080860151801515811461024557600080fd5b6020820152939692955090935050565b60805160a05160c051612fef610333600039600081816104400152818161060c01528181610c590152818161118701528181611ad50152612004015260008181610385015281816105d101528181610c1e0152818161114c01528181611a9a0152611fc90152600081816104e20152818161088f01528181610934015281816109cf01528181610a7501528181610e4201528181610f760152818161105e01528181611219015281816113db01528181611472015281816115c2015281816117b60152818161184a0152818161235101526125370152612fef6000f3fe608060405234801561001057600080fd5b50600436106101ee5760003560e01c80638456cb591161010f578063b423b79f116100a2578063e28d1d2e11610071578063e28d1d2e146104b7578063ee9f097e146104dd578063f2fde38b14610504578063fae293731461051757600080fd5b8063b423b79f14610428578063c54e44eb1461043b578063cb35124414610462578063d6d11c7f1461048e57600080fd5b806395457a05116100de57806395457a05146103d3578063a3184939146103dc578063a81e0c66146103ff578063ad60ffcc1461041f57600080fd5b80638456cb591461034e578063893d20e81461035657806389a302711461038057806390fe3e32146103a757600080fd5b80633bb0093e116101875780636e553f65116101565780636e553f651461030257806371c3a4b114610315578063788f737d146103285780637da34a3e1461033b57600080fd5b80633bb0093e146102bd5780633f4ba83a146102d05780635c975abb146102d85780635ef9ef86146102ef57600080fd5b806308a91f88116101c357806308a91f8814610261578063150b7a02146102695780632df3eba4146102a1578063328927d7146102aa57600080fd5b8062a597e5146101f3578062f714ce146102195780630278fffc1461022e57806304224c541461024e575b600080fd5b6102066102013660046129a2565b61052a565b6040519081526020015b60405180910390f35b61022c6102273660046129eb565b610ba7565b005b61020661023c366004612a1b565b600b6020526000908152604090205481565b61022c61025c366004612a1b565b610db8565b600654610206565b610288610277366004612a34565b630a85bd0160e11b95945050505050565b6040516001600160e01b03199091168152602001610210565b61020660075481565b61022c6102b8366004612ad5565b6110d1565b61022c6102cb3660046129eb565b611552565b61022c6118c2565b60015460ff165b6040519015158152602001610210565b61022c6102fd366004612b22565b611919565b61022c6103103660046129eb565b6119ad565b61022c610323366004612b8d565b611bbe565b61022c610336366004612b8d565b611d47565b61022c610349366004612a1b565b611ed3565b61022c611f3b565b60015461010090046001600160a01b03165b6040516001600160a01b039091168152602001610210565b6103687f000000000000000000000000000000000000000000000000000000000000000081565b6102df6103b5366004612bbb565b6001600160a01b031660009081526003602052604090205460ff1690565b61020660085481565b6102df6103ea366004612a1b565b600a6020526000908152604090205460ff1681565b61020661040d366004612bbb565b60096020526000908152604090205481565b61020660065481565b61022c610436366004612bbb565b611f90565b6103687f000000000000000000000000000000000000000000000000000000000000000081565b6102df610470366004612bbb565b6001600160a01b031660009081526002602052604090205460ff1690565b61020661049c366004612bbb565b6001600160a01b031660009081526009602052604090205490565b6004546005546104c8919060ff1682565b60408051928352901515602083015201610210565b6103687f000000000000000000000000000000000000000000000000000000000000000081565b61022c610512366004612bbb565b6120c4565b610206610525366004612bdf565b612295565b60015460009061010090046001600160a01b0316331480159061055d57503360009081526002602052604090205460ff16155b801561057957503360009081526003602052604090205460ff16155b15610596576040516282b42960e81b815260040160405180910390fd5b61059e612432565b6105a661245c565b600085116105cf5760405162461bcd60e51b81526004016105c690612c01565b60405180910390fd5b7f00000000000000000000000000000000000000000000000000000000000000006001600160a01b0316836001600160a01b0316148061064057507f00000000000000000000000000000000000000000000000000000000000000006001600160a01b0316836001600160a01b0316145b6106855760405162461bcd60e51b81526020600482015260166024820152752ab739bab83837b93a32b21039ba30b13632b1b7b4b760511b60448201526064016105c6565b4284116106d45760405162461bcd60e51b815260206004820152601e60248201527f4475652064617465206d75737420626520696e2074686520667574757265000060448201526064016105c6565b8151606410156107265760405162461bcd60e51b815260206004820152601760248201527f4665652070657263656e7461676520746f6f206869676800000000000000000060448201526064016105c6565b60648260200151111561077b5760405162461bcd60e51b815260206004820152601b60248201527f557066726f6e742070657263656e7461676520746f6f2068696768000000000060448201526064016105c6565b6064826040015111156107d05760405162461bcd60e51b815260206004820152601960248201527f4f776e65722070657263656e7461676520746f6f20686967680000000000000060448201526064016105c6565b600060648360200151876107e49190612c4e565b6107ee9190612c65565b6001600160a01b03851660009081526009602052604090205490915081111561086f5760405162461bcd60e51b815260206004820152602d60248201527f496e73756666696369656e742066756e642062616c616e636520666f7220757060448201526c199c9bdb9d081c185e5b595b9d609a1b60648201526084016105c6565b604051634bcb18f760e11b815260048101879052602481018690526000907f00000000000000000000000000000000000000000000000000000000000000006001600160a01b03169063979631ee906044016020604051808303816000875af11580156108e0573d6000803e3d6000fd5b505050506040513d601f19601f820116820180604052508101906109049190612c87565b6000818152600a602052604090819020805460ff191660011790555163095ea7b360e01b81526001600160a01b037f000000000000000000000000000000000000000000000000000000000000000081166004830152602482018590529192509086169063095ea7b3906044016020604051808303816000875af1158015610990573d6000803e3d6000fd5b505050506040513d601f19601f820116820180604052508101906109b49190612ca0565b506040516319be745960e31b81526000906001600160a01b037f0000000000000000000000000000000000000000000000000000000000000000169063cdf3a2c890610a089085908a908a90600401612cbd565b6020604051808303816000875af1158015610a27573d6000803e3d6000fd5b505050506040513d601f19601f82011682018060405250810190610a4b9190612c87565b6000838152600b6020526040908190208290555163c815729d60e01b8152600481018290529091507f00000000000000000000000000000000000000000000000000000000000000006001600160a01b03169063c815729d90602401600060405180830381600087803b158015610ac157600080fd5b505af1158015610ad5573d6000803e3d6000fd5b505050506001600160a01b03861660009081526009602052604081208054859290610b01908490612cf6565b925050819055508260066000828254610b1a9190612cf6565b9091555050604051888152309083907fbb5092a4aca5e6f16b116221da7ba1f8c803e9340adefe0134790aa910e0cfee9060200160405180910390a380827f976beaba3631459c97e9290d78fdbca69cc1b5111bc917f7fd4da50f2bfea17085604051610b8991815260200190565b60405180910390a350915050610b9f6001600055565b949350505050565b60015461010090046001600160a01b03163314801590610bd757503360009081526002602052604090205460ff16155b15610bf4576040516282b42960e81b815260040160405180910390fd5b610bfc612432565b60008211610c1c5760405162461bcd60e51b81526004016105c690612c01565b7f00000000000000000000000000000000000000000000000000000000000000006001600160a01b0316816001600160a01b03161480610c8d57507f00000000000000000000000000000000000000000000000000000000000000006001600160a01b0316816001600160a01b0316145b610ca95760405162461bcd60e51b81526004016105c690612d09565b6001600160a01b038116600090815260096020526040902054821115610d0d5760405162461bcd60e51b8152602060048201526019602482015278496e73756666696369656e742066756e642062616c616e636560381b60448201526064016105c6565b8160066000828254610d1f9190612cf6565b90915550506001600160a01b03811660009081526009602052604081208054849290610d4c908490612cf6565b90915550610d6690506001600160a01b0382163384612480565b604080518381526001600160a01b038316602082015233917fe9171aeff46c37ab955b8aff908e14ae9732bd06634fa131226cfe5c25bfd2fb91015b60405180910390a2610db46001600055565b5050565b60015461010090046001600160a01b03163314801590610de857503360009081526002602052604090205460ff16155b8015610e0457503360009081526003602052604090205460ff16155b15610e21576040516282b42960e81b815260040160405180910390fd5b610e29612432565b6040516322bc934560e11b8152600481018290526000907f00000000000000000000000000000000000000000000000000000000000000006001600160a01b031690634579268a9060240161012060405180830381865afa158015610e92573d6000803e3d6000fd5b505050506040513d601f19601f82011682018060405250810190610eb69190612d7f565b8051909150600003610f015760405162461bcd60e51b815260206004820152601460248201527313d999995c88191bd95cc81b9bdd08195e1a5cdd60621b60448201526064016105c6565b8060c001516003811115610f1757610f17612e0d565b15610f575760405162461bcd60e51b815260206004820152601060248201526f4f66666572206e6f742061637469766560801b60448201526064016105c6565b60208101516040516331a9108f60e11b81526000916001600160a01b037f00000000000000000000000000000000000000000000000000000000000000001691636352211e91610fad9160040190815260200190565b602060405180830381865afa158015610fca573d6000803e3d6000fd5b505050506040513d601f19601f82011682018060405250810190610fee9190612e23565b90506001600160a01b03811630146110485760405162461bcd60e51b815260206004820152601960248201527f46756e6420646f6573206e6f74206f776e20746865204e46540000000000000060448201526064016105c6565b60405163c815729d60e01b8152600481018490527f00000000000000000000000000000000000000000000000000000000000000006001600160a01b03169063c815729d90602401600060405180830381600087803b1580156110aa57600080fd5b505af11580156110be573d6000803e3d6000fd5b5050505050506110ce6001600055565b50565b60015461010090046001600160a01b0316331480159061110157503360009081526002602052604090205460ff16155b801561111d57503360009081526003602052604090205460ff16155b1561113a576040516282b42960e81b815260040160405180910390fd5b611142612432565b61114a61245c565b7f00000000000000000000000000000000000000000000000000000000000000006001600160a01b0316826001600160a01b031614806111bb57507f00000000000000000000000000000000000000000000000000000000000000006001600160a01b0316826001600160a01b0316145b6112005760405162461bcd60e51b81526020600482015260166024820152752ab739bab83837b93a32b21039ba30b13632b1b7b4b760511b60448201526064016105c6565b604051632bfac9f160e01b8152600481018490526000907f00000000000000000000000000000000000000000000000000000000000000006001600160a01b031690632bfac9f19060240160a060405180830381865afa158015611268573d6000803e3d6000fd5b505050506040513d601f19601f8201168201806040525081019061128c9190612e58565b80519091506000036112e05760405162461bcd60e51b815260206004820152601b60248201527f42696c6c207265717565737420646f6573206e6f74206578697374000000000060448201526064016105c6565b806080015160028111156112f6576112f6612e0d565b1561133b5760405162461bcd60e51b81526020600482015260156024820152742134b636103932b8bab2b9ba103737ba1037b832b760591b60448201526064016105c6565b60006064836020015183604001516113539190612c4e565b61135d9190612c65565b6001600160a01b0385166000908152600960205260409020549091508111156113c45760405162461bcd60e51b8152602060048201526019602482015278496e73756666696369656e742066756e642062616c616e636560381b60448201526064016105c6565b60405163095ea7b360e01b81526001600160a01b037f0000000000000000000000000000000000000000000000000000000000000000811660048301526024820183905285169063095ea7b3906044016020604051808303816000875af1158015611433573d6000803e3d6000fd5b505050506040513d601f19601f820116820180604052508101906114579190612ca0565b506040516319be745960e31b81526000906001600160a01b037f0000000000000000000000000000000000000000000000000000000000000000169063cdf3a2c8906114ab90899089908990600401612cbd565b6020604051808303816000875af11580156114ca573d6000803e3d6000fd5b505050506040513d601f19601f820116820180604052508101906114ee9190612c87565b6000878152600b60205260409081902082905551909150819087907f976beaba3631459c97e9290d78fdbca69cc1b5111bc917f7fd4da50f2bfea170906115389086815260200190565b60405180910390a350505061154d6001600055565b505050565b61155a612432565b6001600160a01b0381166115a95760405162461bcd60e51b8152602060048201526016602482015275496e76616c696420646562746f72206164647265737360501b60448201526064016105c6565b6040516358e6837360e11b8152600481018390526000907f00000000000000000000000000000000000000000000000000000000000000006001600160a01b03169063b1cd06e6906024016101a060405180830381865afa158015611612573d6000803e3d6000fd5b505050506040513d601f19601f820116820180604052508101906116369190612eeb565b80519091506000036116805760405162461bcd60e51b8152602060048201526013602482015272109a5b1b08191bd95cc81b9bdd08195e1a5cdd606a1b60448201526064016105c6565b60208101516001600160a01b031630146116d55760405162461bcd60e51b8152602060048201526016602482015275233ab7321034b9903737ba103a3432903232b13a37b960511b60448201526064016105c6565b336001600160a01b038316146117375760405162461bcd60e51b815260206004820152602160248201527f4f6e6c79207265616c20646562746f722063616e20706179207468652062696c6044820152601b60fa1b60648201526084016105c6565b61175f8230836080015184606001516001600160a01b03166124df909392919063ffffffff16565b608081015160608201516001600160a01b031660009081526009602052604081208054909190611790908490612fa6565b90915550506060810151608082015160405163095ea7b360e01b81526001600160a01b037f000000000000000000000000000000000000000000000000000000000000000081166004830152602482019290925291169063095ea7b3906044016020604051808303816000875af115801561180f573d6000803e3d6000fd5b505050506040513d601f19601f820116820180604052508101906118339190612ca0565b5060405163fb4de28360e01b8152600481018490527f00000000000000000000000000000000000000000000000000000000000000006001600160a01b03169063fb4de28390602401600060405180830381600087803b15801561189657600080fd5b505af11580156118aa573d6000803e3d6000fd5b505050506118b78361251e565b50610db46001600055565b60015461010090046001600160a01b031633148015906118f257503360009081526002602052604090205460ff16155b1561190f576040516282b42960e81b815260040160405180910390fd5b611917612797565b565b60015461010090046001600160a01b0316331480159061194957503360009081526002602052604090205460ff16155b15611966576040516282b42960e81b815260040160405180910390fd5b805160045560208101516005805460ff19169115159190911790556040517f8c191de7e47dfd8dbfd821a6f4dd303664e7ae97f1cbe824c1aedede09d2801590600090a150565b60015461010090046001600160a01b031633148015906119dd57503360009081526002602052604090205460ff16155b80156119f957503360009081526003602052604090205460ff16155b15611a16576040516282b42960e81b815260040160405180910390fd5b611a1e612432565b611a2661245c565b60055460ff16611a785760405162461bcd60e51b815260206004820152601b60248201527f46756e64206e6f7420616363657074696e67206465706f73697473000000000060448201526064016105c6565b60008211611a985760405162461bcd60e51b81526004016105c690612c01565b7f00000000000000000000000000000000000000000000000000000000000000006001600160a01b0316816001600160a01b03161480611b0957507f00000000000000000000000000000000000000000000000000000000000000006001600160a01b0316816001600160a01b0316145b611b255760405162461bcd60e51b81526004016105c690612d09565b611b3a6001600160a01b0382163330856124df565b8160066000828254611b4c9190612fa6565b90915550506001600160a01b03811660009081526009602052604081208054849290611b79908490612fa6565b9091555050604080518381526001600160a01b038316602082015233917fdf4dcf17030d087ed1d90ed3c90719c7260706c1c4a88505dd2d0a982887cf439101610da2565b60015461010090046001600160a01b03163314801590611bee57503360009081526002602052604090205460ff16155b15611c0b576040516282b42960e81b815260040160405180910390fd5b6001600160a01b038216611c795760405162461bcd60e51b815260206004820152602f60248201527f417574686f72697a65642053797374656d3a2041646d696e206164647265737360448201526e0818d85b9b9bdd081899481b9d5b1b608a1b60648201526084016105c6565b6001600160a01b03821660009081526003602052604090205460ff1615611cf95760405162461bcd60e51b815260206004820152602e60248201527f417574686f72697a65642053797374656d3a2041646d696e2063616e6e6f742060448201526d31329030b71037b832b930ba37b960911b60648201526084016105c6565b6001600160a01b038216600081815260026020526040808220805460ff1916851515179055517f5a272403b402d892977df56625f4164ccaf70ca3863991c43ecfe76a6905b0a19190a25050565b60015461010090046001600160a01b03163314801590611d7757503360009081526002602052604090205460ff16155b15611d94576040516282b42960e81b815260040160405180910390fd5b6001600160a01b038216611e055760405162461bcd60e51b815260206004820152603260248201527f417574686f72697a65642053797374656d3a204f70657261746f722061646472604482015271195cdcc818d85b9b9bdd081899481b9d5b1b60721b60648201526084016105c6565b6001600160a01b03821660009081526002602052604090205460ff1615611e855760405162461bcd60e51b815260206004820152602e60248201527f417574686f72697a65642053797374656d3a204f70657261746f722063616e6e60448201526d37ba1031329030b71030b236b4b760911b60648201526084016105c6565b6001600160a01b038216600081815260036020526040808220805460ff1916851515179055517fdbebfba65bd6398fb722063efc10c99f624f9cd8ba657201056af918a676d5ee9190a25050565b60015461010090046001600160a01b03163314801590611f0357503360009081526002602052604090205460ff16155b15611f20576040516282b42960e81b815260040160405180910390fd5b611f28612432565b611f318161251e565b6110ce6001600055565b60015461010090046001600160a01b03163314801590611f6b57503360009081526002602052604090205460ff16155b15611f88576040516282b42960e81b815260040160405180910390fd5b6119176127e9565b60015461010090046001600160a01b03163314611fbf576040516282b42960e81b815260040160405180910390fd5b611fc7612432565b7f00000000000000000000000000000000000000000000000000000000000000006001600160a01b0316816001600160a01b0316148061203857507f00000000000000000000000000000000000000000000000000000000000000006001600160a01b0316816001600160a01b0316145b6120545760405162461bcd60e51b81526004016105c690612d09565b60006008541161209c5760405162461bcd60e51b81526020600482015260136024820152724e6f206665657320746f20776974686472617760681b60448201526064016105c6565b6008805460009091556120b96001600160a01b0383163383612480565b506110ce6001600055565b60015461010090046001600160a01b031633146120f3576040516282b42960e81b815260040160405180910390fd5b6001600160a01b03811661215d5760405162461bcd60e51b815260206004820152602b60248201527f417574686f72697a65642053797374656d3a204e6577206f776e65722063616e60448201526a1b9bdd081899481b9d5b1b60aa1b60648201526084016105c6565b6001546001600160a01b036101009091048116908216036121e65760405162461bcd60e51b815260206004820152603c60248201527f417574686f72697a65642053797374656d3a204e6577206f776e65722063616e60448201527f6e6f74206265207468652073616d65206173206f6c64206f776e65720000000060648201526084016105c6565b60015461010090046001600160a01b031660009081526003602052604090205460ff161561226d5760405162461bcd60e51b815260206004820152602e60248201527f417574686f72697a65642053797374656d3a204f776e65722063616e6e6f742060448201526d31329030b71037b832b930ba37b960911b60648201526084016105c6565b600180546001600160a01b0390921661010002610100600160a81b0319909216919091179055565b60015460009061010090046001600160a01b031633148015906122c857503360009081526002602052604090205460ff16155b80156122e457503360009081526003602052604090205460ff16155b15612301576040516282b42960e81b815260040160405180910390fd5b612309612432565b61231161245c565b600083116123315760405162461bcd60e51b81526004016105c690612c01565b604051634bcb18f760e11b815260048101849052602481018390526000907f00000000000000000000000000000000000000000000000000000000000000006001600160a01b03169063979631ee906044016020604051808303816000875af11580156123a2573d6000803e3d6000fd5b505050506040513d601f19601f820116820180604052508101906123c69190612c87565b6000818152600a602052604090819020805460ff1916600117905551909150309082907fbb5092a4aca5e6f16b116221da7ba1f8c803e9340adefe0134790aa910e0cfee906124189088815260200190565b60405180910390a3905061242c6001600055565b92915050565b60026000540361245557604051633ee5aeb560e01b815260040160405180910390fd5b6002600055565b60015460ff16156119175760405163d93c066560e01b815260040160405180910390fd5b6040516001600160a01b0383811660248301526044820183905261154d91859182169063a9059cbb906064015b604051602081830303815290604052915060e01b6020820180516001600160e01b038381831617835250505050612824565b6040516001600160a01b0384811660248301528381166044830152606482018390526125189186918216906323b872dd906084016124ad565b50505050565b6040516358e6837360e11b8152600481018290526000907f00000000000000000000000000000000000000000000000000000000000000006001600160a01b03169063b1cd06e6906024016101a060405180830381865afa158015612587573d6000803e3d6000fd5b505050506040513d601f19601f820116820180604052508101906125ab9190612eeb565b80519091506000036125f55760405162461bcd60e51b8152602060048201526013602482015272109a5b1b08191bd95cc81b9bdd08195e1a5cdd606a1b60448201526064016105c6565b806101000151600281111561260c5761260c612e0d565b6001146126505760405162461bcd60e51b8152602060048201526012602482015271109a5b1b081b9bdd0818dbdb5c1b195d195960721b60448201526064016105c6565b6000606482610120015160400151836080015161266d9190612c4e565b6126779190612c65565b905060006127106004600001548361268f9190612c4e565b6126999190612c65565b905060006126a78284612cf6565b60608501516001600160a01b03166000908152600960205260408120805492935083929091906126d8908490612fa6565b9250508190555080600660008282546126f19190612fa6565b92505081905550806007600082825461270a9190612fa6565b9250508190555081600860008282546127239190612fa6565b909155505060405183815285907fc95485031ab8a7e2b9e325c6bdaafec43650b4434d8e819d55451d8a9826fb8a9060200160405180910390a26040518281527fc8891b429f51b964c41c037370eaa5d4cb3d57c748e1569200de5fb0f37acb3b9060200160405180910390a15050505050565b61279f612895565b6001805460ff191690557f5db9ee0a495bf2e6ff9c91a7834c1ba4fdd244a5e8aa4e537bd38aeae4b073aa335b6040516001600160a01b03909116815260200160405180910390a1565b6127f161245c565b6001805460ff1916811790557f62e78cea01bee320cd4e420270b5ea74000d11b0c9f74754ebdbfc544b05a258336127cc565b600080602060008451602086016000885af180612847576040513d6000823e3d81fd5b50506000513d9150811561285f57806001141561286c565b6001600160a01b0384163b155b1561251857604051635274afe760e01b81526001600160a01b03851660048201526024016105c6565b60015460ff1661191757604051638dfc202b60e01b815260040160405180910390fd5b6001600160a01b03811681146110ce57600080fd5b6040516060810167ffffffffffffffff811182821017156128fe57634e487b7160e01b600052604160045260246000fd5b60405290565b60405160e0810167ffffffffffffffff811182821017156128fe57634e487b7160e01b600052604160045260246000fd5b604051610160810167ffffffffffffffff811182821017156128fe57634e487b7160e01b600052604160045260246000fd5b60006060828403121561297957600080fd5b6129816128cd565b82358152602080840135908201526040928301359281019290925250919050565b60008060008060c085870312156129b857600080fd5b843593506020850135925060408501356129d1816128b8565b91506129e08660608701612967565b905092959194509250565b600080604083850312156129fe57600080fd5b823591506020830135612a10816128b8565b809150509250929050565b600060208284031215612a2d57600080fd5b5035919050565b600080600080600060808688031215612a4c57600080fd5b8535612a57816128b8565b94506020860135612a67816128b8565b935060408601359250606086013567ffffffffffffffff811115612a8a57600080fd5b8601601f81018813612a9b57600080fd5b803567ffffffffffffffff811115612ab257600080fd5b886020828401011115612ac457600080fd5b959894975092955050506020019190565b600080600060a08486031215612aea57600080fd5b833592506020840135612afc816128b8565b9150612b0b8560408601612967565b90509250925092565b80151581146110ce57600080fd5b60006040828403128015612b3557600080fd5b5060408051600091810167ffffffffffffffff81118282101715612b6757634e487b7160e01b83526041600452602483fd5b6040528335815260208401359150612b7e82612b14565b60208101919091529392505050565b60008060408385031215612ba057600080fd5b8235612bab816128b8565b91506020830135612a1081612b14565b600060208284031215612bcd57600080fd5b8135612bd8816128b8565b9392505050565b60008060408385031215612bf257600080fd5b50508035926020909101359150565b6020808252601d908201527f416d6f756e74206d7573742062652067726561746572207468616e2030000000604082015260600190565b634e487b7160e01b600052601160045260246000fd5b808202811582820484141761242c5761242c612c38565b600082612c8257634e487b7160e01b600052601260045260246000fd5b500490565b600060208284031215612c9957600080fd5b5051919050565b600060208284031215612cb257600080fd5b8151612bd881612b14565b9283526001600160a01b039190911660208084019190915281516040808501919091529082015160608401520151608082015260a00190565b8181038181111561242c5761242c612c38565b6020808252601190820152702ab739bab83837b93a32b2103a37b5b2b760791b604082015260600190565b8051612d3f816128b8565b919050565b600060608284031215612d5657600080fd5b612d5e6128cd565b82518152602080840151908201526040928301519281019290925250919050565b6000610120828403128015612d9357600080fd5b506000612d9e612904565b83518152602080850151908201526040840151612dba816128b8565b60408201526060840151612dcd816128b8565b6060820152612ddf8560808601612d44565b608082015260e084015160a082015261010084015160048110612e00578283fd5b60c0820152949350505050565b634e487b7160e01b600052602160045260246000fd5b600060208284031215612e3557600080fd5b8151612bd8816128b8565b600381106110ce57600080fd5b8051612d3f81612e40565b600060a0828403128015612e6b57600080fd5b5060405160009060a0810167ffffffffffffffff81118282101715612e9e57634e487b7160e01b83526041600452602483fd5b604052835181526020840151612eb3816128b8565b6020820152604084810151908201526060808501519082015260808401519150612edc82612e40565b60808101919091529392505050565b60006101a0828403128015612eff57600080fd5b506000612f0a612935565b83518152612f1a60208501612d34565b6020820152612f2b60408501612d34565b6040820152612f3c60608501612d34565b60608201526080848101519082015260a0808501519082015260c0808501519082015260e08085015190820152612f766101008501612e4d565b610100820152612f8a856101208601612d44565b6101208201526101809390930151610140840152509092915050565b8082018082111561242c5761242c612c3856fea2646970667358221220bfe2f1c80d0568d59dc389062c101e30a333374f4035f5bee37decac40ea07dc64736f6c634300081c0033",
  "linkReferences": {},
  "deployedLinkReferences": {}
}