{
  "_format": "hh-sol-artifact-1",
  "contractName": "SimpleFund",
  "sourceName": "contracts/SimpleFund.sol",
  "abi": [
    {
      "inputs": [
        {
          "internalType": "address",
          "name": "_factoringContract",
          "type": "address"
        },
        {
          "internalType": "address",
          "name": "_usdc",
          "type": "address"
        },
        {
          "internalType": "address",
          "name": "_usdt",
          "type": "address"
        },
        {
          "components": [
            {
              "internalType": "uint256",
              "name": "managementFeePercentage",
              "type": "uint256"
            },
            {
              "internalType": "bool",
              "name": "acceptingDeposits",
              "type": "bool"
            }
          ],
          "internalType": "struct SimpleFund.FundConfig",
          "name": "_fundConfig",
          "type": "tuple"
        },
        {
          "components": [
            {
              "internalType": "uint256",
              "name": "feePercentage",
              "type": "uint256"
            },
            {
              "internalType": "uint256",
              "name": "upfrontPercentage",
              "type": "uint256"
            },
            {
              "internalType": "uint256",
              "name": "ownerPercentage",
              "type": "uint256"
            },
            {
              "internalType": "uint256",
              "name": "minBillAmount",
              "type": "uint256"
            },
            {
              "internalType": "uint256",
              "name": "maxBillAmount",
              "type": "uint256"
            },
            {
              "internalType": "bool",
              "name": "autoOfferEnabled",
              "type": "bool"
            }
          ],
          "internalType": "struct SimpleFund.OfferConfig",
          "name": "_offerConfig",
          "type": "tuple"
        }
      ],
      "stateMutability": "nonpayable",
      "type": "constructor"
    },
    {
      "inputs": [],
      "name": "EnforcedPause",
      "type": "error"
    },
    {
      "inputs": [],
      "name": "ExpectedPause",
      "type": "error"
    },
    {
      "inputs": [],
      "name": "ReentrancyGuardReentrantCall",
      "type": "error"
    },
    {
      "inputs": [
        {
          "internalType": "address",
          "name": "token",
          "type": "address"
        }
      ],
      "name": "SafeERC20FailedOperation",
      "type": "error"
    },
    {
      "inputs": [],
      "name": "Unauthorized",
      "type": "error"
    },
    {
      "anonymous": false,
      "inputs": [
        {
          "indexed": true,
          "internalType": "uint256",
          "name": "billId",
          "type": "uint256"
        },
        {
          "indexed": false,
          "internalType": "uint256",
          "name": "totalReturn",
          "type": "uint256"
        }
      ],
      "name": "BillCompleted",
      "type": "event"
    },
    {
      "anonymous": false,
      "inputs": [
        {
          "indexed": true,
          "internalType": "uint256",
          "name": "billRequestId",
          "type": "uint256"
        },
        {
          "indexed": true,
          "internalType": "address",
          "name": "debtor",
          "type": "address"
        },
        {
          "indexed": false,
          "internalType": "uint256",
          "name": "amount",
          "type": "uint256"
        }
      ],
      "name": "BillRequestFunded",
      "type": "event"
    },
    {
      "anonymous": false,
      "inputs": [],
      "name": "FundConfigUpdated",
      "type": "event"
    },
    {
      "anonymous": false,
      "inputs": [
        {
          "indexed": true,
          "internalType": "address",
          "name": "depositor",
          "type": "address"
        },
        {
          "indexed": false,
          "internalType": "uint256",
          "name": "amount",
          "type": "uint256"
        },
        {
          "indexed": false,
          "internalType": "address",
          "name": "token",
          "type": "address"
        }
      ],
      "name": "FundsDeposited",
      "type": "event"
    },
    {
      "anonymous": false,
      "inputs": [
        {
          "indexed": true,
          "internalType": "address",
          "name": "withdrawer",
          "type": "address"
        },
        {
          "indexed": false,
          "internalType": "uint256",
          "name": "amount",
          "type": "uint256"
        },
        {
          "indexed": false,
          "internalType": "address",
          "name": "token",
          "type": "address"
        }
      ],
      "name": "FundsWithdrawn",
      "type": "event"
    },
    {
      "anonymous": false,
      "inputs": [
        {
          "indexed": false,
          "internalType": "uint256",
          "name": "amount",
          "type": "uint256"
        }
      ],
      "name": "ManagementFeesCollected",
      "type": "event"
    },
    {
      "anonymous": false,
      "inputs": [],
      "name": "OfferConfigUpdated",
      "type": "event"
    },
    {
      "anonymous": false,
      "inputs": [
        {
          "indexed": true,
          "internalType": "uint256",
          "name": "billRequestId",
          "type": "uint256"
        },
        {
          "indexed": true,
          "internalType": "uint256",
          "name": "offerId",
          "type": "uint256"
        },
        {
          "indexed": false,
          "internalType": "uint256",
          "name": "amount",
          "type": "uint256"
        }
      ],
      "name": "OfferCreatedAutomatically",
      "type": "event"
    },
    {
      "anonymous": false,
      "inputs": [
        {
          "indexed": false,
          "internalType": "address",
          "name": "account",
          "type": "address"
        }
      ],
      "name": "Paused",
      "type": "event"
    },
    {
      "anonymous": false,
      "inputs": [
        {
          "indexed": true,
          "internalType": "address",
          "name": "admin",
          "type": "address"
        }
      ],
      "name": "SetAdmin",
      "type": "event"
    },
    {
      "anonymous": false,
      "inputs": [
        {
          "indexed": true,
          "internalType": "address",
          "name": "authOperator",
          "type": "address"
        }
      ],
      "name": "SetAuthOperator",
      "type": "event"
    },
    {
      "anonymous": false,
      "inputs": [
        {
          "indexed": true,
          "internalType": "address",
          "name": "operator",
          "type": "address"
        }
      ],
      "name": "SetOperator",
      "type": "event"
    },
    {
      "anonymous": false,
      "inputs": [
        {
          "indexed": false,
          "internalType": "address",
          "name": "account",
          "type": "address"
        }
      ],
      "name": "Unpaused",
      "type": "event"
    },
    {
      "inputs": [],
      "name": "USDC",
      "outputs": [
        {
          "internalType": "contract IERC20",
          "name": "",
          "type": "address"
        }
      ],
      "stateMutability": "view",
      "type": "function"
    },
    {
      "inputs": [],
      "name": "USDT",
      "outputs": [
        {
          "internalType": "contract IERC20",
          "name": "",
          "type": "address"
        }
      ],
      "stateMutability": "view",
      "type": "function"
    },
    {
      "inputs": [
        {
          "internalType": "uint256",
          "name": "offerId",
          "type": "uint256"
        }
      ],
      "name": "acceptOfferForOwnedBill",
      "outputs": [],
      "stateMutability": "nonpayable",
      "type": "function"
    },
    {
      "inputs": [
        {
          "internalType": "uint256",
          "name": "",
          "type": "uint256"
        }
      ],
      "name": "activeBillRequests",
      "outputs": [
        {
          "internalType": "bool",
          "name": "",
          "type": "bool"
        }
      ],
      "stateMutability": "view",
      "type": "function"
    },
    {
      "inputs": [
        {
          "internalType": "uint256",
          "name": "",
          "type": "uint256"
        }
      ],
      "name": "billRequestToOffer",
      "outputs": [
        {
          "internalType": "uint256",
          "name": "",
          "type": "uint256"
        }
      ],
      "stateMutability": "view",
      "type": "function"
    },
    {
      "inputs": [
        {
          "internalType": "uint256",
          "name": "totalAmount",
          "type": "uint256"
        },
        {
          "internalType": "uint256",
          "name": "dueDate",
          "type": "uint256"
        },
        {
          "internalType": "address",
          "name": "stablecoin",
          "type": "address"
        },
        {
          "internalType": "address",
          "name": "realDebtor",
          "type": "address"
        }
      ],
      "name": "createBillRequestForDebtor",
      "outputs": [
        {
          "internalType": "uint256",
          "name": "",
          "type": "uint256"
        }
      ],
      "stateMutability": "nonpayable",
      "type": "function"
    },
    {
      "inputs": [
        {
          "internalType": "uint256",
          "name": "totalAmount",
          "type": "uint256"
        },
        {
          "internalType": "uint256",
          "name": "dueDate",
          "type": "uint256"
        },
        {
          "internalType": "address",
          "name": "stablecoin",
          "type": "address"
        },
        {
          "components": [
            {
              "internalType": "uint256",
              "name": "feePercentage",
              "type": "uint256"
            },
            {
              "internalType": "uint256",
              "name": "upfrontPercentage",
              "type": "uint256"
            },
            {
              "internalType": "uint256",
              "name": "ownerPercentage",
              "type": "uint256"
            }
          ],
          "internalType": "struct FactoringContract.Conditions",
          "name": "conditions",
          "type": "tuple"
        }
      ],
      "name": "createCompleteBill",
      "outputs": [
        {
          "internalType": "uint256",
          "name": "",
          "type": "uint256"
        }
      ],
      "stateMutability": "nonpayable",
      "type": "function"
    },
    {
      "inputs": [
        {
          "internalType": "uint256",
          "name": "billRequestId",
          "type": "uint256"
        }
      ],
      "name": "createOfferForBillRequest",
      "outputs": [],
      "stateMutability": "nonpayable",
      "type": "function"
    },
    {
      "inputs": [
        {
          "internalType": "uint256",
          "name": "amount",
          "type": "uint256"
        },
        {
          "internalType": "address",
          "name": "token",
          "type": "address"
        }
      ],
      "name": "deposit",
      "outputs": [],
      "stateMutability": "nonpayable",
      "type": "function"
    },
    {
      "inputs": [],
      "name": "factoringContract",
      "outputs": [
        {
          "internalType": "contract FactoringContract",
          "name": "",
          "type": "address"
        }
      ],
      "stateMutability": "view",
      "type": "function"
    },
    {
      "inputs": [
        {
          "internalType": "address",
          "name": "",
          "type": "address"
        }
      ],
      "name": "fundBalances",
      "outputs": [
        {
          "internalType": "uint256",
          "name": "",
          "type": "uint256"
        }
      ],
      "stateMutability": "view",
      "type": "function"
    },
    {
      "inputs": [],
      "name": "fundConfig",
      "outputs": [
        {
          "internalType": "uint256",
          "name": "managementFeePercentage",
          "type": "uint256"
        },
        {
          "internalType": "bool",
          "name": "acceptingDeposits",
          "type": "bool"
        }
      ],
      "stateMutability": "view",
      "type": "function"
    },
    {
      "inputs": [
        {
          "internalType": "address",
          "name": "_admin",
          "type": "address"
        }
      ],
      "name": "getAuthorizedAdmin",
      "outputs": [
        {
          "internalType": "bool",
          "name": "",
          "type": "bool"
        }
      ],
      "stateMutability": "view",
      "type": "function"
    },
    {
      "inputs": [
        {
          "internalType": "address",
          "name": "_operator",
          "type": "address"
        }
      ],
      "name": "getAuthorizedOperator",
      "outputs": [
        {
          "internalType": "bool",
          "name": "",
          "type": "bool"
        }
      ],
      "stateMutability": "view",
      "type": "function"
    },
    {
      "inputs": [
        {
          "internalType": "address",
          "name": "token",
          "type": "address"
        }
      ],
      "name": "getFundBalance",
      "outputs": [
        {
          "internalType": "uint256",
          "name": "",
          "type": "uint256"
        }
      ],
      "stateMutability": "view",
      "type": "function"
    },
    {
      "inputs": [],
      "name": "getOwner",
      "outputs": [
        {
          "internalType": "address",
          "name": "",
          "type": "address"
        }
      ],
      "stateMutability": "view",
      "type": "function"
    },
    {
      "inputs": [],
      "name": "getTotalFundValue",
      "outputs": [
        {
          "internalType": "uint256",
          "name": "",
          "type": "uint256"
        }
      ],
      "stateMutability": "view",
      "type": "function"
    },
    {
      "inputs": [
        {
          "internalType": "uint256",
          "name": "billId",
          "type": "uint256"
        }
      ],
      "name": "handleBillCompletion",
      "outputs": [],
      "stateMutability": "nonpayable",
      "type": "function"
    },
    {
      "inputs": [],
      "name": "managementFeesCollected",
      "outputs": [
        {
          "internalType": "uint256",
          "name": "",
          "type": "uint256"
        }
      ],
      "stateMutability": "view",
      "type": "function"
    },
    {
      "inputs": [],
      "name": "offerConfig",
      "outputs": [
        {
          "internalType": "uint256",
          "name": "feePercentage",
          "type": "uint256"
        },
        {
          "internalType": "uint256",
          "name": "upfrontPercentage",
          "type": "uint256"
        },
        {
          "internalType": "uint256",
          "name": "ownerPercentage",
          "type": "uint256"
        },
        {
          "internalType": "uint256",
          "name": "minBillAmount",
          "type": "uint256"
        },
        {
          "internalType": "uint256",
          "name": "maxBillAmount",
          "type": "uint256"
        },
        {
          "internalType": "bool",
          "name": "autoOfferEnabled",
          "type": "bool"
        }
      ],
      "stateMutability": "view",
      "type": "function"
    },
    {
      "inputs": [
        {
          "internalType": "address",
          "name": "",
          "type": "address"
        },
        {
          "internalType": "address",
          "name": "",
          "type": "address"
        },
        {
          "internalType": "uint256",
          "name": "",
          "type": "uint256"
        },
        {
          "internalType": "bytes",
          "name": "",
          "type": "bytes"
        }
      ],
      "name": "onERC721Received",
      "outputs": [
        {
          "internalType": "bytes4",
          "name": "",
          "type": "bytes4"
        }
      ],
      "stateMutability": "pure",
      "type": "function"
    },
    {
      "inputs": [],
      "name": "pause",
      "outputs": [],
      "stateMutability": "nonpayable",
      "type": "function"
    },
    {
      "inputs": [],
      "name": "paused",
      "outputs": [
        {
          "internalType": "bool",
          "name": "",
          "type": "bool"
        }
      ],
      "stateMutability": "view",
      "type": "function"
    },
    {
      "inputs": [
        {
          "internalType": "uint256",
          "name": "billId",
          "type": "uint256"
        },
        {
          "internalType": "address",
          "name": "realDebtor",
          "type": "address"
        }
      ],
      "name": "payBillForDebtor",
      "outputs": [],
      "stateMutability": "nonpayable",
      "type": "function"
    },
    {
      "inputs": [
        {
          "internalType": "address",
          "name": "_admin",
          "type": "address"
        },
        {
          "internalType": "bool",
          "name": "status",
          "type": "bool"
        }
      ],
      "name": "setAuthorizedAdmin",
      "outputs": [],
      "stateMutability": "nonpayable",
      "type": "function"
    },
    {
      "inputs": [
        {
          "internalType": "address",
          "name": "_operator",
          "type": "address"
        },
        {
          "internalType": "bool",
          "name": "status",
          "type": "bool"
        }
      ],
      "name": "setAuthorizedOperator",
      "outputs": [],
      "stateMutability": "nonpayable",
      "type": "function"
    },
    {
      "inputs": [],
      "name": "totalEarnings",
      "outputs": [
        {
          "internalType": "uint256",
          "name": "",
          "type": "uint256"
        }
      ],
      "stateMutability": "view",
      "type": "function"
    },
    {
      "inputs": [],
      "name": "totalFundValue",
      "outputs": [
        {
          "internalType": "uint256",
          "name": "",
          "type": "uint256"
        }
      ],
      "stateMutability": "view",
      "type": "function"
    },
    {
      "inputs": [
        {
          "internalType": "address",
          "name": "newOwner",
          "type": "address"
        }
      ],
      "name": "transferOwnership",
      "outputs": [],
      "stateMutability": "nonpayable",
      "type": "function"
    },
    {
      "inputs": [],
      "name": "unpause",
      "outputs": [],
      "stateMutability": "nonpayable",
      "type": "function"
    },
    {
      "inputs": [
        {
          "components": [
            {
              "internalType": "uint256",
              "name": "managementFeePercentage",
              "type": "uint256"
            },
            {
              "internalType": "bool",
              "name": "acceptingDeposits",
              "type": "bool"
            }
          ],
          "internalType": "struct SimpleFund.FundConfig",
          "name": "newConfig",
          "type": "tuple"
        }
      ],
      "name": "updateFundConfig",
      "outputs": [],
      "stateMutability": "nonpayable",
      "type": "function"
    },
    {
      "inputs": [
        {
          "components": [
            {
              "internalType": "uint256",
              "name": "feePercentage",
              "type": "uint256"
            },
            {
              "internalType": "uint256",
              "name": "upfrontPercentage",
              "type": "uint256"
            },
            {
              "internalType": "uint256",
              "name": "ownerPercentage",
              "type": "uint256"
            },
            {
              "internalType": "uint256",
              "name": "minBillAmount",
              "type": "uint256"
            },
            {
              "internalType": "uint256",
              "name": "maxBillAmount",
              "type": "uint256"
            },
            {
              "internalType": "bool",
              "name": "autoOfferEnabled",
              "type": "bool"
            }
          ],
          "internalType": "struct SimpleFund.OfferConfig",
          "name": "newOfferConfig",
          "type": "tuple"
        }
      ],
      "name": "updateOfferConfig",
      "outputs": [],
      "stateMutability": "nonpayable",
      "type": "function"
    },
    {
      "inputs": [
        {
          "internalType": "uint256",
          "name": "amount",
          "type": "uint256"
        },
        {
          "internalType": "address",
          "name": "token",
          "type": "address"
        }
      ],
      "name": "withdraw",
      "outputs": [],
      "stateMutability": "nonpayable",
      "type": "function"
    },
    {
      "inputs": [
        {
          "internalType": "address",
          "name": "token",
          "type": "address"
        }
      ],
      "name": "withdrawManagementFees",
      "outputs": [],
      "stateMutability": "nonpayable",
      "type": "function"
    }
  ],
  "bytecode": "0x60e060405234801561001057600080fd5b506040516136b53803806136b583398101604081905261002f91610259565b600160008190558054610100600160a81b03191633610100021790556001600160a01b0385166100a65760405162461bcd60e51b815260206004820152601a60248201527f496e76616c696420666163746f72696e6720636f6e747261637400000000000060448201526064015b60405180910390fd5b6001600160a01b0384166100fc5760405162461bcd60e51b815260206004820152601460248201527f496e76616c696420555344432061646472657373000000000000000000000000604482015260640161009d565b6001600160a01b0383166101525760405162461bcd60e51b815260206004820152601460248201527f496e76616c696420555344542061646472657373000000000000000000000000604482015260640161009d565b6001600160a01b03948516608090815293851660a09081529290941660c05280516004556020908101516005805491151560ff199283161790558451600655908401516007556040840151600855606084015160095591830151600a559190910151600b80549115159190921617905561033a565b80516001600160a01b03811681146101de57600080fd5b919050565b604080519081016001600160401b038111828210171561021357634e487b7160e01b600052604160045260246000fd5b60405290565b60405160c081016001600160401b038111828210171561021357634e487b7160e01b600052604160045260246000fd5b805180151581146101de57600080fd5b600080600080600085870361016081121561027357600080fd5b61027c876101c7565b955061028a602088016101c7565b9450610298604088016101c7565b93506040605f19820112156102ac57600080fd5b6102b46101e3565b606088015181526102c760808901610249565b6020820152925060c0609f19820112156102e057600080fd5b506102e9610219565b60a0870151815260c0870151602082015260e08701516040820152610100870151606082015261012087015160808201526103276101408801610249565b60a0820152809150509295509295909350565b60805160a05160c05161329d610418600039600081816104690152818161068501528181610cef015281816116ea01528181611c780152611ec801526000818161039b0152818161064a01528181610cb4015281816116af01528181611c3d0152611e8d01526000818161051e01528181610918015281816109b701528181610a6c01528181610b0b01528181610ed80152818161100c015281816110f4015281816111d7015281816113cb0152818161145f01528181611d2101528181612062015281816122d8015281816123a60152612809015261329d6000f3fe608060405234801561001057600080fd5b50600436106102045760003560e01c8063893d20e81161011a578063b5d2bbb3116100ad578063e28d1d2e1161007c578063e28d1d2e146104e0578063ee6e233214610506578063ee9f097e14610519578063f048056e14610540578063f2fde38b1461059057600080fd5b8063b5d2bbb314610451578063c54e44eb14610464578063cb3512441461048b578063d6d11c7f146104b757600080fd5b8063a3184939116100e9578063a3184939146103f2578063a81e0c6614610415578063ad60ffcc14610435578063b423b79f1461043e57600080fd5b8063893d20e81461036c57806389a302711461039657806390fe3e32146103bd57806395457a05146103e957600080fd5b80633f4ba83a1161019d57806371c3a4b11161016c57806371c3a4b114610318578063788f737d1461032b5780637da34a3e1461033e5780638032a360146103515780638456cb591461036457600080fd5b80633f4ba83a146102d35780635c975abb146102db5780635ef9ef86146102f25780636e553f651461030557600080fd5b806308a91f88116101d957806308a91f8814610277578063150b7a021461027f5780632df3eba4146102b75780633bb0093e146102c057600080fd5b8062a597e514610209578062f714ce1461022f5780630278fffc1461024457806304224c5414610264575b600080fd5b61021c610217366004612c39565b6105a3565b6040519081526020015b60405180910390f35b61024261023d366004612cad565b610c3d565b005b61021c610252366004612cdd565b60116020526000908152604090205481565b610242610272366004612cdd565b610e4e565b600c5461021c565b61029e61028d366004612cf6565b630a85bd0160e11b95945050505050565b6040516001600160e01b03199091168152602001610226565b61021c600d5481565b6102426102ce366004612cad565b611167565b6102426114d7565b60015460ff165b6040519015158152602001610226565b610242610300366004612da5565b61152e565b610242610313366004612cad565b6115c2565b610242610326366004612e10565b6117d3565b610242610339366004612e10565b61195c565b61024261034c366004612cdd565b611ae8565b61021c61035f366004612e3e565b611b50565b610242611dff565b60015461010090046001600160a01b03165b6040516001600160a01b039091168152602001610226565b61037e7f000000000000000000000000000000000000000000000000000000000000000081565b6102e26103cb366004612e88565b6001600160a01b031660009081526003602052604090205460ff1690565b61021c600e5481565b6102e2610400366004612cdd565b60106020526000908152604090205460ff1681565b61021c610423366004612e88565b600f6020526000908152604090205481565b61021c600c5481565b61024261044c366004612e88565b611e54565b61024261045f366004612cdd565b611f88565b61037e7f000000000000000000000000000000000000000000000000000000000000000081565b6102e2610499366004612e88565b6001600160a01b031660009081526002602052604090205460ff1690565b61021c6104c5366004612e88565b6001600160a01b03166000908152600f602052604090205490565b6004546005546104f1919060ff1682565b60408051928352901515602083015201610226565b610242610514366004612eac565b61247b565b61037e7f000000000000000000000000000000000000000000000000000000000000000081565b600654600754600854600954600a54600b5461056195949392919060ff1686565b6040805196875260208701959095529385019290925260608401526080830152151560a082015260c001610226565b61024261059e366004612e88565b61252e565b60015460009061010090046001600160a01b031633148015906105d657503360009081526002602052604090205460ff16155b80156105f257503360009081526003602052604090205460ff16155b1561060f576040516282b42960e81b815260040160405180910390fd5b6106176126ff565b61061f612729565b600085116106485760405162461bcd60e51b815260040161063f90612f15565b60405180910390fd5b7f00000000000000000000000000000000000000000000000000000000000000006001600160a01b0316836001600160a01b031614806106b957507f00000000000000000000000000000000000000000000000000000000000000006001600160a01b0316836001600160a01b0316145b6106fe5760405162461bcd60e51b81526020600482015260166024820152752ab739bab83837b93a32b21039ba30b13632b1b7b4b760511b604482015260640161063f565b42841161074d5760405162461bcd60e51b815260206004820152601e60248201527f4475652064617465206d75737420626520696e20746865206675747572650000604482015260640161063f565b81516064101561079f5760405162461bcd60e51b815260206004820152601760248201527f4665652070657263656e7461676520746f6f2068696768000000000000000000604482015260640161063f565b6064826020015111156107f45760405162461bcd60e51b815260206004820152601b60248201527f557066726f6e742070657263656e7461676520746f6f20686967680000000000604482015260640161063f565b6064826040015111156108495760405162461bcd60e51b815260206004820152601960248201527f4f776e65722070657263656e7461676520746f6f206869676800000000000000604482015260640161063f565b6000606483602001518761085d9190612f62565b6108679190612f7f565b6001600160a01b0385166000908152600f60205260409020549091508111156108e85760405162461bcd60e51b815260206004820152602d60248201527f496e73756666696369656e742066756e642062616c616e636520666f7220757060448201526c199c9bdb9d081c185e5b595b9d609a1b606482015260840161063f565b60405163360e550760e11b815260048101879052602481018690526001600160a01b0385811660448301526000917f000000000000000000000000000000000000000000000000000000000000000090911690636c1caa0e906064016020604051808303816000875af1158015610963573d6000803e3d6000fd5b505050506040513d601f19601f820116820180604052508101906109879190612fa1565b60008181526010602052604090819020805460ff191660011790555163095ea7b360e01b81526001600160a01b037f000000000000000000000000000000000000000000000000000000000000000081166004830152602482018590529192509086169063095ea7b3906044016020604051808303816000875af1158015610a13573d6000803e3d6000fd5b505050506040513d601f19601f82011682018060405250810190610a379190612fba565b506040805163cd4e0a0560e01b81526004810183905285516024820152602086015160448201529085015160648201526000907f00000000000000000000000000000000000000000000000000000000000000006001600160a01b03169063cd4e0a05906084016020604051808303816000875af1158015610abd573d6000803e3d6000fd5b505050506040513d601f19601f82011682018060405250810190610ae19190612fa1565b600083815260116020526040908190208290555163c815729d60e01b8152600481018290529091507f00000000000000000000000000000000000000000000000000000000000000006001600160a01b03169063c815729d90602401600060405180830381600087803b158015610b5757600080fd5b505af1158015610b6b573d6000803e3d6000fd5b505050506001600160a01b0386166000908152600f602052604081208054859290610b97908490612fd7565b9250508190555082600c6000828254610bb09190612fd7565b9091555050604051888152309083907fbb5092a4aca5e6f16b116221da7ba1f8c803e9340adefe0134790aa910e0cfee9060200160405180910390a380827f976beaba3631459c97e9290d78fdbca69cc1b5111bc917f7fd4da50f2bfea17085604051610c1f91815260200190565b60405180910390a350915050610c356001600055565b949350505050565b60015461010090046001600160a01b03163314801590610c6d57503360009081526002602052604090205460ff16155b15610c8a576040516282b42960e81b815260040160405180910390fd5b610c926126ff565b60008211610cb25760405162461bcd60e51b815260040161063f90612f15565b7f00000000000000000000000000000000000000000000000000000000000000006001600160a01b0316816001600160a01b03161480610d2357507f00000000000000000000000000000000000000000000000000000000000000006001600160a01b0316816001600160a01b0316145b610d3f5760405162461bcd60e51b815260040161063f90612fea565b6001600160a01b0381166000908152600f6020526040902054821115610da35760405162461bcd60e51b8152602060048201526019602482015278496e73756666696369656e742066756e642062616c616e636560381b604482015260640161063f565b81600c6000828254610db59190612fd7565b90915550506001600160a01b0381166000908152600f602052604081208054849290610de2908490612fd7565b90915550610dfc90506001600160a01b038216338461274d565b604080518381526001600160a01b038316602082015233917fe9171aeff46c37ab955b8aff908e14ae9732bd06634fa131226cfe5c25bfd2fb91015b60405180910390a2610e4a6001600055565b5050565b60015461010090046001600160a01b03163314801590610e7e57503360009081526002602052604090205460ff16155b8015610e9a57503360009081526003602052604090205460ff16155b15610eb7576040516282b42960e81b815260040160405180910390fd5b610ebf6126ff565b6040516322bc934560e11b8152600481018290526000907f00000000000000000000000000000000000000000000000000000000000000006001600160a01b031690634579268a9060240161010060405180830381865afa158015610f28573d6000803e3d6000fd5b505050506040513d601f19601f82011682018060405250810190610f4c9190613060565b8051909150600003610f975760405162461bcd60e51b815260206004820152601460248201527313d999995c88191bd95cc81b9bdd08195e1a5cdd60621b604482015260640161063f565b8060a001516003811115610fad57610fad6130da565b15610fed5760405162461bcd60e51b815260206004820152601060248201526f4f66666572206e6f742061637469766560801b604482015260640161063f565b60208101516040516331a9108f60e11b81526000916001600160a01b037f00000000000000000000000000000000000000000000000000000000000000001691636352211e916110439160040190815260200190565b602060405180830381865afa158015611060573d6000803e3d6000fd5b505050506040513d601f19601f8201168201806040525081019061108491906130f0565b90506001600160a01b03811630146110de5760405162461bcd60e51b815260206004820152601960248201527f46756e6420646f6573206e6f74206f776e20746865204e465400000000000000604482015260640161063f565b60405163c815729d60e01b8152600481018490527f00000000000000000000000000000000000000000000000000000000000000006001600160a01b03169063c815729d90602401600060405180830381600087803b15801561114057600080fd5b505af1158015611154573d6000803e3d6000fd5b5050505050506111646001600055565b50565b61116f6126ff565b6001600160a01b0381166111be5760405162461bcd60e51b8152602060048201526016602482015275496e76616c696420646562746f72206164647265737360501b604482015260640161063f565b6040516358e6837360e11b8152600481018390526000907f00000000000000000000000000000000000000000000000000000000000000006001600160a01b03169063b1cd06e6906024016101a060405180830381865afa158015611227573d6000803e3d6000fd5b505050506040513d601f19601f8201168201806040525081019061124b9190613125565b80519091506000036112955760405162461bcd60e51b8152602060048201526013602482015272109a5b1b08191bd95cc81b9bdd08195e1a5cdd606a1b604482015260640161063f565b60208101516001600160a01b031630146112ea5760405162461bcd60e51b8152602060048201526016602482015275233ab7321034b9903737ba103a3432903232b13a37b960511b604482015260640161063f565b336001600160a01b0383161461134c5760405162461bcd60e51b815260206004820152602160248201527f4f6e6c79207265616c20646562746f722063616e20706179207468652062696c6044820152601b60fa1b606482015260840161063f565b6113748230836080015184606001516001600160a01b03166127b1909392919063ffffffff16565b608081015160608201516001600160a01b03166000908152600f6020526040812080549091906113a59084906131e0565b90915550506060810151608082015160405163095ea7b360e01b81526001600160a01b037f000000000000000000000000000000000000000000000000000000000000000081166004830152602482019290925291169063095ea7b3906044016020604051808303816000875af1158015611424573d6000803e3d6000fd5b505050506040513d601f19601f820116820180604052508101906114489190612fba565b5060405163fb4de28360e01b8152600481018490527f00000000000000000000000000000000000000000000000000000000000000006001600160a01b03169063fb4de28390602401600060405180830381600087803b1580156114ab57600080fd5b505af11580156114bf573d6000803e3d6000fd5b505050506114cc836127f0565b50610e4a6001600055565b60015461010090046001600160a01b0316331480159061150757503360009081526002602052604090205460ff16155b15611524576040516282b42960e81b815260040160405180910390fd5b61152c612a69565b565b60015461010090046001600160a01b0316331480159061155e57503360009081526002602052604090205460ff16155b1561157b576040516282b42960e81b815260040160405180910390fd5b805160045560208101516005805460ff19169115159190911790556040517f8c191de7e47dfd8dbfd821a6f4dd303664e7ae97f1cbe824c1aedede09d2801590600090a150565b60015461010090046001600160a01b031633148015906115f257503360009081526002602052604090205460ff16155b801561160e57503360009081526003602052604090205460ff16155b1561162b576040516282b42960e81b815260040160405180910390fd5b6116336126ff565b61163b612729565b60055460ff1661168d5760405162461bcd60e51b815260206004820152601b60248201527f46756e64206e6f7420616363657074696e67206465706f736974730000000000604482015260640161063f565b600082116116ad5760405162461bcd60e51b815260040161063f90612f15565b7f00000000000000000000000000000000000000000000000000000000000000006001600160a01b0316816001600160a01b0316148061171e57507f00000000000000000000000000000000000000000000000000000000000000006001600160a01b0316816001600160a01b0316145b61173a5760405162461bcd60e51b815260040161063f90612fea565b61174f6001600160a01b0382163330856127b1565b81600c600082825461176191906131e0565b90915550506001600160a01b0381166000908152600f60205260408120805484929061178e9084906131e0565b9091555050604080518381526001600160a01b038316602082015233917fdf4dcf17030d087ed1d90ed3c90719c7260706c1c4a88505dd2d0a982887cf439101610e38565b60015461010090046001600160a01b0316331480159061180357503360009081526002602052604090205460ff16155b15611820576040516282b42960e81b815260040160405180910390fd5b6001600160a01b03821661188e5760405162461bcd60e51b815260206004820152602f60248201527f417574686f72697a65642053797374656d3a2041646d696e206164647265737360448201526e0818d85b9b9bdd081899481b9d5b1b608a1b606482015260840161063f565b6001600160a01b03821660009081526003602052604090205460ff161561190e5760405162461bcd60e51b815260206004820152602e60248201527f417574686f72697a65642053797374656d3a2041646d696e2063616e6e6f742060448201526d31329030b71037b832b930ba37b960911b606482015260840161063f565b6001600160a01b038216600081815260026020526040808220805460ff1916851515179055517f5a272403b402d892977df56625f4164ccaf70ca3863991c43ecfe76a6905b0a19190a25050565b60015461010090046001600160a01b0316331480159061198c57503360009081526002602052604090205460ff16155b156119a9576040516282b42960e81b815260040160405180910390fd5b6001600160a01b038216611a1a5760405162461bcd60e51b815260206004820152603260248201527f417574686f72697a65642053797374656d3a204f70657261746f722061646472604482015271195cdcc818d85b9b9bdd081899481b9d5b1b60721b606482015260840161063f565b6001600160a01b03821660009081526002602052604090205460ff1615611a9a5760405162461bcd60e51b815260206004820152602e60248201527f417574686f72697a65642053797374656d3a204f70657261746f722063616e6e60448201526d37ba1031329030b71030b236b4b760911b606482015260840161063f565b6001600160a01b038216600081815260036020526040808220805460ff1916851515179055517fdbebfba65bd6398fb722063efc10c99f624f9cd8ba657201056af918a676d5ee9190a25050565b60015461010090046001600160a01b03163314801590611b1857503360009081526002602052604090205460ff16155b15611b35576040516282b42960e81b815260040160405180910390fd5b611b3d6126ff565b611b46816127f0565b6111646001600055565b60015460009061010090046001600160a01b03163314801590611b8357503360009081526002602052604090205460ff16155b8015611b9f57503360009081526003602052604090205460ff16155b15611bbc576040516282b42960e81b815260040160405180910390fd5b611bc46126ff565b611bcc612729565b6001600160a01b038216611c1b5760405162461bcd60e51b8152602060048201526016602482015275496e76616c696420646562746f72206164647265737360501b604482015260640161063f565b60008511611c3b5760405162461bcd60e51b815260040161063f90612f15565b7f00000000000000000000000000000000000000000000000000000000000000006001600160a01b0316836001600160a01b03161480611cac57507f00000000000000000000000000000000000000000000000000000000000000006001600160a01b0316836001600160a01b0316145b611cf15760405162461bcd60e51b81526020600482015260166024820152752ab739bab83837b93a32b21039ba30b13632b1b7b4b760511b604482015260640161063f565b60405163360e550760e11b815260048101869052602481018590526001600160a01b0384811660448301526000917f000000000000000000000000000000000000000000000000000000000000000090911690636c1caa0e906064016020604051808303816000875af1158015611d6c573d6000803e3d6000fd5b505050506040513d601f19601f82011682018060405250810190611d909190612fa1565b60008181526010602052604090819020805460ff19166001179055519091506001600160a01b0384169082907fbb5092a4aca5e6f16b116221da7ba1f8c803e9340adefe0134790aa910e0cfee90611deb908a815260200190565b60405180910390a39050610c356001600055565b60015461010090046001600160a01b03163314801590611e2f57503360009081526002602052604090205460ff16155b15611e4c576040516282b42960e81b815260040160405180910390fd5b61152c612abb565b60015461010090046001600160a01b03163314611e83576040516282b42960e81b815260040160405180910390fd5b611e8b6126ff565b7f00000000000000000000000000000000000000000000000000000000000000006001600160a01b0316816001600160a01b03161480611efc57507f00000000000000000000000000000000000000000000000000000000000000006001600160a01b0316816001600160a01b0316145b611f185760405162461bcd60e51b815260040161063f90612fea565b6000600e5411611f605760405162461bcd60e51b81526020600482015260136024820152724e6f206665657320746f20776974686472617760681b604482015260640161063f565b600e80546000909155611f7d6001600160a01b038316338361274d565b506111646001600055565b60015461010090046001600160a01b03163314801590611fb857503360009081526002602052604090205460ff16155b8015611fd457503360009081526003602052604090205460ff16155b15611ff1576040516282b42960e81b815260040160405180910390fd5b611ff96126ff565b612001612729565b600b5460ff166120495760405162461bcd60e51b8152602060048201526013602482015272105d5d1bcb5bd999995c88191a5cd8589b1959606a1b604482015260640161063f565b604051632bfac9f160e01b8152600481018290526000907f00000000000000000000000000000000000000000000000000000000000000006001600160a01b031690632bfac9f19060240160c060405180830381865afa1580156120b1573d6000803e3d6000fd5b505050506040513d601f19601f820116820180604052508101906120d591906131f3565b80519091506000036121295760405162461bcd60e51b815260206004820152601b60248201527f42696c6c207265717565737420646f6573206e6f742065786973740000000000604482015260640161063f565b8060a00151600281111561213f5761213f6130da565b156121845760405162461bcd60e51b81526020600482015260156024820152742134b636103932b8bab2b9ba103737ba1037b832b760591b604482015260640161063f565b600954606082015110156121da5760405162461bcd60e51b815260206004820152601960248201527f42696c6c20616d6f756e742062656c6f77206d696e696d756d00000000000000604482015260640161063f565b600a54606082015111156122305760405162461bcd60e51b815260206004820152601960248201527f42696c6c20616d6f756e742061626f7665206d6178696d756d00000000000000604482015260640161063f565b6000606460066001015483606001516122499190612f62565b6122539190612f7f565b6040808401516001600160a01b03166000908152600f60205220549091508111156122bc5760405162461bcd60e51b8152602060048201526019602482015278496e73756666696369656e742066756e642062616c616e636560381b604482015260640161063f565b604082810151905163095ea7b360e01b81526001600160a01b037f000000000000000000000000000000000000000000000000000000000000000081166004830152602482018490529091169063095ea7b3906044016020604051808303816000875af1158015612331573d6000803e3d6000fd5b505050506040513d601f19601f820116820180604052508101906123559190612fba565b5060408051606081018252600654815260075460208201908152600854828401908152925163cd4e0a0560e01b815260048101879052825160248201529051604482015291516064830152906000907f00000000000000000000000000000000000000000000000000000000000000006001600160a01b03169063cd4e0a05906084016020604051808303816000875af11580156123f7573d6000803e3d6000fd5b505050506040513d601f19601f8201168201806040525081019061241b9190612fa1565b6000868152601160205260409081902082905551909150819086907f976beaba3631459c97e9290d78fdbca69cc1b5111bc917f7fd4da50f2bfea170906124659087815260200190565b60405180910390a3505050506111646001600055565b60015461010090046001600160a01b031633148015906124ab57503360009081526002602052604090205460ff16155b156124c8576040516282b42960e81b815260040160405180910390fd5b8051600655602081015160075560408082015160085560608201516009556080820151600a5560a0820151600b805460ff1916911515919091179055517f6d56ac043c441daf32329b00aacd6db754ad1abd2117c5b6aebf95102ebe65f990600090a150565b60015461010090046001600160a01b0316331461255d576040516282b42960e81b815260040160405180910390fd5b6001600160a01b0381166125c75760405162461bcd60e51b815260206004820152602b60248201527f417574686f72697a65642053797374656d3a204e6577206f776e65722063616e60448201526a1b9bdd081899481b9d5b1b60aa1b606482015260840161063f565b6001546001600160a01b036101009091048116908216036126505760405162461bcd60e51b815260206004820152603c60248201527f417574686f72697a65642053797374656d3a204e6577206f776e65722063616e60448201527f6e6f74206265207468652073616d65206173206f6c64206f776e657200000000606482015260840161063f565b60015461010090046001600160a01b031660009081526003602052604090205460ff16156126d75760405162461bcd60e51b815260206004820152602e60248201527f417574686f72697a65642053797374656d3a204f776e65722063616e6e6f742060448201526d31329030b71037b832b930ba37b960911b606482015260840161063f565b600180546001600160a01b0390921661010002610100600160a81b0319909216919091179055565b60026000540361272257604051633ee5aeb560e01b815260040160405180910390fd5b6002600055565b60015460ff161561152c5760405163d93c066560e01b815260040160405180910390fd5b6040516001600160a01b038381166024830152604482018390526127ac91859182169063a9059cbb906064015b604051602081830303815290604052915060e01b6020820180516001600160e01b038381831617835250505050612af6565b505050565b6040516001600160a01b0384811660248301528381166044830152606482018390526127ea9186918216906323b872dd9060840161277a565b50505050565b6040516358e6837360e11b8152600481018290526000907f00000000000000000000000000000000000000000000000000000000000000006001600160a01b03169063b1cd06e6906024016101a060405180830381865afa158015612859573d6000803e3d6000fd5b505050506040513d601f19601f8201168201806040525081019061287d9190613125565b80519091506000036128c75760405162461bcd60e51b8152602060048201526013602482015272109a5b1b08191bd95cc81b9bdd08195e1a5cdd606a1b604482015260640161063f565b80610100015160028111156128de576128de6130da565b6001146129225760405162461bcd60e51b8152602060048201526012602482015271109a5b1b081b9bdd0818dbdb5c1b195d195960721b604482015260640161063f565b6000606482610120015160400151836080015161293f9190612f62565b6129499190612f7f565b90506000612710600460000154836129619190612f62565b61296b9190612f7f565b905060006129798284612fd7565b60608501516001600160a01b03166000908152600f60205260408120805492935083929091906129aa9084906131e0565b9250508190555080600c60008282546129c391906131e0565b9250508190555080600d60008282546129dc91906131e0565b9250508190555081600e60008282546129f591906131e0565b909155505060405183815285907fc95485031ab8a7e2b9e325c6bdaafec43650b4434d8e819d55451d8a9826fb8a9060200160405180910390a26040518281527fc8891b429f51b964c41c037370eaa5d4cb3d57c748e1569200de5fb0f37acb3b9060200160405180910390a15050505050565b612a71612b67565b6001805460ff191690557f5db9ee0a495bf2e6ff9c91a7834c1ba4fdd244a5e8aa4e537bd38aeae4b073aa335b6040516001600160a01b03909116815260200160405180910390a1565b612ac3612729565b6001805460ff1916811790557f62e78cea01bee320cd4e420270b5ea74000d11b0c9f74754ebdbfc544b05a25833612a9e565b600080602060008451602086016000885af180612b19576040513d6000823e3d81fd5b50506000513d91508115612b31578060011415612b3e565b6001600160a01b0384163b155b156127ea57604051635274afe760e01b81526001600160a01b038516600482015260240161063f565b60015460ff1661152c57604051638dfc202b60e01b815260040160405180910390fd5b6001600160a01b038116811461116457600080fd5b6040516060810167ffffffffffffffff81118282101715612bd057634e487b7160e01b600052604160045260246000fd5b60405290565b60405160c0810167ffffffffffffffff81118282101715612bd057634e487b7160e01b600052604160045260246000fd5b604051610160810167ffffffffffffffff81118282101715612bd057634e487b7160e01b600052604160045260246000fd5b60008060008084860360c0811215612c5057600080fd5b85359450602086013593506040860135612c6981612b8a565b92506060605f1982011215612c7d57600080fd5b50612c86612b9f565b606086013581526080860135602082015260a0909501356040860152509194909350909190565b60008060408385031215612cc057600080fd5b823591506020830135612cd281612b8a565b809150509250929050565b600060208284031215612cef57600080fd5b5035919050565b600080600080600060808688031215612d0e57600080fd5b8535612d1981612b8a565b94506020860135612d2981612b8a565b935060408601359250606086013567ffffffffffffffff811115612d4c57600080fd5b8601601f81018813612d5d57600080fd5b803567ffffffffffffffff811115612d7457600080fd5b886020828401011115612d8657600080fd5b959894975092955050506020019190565b801515811461116457600080fd5b60006040828403128015612db857600080fd5b5060408051600091810167ffffffffffffffff81118282101715612dea57634e487b7160e01b83526041600452602483fd5b6040528335815260208401359150612e0182612d97565b60208101919091529392505050565b60008060408385031215612e2357600080fd5b8235612e2e81612b8a565b91506020830135612cd281612d97565b60008060008060808587031215612e5457600080fd5b84359350602085013592506040850135612e6d81612b8a565b91506060850135612e7d81612b8a565b939692955090935050565b600060208284031215612e9a57600080fd5b8135612ea581612b8a565b9392505050565b600060c0828403128015612ebf57600080fd5b506000612eca612bd6565b833581526020808501359082015260408085013590820152606080850135908201526080808501359082015260a08401359150612f0682612d97565b60a08101919091529392505050565b6020808252601d908201527f416d6f756e74206d7573742062652067726561746572207468616e2030000000604082015260600190565b634e487b7160e01b600052601160045260246000fd5b8082028115828204841417612f7957612f79612f4c565b92915050565b600082612f9c57634e487b7160e01b600052601260045260246000fd5b500490565b600060208284031215612fb357600080fd5b5051919050565b600060208284031215612fcc57600080fd5b8151612ea581612d97565b81810381811115612f7957612f79612f4c565b6020808252601190820152702ab739bab83837b93a32b2103a37b5b2b760791b604082015260600190565b805161302081612b8a565b919050565b60006060828403121561303757600080fd5b61303f612b9f565b82518152602080840151908201526040928301519281019290925250919050565b600061010082840312801561307457600080fd5b50600061307f612bd6565b8351815260208085015190820152604084015161309b81612b8a565b60408201526130ad8560608601613025565b606082015260c0840151608082015260e0840151600481106130cd578283fd5b60a0820152949350505050565b634e487b7160e01b600052602160045260246000fd5b60006020828403121561310257600080fd5b8151612ea581612b8a565b6003811061116457600080fd5b80516130208161310d565b60006101a082840312801561313957600080fd5b506000613144612c07565b8351815261315460208501613015565b602082015261316560408501613015565b604082015261317660608501613015565b60608201526080848101519082015260a0808501519082015260c0808501519082015260e080850151908201526131b0610100850161311a565b6101008201526131c4856101208601613025565b6101208201526101809390930151610140840152509092915050565b80820180821115612f7957612f79612f4c565b600060c082840312801561320657600080fd5b5061320f612bd6565b82518152602083015161322181612b8a565b6020820152604083015161323481612b8a565b6040820152606083810151908201526080808401519082015260a083015161325b8161310d565b60a0820152939250505056fea2646970667358221220803e6fb7295f21ec465f8b18a06a05905bba0bf4f85edbcda3562c3acfda2cf464736f6c634300081c0033",
  "linkReferences": {},
  "deployedLinkReferences": {}
}