{
  "_format": "hh-sol-artifact-1",
  "contractName": "FactoringContract",
  "sourceName": "contracts/FactoringContract.sol",
  "abi": [
    {
      "inputs": [
        {
          "internalType": "address",
          "name": "_usdc",
          "type": "address"
        },
        {
          "internalType": "address",
          "name": "_usdt",
          "type": "address"
        }
      ],
      "stateMutability": "nonpayable",
      "type": "constructor"
    },
    {
      "inputs": [
        {
          "internalType": "address",
          "name": "sender",
          "type": "address"
        },
        {
          "internalType": "uint256",
          "name": "tokenId",
          "type": "uint256"
        },
        {
          "internalType": "address",
          "name": "owner",
          "type": "address"
        }
      ],
      "name": "ERC721IncorrectOwner",
      "type": "error"
    },
    {
      "inputs": [
        {
          "internalType": "address",
          "name": "operator",
          "type": "address"
        },
        {
          "internalType": "uint256",
          "name": "tokenId",
          "type": "uint256"
        }
      ],
      "name": "ERC721InsufficientApproval",
      "type": "error"
    },
    {
      "inputs": [
        {
          "internalType": "address",
          "name": "approver",
          "type": "address"
        }
      ],
      "name": "ERC721InvalidApprover",
      "type": "error"
    },
    {
      "inputs": [
        {
          "internalType": "address",
          "name": "operator",
          "type": "address"
        }
      ],
      "name": "ERC721InvalidOperator",
      "type": "error"
    },
    {
      "inputs": [
        {
          "internalType": "address",
          "name": "owner",
          "type": "address"
        }
      ],
      "name": "ERC721InvalidOwner",
      "type": "error"
    },
    {
      "inputs": [
        {
          "internalType": "address",
          "name": "receiver",
          "type": "address"
        }
      ],
      "name": "ERC721InvalidReceiver",
      "type": "error"
    },
    {
      "inputs": [
        {
          "internalType": "address",
          "name": "sender",
          "type": "address"
        }
      ],
      "name": "ERC721InvalidSender",
      "type": "error"
    },
    {
      "inputs": [
        {
          "internalType": "uint256",
          "name": "tokenId",
          "type": "uint256"
        }
      ],
      "name": "ERC721NonexistentToken",
      "type": "error"
    },
    {
      "inputs": [],
      "name": "EnforcedPause",
      "type": "error"
    },
    {
      "inputs": [],
      "name": "ExpectedPause",
      "type": "error"
    },
    {
      "inputs": [],
      "name": "InvalidArrayLength",
      "type": "error"
    },
    {
      "inputs": [],
      "name": "ReentrancyGuardReentrantCall",
      "type": "error"
    },
    {
      "inputs": [
        {
          "internalType": "address",
          "name": "token",
          "type": "address"
        }
      ],
      "name": "SafeERC20FailedOperation",
      "type": "error"
    },
    {
      "inputs": [],
      "name": "Unauthorized",
      "type": "error"
    },
    {
      "anonymous": false,
      "inputs": [
        {
          "indexed": true,
          "internalType": "address",
          "name": "owner",
          "type": "address"
        },
        {
          "indexed": true,
          "internalType": "address",
          "name": "approved",
          "type": "address"
        },
        {
          "indexed": true,
          "internalType": "uint256",
          "name": "tokenId",
          "type": "uint256"
        }
      ],
      "name": "Approval",
      "type": "event"
    },
    {
      "anonymous": false,
      "inputs": [
        {
          "indexed": true,
          "internalType": "address",
          "name": "owner",
          "type": "address"
        },
        {
          "indexed": true,
          "internalType": "address",
          "name": "operator",
          "type": "address"
        },
        {
          "indexed": false,
          "internalType": "bool",
          "name": "approved",
          "type": "bool"
        }
      ],
      "name": "ApprovalForAll",
      "type": "event"
    },
    {
      "anonymous": false,
      "inputs": [
        {
          "indexed": true,
          "internalType": "uint256",
          "name": "billId",
          "type": "uint256"
        },
        {
          "indexed": false,
          "internalType": "uint256",
          "name": "finalAmount",
          "type": "uint256"
        }
      ],
      "name": "BillCompleted",
      "type": "event"
    },
    {
      "anonymous": false,
      "inputs": [
        {
          "indexed": true,
          "internalType": "uint256",
          "name": "billId",
          "type": "uint256"
        },
        {
          "indexed": true,
          "internalType": "address",
          "name": "debtor",
          "type": "address"
        },
        {
          "indexed": true,
          "internalType": "address",
          "name": "lender",
          "type": "address"
        },
        {
          "indexed": false,
          "internalType": "uint256",
          "name": "amount",
          "type": "uint256"
        },
        {
          "indexed": false,
          "internalType": "address",
          "name": "stablecoin",
          "type": "address"
        }
      ],
      "name": "BillCreated",
      "type": "event"
    },
    {
      "anonymous": false,
      "inputs": [
        {
          "indexed": true,
          "internalType": "uint256",
          "name": "billId",
          "type": "uint256"
        },
        {
          "indexed": true,
          "internalType": "address",
          "name": "lastOwner",
          "type": "address"
        }
      ],
      "name": "BillNFTBurned",
      "type": "event"
    },
    {
      "anonymous": false,
      "inputs": [
        {
          "indexed": true,
          "internalType": "uint256",
          "name": "billRequestId",
          "type": "uint256"
        }
      ],
      "name": "BillRequestCancelled",
      "type": "event"
    },
    {
      "anonymous": false,
      "inputs": [
        {
          "indexed": true,
          "internalType": "uint256",
          "name": "billRequestId",
          "type": "uint256"
        },
        {
          "indexed": true,
          "internalType": "address",
          "name": "debtor",
          "type": "address"
        },
        {
          "indexed": false,
          "internalType": "uint256",
          "name": "amount",
          "type": "uint256"
        },
        {
          "indexed": false,
          "internalType": "address",
          "name": "stablecoin",
          "type": "address"
        }
      ],
      "name": "BillRequestCreated",
      "type": "event"
    },
    {
      "anonymous": false,
      "inputs": [
        {
          "indexed": false,
          "internalType": "uint256",
          "name": "feePercentage",
          "type": "uint256"
        },
        {
          "indexed": false,
          "internalType": "uint256",
          "name": "upfrontPercentage",
          "type": "uint256"
        },
        {
          "indexed": false,
          "internalType": "uint256",
          "name": "ownerPercentage",
          "type": "uint256"
        }
      ],
      "name": "DefaultConditionsUpdated",
      "type": "event"
    },
    {
      "anonymous": false,
      "inputs": [
        {
          "indexed": false,
          "internalType": "uint256",
          "name": "amount",
          "type": "uint256"
        },
        {
          "indexed": false,
          "internalType": "address",
          "name": "stablecoin",
          "type": "address"
        }
      ],
      "name": "FeesCollected",
      "type": "event"
    },
    {
      "anonymous": false,
      "inputs": [
        {
          "indexed": true,
          "internalType": "uint256",
          "name": "tokenId",
          "type": "uint256"
        },
        {
          "indexed": true,
          "internalType": "address",
          "name": "to",
          "type": "address"
        }
      ],
      "name": "NFTMinted",
      "type": "event"
    },
    {
      "anonymous": false,
      "inputs": [
        {
          "indexed": true,
          "internalType": "uint256",
          "name": "offerId",
          "type": "uint256"
        },
        {
          "indexed": true,
          "internalType": "uint256",
          "name": "billRequestId",
          "type": "uint256"
        },
        {
          "indexed": true,
          "internalType": "address",
          "name": "debtor",
          "type": "address"
        },
        {
          "indexed": false,
          "internalType": "address",
          "name": "lender",
          "type": "address"
        }
      ],
      "name": "OfferAccepted",
      "type": "event"
    },
    {
      "anonymous": false,
      "inputs": [
        {
          "indexed": true,
          "internalType": "uint256",
          "name": "offerId",
          "type": "uint256"
        },
        {
          "indexed": true,
          "internalType": "uint256",
          "name": "billRequestId",
          "type": "uint256"
        },
        {
          "indexed": true,
          "internalType": "address",
          "name": "lender",
          "type": "address"
        },
        {
          "indexed": false,
          "internalType": "uint256",
          "name": "upfrontAmount",
          "type": "uint256"
        }
      ],
      "name": "OfferCreated",
      "type": "event"
    },
    {
      "anonymous": false,
      "inputs": [
        {
          "indexed": true,
          "internalType": "uint256",
          "name": "offerId",
          "type": "uint256"
        },
        {
          "indexed": true,
          "internalType": "address",
          "name": "lender",
          "type": "address"
        }
      ],
      "name": "OfferWithdrawn",
      "type": "event"
    },
    {
      "anonymous": false,
      "inputs": [
        {
          "indexed": false,
          "internalType": "address",
          "name": "account",
          "type": "address"
        }
      ],
      "name": "Paused",
      "type": "event"
    },
    {
      "anonymous": false,
      "inputs": [
        {
          "indexed": true,
          "internalType": "address",
          "name": "depositor",
          "type": "address"
        },
        {
          "indexed": false,
          "internalType": "uint256",
          "name": "amount",
          "type": "uint256"
        },
        {
          "indexed": false,
          "internalType": "address",
          "name": "stablecoin",
          "type": "address"
        }
      ],
      "name": "PoolDeposit",
      "type": "event"
    },
    {
      "anonymous": false,
      "inputs": [
        {
          "indexed": true,
          "internalType": "address",
          "name": "withdrawer",
          "type": "address"
        },
        {
          "indexed": false,
          "internalType": "uint256",
          "name": "amount",
          "type": "uint256"
        },
        {
          "indexed": false,
          "internalType": "address",
          "name": "stablecoin",
          "type": "address"
        }
      ],
      "name": "PoolWithdraw",
      "type": "event"
    },
    {
      "anonymous": false,
      "inputs": [
        {
          "indexed": true,
          "internalType": "address",
          "name": "admin",
          "type": "address"
        }
      ],
      "name": "SetAdmin",
      "type": "event"
    },
    {
      "anonymous": false,
      "inputs": [
        {
          "indexed": true,
          "internalType": "address",
          "name": "authOperator",
          "type": "address"
        }
      ],
      "name": "SetAuthOperator",
      "type": "event"
    },
    {
      "anonymous": false,
      "inputs": [
        {
          "indexed": true,
          "internalType": "address",
          "name": "operator",
          "type": "address"
        }
      ],
      "name": "SetOperator",
      "type": "event"
    },
    {
      "anonymous": false,
      "inputs": [
        {
          "indexed": true,
          "internalType": "address",
          "name": "from",
          "type": "address"
        },
        {
          "indexed": true,
          "internalType": "address",
          "name": "to",
          "type": "address"
        },
        {
          "indexed": true,
          "internalType": "uint256",
          "name": "tokenId",
          "type": "uint256"
        }
      ],
      "name": "Transfer",
      "type": "event"
    },
    {
      "anonymous": false,
      "inputs": [
        {
          "indexed": false,
          "internalType": "address",
          "name": "account",
          "type": "address"
        }
      ],
      "name": "Unpaused",
      "type": "event"
    },
    {
      "inputs": [],
      "name": "BASIS_POINTS",
      "outputs": [
        {
          "internalType": "uint256",
          "name": "",
          "type": "uint256"
        }
      ],
      "stateMutability": "view",
      "type": "function"
    },
    {
      "inputs": [],
      "name": "USDC",
      "outputs": [
        {
          "internalType": "contract IERC20",
          "name": "",
          "type": "address"
        }
      ],
      "stateMutability": "view",
      "type": "function"
    },
    {
      "inputs": [],
      "name": "USDT",
      "outputs": [
        {
          "internalType": "contract IERC20",
          "name": "",
          "type": "address"
        }
      ],
      "stateMutability": "view",
      "type": "function"
    },
    {
      "inputs": [
        {
          "internalType": "uint256",
          "name": "offerId",
          "type": "uint256"
        }
      ],
      "name": "acceptOffer",
      "outputs": [],
      "stateMutability": "nonpayable",
      "type": "function"
    },
    {
      "inputs": [
        {
          "internalType": "address",
          "name": "to",
          "type": "address"
        },
        {
          "internalType": "uint256",
          "name": "tokenId",
          "type": "uint256"
        }
      ],
      "name": "approve",
      "outputs": [],
      "stateMutability": "nonpayable",
      "type": "function"
    },
    {
      "inputs": [
        {
          "internalType": "address",
          "name": "owner",
          "type": "address"
        }
      ],
      "name": "balanceOf",
      "outputs": [
        {
          "internalType": "uint256",
          "name": "",
          "type": "uint256"
        }
      ],
      "stateMutability": "view",
      "type": "function"
    },
    {
      "inputs": [
        {
          "internalType": "uint256",
          "name": "",
          "type": "uint256"
        },
        {
          "internalType": "uint256",
          "name": "",
          "type": "uint256"
        }
      ],
      "name": "billRequestOffers",
      "outputs": [
        {
          "internalType": "uint256",
          "name": "",
          "type": "uint256"
        }
      ],
      "stateMutability": "view",
      "type": "function"
    },
    {
      "inputs": [
        {
          "internalType": "uint256",
          "name": "",
          "type": "uint256"
        }
      ],
      "name": "billRequests",
      "outputs": [
        {
          "internalType": "uint256",
          "name": "id",
          "type": "uint256"
        },
        {
          "internalType": "address",
          "name": "debtor",
          "type": "address"
        },
        {
          "internalType": "address",
          "name": "stablecoin",
          "type": "address"
        },
        {
          "internalType": "uint256",
          "name": "totalAmount",
          "type": "uint256"
        },
        {
          "internalType": "uint256",
          "name": "dueDate",
          "type": "uint256"
        },
        {
          "internalType": "enum FactoringContract.BillRequestStatus",
          "name": "status",
          "type": "uint8"
        }
      ],
      "stateMutability": "view",
      "type": "function"
    },
    {
      "inputs": [
        {
          "internalType": "uint256",
          "name": "",
          "type": "uint256"
        }
      ],
      "name": "bills",
      "outputs": [
        {
          "internalType": "uint256",
          "name": "id",
          "type": "uint256"
        },
        {
          "internalType": "address",
          "name": "debtor",
          "type": "address"
        },
        {
          "internalType": "address",
          "name": "lender",
          "type": "address"
        },
        {
          "internalType": "address",
          "name": "stablecoin",
          "type": "address"
        },
        {
          "internalType": "uint256",
          "name": "totalAmount",
          "type": "uint256"
        },
        {
          "internalType": "uint256",
          "name": "upfrontPaid",
          "type": "uint256"
        },
        {
          "internalType": "uint256",
          "name": "remainingAmount",
          "type": "uint256"
        },
        {
          "internalType": "uint256",
          "name": "dueDate",
          "type": "uint256"
        },
        {
          "internalType": "enum FactoringContract.BillStatus",
          "name": "status",
          "type": "uint8"
        },
        {
          "components": [
            {
              "internalType": "uint256",
              "name": "feePercentage",
              "type": "uint256"
            },
            {
              "internalType": "uint256",
              "name": "upfrontPercentage",
              "type": "uint256"
            },
            {
              "internalType": "uint256",
              "name": "ownerPercentage",
              "type": "uint256"
            }
          ],
          "internalType": "struct FactoringContract.Conditions",
          "name": "conditions",
          "type": "tuple"
        },
        {
          "internalType": "uint256",
          "name": "acceptedOfferId",
          "type": "uint256"
        }
      ],
      "stateMutability": "view",
      "type": "function"
    },
    {
      "inputs": [
        {
          "internalType": "uint256",
          "name": "billRequestId",
          "type": "uint256"
        }
      ],
      "name": "cancelBillRequest",
      "outputs": [],
      "stateMutability": "nonpayable",
      "type": "function"
    },
    {
      "inputs": [
        {
          "internalType": "uint256",
          "name": "billId",
          "type": "uint256"
        }
      ],
      "name": "completeBill",
      "outputs": [],
      "stateMutability": "payable",
      "type": "function"
    },
    {
      "inputs": [
        {
          "internalType": "uint256",
          "name": "totalAmount",
          "type": "uint256"
        },
        {
          "internalType": "uint256",
          "name": "dueDate",
          "type": "uint256"
        },
        {
          "internalType": "address",
          "name": "stablecoin",
          "type": "address"
        }
      ],
      "name": "createBillRequest",
      "outputs": [
        {
          "internalType": "uint256",
          "name": "",
          "type": "uint256"
        }
      ],
      "stateMutability": "nonpayable",
      "type": "function"
    },
    {
      "inputs": [
        {
          "internalType": "uint256",
          "name": "billRequestId",
          "type": "uint256"
        },
        {
          "components": [
            {
              "internalType": "uint256",
              "name": "feePercentage",
              "type": "uint256"
            },
            {
              "internalType": "uint256",
              "name": "upfrontPercentage",
              "type": "uint256"
            },
            {
              "internalType": "uint256",
              "name": "ownerPercentage",
              "type": "uint256"
            }
          ],
          "internalType": "struct FactoringContract.Conditions",
          "name": "conditions",
          "type": "tuple"
        }
      ],
      "name": "createOffer",
      "outputs": [
        {
          "internalType": "uint256",
          "name": "",
          "type": "uint256"
        }
      ],
      "stateMutability": "nonpayable",
      "type": "function"
    },
    {
      "inputs": [],
      "name": "defaultConditions",
      "outputs": [
        {
          "internalType": "uint256",
          "name": "feePercentage",
          "type": "uint256"
        },
        {
          "internalType": "uint256",
          "name": "upfrontPercentage",
          "type": "uint256"
        },
        {
          "internalType": "uint256",
          "name": "ownerPercentage",
          "type": "uint256"
        }
      ],
      "stateMutability": "view",
      "type": "function"
    },
    {
      "inputs": [
        {
          "internalType": "uint256",
          "name": "tokenId",
          "type": "uint256"
        }
      ],
      "name": "getApproved",
      "outputs": [
        {
          "internalType": "address",
          "name": "",
          "type": "address"
        }
      ],
      "stateMutability": "view",
      "type": "function"
    },
    {
      "inputs": [
        {
          "internalType": "address",
          "name": "_admin",
          "type": "address"
        }
      ],
      "name": "getAuthorizedAdmin",
      "outputs": [
        {
          "internalType": "bool",
          "name": "",
          "type": "bool"
        }
      ],
      "stateMutability": "view",
      "type": "function"
    },
    {
      "inputs": [
        {
          "internalType": "address",
          "name": "_operator",
          "type": "address"
        }
      ],
      "name": "getAuthorizedOperator",
      "outputs": [
        {
          "internalType": "bool",
          "name": "",
          "type": "bool"
        }
      ],
      "stateMutability": "view",
      "type": "function"
    },
    {
      "inputs": [
        {
          "internalType": "uint256",
          "name": "billId",
          "type": "uint256"
        }
      ],
      "name": "getBill",
      "outputs": [
        {
          "components": [
            {
              "internalType": "uint256",
              "name": "id",
              "type": "uint256"
            },
            {
              "internalType": "address",
              "name": "debtor",
              "type": "address"
            },
            {
              "internalType": "address",
              "name": "lender",
              "type": "address"
            },
            {
              "internalType": "address",
              "name": "stablecoin",
              "type": "address"
            },
            {
              "internalType": "uint256",
              "name": "totalAmount",
              "type": "uint256"
            },
            {
              "internalType": "uint256",
              "name": "upfrontPaid",
              "type": "uint256"
            },
            {
              "internalType": "uint256",
              "name": "remainingAmount",
              "type": "uint256"
            },
            {
              "internalType": "uint256",
              "name": "dueDate",
              "type": "uint256"
            },
            {
              "internalType": "enum FactoringContract.BillStatus",
              "name": "status",
              "type": "uint8"
            },
            {
              "components": [
                {
                  "internalType": "uint256",
                  "name": "feePercentage",
                  "type": "uint256"
                },
                {
                  "internalType": "uint256",
                  "name": "upfrontPercentage",
                  "type": "uint256"
                },
                {
                  "internalType": "uint256",
                  "name": "ownerPercentage",
                  "type": "uint256"
                }
              ],
              "internalType": "struct FactoringContract.Conditions",
              "name": "conditions",
              "type": "tuple"
            },
            {
              "internalType": "uint256",
              "name": "acceptedOfferId",
              "type": "uint256"
            }
          ],
          "internalType": "struct FactoringContract.Bill",
          "name": "",
          "type": "tuple"
        }
      ],
      "stateMutability": "view",
      "type": "function"
    },
    {
      "inputs": [
        {
          "internalType": "uint256",
          "name": "nftId",
          "type": "uint256"
        }
      ],
      "name": "getBillByNFT",
      "outputs": [
        {
          "components": [
            {
              "internalType": "uint256",
              "name": "id",
              "type": "uint256"
            },
            {
              "internalType": "address",
              "name": "debtor",
              "type": "address"
            },
            {
              "internalType": "address",
              "name": "lender",
              "type": "address"
            },
            {
              "internalType": "address",
              "name": "stablecoin",
              "type": "address"
            },
            {
              "internalType": "uint256",
              "name": "totalAmount",
              "type": "uint256"
            },
            {
              "internalType": "uint256",
              "name": "upfrontPaid",
              "type": "uint256"
            },
            {
              "internalType": "uint256",
              "name": "remainingAmount",
              "type": "uint256"
            },
            {
              "internalType": "uint256",
              "name": "dueDate",
              "type": "uint256"
            },
            {
              "internalType": "enum FactoringContract.BillStatus",
              "name": "status",
              "type": "uint8"
            },
            {
              "components": [
                {
                  "internalType": "uint256",
                  "name": "feePercentage",
                  "type": "uint256"
                },
                {
                  "internalType": "uint256",
                  "name": "upfrontPercentage",
                  "type": "uint256"
                },
                {
                  "internalType": "uint256",
                  "name": "ownerPercentage",
                  "type": "uint256"
                }
              ],
              "internalType": "struct FactoringContract.Conditions",
              "name": "conditions",
              "type": "tuple"
            },
            {
              "internalType": "uint256",
              "name": "acceptedOfferId",
              "type": "uint256"
            }
          ],
          "internalType": "struct FactoringContract.Bill",
          "name": "",
          "type": "tuple"
        }
      ],
      "stateMutability": "view",
      "type": "function"
    },
    {
      "inputs": [
        {
          "internalType": "uint256",
          "name": "tokenId",
          "type": "uint256"
        }
      ],
      "name": "getBillNFTOwner",
      "outputs": [
        {
          "internalType": "address",
          "name": "",
          "type": "address"
        }
      ],
      "stateMutability": "view",
      "type": "function"
    },
    {
      "inputs": [
        {
          "internalType": "uint256",
          "name": "billRequestId",
          "type": "uint256"
        }
      ],
      "name": "getBillRequest",
      "outputs": [
        {
          "components": [
            {
              "internalType": "uint256",
              "name": "id",
              "type": "uint256"
            },
            {
              "internalType": "address",
              "name": "debtor",
              "type": "address"
            },
            {
              "internalType": "address",
              "name": "stablecoin",
              "type": "address"
            },
            {
              "internalType": "uint256",
              "name": "totalAmount",
              "type": "uint256"
            },
            {
              "internalType": "uint256",
              "name": "dueDate",
              "type": "uint256"
            },
            {
              "internalType": "enum FactoringContract.BillRequestStatus",
              "name": "status",
              "type": "uint8"
            }
          ],
          "internalType": "struct FactoringContract.BillRequest",
          "name": "",
          "type": "tuple"
        }
      ],
      "stateMutability": "view",
      "type": "function"
    },
    {
      "inputs": [
        {
          "internalType": "uint256",
          "name": "billId",
          "type": "uint256"
        }
      ],
      "name": "getBillWithOwner",
      "outputs": [
        {
          "components": [
            {
              "internalType": "uint256",
              "name": "id",
              "type": "uint256"
            },
            {
              "internalType": "address",
              "name": "debtor",
              "type": "address"
            },
            {
              "internalType": "address",
              "name": "lender",
              "type": "address"
            },
            {
              "internalType": "address",
              "name": "stablecoin",
              "type": "address"
            },
            {
              "internalType": "uint256",
              "name": "totalAmount",
              "type": "uint256"
            },
            {
              "internalType": "uint256",
              "name": "upfrontPaid",
              "type": "uint256"
            },
            {
              "internalType": "uint256",
              "name": "remainingAmount",
              "type": "uint256"
            },
            {
              "internalType": "uint256",
              "name": "dueDate",
              "type": "uint256"
            },
            {
              "internalType": "enum FactoringContract.BillStatus",
              "name": "status",
              "type": "uint8"
            },
            {
              "components": [
                {
                  "internalType": "uint256",
                  "name": "feePercentage",
                  "type": "uint256"
                },
                {
                  "internalType": "uint256",
                  "name": "upfrontPercentage",
                  "type": "uint256"
                },
                {
                  "internalType": "uint256",
                  "name": "ownerPercentage",
                  "type": "uint256"
                }
              ],
              "internalType": "struct FactoringContract.Conditions",
              "name": "conditions",
              "type": "tuple"
            },
            {
              "internalType": "uint256",
              "name": "acceptedOfferId",
              "type": "uint256"
            }
          ],
          "internalType": "struct FactoringContract.Bill",
          "name": "bill",
          "type": "tuple"
        },
        {
          "internalType": "address",
          "name": "currentOwner",
          "type": "address"
        }
      ],
      "stateMutability": "view",
      "type": "function"
    },
    {
      "inputs": [
        {
          "internalType": "address",
          "name": "_owner",
          "type": "address"
        }
      ],
      "name": "getBillsByOwner",
      "outputs": [
        {
          "internalType": "uint256[]",
          "name": "",
          "type": "uint256[]"
        }
      ],
      "stateMutability": "view",
      "type": "function"
    },
    {
      "inputs": [],
      "name": "getDefaultConditions",
      "outputs": [
        {
          "components": [
            {
              "internalType": "uint256",
              "name": "feePercentage",
              "type": "uint256"
            },
            {
              "internalType": "uint256",
              "name": "upfrontPercentage",
              "type": "uint256"
            },
            {
              "internalType": "uint256",
              "name": "ownerPercentage",
              "type": "uint256"
            }
          ],
          "internalType": "struct FactoringContract.Conditions",
          "name": "",
          "type": "tuple"
        }
      ],
      "stateMutability": "view",
      "type": "function"
    },
    {
      "inputs": [
        {
          "internalType": "uint256",
          "name": "tokenId",
          "type": "uint256"
        }
      ],
      "name": "getNFTOwner",
      "outputs": [
        {
          "internalType": "address",
          "name": "",
          "type": "address"
        }
      ],
      "stateMutability": "view",
      "type": "function"
    },
    {
      "inputs": [
        {
          "internalType": "uint256",
          "name": "offerId",
          "type": "uint256"
        }
      ],
      "name": "getOffer",
      "outputs": [
        {
          "components": [
            {
              "internalType": "uint256",
              "name": "id",
              "type": "uint256"
            },
            {
              "internalType": "uint256",
              "name": "billRequestId",
              "type": "uint256"
            },
            {
              "internalType": "address",
              "name": "lender",
              "type": "address"
            },
            {
              "components": [
                {
                  "internalType": "uint256",
                  "name": "feePercentage",
                  "type": "uint256"
                },
                {
                  "internalType": "uint256",
                  "name": "upfrontPercentage",
                  "type": "uint256"
                },
                {
                  "internalType": "uint256",
                  "name": "ownerPercentage",
                  "type": "uint256"
                }
              ],
              "internalType": "struct FactoringContract.Conditions",
              "name": "conditions",
              "type": "tuple"
            },
            {
              "internalType": "uint256",
              "name": "depositedAmount",
              "type": "uint256"
            },
            {
              "internalType": "enum FactoringContract.OfferStatus",
              "name": "status",
              "type": "uint8"
            }
          ],
          "internalType": "struct FactoringContract.Offer",
          "name": "",
          "type": "tuple"
        }
      ],
      "stateMutability": "view",
      "type": "function"
    },
    {
      "inputs": [
        {
          "internalType": "uint256",
          "name": "billRequestId",
          "type": "uint256"
        }
      ],
      "name": "getOffersForBillRequest",
      "outputs": [
        {
          "internalType": "uint256[]",
          "name": "",
          "type": "uint256[]"
        }
      ],
      "stateMutability": "view",
      "type": "function"
    },
    {
      "inputs": [],
      "name": "getOwner",
      "outputs": [
        {
          "internalType": "address",
          "name": "",
          "type": "address"
        }
      ],
      "stateMutability": "view",
      "type": "function"
    },
    {
      "inputs": [
        {
          "internalType": "address",
          "name": "stablecoin",
          "type": "address"
        }
      ],
      "name": "getPoolBalance",
      "outputs": [
        {
          "internalType": "uint256",
          "name": "",
          "type": "uint256"
        }
      ],
      "stateMutability": "view",
      "type": "function"
    },
    {
      "inputs": [
        {
          "internalType": "address",
          "name": "owner",
          "type": "address"
        },
        {
          "internalType": "address",
          "name": "operator",
          "type": "address"
        }
      ],
      "name": "isApprovedForAll",
      "outputs": [
        {
          "internalType": "bool",
          "name": "",
          "type": "bool"
        }
      ],
      "stateMutability": "view",
      "type": "function"
    },
    {
      "inputs": [
        {
          "internalType": "uint256",
          "name": "billId",
          "type": "uint256"
        }
      ],
      "name": "markBillDefaulted",
      "outputs": [],
      "stateMutability": "nonpayable",
      "type": "function"
    },
    {
      "inputs": [],
      "name": "name",
      "outputs": [
        {
          "internalType": "string",
          "name": "",
          "type": "string"
        }
      ],
      "stateMutability": "view",
      "type": "function"
    },
    {
      "inputs": [
        {
          "internalType": "uint256",
          "name": "",
          "type": "uint256"
        }
      ],
      "name": "offers",
      "outputs": [
        {
          "internalType": "uint256",
          "name": "id",
          "type": "uint256"
        },
        {
          "internalType": "uint256",
          "name": "billRequestId",
          "type": "uint256"
        },
        {
          "internalType": "address",
          "name": "lender",
          "type": "address"
        },
        {
          "components": [
            {
              "internalType": "uint256",
              "name": "feePercentage",
              "type": "uint256"
            },
            {
              "internalType": "uint256",
              "name": "upfrontPercentage",
              "type": "uint256"
            },
            {
              "internalType": "uint256",
              "name": "ownerPercentage",
              "type": "uint256"
            }
          ],
          "internalType": "struct FactoringContract.Conditions",
          "name": "conditions",
          "type": "tuple"
        },
        {
          "internalType": "uint256",
          "name": "depositedAmount",
          "type": "uint256"
        },
        {
          "internalType": "enum FactoringContract.OfferStatus",
          "name": "status",
          "type": "uint8"
        }
      ],
      "stateMutability": "view",
      "type": "function"
    },
    {
      "inputs": [
        {
          "internalType": "address",
          "name": "",
          "type": "address"
        },
        {
          "internalType": "uint256",
          "name": "",
          "type": "uint256"
        }
      ],
      "name": "ownerBills",
      "outputs": [
        {
          "internalType": "uint256",
          "name": "",
          "type": "uint256"
        }
      ],
      "stateMutability": "view",
      "type": "function"
    },
    {
      "inputs": [
        {
          "internalType": "uint256",
          "name": "tokenId",
          "type": "uint256"
        }
      ],
      "name": "ownerOf",
      "outputs": [
        {
          "internalType": "address",
          "name": "",
          "type": "address"
        }
      ],
      "stateMutability": "view",
      "type": "function"
    },
    {
      "inputs": [],
      "name": "pause",
      "outputs": [],
      "stateMutability": "nonpayable",
      "type": "function"
    },
    {
      "inputs": [],
      "name": "paused",
      "outputs": [
        {
          "internalType": "bool",
          "name": "",
          "type": "bool"
        }
      ],
      "stateMutability": "view",
      "type": "function"
    },
    {
      "inputs": [
        {
          "internalType": "address",
          "name": "",
          "type": "address"
        }
      ],
      "name": "poolBalances",
      "outputs": [
        {
          "internalType": "uint256",
          "name": "",
          "type": "uint256"
        }
      ],
      "stateMutability": "view",
      "type": "function"
    },
    {
      "inputs": [
        {
          "internalType": "address",
          "name": "from",
          "type": "address"
        },
        {
          "internalType": "address",
          "name": "to",
          "type": "address"
        },
        {
          "internalType": "uint256",
          "name": "tokenId",
          "type": "uint256"
        }
      ],
      "name": "safeTransferFrom",
      "outputs": [],
      "stateMutability": "nonpayable",
      "type": "function"
    },
    {
      "inputs": [
        {
          "internalType": "address",
          "name": "from",
          "type": "address"
        },
        {
          "internalType": "address",
          "name": "to",
          "type": "address"
        },
        {
          "internalType": "uint256",
          "name": "tokenId",
          "type": "uint256"
        },
        {
          "internalType": "bytes",
          "name": "data",
          "type": "bytes"
        }
      ],
      "name": "safeTransferFrom",
      "outputs": [],
      "stateMutability": "nonpayable",
      "type": "function"
    },
    {
      "inputs": [
        {
          "internalType": "address",
          "name": "operator",
          "type": "address"
        },
        {
          "internalType": "bool",
          "name": "approved",
          "type": "bool"
        }
      ],
      "name": "setApprovalForAll",
      "outputs": [],
      "stateMutability": "nonpayable",
      "type": "function"
    },
    {
      "inputs": [
        {
          "internalType": "address",
          "name": "_admin",
          "type": "address"
        },
        {
          "internalType": "bool",
          "name": "status",
          "type": "bool"
        }
      ],
      "name": "setAuthorizedAdmin",
      "outputs": [],
      "stateMutability": "nonpayable",
      "type": "function"
    },
    {
      "inputs": [
        {
          "internalType": "address",
          "name": "_operator",
          "type": "address"
        },
        {
          "internalType": "bool",
          "name": "status",
          "type": "bool"
        }
      ],
      "name": "setAuthorizedOperator",
      "outputs": [],
      "stateMutability": "nonpayable",
      "type": "function"
    },
    {
      "inputs": [
        {
          "internalType": "uint256",
          "name": "_feePercentage",
          "type": "uint256"
        },
        {
          "internalType": "uint256",
          "name": "_upfrontPercentage",
          "type": "uint256"
        },
        {
          "internalType": "uint256",
          "name": "_ownerPercentage",
          "type": "uint256"
        }
      ],
      "name": "setDefaultConditions",
      "outputs": [],
      "stateMutability": "nonpayable",
      "type": "function"
    },
    {
      "inputs": [
        {
          "internalType": "bytes4",
          "name": "interfaceId",
          "type": "bytes4"
        }
      ],
      "name": "supportsInterface",
      "outputs": [
        {
          "internalType": "bool",
          "name": "",
          "type": "bool"
        }
      ],
      "stateMutability": "view",
      "type": "function"
    },
    {
      "inputs": [],
      "name": "symbol",
      "outputs": [
        {
          "internalType": "string",
          "name": "",
          "type": "string"
        }
      ],
      "stateMutability": "view",
      "type": "function"
    },
    {
      "inputs": [
        {
          "internalType": "uint256",
          "name": "tokenId",
          "type": "uint256"
        }
      ],
      "name": "tokenURI",
      "outputs": [
        {
          "internalType": "string",
          "name": "",
          "type": "string"
        }
      ],
      "stateMutability": "view",
      "type": "function"
    },
    {
      "inputs": [],
      "name": "totalPoolBalance",
      "outputs": [
        {
          "internalType": "uint256",
          "name": "",
          "type": "uint256"
        }
      ],
      "stateMutability": "view",
      "type": "function"
    },
    {
      "inputs": [
        {
          "internalType": "address",
          "name": "from",
          "type": "address"
        },
        {
          "internalType": "address",
          "name": "to",
          "type": "address"
        },
        {
          "internalType": "uint256",
          "name": "tokenId",
          "type": "uint256"
        }
      ],
      "name": "transferFrom",
      "outputs": [],
      "stateMutability": "nonpayable",
      "type": "function"
    },
    {
      "inputs": [
        {
          "internalType": "address",
          "name": "newOwner",
          "type": "address"
        }
      ],
      "name": "transferOwnership",
      "outputs": [],
      "stateMutability": "nonpayable",
      "type": "function"
    },
    {
      "inputs": [],
      "name": "unpause",
      "outputs": [],
      "stateMutability": "nonpayable",
      "type": "function"
    },
    {
      "inputs": [
        {
          "internalType": "uint256",
          "name": "amount",
          "type": "uint256"
        },
        {
          "internalType": "address",
          "name": "stablecoin",
          "type": "address"
        }
      ],
      "name": "withdrawFromPool",
      "outputs": [],
      "stateMutability": "nonpayable",
      "type": "function"
    },
    {
      "inputs": [
        {
          "internalType": "uint256",
          "name": "offerId",
          "type": "uint256"
        }
      ],
      "name": "withdrawOffer",
      "outputs": [],
      "stateMutability": "nonpayable",
      "type": "function"
    }
  ],
  "bytecode": "0x610120604052600560c0819052605060e0819052600f610100819052600a92909255600b55600c5534801561003357600080fd5b50604051614d37380380614d37833981016040819052610052916101c3565b6040518060400160405280600d81526020016c119858dd1bdc9a5b99d09a5b1b609a1b81525060405180604001604052806005815260200164119092531360da1b815250818181600090816100a79190610295565b5060016100b48282610295565b50506001600655505060078054610100600160a81b0319163361010002179055506001600160a01b0382166101305760405162461bcd60e51b815260206004820152601460248201527f496e76616c69642055534443206164647265737300000000000000000000000060448201526064015b60405180910390fd5b6001600160a01b0381166101865760405162461bcd60e51b815260206004820152601460248201527f496e76616c6964205553445420616464726573730000000000000000000000006044820152606401610127565b6001600160a01b039182166080521660a0526001600d819055601055610353565b80516001600160a01b03811681146101be57600080fd5b919050565b600080604083850312156101d657600080fd5b6101df836101a7565b91506101ed602084016101a7565b90509250929050565b634e487b7160e01b600052604160045260246000fd5b600181811c9082168061022057607f821691505b60208210810361024057634e487b7160e01b600052602260045260246000fd5b50919050565b601f82111561029057806000526020600020601f840160051c8101602085101561026d5750805b601f840160051c820191505b8181101561028d5760008155600101610279565b50505b505050565b81516001600160401b038111156102ae576102ae6101f6565b6102c2816102bc845461020c565b84610246565b6020601f8211600181146102f657600083156102de5750848201515b600019600385901b1c1916600184901b17845561028d565b600084815260208120601f198516915b828110156103265787850151825560209485019460019092019101610306565b50848210156103445786840151600019600387901b60f8161c191681555b50505050600190811b01905550565b60805160a0516149a361039460003960008181610a41015281816111bc01526119080152600081816107e90152818161118101526118cd01526149a36000f3fe60806040526004361061031a5760003560e01c80638456cb59116101ab578063c30e5493116100f7578063cd4e0a0511610095578063e1f1c4a71161006f578063e1f1c4a714610b72578063e985e9c514610b87578063f2fde38b14610ba7578063fb4de28314610bc757600080fd5b8063cd4e0a0514610b1c578063d28682ea14610b3c578063deaea2e31461066457600080fd5b8063c85ab9d4116100d1578063c85ab9d414610a83578063c87b56dd14610aa3578063c8f6fbf714610ac3578063cb35124414610ae357600080fd5b8063c30e549314610a0d578063c54e44eb14610a2f578063c815729d14610a6357600080fd5b80639155ccc811610164578063a21d21031161013e578063a21d21031461098d578063a22cb465146109ad578063b1cd06e6146109cd578063b88d4fde146109ed57600080fd5b80639155ccc8146108d957806395d89b4114610906578063a1afec2e1461091b57600080fd5b80638456cb591461077f5780638610f04514610794578063893d20e8146107b457806389a30271146107d75780638a72ea6a1461080b57806390fe3e32146108a057600080fd5b8063418836a31161026a5780635026d63e116102235780636c1caa0e116101fd5780636c1caa0e146106ff57806370a082311461071f57806371c3a4b11461073f578063788f737d1461075f57600080fd5b80635026d63e146106b15780635c975abb146106c75780636352211e146106df57600080fd5b8063418836a3146105c957806342842e0e146105e95780634579268a1461060957806346344581146106365780634710390f146106645780634884a6691461068457600080fd5b80631e701add116102d75780632bfac9f1116102b15780632bfac9f11461052d5780632cbcb1f21461055a5780633479c47c1461057a5780633f4ba83a146105b457600080fd5b80631e701add1461041e57806323b872dd1461044b57806328bdcde81461046b57600080fd5b806301ffc9a71461031f57806306fdde0314610354578063081812fc14610376578063095ea7b3146103ae578063143694d0146103d057806317444e37146103f0575b600080fd5b34801561032b57600080fd5b5061033f61033a366004613fc4565b610bda565b60405190151581526020015b60405180910390f35b34801561036057600080fd5b50610369610beb565b60405161034b9190614031565b34801561038257600080fd5b50610396610391366004614044565b610c7d565b6040516001600160a01b03909116815260200161034b565b3480156103ba57600080fd5b506103ce6103c9366004614079565b610ca6565b005b3480156103dc57600080fd5b506103ce6103eb366004614044565b610cb5565b3480156103fc57600080fd5b5061041061040b366004614079565b610dde565b60405190815260200161034b565b34801561042a57600080fd5b5061043e610439366004614044565b610e0f565b60405161034b91906141a0565b34801561045757600080fd5b506103ce6104663660046141af565b610f88565b34801561047757600080fd5b50610516610486366004614044565b6013602090815260009182526040918290208054600182015460028301546003840154600485015460058601546006870154600788015460088901548b51606081018d5260098b01548152600a8b01549b81019b909b52600b8a01549b8b019b909b52600c9098015496996001600160a01b03968716999587169894909616969295919490939260ff909216918b565b60405161034b9b9a999897969594939291906141ec565b34801561053957600080fd5b5061054d610548366004614044565b611013565b60405161034b9190614273565b34801561056657600080fd5b506103ce6105753660046142d2565b6110da565b34801561058657600080fd5b50600a54600b54600c5461059992919083565b6040805193845260208401929092529082015260600161034b565b3480156105c057600080fd5b506103ce611345565b3480156105d557600080fd5b506103ce6105e43660046142fe565b61139c565b3480156105f557600080fd5b506103ce6106043660046141af565b611527565b34801561061557600080fd5b50610629610624366004614044565b611547565b60405161034b919061433a565b34801561064257600080fd5b50610656610651366004614044565b61161f565b60405161034b9291906143a5565b34801561067057600080fd5b5061039661067f366004614044565b61174b565b34801561069057600080fd5b506106a461069f366004614044565b6117ad565b60405161034b91906143cd565b3480156106bd57600080fd5b50610410600e5481565b3480156106d357600080fd5b5060075460ff1661033f565b3480156106eb57600080fd5b506103966106fa366004614044565b61180f565b34801561070b57600080fd5b5061041061071a366004614410565b61181a565b34801561072b57600080fd5b5061041061073a366004614445565b611afb565b34801561074b57600080fd5b506103ce61075a366004614460565b611b43565b34801561076b57600080fd5b506103ce61077a366004614460565b611ccc565b34801561078b57600080fd5b506103ce611e58565b3480156107a057600080fd5b506103ce6107af366004614044565b611ead565b3480156107c057600080fd5b5060075461010090046001600160a01b0316610396565b3480156107e357600080fd5b506103967f000000000000000000000000000000000000000000000000000000000000000081565b34801561081757600080fd5b5061088e610826366004614044565b6012602090815260009182526040918290208054600182015460028301548551606081018752600385015481526004850154958101959095526005840154958501959095526006830154600790930154919490936001600160a01b0390911692909160ff1686565b60405161034b9695949392919061449c565b3480156108ac57600080fd5b5061033f6108bb366004614445565b6001600160a01b031660009081526009602052604090205460ff1690565b3480156108e557600080fd5b506104106108f4366004614445565b600f6020526000908152604090205481565b34801561091257600080fd5b50610369612017565b34801561092757600080fd5b5061097b610936366004614044565b60116020526000908152604090208054600182015460028301546003840154600485015460059095015493946001600160a01b03938416949290931692909160ff1686565b60405161034b969594939291906144f9565b34801561099957600080fd5b506106a46109a8366004614445565b612026565b3480156109b957600080fd5b506103ce6109c8366004614460565b612090565b3480156109d957600080fd5b5061043e6109e8366004614044565b61209b565b3480156109f957600080fd5b506103ce610a08366004614586565b6120a3565b348015610a1957600080fd5b50610a226120bb565b60405161034b919061464b565b348015610a3b57600080fd5b506103967f000000000000000000000000000000000000000000000000000000000000000081565b348015610a6f57600080fd5b506103ce610a7e366004614044565b612104565b348015610a8f57600080fd5b506103ce610a9e366004614044565b61255a565b348015610aaf57600080fd5b50610369610abe366004614044565b612687565b348015610acf57600080fd5b50610410610ade36600461466c565b6126fb565b348015610aef57600080fd5b5061033f610afe366004614445565b6001600160a01b031660009081526008602052604090205460ff1690565b348015610b2857600080fd5b50610410610b3736600461468e565b612717565b348015610b4857600080fd5b50610410610b57366004614445565b6001600160a01b03166000908152600f602052604090205490565b348015610b7e57600080fd5b50610410606481565b348015610b9357600080fd5b5061033f610ba2366004614705565b612a48565b348015610bb357600080fd5b506103ce610bc2366004614445565b612a76565b6103ce610bd5366004614044565b612c47565b6000610be582612f42565b92915050565b606060008054610bfa9061472f565b80601f0160208091040260200160405190810160405280929190818152602001828054610c269061472f565b8015610c735780601f10610c4857610100808354040283529160200191610c73565b820191906000526020600020905b815481529060010190602001808311610c5657829003601f168201915b5050505050905090565b6000610c8882612f92565b506000828152600460205260409020546001600160a01b0316610be5565b610cb1828233612fcb565b5050565b610cbd612fd8565b60008181526011602052604081208054909103610cf55760405162461bcd60e51b8152600401610cec90614769565b60405180910390fd5b6000600582015460ff166002811115610d1057610d106140a3565b14610d2d5760405162461bcd60e51b8152600401610cec906147a0565b33610d378361180f565b6001600160a01b031614610d8d5760405162461bcd60e51b815260206004820152601960248201527f4f6e6c79204e4654206f776e65722063616e2063616e63656c000000000000006044820152606401610cec565b60058101805460ff19166002179055610da582613002565b60405182907f66387ca682421ce832187633e62f16d1a996c0c1a851225282e7a01407a0f60190600090a250610ddb6001600655565b50565b60146020528160005260406000208181548110610dfa57600080fd5b90600052602060002001600091509150505481565b610e17613e64565b6000828152600260205260409020546001600160a01b0316610e705760405162461bcd60e51b815260206004820152601260248201527113919508191bd95cc81b9bdd08195e1a5cdd60721b6044820152606401610cec565b6000828152601360205260408120549003610e9d5760405162461bcd60e51b8152600401610cec906147cf565b6000828152601360209081526040918290208251610160810184528154815260018201546001600160a01b03908116938201939093526002808301548416948201949094526003820154909216606083015260048101546080830152600581015460a0830152600681015460c0830152600781015460e083015260088101549192909161010084019160ff90911690811115610f3b57610f3b6140a3565b6002811115610f4c57610f4c6140a3565b81526040805160608101825260098401548152600a840154602082810191909152600b85015482840152830152600c9092015491015292915050565b6001600160a01b038216610fb257604051633250574960e11b815260006004820152602401610cec565b6000610fbf83833361310d565b9050836001600160a01b0316816001600160a01b03161461100d576040516364283d7b60e01b81526001600160a01b0380861660048301526024820184905282166044820152606401610cec565b50505050565b61101b613f0c565b60008281526011602052604081205490036110485760405162461bcd60e51b8152600401610cec90614769565b600082815260116020908152604091829020825160c0810184528154815260018201546001600160a01b03908116938201939093526002808301549093169381019390935260038101546060840152600481015460808401526005810154909160a084019160ff16908111156110c0576110c06140a3565b60028111156110d1576110d16140a3565b90525092915050565b60075461010090046001600160a01b0316331480159061110a57503360009081526008602052604090205460ff16155b15611127576040516282b42960e81b815260040160405180910390fd5b61112f612fd8565b6000821161117f5760405162461bcd60e51b815260206004820152601d60248201527f416d6f756e74206d7573742062652067726561746572207468616e20300000006044820152606401610cec565b7f00000000000000000000000000000000000000000000000000000000000000006001600160a01b0316816001600160a01b031614806111f057507f00000000000000000000000000000000000000000000000000000000000000006001600160a01b0316816001600160a01b0316145b6112355760405162461bcd60e51b81526020600482015260166024820152752ab739bab83837b93a32b21039ba30b13632b1b7b4b760511b6044820152606401610cec565b6001600160a01b0381166000908152600f602052604090205482111561129d5760405162461bcd60e51b815260206004820152601960248201527f496e73756666696369656e7420706f6f6c2062616c616e6365000000000000006044820152606401610cec565b6001600160a01b0381166000908152600f6020526040812080548492906112c5908490614812565b9250508190555081600e60008282546112de9190614812565b909155506112f890506001600160a01b038216338461318e565b604080518381526001600160a01b038316602082015233917f8b0504e8295c096414bd80c776379b299419cf1f33f17aa53b3e7538cb36664a910160405180910390a2610cb16001600655565b60075461010090046001600160a01b0316331480159061137557503360009081526008602052604090205460ff16155b15611392576040516282b42960e81b815260040160405180910390fd5b61139a6131ed565b565b60075461010090046001600160a01b031633146113cb576040516282b42960e81b815260040160405180910390fd5b6064826113d88386614825565b6113e29190614825565b11156114445760405162461bcd60e51b815260206004820152602b60248201527f496e76616c69642070657263656e74616765733a2073756d2063616e6e6f742060448201526a657863656564203130302560a81b6064820152608401610cec565b6000831180156114545750600082115b80156114605750600081115b6114bb5760405162461bcd60e51b815260206004820152602660248201527f416c6c2070657263656e7461676573206d75737420626520677265617465722060448201526507468616e20360d41b6064820152608401610cec565b60408051606080820183528582526020808301869052918301849052600a869055600b859055600c84905582518681529182018590529181018390527fea22662bd67ac75f6753ec8a9ab71af344497326e12f9d1ceee202aa1bcf1235910160405180910390a1505050565b611542838383604051806020016040528060008152506120a3565b505050565b61154f613f42565b600082815260126020526040812054900361157c5760405162461bcd60e51b8152600401610cec90614838565b600082815260126020908152604091829020825160c0810184528154815260018201548184015260028201546001600160a01b031681850152835160608181018652600380850154835260048501549583019590955260058401549582019590955293810193909352600681015460808401526007810154909160a084019160ff169081111561160e5761160e6140a3565b60038111156110d1576110d16140a3565b611627613e64565b60008281526013602052604081205481036116545760405162461bcd60e51b8152600401610cec906147cf565b6000838152601360209081526040918290208251610160810184528154815260018201546001600160a01b03908116938201939093526002808301548416948201949094526003820154909216606083015260048101546080830152600581015460a0830152600681015460c0830152600781015460e083015260088101549192909161010084019160ff909116908111156116f2576116f26140a3565b6002811115611703576117036140a3565b81526040805160608101825260098401548152600a840154602082810191909152600b85015482840152830152600c9092015491015291506117448361180f565b9050915091565b6000818152600260205260408120546001600160a01b03166117a45760405162461bcd60e51b815260206004820152601260248201527113919508191bd95cc81b9bdd08195e1a5cdd60721b6044820152606401610cec565b610be58261180f565b60008181526015602090815260409182902080548351818402810184019094528084526060939283018282801561180357602002820191906000526020600020905b8154815260200190600101908083116117ef575b50505050509050919050565b6000610be582612f92565b6000611824612fd8565b61182c61323f565b6000841161187c5760405162461bcd60e51b815260206004820152601d60248201527f416d6f756e74206d7573742062652067726561746572207468616e20300000006044820152606401610cec565b4283116118cb5760405162461bcd60e51b815260206004820152601e60248201527f4475652064617465206d75737420626520696e207468652066757475726500006044820152606401610cec565b7f00000000000000000000000000000000000000000000000000000000000000006001600160a01b0316826001600160a01b0316148061193c57507f00000000000000000000000000000000000000000000000000000000000000006001600160a01b0316826001600160a01b0316145b6119815760405162461bcd60e51b81526020600482015260166024820152752ab739bab83837b93a32b21039ba30b13632b1b7b4b760511b6044820152606401610cec565b600d80546000918261199283614866565b9190505590506040518060c00160405280828152602001336001600160a01b03168152602001846001600160a01b03168152602001868152602001858152602001600060028111156119e6576119e66140a3565b90526000828152601160209081526040918290208351815590830151600180830180546001600160a01b039384166001600160a01b0319918216179091559385015160028085018054929094169190951617909155606084015160038301556080840151600483015560a084015160058301805493949193909260ff19909116918490811115611a7857611a786140a3565b0217905550905050611a8a3382613263565b336000908152601460205260409020611aa390826132a7565b604080518681526001600160a01b0385166020820152339183917ff0cc679c5da107ddb73531c12cdb064e51bc2134aa17742ce4e9fd880e16ffce910160405180910390a39050611af46001600655565b9392505050565b60006001600160a01b038216611b27576040516322718ad960e21b815260006004820152602401610cec565b506001600160a01b031660009081526003602052604090205490565b60075461010090046001600160a01b03163314801590611b7357503360009081526008602052604090205460ff16155b15611b90576040516282b42960e81b815260040160405180910390fd5b6001600160a01b038216611bfe5760405162461bcd60e51b815260206004820152602f60248201527f417574686f72697a65642053797374656d3a2041646d696e206164647265737360448201526e0818d85b9b9bdd081899481b9d5b1b608a1b6064820152608401610cec565b6001600160a01b03821660009081526009602052604090205460ff1615611c7e5760405162461bcd60e51b815260206004820152602e60248201527f417574686f72697a65642053797374656d3a2041646d696e2063616e6e6f742060448201526d31329030b71037b832b930ba37b960911b6064820152608401610cec565b6001600160a01b038216600081815260086020526040808220805460ff1916851515179055517f5a272403b402d892977df56625f4164ccaf70ca3863991c43ecfe76a6905b0a19190a25050565b60075461010090046001600160a01b03163314801590611cfc57503360009081526008602052604090205460ff16155b15611d19576040516282b42960e81b815260040160405180910390fd5b6001600160a01b038216611d8a5760405162461bcd60e51b815260206004820152603260248201527f417574686f72697a65642053797374656d3a204f70657261746f722061646472604482015271195cdcc818d85b9b9bdd081899481b9d5b1b60721b6064820152608401610cec565b6001600160a01b03821660009081526008602052604090205460ff1615611e0a5760405162461bcd60e51b815260206004820152602e60248201527f417574686f72697a65642053797374656d3a204f70657261746f722063616e6e60448201526d37ba1031329030b71030b236b4b760911b6064820152608401610cec565b6001600160a01b038216600081815260096020526040808220805460ff1916851515179055517fdbebfba65bd6398fb722063efc10c99f624f9cd8ba657201056af918a676d5ee9190a25050565b60075461010090046001600160a01b03163314801590611e8857503360009081526008602052604090205460ff16155b15611ea5576040516282b42960e81b815260040160405180910390fd5b61139a613321565b611eb5612fd8565b60008181526012602052604081208054909103611ee45760405162461bcd60e51b8152600401610cec90614838565b6000600782015460ff166003811115611eff57611eff6140a3565b14611f3f5760405162461bcd60e51b815260206004820152601060248201526f4f66666572206e6f742061637469766560801b6044820152606401610cec565b60028101546001600160a01b03163314611f9b5760405162461bcd60e51b815260206004820152601e60248201527f4f6e6c79206c656e6465722063616e207769746864726177206f6666657200006044820152606401610cec565b6001810154600090815260116020526040902060068201546002820154611fcf916001600160a01b0390911690339061318e565b60078201805460ff19166002179055604051339084907fe6f4d8e39c4a3ade2f3812a17eb8f658c1cc293ceee263362516f01750847ac890600090a35050610ddb6001600655565b606060018054610bfa9061472f565b6001600160a01b03811660009081526014602090815260409182902080548351818402810184019094528084526060939283018282801561180357602002820191906000526020600020908154815260200190600101908083116117ef5750505050509050919050565b610cb133838361335e565b610e70613e64565b6120ae848484610f88565b61100d33858585856133fd565b6120df60405180606001604052806000815260200160008152602001600081525090565b5060408051606081018252600a548152600b546020820152600c549181019190915290565b61210c612fd8565b61211461323f565b600081815260126020526040812080549091036121435760405162461bcd60e51b8152600401610cec90614838565b6000600782015460ff16600381111561215e5761215e6140a3565b1461219e5760405162461bcd60e51b815260206004820152601060248201526f4f66666572206e6f742061637469766560801b6044820152606401610cec565b6001810154600090815260116020526040812090600582015460ff1660028111156121cb576121cb6140a3565b146121e85760405162461bcd60e51b8152600401610cec906147a0565b336001600160a01b03166121ff836001015461180f565b6001600160a01b0316146122555760405162461bcd60e51b815260206004820181905260248201527f4f6e6c79204e4654206f776e65722063616e20616363657074206f66666572736044820152606401610cec565b60068201546002820154612276916001600160a01b0390911690339061318e565b600282015460018301546122979133916001600160a01b0390911690613528565b33600090815260146020526040902060018301546122b591906135d8565b60028201546001600160a01b0316600090815260146020526040902060018301546122e091906132a7565b6040805161016081018252600184015481523360208201526002808501546001600160a01b03908116938301939093528301549091166060820152600382015460808201819052600684015460a0830181905260c08301916123429190614812565b81526004830154602082015260400160008152604080516060808201835260038781015483526004808901546020808601919091526005808b015486880152818801959095529585018a90526001808a0154600090815260138852869020885181559688015187820180546001600160a01b03199081166001600160a01b0393841617909155968901516002808a0180548a169284169290921790915594890151938801805490971693169290921790945560808601519385019390935560a08501519184019190915560c0840151600684015560e084015160078401556101008401516008840180549193909260ff19909216918490811115612448576124486140a3565b0217905550610120820151805160098301556020810151600a83015560400151600b82015561014090910151600c90910155600782018054600160ff199182168117909255600583018054909116821790558201546124a7908461369e565b600182015460028301546040516001600160a01b03909116815233919085907fffa8e4adef20403a71fedeb00a7d0c21f7c714855d9ac581923d2c44cc6f10809060200160405180910390a46002828101546001840154600384015492840154604080519485526001600160a01b03918216602086015292169233927f7163841de0fbe6ab7e904fff10718e6fd9a43d7e690a26ed1458ffe8f8efd310910160405180910390a45050610ddb6001600655565b60075461010090046001600160a01b0316331480159061258a57503360009081526008602052604090205460ff16155b156125a7576040516282b42960e81b815260040160405180910390fd5b600081815260136020526040812080549091036125d65760405162461bcd60e51b8152600401610cec906147cf565b6000600882015460ff1660028111156125f1576125f16140a3565b146126305760405162461bcd60e51b815260206004820152600f60248201526e42696c6c206e6f742061637469766560881b6044820152606401610cec565b806007015442116126765760405162461bcd60e51b815260206004820152601060248201526f42696c6c206e6f74207965742064756560801b6044820152606401610cec565b600801805460ff1916600217905550565b606061269282612f92565b5060006126aa60408051602081019091526000815290565b905060008151116126ca5760405180602001604052806000815250611af4565b806126d4846137ac565b6040516020016126e592919061487f565b6040516020818303038152906040529392505050565b60156020528160005260406000208181548110610dfa57600080fd5b6000612721612fd8565b61272961323f565b600083815260116020526040812080549091036127585760405162461bcd60e51b8152600401610cec90614769565b6000600582015460ff166002811115612773576127736140a3565b146127905760405162461bcd60e51b8152600401610cec906147a0565b602083015160408401518451606492916127a991614825565b6127b39190614825565b11156128145760405162461bcd60e51b815260206004820152602a60248201527f496e76616c696420636f6e646974696f6e733a2073756d2063616e6e6f7420656044820152697863656564203130302560b01b6064820152608401610cec565b825115801590612828575060008360200151115b8015612838575060008360400151115b61289d5760405162461bcd60e51b815260206004820152603060248201527f416c6c20636f6e646974696f6e2070657263656e7461676573206d757374206260448201526f0652067726561746572207468616e20360841b6064820152608401610cec565b60108054600091826128ae83614866565b91905055905060006064856020015184600301546128cc91906148ae565b6128d691906148c5565b60028401549091506128f3906001600160a01b031633308461383f565b6040518060c00160405280838152602001878152602001336001600160a01b0316815260200186815260200182815260200160006003811115612938576129386140a3565b90526000838152601260209081526040918290208351815583820151600180830191909155848401516002830180546001600160a01b0319166001600160a01b03909216919091179055606085015180516003808501919091559381015160048401559093015160058201556080840151600682015560a084015160078201805492949193909260ff1916919084908111156129d6576129d66140a3565b0217905550505060008681526015602052604090206129f590836132a7565b336001600160a01b031686837f32645f28ae455f14af7a547728c579fc5a3f52d9c6db6d22a0de0ded95c82cbe84604051612a3291815260200190565b60405180910390a450915050610be56001600655565b6001600160a01b03918216600090815260056020908152604080832093909416825291909152205460ff1690565b60075461010090046001600160a01b03163314612aa5576040516282b42960e81b815260040160405180910390fd5b6001600160a01b038116612b0f5760405162461bcd60e51b815260206004820152602b60248201527f417574686f72697a65642053797374656d3a204e6577206f776e65722063616e60448201526a1b9bdd081899481b9d5b1b60aa1b6064820152608401610cec565b6007546001600160a01b03610100909104811690821603612b985760405162461bcd60e51b815260206004820152603c60248201527f417574686f72697a65642053797374656d3a204e6577206f776e65722063616e60448201527f6e6f74206265207468652073616d65206173206f6c64206f776e6572000000006064820152608401610cec565b60075461010090046001600160a01b031660009081526009602052604090205460ff1615612c1f5760405162461bcd60e51b815260206004820152602e60248201527f417574686f72697a65642053797374656d3a204f776e65722063616e6e6f742060448201526d31329030b71037b832b930ba37b960911b6064820152608401610cec565b600780546001600160a01b0390921661010002610100600160a81b0319909216919091179055565b612c4f612fd8565b612c5761323f565b60008181526013602052604081208054909103612c865760405162461bcd60e51b8152600401610cec906147cf565b6000600882015460ff166002811115612ca157612ca16140a3565b14612ce05760405162461bcd60e51b815260206004820152600f60248201526e42696c6c206e6f742061637469766560881b6044820152606401610cec565b60018101546001600160a01b03163314612d3c5760405162461bcd60e51b815260206004820152601d60248201527f4f6e6c7920646562746f722063616e20636f6d706c6574652062696c6c0000006044820152606401610cec565b60048101546003820154612d5b906001600160a01b031633308461383f565b6000612d668461180f565b90506000606484600901600201548560040154612d8391906148ae565b612d8d91906148c5565b90506000606485600901600001548660040154612daa91906148ae565b612db491906148c5565b90506000856005015483612dc89190614825565b9050600082612dd78388614812565b612de19190614812565b6003880154909150612dfd906001600160a01b0316868461318e565b8015612e1c576003870154612e1c906001600160a01b0316338361318e565b60038701546001600160a01b03166000908152600f602052604081208054859290612e48908490614825565b9250508190555082600e6000828254612e619190614825565b90915550612e70905088613878565b60088701805460ff1916600117905560405186815288907fc95485031ab8a7e2b9e325c6bdaafec43650b4434d8e819d55451d8a9826fb8a9060200160405180910390a26040516001600160a01b0386169089907f02aeab5f34ee393d2269c5a9265aa8f9ebffd7164c602a1ded2f9d04a268313090600090a36003870154604080518581526001600160a01b0390921660208301527f0c2a2f565c7774c59e49ef6b3c255329f4d254147e06e724d3a8569bb7bd21ad910160405180910390a150505050505050610ddb6001600655565b60006001600160e01b031982166380ac58cd60e01b1480612f7357506001600160e01b03198216635b5e139f60e01b145b80610be557506301ffc9a760e01b6001600160e01b0319831614610be5565b6000818152600260205260408120546001600160a01b031680610be557604051637e27328960e01b815260048101849052602401610cec565b61154283838360016138b3565b600260065403612ffb57604051633ee5aeb560e01b815260040160405180910390fd5b6002600655565b60008181526015602090815260408083208054825181850281018501909352808352919290919083018282801561305857602002820191906000526020600020905b815481526020019060010190808311613044575b5050505050905060005b815181101561154257600082828151811061307f5761307f6148e7565b602090810291909101810151600081815260129092526040822090925090600782015460ff1660038111156130b6576130b66140a3565b036131035760008581526011602052604090206002808301546006840154918301546130f2926001600160a01b0391821692919091169061318e565b5060078101805460ff191660031790555b5050600101613062565b60008061311b8585856139b9565b90506001600160a01b0381161580159061313d57506001600160a01b03851615155b15613186576001600160a01b038116600090815260146020526040902061316490856135d8565b6001600160a01b038516600090815260146020526040902061318690856132a7565b949350505050565b6040516001600160a01b0383811660248301526044820183905261154291859182169063a9059cbb906064015b604051602081830303815290604052915060e01b6020820180516001600160e01b0383818316178352505050506139c6565b6131f5613a37565b6007805460ff191690557f5db9ee0a495bf2e6ff9c91a7834c1ba4fdd244a5e8aa4e537bd38aeae4b073aa335b6040516001600160a01b03909116815260200160405180910390a1565b60075460ff161561139a5760405163d93c066560e01b815260040160405180910390fd5b61326d8282613a5a565b6040516001600160a01b0383169082907f0176f203df400d7bd5f1b1c9ef36c16709bf3b5d9fd35f000a6bae32393f66c390600090a35050565b613300828054806020026020016040519081016040528092919081815260200182805480156132f557602002820191906000526020600020905b8154815260200190600101908083116132e1575b505050505082613a74565b15613309575050565b81546001810183556000928352602090922090910155565b61332961323f565b6007805460ff191660011790557f62e78cea01bee320cd4e420270b5ea74000d11b0c9f74754ebdbfc544b05a2586132223390565b6001600160a01b03821661339057604051630b61174360e31b81526001600160a01b0383166004820152602401610cec565b6001600160a01b03838116600081815260056020908152604080832094871680845294825291829020805460ff191686151590811790915591519182527f17307eab39ab6107e8899845ad3d59bd9653f200f220920489ca2b5937696c31910160405180910390a3505050565b6001600160a01b0383163b1561352157604051630a85bd0160e11b81526001600160a01b0384169063150b7a029061343f9088908890879087906004016148fd565b6020604051808303816000875af192505050801561347a575060408051601f3d908101601f191682019092526134779181019061493a565b60015b6134e3573d8080156134a8576040519150601f19603f3d011682016040523d82523d6000602084013e6134ad565b606091505b5080516000036134db57604051633250574960e11b81526001600160a01b0385166004820152602401610cec565b805181602001fd5b6001600160e01b03198116630a85bd0160e11b1461351f57604051633250574960e11b81526001600160a01b0385166004820152602401610cec565b505b5050505050565b6001600160a01b03821661355257604051633250574960e11b815260006004820152602401610cec565b60006135608383600061310d565b90506001600160a01b03811661358c57604051637e27328960e01b815260048101839052602401610cec565b836001600160a01b0316816001600160a01b03161461100d576040516364283d7b60e01b81526001600160a01b0380861660048301526024820184905282166044820152606401610cec565b61362f828054806020026020016040519081016040528092919081815260200182805480156132f557602002820191906000526020600020908154815260200190600101908083116132e157505050505082613a74565b613637575050565b60006136928380548060200260200160405190810160405280929190818152602001828054801561368757602002820191906000526020600020905b815481526020019060010190808311613673575b505050505083613a8a565b90506115428382613acd565b6000828152601560209081526040808320805482518185028101850190935280835291929091908301828280156136f457602002820191906000526020600020905b8154815260200190600101908083116136e0575b5050505050905060005b815181101561100d57600082828151811061371b5761371b6148e7565b602002602001015190508381146137a357600081815260126020526040812090600782015460ff166003811115613754576137546140a3565b036137a1576000868152601160205260409020600280830154600684015491830154613790926001600160a01b0391821692919091169061318e565b5060078101805460ff191660031790555b505b506001016136fe565b606060006137b983613b4f565b600101905060008167ffffffffffffffff8111156137d9576137d961453f565b6040519080825280601f01601f191660200182016040528015613803576020820181803683370190505b5090508181016020015b600019016f181899199a1a9b1b9c1cb0b131b232b360811b600a86061a8153600a850494508461380d57509392505050565b6040516001600160a01b03848116602483015283811660448301526064820183905261100d9186918216906323b872dd906084016131bb565b6000613887600083600061310d565b90506001600160a01b038116610cb157604051637e27328960e01b815260048101839052602401610cec565b80806138c757506001600160a01b03821615155b156139895760006138d784612f92565b90506001600160a01b038316158015906139035750826001600160a01b0316816001600160a01b031614155b801561391657506139148184612a48565b155b1561393f5760405163a9fbf51f60e01b81526001600160a01b0384166004820152602401610cec565b81156139875783856001600160a01b0316826001600160a01b03167f8c5be1e5ebec7d5bd14f71427d1e84f3dd0314c0f7b2291e5b200ac8c7c3b92560405160405180910390a45b505b5050600090815260046020526040902080546001600160a01b0319166001600160a01b0392909216919091179055565b6000613186848484613c27565b600080602060008451602086016000885af1806139e9576040513d6000823e3d81fd5b50506000513d91508115613a01578060011415613a0e565b6001600160a01b0384163b155b1561100d57604051635274afe760e01b81526001600160a01b0385166004820152602401610cec565b60075460ff1661139a57604051638dfc202b60e01b815260040160405180910390fd5b610cb1828260405180602001604052806000815250613d20565b60008251613a828484613a8a565b109392505050565b815160009081905b84518210156131865783858381518110613aae57613aae6148e7565b602002602001015103613ac2575080613186565b816001019150613a92565b8154811115613ada575050565b81548290613aea90600190614812565b81548110613afa57613afa6148e7565b9060005260206000200154828281548110613b1757613b176148e7565b906000526020600020018190555081805480613b3557613b35614957565b600190038181906000526020600020016000905590555050565b60008072184f03e93ff9f4daa797ed6e38ed64bf6a1f0160401b8310613b8e5772184f03e93ff9f4daa797ed6e38ed64bf6a1f0160401b830492506040015b6d04ee2d6d415b85acef81000000008310613bba576d04ee2d6d415b85acef8100000000830492506020015b662386f26fc100008310613bd857662386f26fc10000830492506010015b6305f5e1008310613bf0576305f5e100830492506008015b6127108310613c0457612710830492506004015b60648310613c16576064830492506002015b600a8310610be55760010192915050565b6000828152600260205260408120546001600160a01b0390811690831615613c5457613c54818486613d38565b6001600160a01b03811615613c9257613c716000856000806138b3565b6001600160a01b038116600090815260036020526040902080546000190190555b6001600160a01b03851615613cc1576001600160a01b0385166000908152600360205260409020805460010190555b60008481526002602052604080822080546001600160a01b0319166001600160a01b0389811691821790925591518793918516917fddf252ad1be2c89b69c2b068fc378daa952ba7f163c4a11628f55a4df523b3ef91a4949350505050565b613d2a8383613d9c565b6115423360008585856133fd565b613d43838383613e01565b611542576001600160a01b038316613d7157604051637e27328960e01b815260048101829052602401610cec565b60405163177e802f60e01b81526001600160a01b038316600482015260248101829052604401610cec565b6001600160a01b038216613dc657604051633250574960e11b815260006004820152602401610cec565b6000613dd48383600061310d565b90506001600160a01b03811615611542576040516339e3563760e11b815260006004820152602401610cec565b60006001600160a01b038316158015906131865750826001600160a01b0316846001600160a01b03161480613e3b5750613e3b8484612a48565b806131865750506000908152600460205260409020546001600160a01b03908116911614919050565b6040518061016001604052806000815260200160006001600160a01b0316815260200160006001600160a01b0316815260200160006001600160a01b031681526020016000815260200160008152602001600081526020016000815260200160006002811115613ed657613ed66140a3565b8152602001613eff60405180606001604052806000815260200160008152602001600081525090565b8152602001600081525090565b6040805160c08101825260008082526020820181905291810182905260608101829052608081018290529060a08201905b905290565b6040518060c00160405280600081526020016000815260200160006001600160a01b03168152602001613f8f60405180606001604052806000815260200160008152602001600081525090565b81526020016000815260200160006003811115613f3d57613f3d6140a3565b6001600160e01b031981168114610ddb57600080fd5b600060208284031215613fd657600080fd5b8135611af481613fae565b60005b83811015613ffc578181015183820152602001613fe4565b50506000910152565b6000815180845261401d816020860160208601613fe1565b601f01601f19169290920160200192915050565b602081526000611af46020830184614005565b60006020828403121561405657600080fd5b5035919050565b80356001600160a01b038116811461407457600080fd5b919050565b6000806040838503121561408c57600080fd5b6140958361405d565b946020939093013593505050565b634e487b7160e01b600052602160045260246000fd5b60038110610ddb57610ddb6140a3565b6140d2816140b9565b9052565b8051825260208101516140f460208401826001600160a01b03169052565b50604081015161410f60408401826001600160a01b03169052565b50606081015161412a60608401826001600160a01b03169052565b506080810151608083015260a081015160a083015260c081015160c083015260e081015160e08301526101008101516141676101008401826140c9565b506101208101516141906101208401828051825260208082015190830152604090810151910152565b5061014001516101809190910152565b6101a08101610be582846140d6565b6000806000606084860312156141c457600080fd5b6141cd8461405d565b92506141db6020850161405d565b929592945050506040919091013590565b8b81526001600160a01b038b811660208301528a81166040830152891660608201526080810188905260a0810187905260c0810186905260e081018590526101a08101614238856140b9565b610100820194909452825161012082015260208301516101408201526040909201516101608301526101809091015298975050505050505050565b600060c0820190508251825260018060a01b03602084015116602083015260018060a01b036040840151166040830152606083015160608301526080830151608083015260a08301516142c5816140b9565b8060a08401525092915050565b600080604083850312156142e557600080fd5b823591506142f56020840161405d565b90509250929050565b60008060006060848603121561431357600080fd5b505081359360208301359350604090920135919050565b600481106140d2576140d26140a3565b81518152602080830151818301526040808401516001600160a01b03168184015260608085015180519185019190915291820151608084015281015160a083015261010082019050608083015160c083015260a083015161439e60e084018261432a565b5092915050565b6101c081016143b482856140d6565b6001600160a01b03929092166101a09190910152919050565b602080825282518282018190526000918401906040840190835b818110156144055783518352602093840193909201916001016143e7565b509095945050505050565b60008060006060848603121561442557600080fd5b833592506020840135915061443c6040850161405d565b90509250925092565b60006020828403121561445757600080fd5b611af48261405d565b6000806040838503121561447357600080fd5b61447c8361405d565b91506020830135801515811461449157600080fd5b809150509250929050565b868152602081018690526001600160a01b038516604082015261010081016144db60608301868051825260208082015190830152604090810151910152565b8360c08301526144ee60e083018461432a565b979650505050505050565b8681526001600160a01b03868116602083015285166040820152606081018490526080810183905260c0810161452e836140b9565b8260a0830152979650505050505050565b634e487b7160e01b600052604160045260246000fd5b604051601f8201601f1916810167ffffffffffffffff8111828210171561457e5761457e61453f565b604052919050565b6000806000806080858703121561459c57600080fd5b6145a58561405d565b93506145b36020860161405d565b925060408501359150606085013567ffffffffffffffff8111156145d657600080fd5b8501601f810187136145e757600080fd5b803567ffffffffffffffff8111156146015761460161453f565b614614601f8201601f1916602001614555565b81815288602083850101111561462957600080fd5b8160208401602083013760006020838301015280935050505092959194509250565b81518152602080830151908201526040808301519082015260608101610be5565b6000806040838503121561467f57600080fd5b50508035926020909101359150565b60008082840360808112156146a257600080fd5b833592506060601f19820112156146b857600080fd5b506040516060810167ffffffffffffffff811182821017156146dc576146dc61453f565b604090815260208581013583528582013590830152606090940135938101939093525092909150565b6000806040838503121561471857600080fd5b6147218361405d565b91506142f56020840161405d565b600181811c9082168061474357607f821691505b60208210810361476357634e487b7160e01b600052602260045260246000fd5b50919050565b6020808252601b908201527f42696c6c207265717565737420646f6573206e6f742065786973740000000000604082015260600190565b6020808252601590820152742134b636103932b8bab2b9ba103737ba1037b832b760591b604082015260600190565b602080825260139082015272109a5b1b08191bd95cc81b9bdd08195e1a5cdd606a1b604082015260600190565b634e487b7160e01b600052601160045260246000fd5b81810381811115610be557610be56147fc565b80820180821115610be557610be56147fc565b60208082526014908201527313d999995c88191bd95cc81b9bdd08195e1a5cdd60621b604082015260600190565b600060018201614878576148786147fc565b5060010190565b60008351614891818460208801613fe1565b8351908301906148a5818360208801613fe1565b01949350505050565b8082028115828204841417610be557610be56147fc565b6000826148e257634e487b7160e01b600052601260045260246000fd5b500490565b634e487b7160e01b600052603260045260246000fd5b6001600160a01b038581168252841660208201526040810183905260806060820181905260009061493090830184614005565b9695505050505050565b60006020828403121561494c57600080fd5b8151611af481613fae565b634e487b7160e01b600052603160045260246000fdfea264697066735822122049b81be27704edc931460a2687f5a39c8e907cc31ba045952f2995d39716085864736f6c634300081c0033",
  "linkReferences": {},
  "deployedLinkReferences": {}
}